{
	"data": {
		"bytecode": {
			"linkReferences": {},
			"object": "608060405234801561001057600080fd5b506199a5806100206000396000f3fe60806040523480156200001157600080fd5b50600436106200006a5760003560e01c80631150bb1b146200006f57806344bb1494146200009e5780634f93ea4b14620000b75780636cb7464814620000d0578063870c759114620000e9578063b275ad471462000100575b600080fd5b620000866200008036600462000dd5565b62000126565b604051620000959190620010c6565b60405180910390f35b620000a8620002c1565b60405162000095919062000f0c565b620000ce620000c836600462000cc6565b6200050b565b005b620000da6200060b565b60405162000095919062000f70565b620000ce620000fa36600462000d3f565b62000839565b620001176200011136600462000dd5565b62000968565b604051620000959190620010e2565b6200013062000ae9565b600260008381526020019081526020016000206040518060c0016040529081600082015481526020016001820180546200016a90620010f7565b80601f01602080910402602001604051908101604052809291908181526020018280546200019890620010f7565b8015620001e95780601f10620001bd57610100808354040283529160200191620001e9565b820191906000526020600020905b815481529060010190602001808311620001cb57829003601f168201915b505050505081526020016002820180546200020490620010f7565b80601f01602080910402602001604051908101604052809291908181526020018280546200023290620010f7565b8015620002835780601f10620002575761010080835404028352916020019162000283565b820191906000526020600020905b8154815290600101906020018083116200026557829003601f168201915b50505091835250506003820154602082015260048201546001600160a01b03908116604083015260059092015490911660609091015290505b919050565b60606000546001600160401b03811115620002ec57634e487b7160e01b600052604160045260246000fd5b6040519080825280602002602001820160405280156200032957816020015b6200031562000ae9565b8152602001906001900390816200030b5790505b50905060005b6000548110156200050757600260008281526020019081526020016000206040518060c0016040529081600082015481526020016001820180546200037490620010f7565b80601f0160208091040260200160405190810160405280929190818152602001828054620003a290620010f7565b8015620003f35780601f10620003c757610100808354040283529160200191620003f3565b820191906000526020600020905b815481529060010190602001808311620003d557829003601f168201915b505050505081526020016002820180546200040e90620010f7565b80601f01602080910402602001604051908101604052809291908181526020018280546200043c90620010f7565b80156200048d5780601f1062000461576101008083540402835291602001916200048d565b820191906000526020600020905b8154815290600101906020018083116200046f57829003601f168201915b50505091835250506003820154602082015260048201546001600160a01b0390811660408301526005909201549091166060909101528251839083908110620004e657634e487b7160e01b600052603260045260246000fd5b60200260200101819052508080620004fe9062001134565b9150506200032f565b5090565b60018054600091826200051e8362001134565b909155506000818152600360209081526040909120828155865192935091620005509160018401919088019062000b31565b50835162000568906002830190602087019062000b31565b508484846040516200057a9062000bbc565b620005889392919062000ff9565b604051809103906000f080158015620005a5573d6000803e3d6000fd5b506003820180546001600160a01b0319166001600160a01b03929092169190911790556040517f4f85e988973296bda91fe050bbbf23b67d4eeebcce1e8eddd38d4d7ace3a016f90620005fc908790879062000fc7565b60405180910390a15050505050565b60606001546001600160401b038111156200063657634e487b7160e01b600052604160045260246000fd5b6040519080825280602002602001820160405280156200067357816020015b6200065f62000bca565b815260200190600190039081620006555790505b50905060005b60015481101562000507576003600082815260200190815260200160002060405180608001604052908160008201548152602001600182018054620006be90620010f7565b80601f0160208091040260200160405190810160405280929190818152602001828054620006ec90620010f7565b80156200073d5780601f1062000711576101008083540402835291602001916200073d565b820191906000526020600020905b8154815290600101906020018083116200071f57829003601f168201915b505050505081526020016002820180546200075890620010f7565b80601f01602080910402602001604051908101604052809291908181526020018280546200078690620010f7565b8015620007d75780601f10620007ab57610100808354040283529160200191620007d7565b820191906000526020600020905b815481529060010190602001808311620007b957829003601f168201915b5050509183525050600391909101546001600160a01b031660209091015282518390839081106200081857634e487b7160e01b600052603260045260246000fd5b60200260200101819052508080620008309062001134565b91505062000679565b6000805481806200084a8362001134565b9091555060008181526002602090815260409091208281558851929350916200087c916001840191908a019062000b31565b50855162000894906002830190602089019062000b31565b50600381018590556004810180546001600160a01b0319166001600160a01b03861617905560405187908790879087908790620008d19062000bfb565b620008e195949392919062001075565b604051809103906000f080158015620008fe573d6000803e3d6000fd5b506005820180546001600160a01b0319166001600160a01b03929092169190911790556040517f86780798b5d4c67fb5590c3ae42181ad5b3e93744b57e4351b0b43b846b301229062000957908990899089906200103b565b60405180910390a150505050505050565b6200097262000bca565b6003600083815260200190815260200160002060405180608001604052908160008201548152602001600182018054620009ac90620010f7565b80601f0160208091040260200160405190810160405280929190818152602001828054620009da90620010f7565b801562000a2b5780601f10620009ff5761010080835404028352916020019162000a2b565b820191906000526020600020905b81548152906001019060200180831162000a0d57829003601f168201915b5050505050815260200160028201805462000a4690620010f7565b80601f016020809104026020016040519081016040528092919081815260200182805462000a7490620010f7565b801562000ac55780601f1062000a995761010080835404028352916020019162000ac5565b820191906000526020600020905b81548152906001019060200180831162000aa757829003601f168201915b5050509183525050600391909101546001600160a01b031660209091015292915050565b6040518060c001604052806000815260200160608152602001606081526020016000815260200160006001600160a01b0316815260200160006001600160a01b031681525090565b82805462000b3f90620010f7565b90600052602060002090601f01602090048101928262000b63576000855562000bae565b82601f1062000b7e57805160ff191683800117855562000bae565b8280016001018555821562000bae579182015b8281111562000bae57825182559160200191906001019062000b91565b506200050792915062000c09565b6135f6806200117383390190565b604051806080016040528060008152602001606081526020016060815260200160006001600160a01b031681525090565b615207806200476983390190565b5b8082111562000507576000815560010162000c0a565b80356001600160a01b0381168114620002bc57600080fd5b600082601f83011262000c49578081fd5b81356001600160401b038082111562000c665762000c666200115c565b604051601f8301601f19908116603f0116810190828211818310171562000c915762000c916200115c565b8160405283815286602085880101111562000caa578485fd5b8360208701602083013792830160200193909352509392505050565b60008060006060848603121562000cdb578283fd5b83356001600160401b038082111562000cf2578485fd5b62000d008783880162000c38565b9450602086013591508082111562000d16578384fd5b5062000d258682870162000c38565b92505062000d366040850162000c20565b90509250925092565b600080600080600060a0868803121562000d57578081fd5b85356001600160401b038082111562000d6e578283fd5b62000d7c89838a0162000c38565b9650602088013591508082111562000d92578283fd5b5062000da18882890162000c38565b9450506040860135925062000db96060870162000c20565b915062000dc96080870162000c20565b90509295509295909350565b60006020828403121562000de7578081fd5b5035919050565b60008151808452815b8181101562000e155760208185018101518683018201520162000df7565b8181111562000e275782602083870101525b50601f01601f19169290920160200192915050565b600081518352602082015160c0602085015262000e5d60c085018262000dee565b90506040830151848203604086015262000e78828262000dee565b606085810151908701526080808601516001600160a01b039081169188019190915260a095860151169490950193909352509192915050565b60008151835260208201516080602085015262000ed2608085018262000dee565b90506040830151848203604086015262000eed828262000dee565b6060948501516001600160a01b03169590940194909452509092915050565b6000602080830181845280855180835260408601915060408482028701019250838701855b8281101562000f6357603f1988860301845262000f5085835162000e3c565b9450928501929085019060010162000f31565b5092979650505050505050565b6000602080830181845280855180835260408601915060408482028701019250838701855b8281101562000f6357603f1988860301845262000fb485835162000eb1565b9450928501929085019060010162000f95565b60006040825262000fdc604083018562000dee565b828103602084015262000ff0818562000dee565b95945050505050565b6000606082526200100e606083018662000dee565b828103602084015262001022818662000dee565b91505060018060a01b0383166040830152949350505050565b60006060825262001050606083018662000dee565b828103602084015262001064818662000dee565b915050826040830152949350505050565b600060a082526200108a60a083018862000dee565b82810360208401526200109e818862000dee565b604084019690965250506001600160a01b039283166060820152911660809091015292915050565b600060208252620010db602083018462000e3c565b9392505050565b600060208252620010db602083018462000eb1565b6002810460018216806200110c57607f821691505b602082108114156200112e57634e487b7160e01b600052602260045260246000fd5b50919050565b60006000198214156200115557634e487b7160e01b81526011600452602481fd5b5060010190565b634e487b7160e01b600052604160045260246000fdfe60a06040523480156200001157600080fd5b50604051620035f6380380620035f6833981016040819052620000349162000236565b828282808062000044336200008d565b60601b6001600160601b031916608052505081516200006b906009906020850190620000dd565b5080516200008190600a906020840190620000dd565b50505050505062000312565b600080546001600160a01b038381166001600160a01b0319831681178455604051919092169283917f8be0079c531659141344cd1fd0a4f28419497f9722a3daafe3b4186f6b6457e09190a35050565b828054620000eb90620002bf565b90600052602060002090601f0160209004810192826200010f57600085556200015a565b82601f106200012a57805160ff19168380011785556200015a565b828001600101855582156200015a579182015b828111156200015a5782518255916020019190600101906200013d565b50620001689291506200016c565b5090565b5b808211156200016857600081556001016200016d565b600082601f83011262000194578081fd5b81516001600160401b0380821115620001b157620001b1620002fc565b604051601f8301601f19908116603f01168101908282118183101715620001dc57620001dc620002fc565b81604052838152602092508683858801011115620001f8578485fd5b8491505b838210156200021b5785820183015181830184015290820190620001fc565b838211156200022c57848385830101525b9695505050505050565b6000806000606084860312156200024b578283fd5b83516001600160401b038082111562000262578485fd5b620002708783880162000183565b9450602086015191508082111562000286578384fd5b50620002958682870162000183565b604086015190935090506001600160a01b0381168114620002b4578182fd5b809150509250925092565b600281046001821680620002d457607f821691505b60208210811415620002f657634e487b7160e01b600052602260045260246000fd5b50919050565b634e487b7160e01b600052604160045260246000fd5b60805160601c61328d620003696000396000818161060e0152818161077301528181610a9401528181610b3501528181610bd301528181610d7f015281816112d30152818161177e01526121c0015261328d6000f3fe6080604052600436106101e05760003560e01c80621d3567146101e557806301ffc9a71461020757806306fdde031461023c57806307e0db171461025e578063095ea7b31461027e57806310ddb1371461029e57806318160ddd146102be57806323b872dd146102dd5780632a205e3d146102fd578063313ce56714610332578063395093511461034e5780633d8b38f61461036e57806342d65a8d1461038e57806344770515146103ae5780634c42899a146103c357806351905636146103eb5780635b8c41e6146103fe57806366ad5c8a1461044d57806370a082311461046d578063715018a6146104a35780637533d788146104b85780638cfd8f5c146104d85780638da5cb5b146105105780639358928b14610532578063950c8a741461054757806395d89b41146105675780639f38369a1461057c578063a457c2d71461059c578063a6c3d165146105bc578063a9059cbb146105dc578063b353aaa7146105fc578063baf3292d14610630578063cbed8b9c14610650578063d1deba1f14610670578063dd62ed3e14610683578063df2a5b3b146106a3578063eab45d9c146106c3578063eb8d72b7146106e3578063ed629c5c14610703578063f2fde38b1461071d578063f5ecbdbc1461073d578063fc0c546a1461075d575b600080fd5b3480156101f157600080fd5b50610205610200366004612b11565b610770565b005b34801561021357600080fd5b506102276102223660046129ad565b6109a1565b60405190151581526020015b60405180910390f35b34801561024857600080fd5b506102516109e1565b6040516102339190612e8a565b34801561026a57600080fd5b50610205610279366004612a07565b610a73565b34801561028a57600080fd5b50610227610299366004612968565b610afc565b3480156102aa57600080fd5b506102056102b9366004612a07565b610b14565b3480156102ca57600080fd5b506008545b604051908152602001610233565b3480156102e957600080fd5b506102276102f8366004612862565b610b6c565b34801561030957600080fd5b5061031d610318366004612a75565b610b90565b60408051928352602083019190915201610233565b34801561033e57600080fd5b5060405160128152602001610233565b34801561035a57600080fd5b50610227610369366004612968565b610c72565b34801561037a57600080fd5b50610227610389366004612a23565b610c94565b34801561039a57600080fd5b506102056103a9366004612a23565b610d60565b3480156103ba57600080fd5b506102cf600081565b3480156103cf57600080fd5b506103d8600081565b60405161ffff9091168152602001610233565b6102056103f93660046128a2565b610de6565b34801561040a57600080fd5b506102cf610419366004612bfa565b6004602090815260009384526040808520845180860184018051928152908401958401959095209452929052825290205481565b34801561045957600080fd5b50610205610468366004612b11565b610e6b565b34801561047957600080fd5b506102cf61048836600461280e565b6001600160a01b031660009081526006602052604090205490565b3480156104af57600080fd5b50610205610f47565b3480156104c457600080fd5b506102516104d3366004612a07565b610f5b565b3480156104e457600080fd5b506102cf6104f3366004612c91565b600260209081526000928352604080842090915290825290205481565b34801561051c57600080fd5b50610525610ff5565b6040516102339190612e76565b34801561053e57600080fd5b506102cf611004565b34801561055357600080fd5b50600354610525906001600160a01b031681565b34801561057357600080fd5b50610251611014565b34801561058857600080fd5b50610251610597366004612a07565b611023565b3480156105a857600080fd5b506102276105b7366004612968565b61113a565b3480156105c857600080fd5b506102056105d7366004612a23565b6111b5565b3480156105e857600080fd5b506102276105f7366004612968565b611248565b34801561060857600080fd5b506105257f000000000000000000000000000000000000000000000000000000000000000081565b34801561063c57600080fd5b5061020561064b36600461280e565b611256565b34801561065c57600080fd5b5061020561066b366004612d3d565b6112b4565b61020561067e366004612b11565b61133e565b34801561068f57600080fd5b506102cf61069e36600461282a565b611554565b3480156106af57600080fd5b506102056106be366004612d0e565b61157f565b3480156106cf57600080fd5b506102056106de366004612993565b611631565b3480156106ef57600080fd5b506102056106fe366004612a23565b61167a565b34801561070f57600080fd5b506005546102279060ff1681565b34801561072957600080fd5b5061020561073836600461280e565b6116d4565b34801561074957600080fd5b50610251610758366004612cbe565b61174d565b34801561076957600080fd5b5030610525565b337f00000000000000000000000000000000000000000000000000000000000000006001600160a01b0316146107ed5760405162461bcd60e51b815260206004820152601e60248201527f4c7a4170703a20696e76616c696420656e64706f696e742063616c6c6572000060448201526064015b60405180910390fd5b61ffff86166000908152600160205260408120805461080b906131ab565b80601f0160208091040260200160405190810160405280929190818152602001828054610837906131ab565b80156108845780601f1061085957610100808354040283529160200191610884565b820191906000526020600020905b81548152906001019060200180831161086757829003601f168201915b5050505050905080518686905014801561089f575060008151115b80156108c75750805160208201206040516108bd9088908890612e26565b6040518091039020145b6109225760405162461bcd60e51b815260206004820152602660248201527f4c7a4170703a20696e76616c696420736f757263652073656e64696e6720636f6044820152651b9d1c9858dd60d21b60648201526084016107e4565b6109988787878080601f01602080910402602001604051908101604052809392919081815260200183838082843760009201919091525050604080516020601f8a018190048102820181019092528881528a93509150889088908190840183828082843760009201919091525061180d92505050565b50505050505050565b60006001600160e01b0319821615806109ca57506001600160e01b031982166336372b0760e01b145b806109d957506109d982611886565b90505b919050565b6060600980546109f0906131ab565b80601f0160208091040260200160405190810160405280929190818152602001828054610a1c906131ab565b8015610a695780601f10610a3e57610100808354040283529160200191610a69565b820191906000526020600020905b815481529060010190602001808311610a4c57829003601f168201915b5050505050905090565b610a7b6118bb565b6040516307e0db1760e01b815261ffff821660048201527f00000000000000000000000000000000000000000000000000000000000000006001600160a01b0316906307e0db17906024015b600060405180830381600087803b158015610ae157600080fd5b505af1158015610af5573d6000803e3d6000fd5b5050505050565b600033610b0a81858561191a565b5060019392505050565b610b1c6118bb565b6040516310ddb13760e01b815261ffff821660048201527f00000000000000000000000000000000000000000000000000000000000000006001600160a01b0316906310ddb13790602401610ac7565b600033610b7a858285611a3e565b610b85858585611ab8565b506001949350505050565b600080600080898989604051602001610bac9493929190612f33565b60408051601f198184030181529082905263040a7bb160e41b825291506001600160a01b037f000000000000000000000000000000000000000000000000000000000000000016906340a7bb1090610c12908d90309086908c908c908c90600401612ebf565b604080518083038186803b158015610c2957600080fd5b505afa158015610c3d573d6000803e3d6000fd5b505050506040513d601f19601f82011682018060405250810190610c619190612dad565b925092505097509795505050505050565b600033610b0a818585610c858383611554565b610c8f9190613150565b61191a565b61ffff831660009081526001602052604081208054829190610cb5906131ab565b80601f0160208091040260200160405190810160405280929190818152602001828054610ce1906131ab565b8015610d2e5780601f10610d0357610100808354040283529160200191610d2e565b820191906000526020600020905b815481529060010190602001808311610d1157829003601f168201915b505050505090508383604051610d45929190612e26565b60405180910390208180519060200120149150509392505050565b610d686118bb565b6040516342d65a8d60e01b81526001600160a01b037f000000000000000000000000000000000000000000000000000000000000000016906342d65a8d90610db890869086908690600401612f15565b600060405180830381600087803b158015610dd257600080fd5b505af1158015610998573d6000803e3d6000fd5b610e60898989898080601f01602080910402602001604051908101604052809392919081815260200183838082843760009201919091525050604080516020601f8a018190048102820181019092528881528c93508b92508a918a908a9081908401838280828437600092019190915250611c5192505050565b505050505050505050565b333014610ec95760405162461bcd60e51b815260206004820152602660248201527f4e6f6e626c6f636b696e674c7a4170703a2063616c6c6572206d7573742062656044820152650204c7a4170760d41b60648201526084016107e4565b610f3f8686868080601f01602080910402602001604051908101604052809392919081815260200183838082843760009201919091525050604080516020601f890181900481028201810190925287815289935091508790879081908401838280828437600092019190915250611cf892505050565b505050505050565b610f4f6118bb565b610f596000611d5e565b565b60016020526000908152604090208054610f74906131ab565b80601f0160208091040260200160405190810160405280929190818152602001828054610fa0906131ab565b8015610fed5780601f10610fc257610100808354040283529160200191610fed565b820191906000526020600020905b815481529060010190602001808311610fd057829003601f168201915b505050505081565b6000546001600160a01b031690565b600061100f60085490565b905090565b6060600a80546109f0906131ab565b61ffff8116600090815260016020526040812080546060929190611046906131ab565b80601f0160208091040260200160405190810160405280929190818152602001828054611072906131ab565b80156110bf5780601f10611094576101008083540402835291602001916110bf565b820191906000526020600020905b8154815290600101906020018083116110a257829003601f168201915b505050505090508051600014156111185760405162461bcd60e51b815260206004820152601d60248201527f4c7a4170703a206e6f20747275737465642070617468207265636f726400000060448201526064016107e4565b61113360006014835161112b9190613168565b839190611dae565b9392505050565b600033816111488286611554565b9050838110156111a85760405162461bcd60e51b815260206004820152602560248201527f45524332303a2064656372656173656420616c6c6f77616e63652062656c6f77604482015264207a65726f60d81b60648201526084016107e4565b610b85828686840361191a565b6111bd6118bb565b8181306040516020016111d293929190612e36565b60408051601f1981840301815291815261ffff8516600090815260016020908152919020825161120793919290910190612644565b507f8c0400cfe2d1199b1a725c78960bcc2a344d869b80590d0f2bd005db15a572ce83838360405161123b93929190612f15565b60405180910390a1505050565b600033610b0a818585611ab8565b61125e6118bb565b600380546001600160a01b0319166001600160a01b0383161790556040517f5db758e995a17ec1ad84bdef7e8c3293a0bd6179bcce400dff5d4c3d87db726b906112a9908390612e76565b60405180910390a150565b6112bc6118bb565b6040516332fb62e760e21b81526001600160a01b037f0000000000000000000000000000000000000000000000000000000000000000169063cbed8b9c9061131090889088908890889088906004016130cb565b600060405180830381600087803b15801561132a57600080fd5b505af1158015610e60573d6000803e3d6000fd5b61ffff861660009081526004602052604080822090516113619088908890612e26565b90815260408051602092819003830190206001600160401b038716600090815292529020549050806113e15760405162461bcd60e51b815260206004820152602360248201527f4e6f6e626c6f636b696e674c7a4170703a206e6f2073746f726564206d65737360448201526261676560e81b60648201526084016107e4565b8083836040516113f2929190612e26565b6040518091039020146114515760405162461bcd60e51b815260206004820152602160248201527f4e6f6e626c6f636b696e674c7a4170703a20696e76616c6964207061796c6f616044820152601960fa1b60648201526084016107e4565b61ffff871660009081526004602052604080822090516114749089908990612e26565b90815260408051602092819003830181206001600160401b038916600090815290845282902093909355601f8801829004820283018201905286825261150c918991899089908190840183828082843760009201919091525050604080516020601f8a018190048102820181019092528881528a935091508890889081908401838280828437600092019190915250611cf892505050565b7fc264d91f3adc5588250e1551f547752ca0cfa8f6b530d243b9f9f4cab10ea8e58787878785604051611543959493929190612f62565b60405180910390a150505050505050565b6001600160a01b03918216600090815260076020908152604080832093909416825291909152205490565b6115876118bb565b600081116115cf5760405162461bcd60e51b81526020600482015260156024820152744c7a4170703a20696e76616c6964206d696e47617360581b60448201526064016107e4565b61ffff83811660008181526002602090815260408083209487168084529482529182902085905581519283528201929092529081018290527f9d5c7c0b934da8fefa9c7760c98383778a12dfbfc0c3b3106518f43fb9508ac09060600161123b565b6116396118bb565b6005805460ff19168215159081179091556040519081527f1584ad594a70cbe1e6515592e1272a987d922b097ead875069cebe8b40c004a4906020016112a9565b6116826118bb565b61ffff831660009081526001602052604090206116a09083836126c8565b507ffa41487ad5d6728f0b19276fa1eddc16558578f5109fc39d2dc33c3230470dab83838360405161123b93929190612f15565b6116dc6118bb565b6001600160a01b0381166117415760405162461bcd60e51b815260206004820152602660248201527f4f776e61626c653a206e6577206f776e657220697320746865207a65726f206160448201526564647265737360d01b60648201526084016107e4565b61174a81611d5e565b50565b604051633d7b2f6f60e21b815261ffff808616600483015284166024820152306044820152606481018290526060907f00000000000000000000000000000000000000000000000000000000000000006001600160a01b03169063f5ecbdbc9060840160006040518083038186803b1580156117c857600080fd5b505afa1580156117dc573d6000803e3d6000fd5b505050506040513d6000823e601f3d908101601f1916820160405261180491908101906129d5565b95945050505050565b6000806118705a60966366ad5c8a60e01b898989896040516024016118359493929190613024565b60408051601f198184030181529190526020810180516001600160e01b03166001600160e01b03199093169290921790915230929190611ebb565b9150915081610f3f57610f3f8686868685611f53565b60006001600160e01b03198216630a72677560e11b14806109d957506301ffc9a760e01b6001600160e01b03198316146109d9565b336118c4610ff5565b6001600160a01b031614610f595760405162461bcd60e51b815260206004820181905260248201527f4f776e61626c653a2063616c6c6572206973206e6f7420746865206f776e657260448201526064016107e4565b6001600160a01b03831661197c5760405162461bcd60e51b8152602060048201526024808201527f45524332303a20617070726f76652066726f6d20746865207a65726f206164646044820152637265737360e01b60648201526084016107e4565b6001600160a01b0382166119dd5760405162461bcd60e51b815260206004820152602260248201527f45524332303a20617070726f766520746f20746865207a65726f206164647265604482015261737360f01b60648201526084016107e4565b6001600160a01b0383811660008181526007602090815260408083209487168084529482529182902085905590518481527f8c5be1e5ebec7d5bd14f71427d1e84f3dd0314c0f7b2291e5b200ac8c7c3b925910160405180910390a3505050565b6000611a4a8484611554565b90506000198114611ab25781811015611aa55760405162461bcd60e51b815260206004820152601d60248201527f45524332303a20696e73756666696369656e7420616c6c6f77616e636500000060448201526064016107e4565b611ab2848484840361191a565b50505050565b6001600160a01b038316611b1c5760405162461bcd60e51b815260206004820152602560248201527f45524332303a207472616e736665722066726f6d20746865207a65726f206164604482015264647265737360d81b60648201526084016107e4565b6001600160a01b038216611b7e5760405162461bcd60e51b815260206004820152602360248201527f45524332303a207472616e7366657220746f20746865207a65726f206164647260448201526265737360e81b60648201526084016107e4565b6001600160a01b03831660009081526006602052604090205481811015611bf65760405162461bcd60e51b815260206004820152602660248201527f45524332303a207472616e7366657220616d6f756e7420657863656564732062604482015265616c616e636560d01b60648201526084016107e4565b6001600160a01b03808516600081815260066020526040808220868603905592861680825290839020805486019055915160008051602061323883398151915290611c449086815260200190565b60405180910390a3611ab2565b611c5f866000836000611ff5565b6000611c6d8888888861206f565b90506000808783604051602001611c8693929190612ff7565b6040516020818303038152906040529050611ca58882878787346120a1565b886001600160a01b03168861ffff167f39a4c66499bcf4b56d79f0dde8ed7a9d4925a0df55825206b2b8531e202be0d08985604051611ce5929190612e9d565b60405180910390a3505050505050505050565b602081015161ffff8116611d1757611d128585858561223c565b610af5565b60405162461bcd60e51b815260206004820152601c60248201527b4f4654436f72653a20756e6b6e6f776e207061636b6574207479706560201b60448201526064016107e4565b600080546001600160a01b038381166001600160a01b0319831681178455604051919092169283917f8be0079c531659141344cd1fd0a4f28419497f9722a3daafe3b4186f6b6457e09190a35050565b606081611dbc81601f613150565b1015611dfb5760405162461bcd60e51b815260206004820152600e60248201526d736c6963655f6f766572666c6f7760901b60448201526064016107e4565b611e058284613150565b84511015611e495760405162461bcd60e51b8152602060048201526011602482015270736c6963655f6f75744f66426f756e647360781b60448201526064016107e4565b606082158015611e685760405191506000825260208201604052611eb2565b6040519150601f8416801560200281840101858101878315602002848b0101015b81831015611ea1578051835260209283019201611e89565b5050858452601f01601f1916604052505b50949350505050565b6000606060008060008661ffff166001600160401b03811115611eee57634e487b7160e01b600052604160045260246000fd5b6040519080825280601f01601f191660200182016040528015611f18576020820181803683370190505b50905060008087516020890160008d8df191503d925086831115611f3a578692505b828152826000602083013e909890975095505050505050565b8180519060200120600460008761ffff1661ffff16815260200190815260200160002085604051611f849190612e5a565b9081526040805191829003602090810183206001600160401b0388166000908152915220919091557fe183f33de2837795525b4792ca4cd60535bd77c53b7e7030060bfcf5734d6b0c90611fe1908790879087908790879061306d565b60405180910390a15050505050565b505050565b60055460ff16156120115761200c848484846122c6565b611ab2565b815115611ab25760405162461bcd60e51b815260206004820152602660248201527f4f4654436f72653a205f61646170746572506172616d73206d7573742062652060448201526532b6b83a3c9760d11b60648201526084016107e4565b6000336001600160a01b038616811461208d5761208d868285611a3e565b61209786846123a0565b5090949350505050565b61ffff8616600090815260016020526040812080546120bf906131ab565b80601f01602080910402602001604051908101604052809291908181526020018280546120eb906131ab565b80156121385780601f1061210d57610100808354040283529160200191612138565b820191906000526020600020905b81548152906001019060200180831161211b57829003601f168201915b505050505090508051600014156121aa5760405162461bcd60e51b815260206004820152603060248201527f4c7a4170703a2064657374696e6174696f6e20636861696e206973206e6f742060448201526f61207472757374656420736f7572636560801b60648201526084016107e4565b60405162c5803160e81b81526001600160a01b037f0000000000000000000000000000000000000000000000000000000000000000169063c5803100908490612201908b9086908c908c908c908c90600401612f9d565b6000604051808303818588803b15801561221a57600080fd5b505af115801561222e573d6000803e3d6000fd5b505050505050505050505050565b600080828060200190518101906122539190612ba3565b90935091506000905061226683826124c2565b9050612273878284612527565b9150806001600160a01b03168761ffff167fbf551ec93859b170f9b2141bd9298bf3f64322c6f7beb2543a0cb669834118bf846040516122b591815260200190565b60405180910390a350505050505050565b60006122d18361253a565b61ffff808716600090815260026020908152604080832093891683529290529081205491925090612303908490613150565b9050600081116123525760405162461bcd60e51b815260206004820152601a602482015279131e905c1c0e881b5a5b91d85cd31a5b5a5d081b9bdd081cd95d60321b60448201526064016107e4565b80821015610f3f5760405162461bcd60e51b815260206004820152601b60248201527a4c7a4170703a20676173206c696d697420697320746f6f206c6f7760281b60448201526064016107e4565b6001600160a01b0382166124005760405162461bcd60e51b815260206004820152602160248201527f45524332303a206275726e2066726f6d20746865207a65726f206164647265736044820152607360f81b60648201526084016107e4565b6001600160a01b038216600090815260066020526040902054818110156124745760405162461bcd60e51b815260206004820152602260248201527f45524332303a206275726e20616d6f756e7420657863656564732062616c616e604482015261636560f01b60648201526084016107e4565b6001600160a01b0383166000818152600660209081526040808320868603905560088054879003905551858152919291600080516020613238833981519152910160405180910390a3611ff0565b60006124cf826014613150565b835110156125175760405162461bcd60e51b8152602060048201526015602482015274746f416464726573735f6f75744f66426f756e647360581b60448201526064016107e4565b500160200151600160601b900490565b60006125338383612595565b5092915050565b600060228251101561258d5760405162461bcd60e51b815260206004820152601c60248201527b4c7a4170703a20696e76616c69642061646170746572506172616d7360201b60448201526064016107e4565b506022015190565b6001600160a01b0382166125eb5760405162461bcd60e51b815260206004820152601f60248201527f45524332303a206d696e7420746f20746865207a65726f20616464726573730060448201526064016107e4565b80600860008282546125fd9190613150565b90915550506001600160a01b038216600081815260066020908152604080832080548601905551848152600080516020613238833981519152910160405180910390a35050565b828054612650906131ab565b90600052602060002090601f01602090048101928261267257600085556126b8565b82601f1061268b57805160ff19168380011785556126b8565b828001600101855582156126b8579182015b828111156126b857825182559160200191906001019061269d565b506126c492915061273c565b5090565b8280546126d4906131ab565b90600052602060002090601f0160209004810192826126f657600085556126b8565b82601f1061270f5782800160ff198235161785556126b8565b828001600101855582156126b8579182015b828111156126b8578235825591602001919060010190612721565b5b808211156126c4576000815560010161273d565b803580151581146109dc57600080fd5b60008083601f840112612772578182fd5b5081356001600160401b03811115612788578182fd5b6020830191508360208285010111156127a057600080fd5b9250929050565b600082601f8301126127b7578081fd5b81516127ca6127c582613129565b6130f9565b8181528460208386010111156127de578283fd5b6127ef82602083016020870161317f565b949350505050565b80356001600160401b03811681146109dc57600080fd5b60006020828403121561281f578081fd5b813561113381613212565b6000806040838503121561283c578081fd5b823561284781613212565b9150602083013561285781613212565b809150509250929050565b600080600060608486031215612876578081fd5b833561288181613212565b9250602084013561289181613212565b929592945050506040919091013590565b600080600080600080600080600060e08a8c0312156128bf578485fd5b89356128ca81613212565b985060208a01356128da81613227565b975060408a01356001600160401b03808211156128f5578687fd5b6129018d838e01612761565b909950975060608c0135965060808c0135915061291d82613212565b90945060a08b01359061292f82613212565b90935060c08b01359080821115612944578384fd5b506129518c828d01612761565b915080935050809150509295985092959850929598565b6000806040838503121561297a578182fd5b823561298581613212565b946020939093013593505050565b6000602082840312156129a4578081fd5b61113382612751565b6000602082840312156129be578081fd5b81356001600160e01b031981168114611133578182fd5b6000602082840312156129e6578081fd5b81516001600160401b038111156129fb578182fd5b6127ef848285016127a7565b600060208284031215612a18578081fd5b813561113381613227565b600080600060408486031215612a37578283fd5b8335612a4281613227565b925060208401356001600160401b03811115612a5c578283fd5b612a6886828701612761565b9497909650939450505050565b600080600080600080600060a0888a031215612a8f578081fd5b8735612a9a81613227565b965060208801356001600160401b0380821115612ab5578283fd5b612ac18b838c01612761565b909850965060408a01359550869150612adc60608b01612751565b945060808a0135915080821115612af1578283fd5b50612afe8a828b01612761565b989b979a50959850939692959293505050565b60008060008060008060808789031215612b29578384fd5b8635612b3481613227565b955060208701356001600160401b0380821115612b4f578586fd5b612b5b8a838b01612761565b9097509550859150612b6f60408a016127f7565b94506060890135915080821115612b84578384fd5b50612b9189828a01612761565b979a9699509497509295939492505050565b600080600060608486031215612bb7578081fd5b8351612bc281613227565b60208501519093506001600160401b03811115612bdd578182fd5b612be9868287016127a7565b925050604084015190509250925092565b600080600060608486031215612c0e578081fd5b8335612c1981613227565b925060208401356001600160401b03811115612c33578182fd5b8401601f81018613612c43578182fd5b8035612c516127c582613129565b818152876020838501011115612c65578384fd5b816020840160208301379081016020018390529250612c889050604085016127f7565b90509250925092565b60008060408385031215612ca3578182fd5b8235612cae81613227565b9150602083013561285781613227565b60008060008060808587031215612cd3578182fd5b8435612cde81613227565b93506020850135612cee81613227565b92506040850135612cfe81613212565b9396929550929360600135925050565b600080600060608486031215612d22578081fd5b8335612d2d81613227565b9250602084013561289181613227565b600080600080600060808688031215612d54578283fd5b8535612d5f81613227565b94506020860135612d6f81613227565b93506040860135925060608601356001600160401b03811115612d90578182fd5b612d9c88828901612761565b969995985093965092949392505050565b60008060408385031215612dbf578182fd5b505080516020909101519092909150565b60008284528282602086013780602084860101526020601f19601f85011685010190509392505050565b60008151808452612e1281602086016020860161317f565b601f01601f19169290920160200192915050565b6000828483379101908152919050565b6000838583375060609190911b6001600160601b0319169101908152601401919050565b60008251612e6c81846020870161317f565b9190910192915050565b6001600160a01b0391909116815260200190565b6000602082526111336020830184612dfa565b600060408252612eb06040830185612dfa565b90508260208301529392505050565b61ffff871681526001600160a01b038616602082015260a060408201819052600090612eed90830187612dfa565b85151560608401528281036080840152612f08818587612dd0565b9998505050505050505050565b600061ffff8516825260406020830152611804604083018486612dd0565b600061ffff8616825260606020830152612f51606083018587612dd0565b905082604083015295945050505050565b600061ffff8716825260806020830152612f80608083018688612dd0565b6001600160401b0394909416604083015250606001529392505050565b600061ffff8816825260c06020830152612fba60c0830188612dfa565b8281036040840152612fcc8188612dfa565b6001600160a01b0387811660608601528616608085015283810360a08501529050612f088185612dfa565b600061ffff85168252606060208301526130146060830185612dfa565b9050826040830152949350505050565b600061ffff86168252608060208301526130416080830186612dfa565b6001600160401b038516604084015282810360608401526130628185612dfa565b979650505050505050565b600061ffff8716825260a0602083015261308a60a0830187612dfa565b6001600160401b038616604084015282810360608401526130ab8186612dfa565b905082810360808401526130bf8185612dfa565b98975050505050505050565b600061ffff808816835280871660208401525084604083015260806060830152613062608083018486612dd0565b604051601f8201601f191681016001600160401b0381118282101715613121576131216131fc565b604052919050565b60006001600160401b03821115613142576131426131fc565b50601f01601f191660200190565b60008219821115613163576131636131e6565b500190565b60008282101561317a5761317a6131e6565b500390565b60005b8381101561319a578181015183820152602001613182565b83811115611ab25750506000910152565b6002810460018216806131bf57607f821691505b602082108114156131e057634e487b7160e01b600052602260045260246000fd5b50919050565b634e487b7160e01b600052601160045260246000fd5b634e487b7160e01b600052604160045260246000fd5b6001600160a01b038116811461174a57600080fd5b61ffff8116811461174a57600080fdfeddf252ad1be2c89b69c2b068fc378daa952ba7f163c4a11628f55a4df523b3efa26469706673582212204ded4e84c6232b8509f04b402fcff520e0a76bcf8471470f13f94bb1ef57776f64736f6c634300080200336101606040523480156200001257600080fd5b50604051620052073803806200520783398101604081905262000035916200095a565b8484828780604051806040016040528060018152602001603160f81b8152508585858080620000736200006d6200015a60201b60201c565b6200015e565b60601b6001600160601b031916608052505081516200009a906009906020850190620007e9565b508051620000b090600a906020840190620007e9565b505082516020808501919091208351918401919091206101008290526101208190524660c0529091507f8b73c3c69bb8fe3d512ecc4cf759cc79239f7b179b0ffacaa9a75d522b39400f62000107818484620001ae565b60a0523060601b60e05261014052506200014f965088955062000130945050620001f892505050565b6200013d90600a62000a58565b62000149908662000b43565b620001fd565b505050505062000be8565b3390565b600080546001600160a01b038381166001600160a01b0319831681178455604051919092169283917f8be0079c531659141344cd1fd0a4f28419497f9722a3daafe3b4186f6b6457e09190a35050565b6040805160208101859052908101839052606081018290524660808201523060a082015260009060c0016040516020818303038152906040528051906020012090505b9392505050565b601290565b6200021482826200021860201b62001ebc1760201c565b5050565b6200022f8282620002cf60201b62001f4c1760201c565b6001600160e01b03620002436200039e8216565b1115620002b05760405162461bcd60e51b815260206004820152603060248201527f4552433230566f7465733a20746f74616c20737570706c79207269736b73206f60448201526f766572666c6f77696e6720766f74657360801b60648201526084015b60405180910390fd5b620002c9600f62002007620003a460201b1783620003b2565b50505050565b6001600160a01b038216620003275760405162461bcd60e51b815260206004820152601f60248201527f45524332303a206d696e7420746f20746865207a65726f2061646472657373006044820152606401620002a7565b80600860008282546200033b9190620009f0565b90915550506001600160a01b0382166000818152600660209081526040808320805486019055518481527fddf252ad1be2c89b69c2b068fc378daa952ba7f163c4a11628f55a4df523b3ef910160405180910390a3620002146000838362000557565b60085490565b6000620001f18284620009f0565b825460009081908181156200041257620003e187620003d360018562000b65565b600091825260209091200190565b60408051808201909152905463ffffffff8116825264010000000090046001600160e01b0316602082015262000427565b60408051808201909152600080825260208201525b905080602001516001600160e01b031693506200044584868860201c565b92506000821180156200045e5750805163ffffffff1643145b15620004b5576200047a836200056f60201b620020131760201c565b6200048c88620003d360018662000b65565b80546001600160e01b03929092166401000000000263ffffffff90921691909117905562000548565b866040518060400160405280620004d743620005e260201b620020801760201c565b63ffffffff168152602001620004f8866200056f60201b620020131760201c565b6001600160e01b039081169091528254600181018455600093845260209384902083519101805493909401519091166401000000000263ffffffff91821663ffffffff1990931692909217161790555b5050935093915050565b505050565b620005528383836200064960201b620020e51760201c565b60006001600160e01b03821115620005da5760405162461bcd60e51b815260206004820152602760248201527f53616665436173743a2076616c756520646f65736e27742066697420696e20326044820152663234206269747360c81b6064820152608401620002a7565b50805b919050565b600063ffffffff821115620005da5760405162461bcd60e51b815260206004820152602660248201527f53616665436173743a2076616c756520646f65736e27742066697420696e203360448201526532206269747360d01b6064820152608401620002a7565b620006618383836200055260201b620021001760201c565b62000552620006708462000682565b6200067b8462000682565b83620006a0565b6001600160a01b039081166000908152600d60205260409020541690565b816001600160a01b0316836001600160a01b031614158015620006c35750600081115b1562000552576001600160a01b0383161562000750576001600160a01b0383166000908152600e60209081526040822082916200070d9190620007db901b620021051785620003b2565b91509150846001600160a01b0316600080516020620051e7833981519152838360405162000745929190918252602082015260400190565b60405180910390a250505b6001600160a01b0382161562000552576001600160a01b0382166000908152600e6020908152604082208291620007949190620003a4901b620020071785620003b2565b91509150836001600160a01b0316600080516020620051e78339815191528383604051620007cc929190918252602082015260400190565b60405180910390a25050505050565b6000620001f1828462000b65565b828054620007f79062000b7f565b90600052602060002090601f0160209004810192826200081b576000855562000866565b82601f106200083657805160ff191683800117855562000866565b8280016001018555821562000866579182015b828111156200086657825182559160200191906001019062000849565b506200087492915062000878565b5090565b5b8082111562000874576000815560010162000879565b80516001600160a01b0381168114620005dd57600080fd5b600082601f830112620008b8578081fd5b81516001600160401b0380821115620008d557620008d562000bd2565b604051601f8301601f19908116603f0116810190828211818310171562000900576200090062000bd2565b816040528381526020925086838588010111156200091c578485fd5b8491505b838210156200093f578582018301518183018401529082019062000920565b838211156200095057848385830101525b9695505050505050565b600080600080600060a0868803121562000972578081fd5b85516001600160401b038082111562000989578283fd5b6200099789838a01620008a7565b96506020880151915080821115620009ad578283fd5b50620009bc88828901620008a7565b94505060408601519250620009d4606087016200088f565b9150620009e4608087016200088f565b90509295509295909350565b6000821982111562000a065762000a0662000bbc565b500190565b80825b600180861162000a1f575062000a4f565b81870482111562000a345762000a3462000bbc565b8086161562000a4257918102915b9490941c93800262000a0e565b94509492505050565b6000620001f160001960ff85168460008262000a7757506001620001f1565b8162000a8657506000620001f1565b816001811462000a9f576002811462000aaa5762000ade565b6001915050620001f1565b60ff84111562000abe5762000abe62000bbc565b6001841b91508482111562000ad75762000ad762000bbc565b50620001f1565b5060208310610133831016604e8410600b841016171562000b16575081810a8381111562000b105762000b1062000bbc565b620001f1565b62000b25848484600162000a0b565b80860482111562000b3a5762000b3a62000bbc565b02949350505050565b600081600019048311821515161562000b605762000b6062000bbc565b500290565b60008282101562000b7a5762000b7a62000bbc565b500390565b60028104600182168062000b9457607f821691505b6020821081141562000bb657634e487b7160e01b600052602260045260246000fd5b50919050565b634e487b7160e01b600052601160045260246000fd5b634e487b7160e01b600052604160045260246000fd5b60805160601c60a05160c05160e05160601c61010051610120516101405161456662000c8160003960006125e1015260006126300152600061260b015260006125620152600061258c015260006125b601526000818161077b0152818161096a01528181610c8c01528181610d2d01528181610dcb01528181610fd00152818161179001528181611e2d01526131f401526145666000f3fe6080604052600436106102595760003560e01c80621d35671461025e57806301ffc9a71461028057806306fdde03146102b557806307e0db17146102d7578063095ea7b3146102f757806310ddb1371461031757806318160ddd1461033757806323b872dd146103565780632a205e3d14610376578063313ce567146103ab5780633644e515146103c757806339509351146103dc5780633a46b1a8146103fc5780633d8b38f61461041c57806342d65a8d1461043c578063447705151461045c5780634c42899a146104715780635190563614610499578063587cde1e146104ac5780635b8c41e6146104d95780635c19a95c1461052857806366ad5c8a146105485780636fcfff451461056857806370a082311461059d578063715018a6146105bd5780637533d788146105d25780637ecebe00146105f25780638cfd8f5c146106125780638da5cb5b1461064a5780638e539e8c1461065f5780639358928b1461067f578063950c8a741461069457806395d89b41146106b45780639ab24eb0146106c95780639f38369a146106e9578063a457c2d714610709578063a6c3d16514610729578063a9059cbb14610749578063b353aaa714610769578063baf3292d1461079d578063c3cda520146107bd578063cbed8b9c146107dd578063d1deba1f146107fd578063d505accf14610810578063dd62ed3e14610830578063df2a5b3b14610850578063eab45d9c14610870578063eb8d72b714610890578063ed629c5c146108b0578063f1127ed8146108ca578063f2fde38b14610914578063f5ecbdbc14610934578063fc0c546a14610954575b600080fd5b34801561026a57600080fd5b5061027e610279366004613d61565b610967565b005b34801561028c57600080fd5b506102a061029b366004613bfd565b610b98565b60405190151581526020015b60405180910390f35b3480156102c157600080fd5b506102ca610bd8565b6040516102ac91906140f2565b3480156102e357600080fd5b5061027e6102f2366004613c57565b610c6b565b34801561030357600080fd5b506102a0610312366004613b2a565b610cf4565b34801561032357600080fd5b5061027e610332366004613c57565b610d0c565b34801561034357600080fd5b506008545b6040519081526020016102ac565b34801561036257600080fd5b506102a06103713660046139b7565b610d64565b34801561038257600080fd5b50610396610391366004613cc5565b610d88565b604080519283526020830191909152016102ac565b3480156103b757600080fd5b50604051601281526020016102ac565b3480156103d357600080fd5b50610348610e6a565b3480156103e857600080fd5b506102a06103f7366004613b2a565b610e79565b34801561040857600080fd5b50610348610417366004613b2a565b610e9b565b34801561042857600080fd5b506102a0610437366004613c73565b610ee5565b34801561044857600080fd5b5061027e610457366004613c73565b610fb1565b34801561046857600080fd5b50610348600081565b34801561047d57600080fd5b50610486600081565b60405161ffff90911681526020016102ac565b61027e6104a7366004613a64565b611037565b3480156104b857600080fd5b506104cc6104c7366004613963565b6110bc565b6040516102ac91906140de565b3480156104e557600080fd5b506103486104f4366004613e4a565b6004602090815260009384526040808520845180860184018051928152908401958401959095209452929052825290205481565b34801561053457600080fd5b5061027e610543366004613963565b6110da565b34801561055457600080fd5b5061027e610563366004613d61565b6110e7565b34801561057457600080fd5b50610588610583366004613963565b6111c3565b60405163ffffffff90911681526020016102ac565b3480156105a957600080fd5b506103486105b8366004613963565b6111e5565b3480156105c957600080fd5b5061027e611200565b3480156105de57600080fd5b506102ca6105ed366004613c57565b611214565b3480156105fe57600080fd5b5061034861060d366004613963565b6112ae565b34801561061e57600080fd5b5061034861062d366004613ee1565b600260209081526000928352604080842090915290825290205481565b34801561065657600080fd5b506104cc6112cc565b34801561066b57600080fd5b5061034861067a366004613ffd565b6112db565b34801561068b57600080fd5b50610348611307565b3480156106a057600080fd5b506003546104cc906001600160a01b031681565b3480156106c057600080fd5b506102ca61131b565b3480156106d557600080fd5b506103486106e4366004613963565b61132a565b3480156106f557600080fd5b506102ca610704366004613c57565b6113be565b34801561071557600080fd5b506102a0610724366004613b2a565b6114ce565b34801561073557600080fd5b5061027e610744366004613c73565b611549565b34801561075557600080fd5b506102a0610764366004613b2a565b6115dc565b34801561077557600080fd5b506104cc7f000000000000000000000000000000000000000000000000000000000000000081565b3480156107a957600080fd5b5061027e6107b8366004613963565b6115ea565b3480156107c957600080fd5b5061027e6107d8366004613b55565b611648565b3480156107e957600080fd5b5061027e6107f8366004613f8d565b611771565b61027e61080b366004613d61565b6117fb565b34801561081c57600080fd5b5061027e61082b3660046139f7565b611a11565b34801561083c57600080fd5b5061034861084b36600461397f565b611b75565b34801561085c57600080fd5b5061027e61086b366004613f5e565b611ba0565b34801561087c57600080fd5b5061027e61088b366004613be3565b611c52565b34801561089c57600080fd5b5061027e6108ab366004613c73565b611c9b565b3480156108bc57600080fd5b506005546102a09060ff1681565b3480156108d657600080fd5b506108ea6108e5366004613bae565b611cf5565b60408051825163ffffffff1681526020928301516001600160e01b031692810192909252016102ac565b34801561092057600080fd5b5061027e61092f366004613963565b611d86565b34801561094057600080fd5b506102ca61094f366004613f0e565b611dfc565b34801561096057600080fd5b50306104cc565b337f00000000000000000000000000000000000000000000000000000000000000006001600160a01b0316146109e45760405162461bcd60e51b815260206004820152601e60248201527f4c7a4170703a20696e76616c696420656e64706f696e742063616c6c6572000060448201526064015b60405180910390fd5b61ffff861660009081526001602052604081208054610a029061446a565b80601f0160208091040260200160405190810160405280929190818152602001828054610a2e9061446a565b8015610a7b5780601f10610a5057610100808354040283529160200191610a7b565b820191906000526020600020905b815481529060010190602001808311610a5e57829003601f168201915b50505050509050805186869050148015610a96575060008151115b8015610abe575080516020820120604051610ab4908890889061408e565b6040518091039020145b610b195760405162461bcd60e51b815260206004820152602660248201527f4c7a4170703a20696e76616c696420736f757263652073656e64696e6720636f6044820152651b9d1c9858dd60d21b60648201526084016109db565b610b8f8787878080601f01602080910402602001604051908101604052809392919081815260200183838082843760009201919091525050604080516020601f8a018190048102820181019092528881528a93509150889088908190840183828082843760009201919091525061211192505050565b50505050505050565b60006001600160e01b031982161580610bc157506001600160e01b031982166336372b0760e01b145b80610bd05750610bd08261218a565b90505b919050565b606060098054610be79061446a565b80601f0160208091040260200160405190810160405280929190818152602001828054610c139061446a565b8015610c605780601f10610c3557610100808354040283529160200191610c60565b820191906000526020600020905b815481529060010190602001808311610c4357829003601f168201915b505050505090505b90565b610c736121bf565b6040516307e0db1760e01b815261ffff821660048201527f00000000000000000000000000000000000000000000000000000000000000006001600160a01b0316906307e0db17906024015b600060405180830381600087803b158015610cd957600080fd5b505af1158015610ced573d6000803e3d6000fd5b5050505050565b600033610d0281858561221e565b5060019392505050565b610d146121bf565b6040516310ddb13760e01b815261ffff821660048201527f00000000000000000000000000000000000000000000000000000000000000006001600160a01b0316906310ddb13790602401610cbf565b600033610d72858285612342565b610d7d8585856123b6565b506001949350505050565b600080600080898989604051602001610da494939291906141d2565b60408051601f198184030181529082905263040a7bb160e41b825291506001600160a01b037f000000000000000000000000000000000000000000000000000000000000000016906340a7bb1090610e0a908d90309086908c908c908c9060040161415e565b604080518083038186803b158015610e2157600080fd5b505afa158015610e35573d6000803e3d6000fd5b505050506040513d601f19601f82011682018060405250810190610e599190614015565b925092505097509795505050505050565b6000610e74612555565b905090565b600033610d02818585610e8c8383611b75565b610e9691906143ef565b61221e565b6000438210610ebc5760405162461bcd60e51b81526004016109db90614127565b6001600160a01b0383166000908152600e60205260409020610ede9083612680565b9392505050565b61ffff831660009081526001602052604081208054829190610f069061446a565b80601f0160208091040260200160405190810160405280929190818152602001828054610f329061446a565b8015610f7f5780601f10610f5457610100808354040283529160200191610f7f565b820191906000526020600020905b815481529060010190602001808311610f6257829003601f168201915b505050505090508383604051610f9692919061408e565b60405180910390208180519060200120149150509392505050565b610fb96121bf565b6040516342d65a8d60e01b81526001600160a01b037f000000000000000000000000000000000000000000000000000000000000000016906342d65a8d90611009908690869086906004016141b4565b600060405180830381600087803b15801561102357600080fd5b505af1158015610b8f573d6000803e3d6000fd5b6110b1898989898080601f01602080910402602001604051908101604052809392919081815260200183838082843760009201919091525050604080516020601f8a018190048102820181019092528881528c93508b92508a918a908a908190840183828082843760009201919091525061277692505050565b505050505050505050565b6001600160a01b039081166000908152600d60205260409020541690565b6110e4338261281d565b50565b3330146111455760405162461bcd60e51b815260206004820152602660248201527f4e6f6e626c6f636b696e674c7a4170703a2063616c6c6572206d7573742062656044820152650204c7a4170760d41b60648201526084016109db565b6111bb8686868080601f01602080910402602001604051908101604052809392919081815260200183838082843760009201919091525050604080516020601f89018190048102820181019092528781528993509150879087908190840183828082843760009201919091525061289d92505050565b505050505050565b6001600160a01b0381166000908152600e6020526040812054610bd090612080565b6001600160a01b031660009081526006602052604090205490565b6112086121bf565b6112126000612903565b565b6001602052600090815260409020805461122d9061446a565b80601f01602080910402602001604051908101604052809291908181526020018280546112599061446a565b80156112a65780601f1061127b576101008083540402835291602001916112a6565b820191906000526020600020905b81548152906001019060200180831161128957829003601f168201915b505050505081565b6001600160a01b0381166000908152600b6020526040812054610bd0565b6000546001600160a01b031690565b60004382106112fc5760405162461bcd60e51b81526004016109db90614127565b610bd0600f83612680565b6000611312306111e5565b60085403905090565b6060600a8054610be79061446a565b6001600160a01b0381166000908152600e602052604081205480156113ab576001600160a01b0383166000908152600e6020526040902061136c600183614427565b8154811061138a57634e487b7160e01b600052603260045260246000fd5b600091825260209091200154600160201b90046001600160e01b03166113ae565b60005b6001600160e01b03169392505050565b61ffff81166000908152600160205260408120805460609291906113e19061446a565b80601f016020809104026020016040519081016040528092919081815260200182805461140d9061446a565b801561145a5780601f1061142f5761010080835404028352916020019161145a565b820191906000526020600020905b81548152906001019060200180831161143d57829003601f168201915b505050505090508051600014156114b35760405162461bcd60e51b815260206004820152601d60248201527f4c7a4170703a206e6f20747275737465642070617468207265636f726400000060448201526064016109db565b610ede6000601483516114c69190614427565b839190612953565b600033816114dc8286611b75565b90508381101561153c5760405162461bcd60e51b815260206004820152602560248201527f45524332303a2064656372656173656420616c6c6f77616e63652062656c6f77604482015264207a65726f60d81b60648201526084016109db565b610d7d828686840361221e565b6115516121bf565b8181306040516020016115669392919061409e565b60408051601f1981840301815291815261ffff8516600090815260016020908152919020825161159b9391929091019061378c565b507f8c0400cfe2d1199b1a725c78960bcc2a344d869b80590d0f2bd005db15a572ce8383836040516115cf939291906141b4565b60405180910390a1505050565b600033610d028185856123b6565b6115f26121bf565b600380546001600160a01b0319166001600160a01b0383161790556040517f5db758e995a17ec1ad84bdef7e8c3293a0bd6179bcce400dff5d4c3d87db726b9061163d9083906140de565b60405180910390a150565b834211156116985760405162461bcd60e51b815260206004820152601d60248201527f4552433230566f7465733a207369676e6174757265206578706972656400000060448201526064016109db565b604080517fe48329057bfd03d55e49b547132e39cffd9c1820ad7b9d4c5307691425d15adf60208201526001600160a01b0388169181019190915260608101869052608081018590526000906117129061170a9060a00160405160208183030381529060405280519060200120612a60565b858585612aae565b905061171d81612ad6565b86146117675760405162461bcd60e51b81526020600482015260196024820152784552433230566f7465733a20696e76616c6964206e6f6e636560381b60448201526064016109db565b610b8f818861281d565b6117796121bf565b6040516332fb62e760e21b81526001600160a01b037f0000000000000000000000000000000000000000000000000000000000000000169063cbed8b9c906117cd908890889088908890889060040161436a565b600060405180830381600087803b1580156117e757600080fd5b505af11580156110b1573d6000803e3d6000fd5b61ffff8616600090815260046020526040808220905161181e908890889061408e565b90815260408051602092819003830190206001600160401b0387166000908152925290205490508061189e5760405162461bcd60e51b815260206004820152602360248201527f4e6f6e626c6f636b696e674c7a4170703a206e6f2073746f726564206d65737360448201526261676560e81b60648201526084016109db565b8083836040516118af92919061408e565b60405180910390201461190e5760405162461bcd60e51b815260206004820152602160248201527f4e6f6e626c6f636b696e674c7a4170703a20696e76616c6964207061796c6f616044820152601960fa1b60648201526084016109db565b61ffff87166000908152600460205260408082209051611931908990899061408e565b90815260408051602092819003830181206001600160401b038916600090815290845282902093909355601f880182900482028301820190528682526119c9918991899089908190840183828082843760009201919091525050604080516020601f8a018190048102820181019092528881528a93509150889088908190840183828082843760009201919091525061289d92505050565b7fc264d91f3adc5588250e1551f547752ca0cfa8f6b530d243b9f9f4cab10ea8e58787878785604051611a00959493929190614201565b60405180910390a150505050505050565b83421115611a615760405162461bcd60e51b815260206004820152601d60248201527f45524332305065726d69743a206578706972656420646561646c696e6500000060448201526064016109db565b60007f6e71edae12b1b97f4d1f60370fef10105fa2faae0126114a169c64845d6126c9888888611a908c612ad6565b6040805160208101969096526001600160a01b0394851690860152929091166060840152608083015260a082015260c0810186905260e0016040516020818303038152906040528051906020012090506000611aeb82612a60565b90506000611afb82878787612aae565b9050896001600160a01b0316816001600160a01b031614611b5e5760405162461bcd60e51b815260206004820152601e60248201527f45524332305065726d69743a20696e76616c6964207369676e6174757265000060448201526064016109db565b611b698a8a8a61221e565b50505050505050505050565b6001600160a01b03918216600090815260076020908152604080832093909416825291909152205490565b611ba86121bf565b60008111611bf05760405162461bcd60e51b81526020600482015260156024820152744c7a4170703a20696e76616c6964206d696e47617360581b60448201526064016109db565b61ffff83811660008181526002602090815260408083209487168084529482529182902085905581519283528201929092529081018290527f9d5c7c0b934da8fefa9c7760c98383778a12dfbfc0c3b3106518f43fb9508ac0906060016115cf565b611c5a6121bf565b6005805460ff19168215159081179091556040519081527f1584ad594a70cbe1e6515592e1272a987d922b097ead875069cebe8b40c004a49060200161163d565b611ca36121bf565b61ffff83166000908152600160205260409020611cc190838361380c565b507ffa41487ad5d6728f0b19276fa1eddc16558578f5109fc39d2dc33c3230470dab8383836040516115cf939291906141b4565b60408051808201909152600080825260208201526001600160a01b0383166000908152600e60205260409020805463ffffffff8416908110611d4757634e487b7160e01b600052603260045260246000fd5b60009182526020918290206040805180820190915291015463ffffffff81168252600160201b90046001600160e01b0316918101919091529392505050565b611d8e6121bf565b6001600160a01b038116611df35760405162461bcd60e51b815260206004820152602660248201527f4f776e61626c653a206e6577206f776e657220697320746865207a65726f206160448201526564647265737360d01b60648201526084016109db565b6110e481612903565b604051633d7b2f6f60e21b815261ffff808616600483015284166024820152306044820152606481018290526060907f00000000000000000000000000000000000000000000000000000000000000006001600160a01b03169063f5ecbdbc9060840160006040518083038186803b158015611e7757600080fd5b505afa158015611e8b573d6000803e3d6000fd5b505050506040513d6000823e601f3d908101601f19168201604052611eb39190810190613c25565b95945050505050565b611ec68282611f4c565b6008546001600160e01b031015611f385760405162461bcd60e51b815260206004820152603060248201527f4552433230566f7465733a20746f74616c20737570706c79207269736b73206f60448201526f766572666c6f77696e6720766f74657360801b60648201526084016109db565b611f46600f61200783612afe565b50505050565b6001600160a01b038216611fa25760405162461bcd60e51b815260206004820152601f60248201527f45524332303a206d696e7420746f20746865207a65726f20616464726573730060448201526064016109db565b8060086000828254611fb491906143ef565b90915550506001600160a01b0382166000818152600660209081526040808320805486019055518481526000805160206144f1833981519152910160405180910390a361200360008383612c5d565b5050565b6000610ede82846143ef565b60006001600160e01b0382111561207c5760405162461bcd60e51b815260206004820152602760248201527f53616665436173743a2076616c756520646f65736e27742066697420696e20326044820152663234206269747360c81b60648201526084016109db565b5090565b600063ffffffff82111561207c5760405162461bcd60e51b815260206004820152602660248201527f53616665436173743a2076616c756520646f65736e27742066697420696e203360448201526532206269747360d01b60648201526084016109db565b6121006120f1846110bc565b6120fa846110bc565b83612c68565b505050565b6000610ede8284614427565b6000806121745a60966366ad5c8a60e01b8989898960405160240161213994939291906142c3565b60408051601f198184030181529190526020810180516001600160e01b03166001600160e01b03199093169290921790915230929190612d81565b91509150816111bb576111bb8686868685612e1b565b60006001600160e01b03198216630a72677560e11b1480610bd057506301ffc9a760e01b6001600160e01b0319831614610bd0565b336121c86112cc565b6001600160a01b0316146112125760405162461bcd60e51b815260206004820181905260248201527f4f776e61626c653a2063616c6c6572206973206e6f7420746865206f776e657260448201526064016109db565b6001600160a01b0383166122805760405162461bcd60e51b8152602060048201526024808201527f45524332303a20617070726f76652066726f6d20746865207a65726f206164646044820152637265737360e01b60648201526084016109db565b6001600160a01b0382166122e15760405162461bcd60e51b815260206004820152602260248201527f45524332303a20617070726f766520746f20746865207a65726f206164647265604482015261737360f01b60648201526084016109db565b6001600160a01b0383811660008181526007602090815260408083209487168084529482529182902085905590518481527f8c5be1e5ebec7d5bd14f71427d1e84f3dd0314c0f7b2291e5b200ac8c7c3b925910160405180910390a3505050565b600061234e8484611b75565b90506000198114611f4657818110156123a95760405162461bcd60e51b815260206004820152601d60248201527f45524332303a20696e73756666696369656e7420616c6c6f77616e636500000060448201526064016109db565b611f46848484840361221e565b6001600160a01b03831661241a5760405162461bcd60e51b815260206004820152602560248201527f45524332303a207472616e736665722066726f6d20746865207a65726f206164604482015264647265737360d81b60648201526084016109db565b6001600160a01b03821661247c5760405162461bcd60e51b815260206004820152602360248201527f45524332303a207472616e7366657220746f20746865207a65726f206164647260448201526265737360e81b60648201526084016109db565b6001600160a01b038316600090815260066020526040902054818110156124f45760405162461bcd60e51b815260206004820152602660248201527f45524332303a207472616e7366657220616d6f756e7420657863656564732062604482015265616c616e636560d01b60648201526084016109db565b6001600160a01b0380851660008181526006602052604080822086860390559286168082529083902080548601905591516000805160206144f1833981519152906125429086815260200190565b60405180910390a3611f46848484612c5d565b6000306001600160a01b037f0000000000000000000000000000000000000000000000000000000000000000161480156125ae57507f000000000000000000000000000000000000000000000000000000000000000046145b156125da57507f0000000000000000000000000000000000000000000000000000000000000000610c68565b50604080517f00000000000000000000000000000000000000000000000000000000000000006020808301919091527f0000000000000000000000000000000000000000000000000000000000000000828401527f000000000000000000000000000000000000000000000000000000000000000060608301524660808301523060a0808401919091528351808403909101815260c09092019092528051910120610c68565b8154600090818160058111156126da57600061269b84612eb8565b6126a59085614427565b600088815260209020909150869082015463ffffffff1611156126ca578091506126d8565b6126d58160016143ef565b92505b505b808210156127275760006126ee838361300d565b600088815260209020909150869082015463ffffffff16111561271357809150612721565b61271e8160016143ef565b92505b506126da565b80156127605761274a8661273c600184614427565b600091825260209091200190565b54600160201b90046001600160e01b0316612763565b60005b6001600160e01b03169695505050505050565b612784866000836000613028565b6000612792888888886130a2565b905060008087836040516020016127ab93929190614296565b60405160208183030381529060405290506127ca8882878787346130d5565b886001600160a01b03168861ffff167f39a4c66499bcf4b56d79f0dde8ed7a9d4925a0df55825206b2b8531e202be0d0898560405161280a929190614105565b60405180910390a3505050505050505050565b6000612828836110bc565b90506000612835846111e5565b6001600160a01b038581166000818152600d602052604080822080546001600160a01b031916898616908117909155905194955093928616927f3134e8a2e6d97e929a7e54011ea5485d7d196dd5f0ba4d4ef95803e8e3fc257f9190a4611f46828483612c68565b602081015161ffff81166128bc576128b785858585613270565b610ced565b60405162461bcd60e51b815260206004820152601c60248201527b4f4654436f72653a20756e6b6e6f776e207061636b6574207479706560201b60448201526064016109db565b600080546001600160a01b038381166001600160a01b0319831681178455604051919092169283917f8be0079c531659141344cd1fd0a4f28419497f9722a3daafe3b4186f6b6457e09190a35050565b60608161296181601f6143ef565b10156129a05760405162461bcd60e51b815260206004820152600e60248201526d736c6963655f6f766572666c6f7760901b60448201526064016109db565b6129aa82846143ef565b845110156129ee5760405162461bcd60e51b8152602060048201526011602482015270736c6963655f6f75744f66426f756e647360781b60448201526064016109db565b606082158015612a0d5760405191506000825260208201604052612a57565b6040519150601f8416801560200281840101858101878315602002848b0101015b81831015612a46578051835260209283019201612a2e565b5050858452601f01601f1916604052505b50949350505050565b6000610bd0612a6d612555565b8360405161190160f01b6020820152602281018390526042810182905260009060620160405160208183030381529060405280519060200120905092915050565b6000806000612abf878787876132fa565b91509150612acc816133b1565b5095945050505050565b6001600160a01b0381166000908152600b602052604090208054600181018255905b50919050565b82546000908190818115612b4a57612b1b8761273c600185614427565b60408051808201909152905463ffffffff81168252600160201b90046001600160e01b03166020820152612b5f565b60408051808201909152600080825260208201525b905080602001516001600160e01b03169350612b7f84868863ffffffff16565b9250600082118015612b975750805163ffffffff1643145b15612bdb57612ba583612013565b612bb48861273c600186614427565b80546001600160e01b0392909216600160201b0263ffffffff909216919091179055612c53565b866040518060400160405280612bf043612080565b63ffffffff168152602001612c0486612013565b6001600160e01b03908116909152825460018101845560009384526020938490208351910180549390940151909116600160201b0263ffffffff91821663ffffffff1990931692909217161790555b5050935093915050565b6121008383836120e5565b816001600160a01b0316836001600160a01b031614158015612c8a5750600081115b15612100576001600160a01b03831615612d06576001600160a01b0383166000908152600e602052604081208190612cc59061210585612afe565b91509150846001600160a01b03166000805160206145118339815191528383604051612cfb929190918252602082015260400190565b60405180910390a250505b6001600160a01b03821615612100576001600160a01b0382166000908152600e602052604081208190612d3c9061200785612afe565b91509150836001600160a01b03166000805160206145118339815191528383604051612d72929190918252602082015260400190565b60405180910390a25050505050565b6000606060008060008661ffff166001600160401b03811115612db457634e487b7160e01b600052604160045260246000fd5b6040519080825280601f01601f191660200182016040528015612dde576020820181803683370190505b50905060008087516020890160008d8df191503d925086831115612e00578692505b828152826000602083013e9093509150505b94509492505050565b8180519060200120600460008761ffff1661ffff16815260200190815260200160002085604051612e4c91906140c2565b9081526040805191829003602090810183206001600160401b0388166000908152915220919091557fe183f33de2837795525b4792ca4cd60535bd77c53b7e7030060bfcf5734d6b0c90612ea9908790879087908790879061430c565b60405180910390a15050505050565b600081612ec757506000610bd3565b60006001612ed484613534565b901c6001901b90506001818481612efb57634e487b7160e01b600052601260045260246000fd5b048201901c90506001818481612f2157634e487b7160e01b600052601260045260246000fd5b048201901c90506001818481612f4757634e487b7160e01b600052601260045260246000fd5b048201901c90506001818481612f6d57634e487b7160e01b600052601260045260246000fd5b048201901c90506001818481612f9357634e487b7160e01b600052601260045260246000fd5b048201901c90506001818481612fb957634e487b7160e01b600052601260045260246000fd5b048201901c90506001818481612fdf57634e487b7160e01b600052601260045260246000fd5b048201901c9050610ede8182858161300757634e487b7160e01b600052601260045260246000fd5b046135c8565b600061301c6002848418614407565b610ede908484166143ef565b60055460ff16156130445761303f848484846135de565b611f46565b815115611f465760405162461bcd60e51b815260206004820152602660248201527f4f4654436f72653a205f61646170746572506172616d73206d7573742062652060448201526532b6b83a3c9760d11b60648201526084016109db565b6000336001600160a01b03861681146130c0576130c0868285612342565b6130cb8630856123b6565b5090949350505050565b61ffff8616600090815260016020526040812080546130f39061446a565b80601f016020809104026020016040519081016040528092919081815260200182805461311f9061446a565b801561316c5780601f106131415761010080835404028352916020019161316c565b820191906000526020600020905b81548152906001019060200180831161314f57829003601f168201915b505050505090508051600014156131de5760405162461bcd60e51b815260206004820152603060248201527f4c7a4170703a2064657374696e6174696f6e20636861696e206973206e6f742060448201526f61207472757374656420736f7572636560801b60648201526084016109db565b60405162c5803160e81b81526001600160a01b037f0000000000000000000000000000000000000000000000000000000000000000169063c5803100908490613235908b9086908c908c908c908c9060040161423c565b6000604051808303818588803b15801561324e57600080fd5b505af1158015613262573d6000803e3d6000fd5b505050505050505050505050565b600080828060200190518101906132879190613df3565b90935091506000905061329a83826136b8565b90506132a787828461371d565b9150806001600160a01b03168761ffff167fbf551ec93859b170f9b2141bd9298bf3f64322c6f7beb2543a0cb669834118bf846040516132e991815260200190565b60405180910390a350505050505050565b6000806fa2a8918ca85bafe22016d0b997e4df60600160ff1b038311156133275750600090506003612e12565b6040805160008082526020820180845289905260ff881692820192909252606081018690526080810185905260019060a0016020604051602081039080840390855afa15801561337b573d6000803e3d6000fd5b5050604051601f1901519150506001600160a01b0381166133a457600060019250925050612e12565b9660009650945050505050565b60008160048111156133d357634e487b7160e01b600052602160045260246000fd5b14156133de576110e4565b600181600481111561340057634e487b7160e01b600052602160045260246000fd5b14156134495760405162461bcd60e51b815260206004820152601860248201527745434453413a20696e76616c6964207369676e617475726560401b60448201526064016109db565b600281600481111561346b57634e487b7160e01b600052602160045260246000fd5b14156134b95760405162461bcd60e51b815260206004820152601f60248201527f45434453413a20696e76616c6964207369676e6174757265206c656e6774680060448201526064016109db565b60038160048111156134db57634e487b7160e01b600052602160045260246000fd5b14156110e45760405162461bcd60e51b815260206004820152602260248201527f45434453413a20696e76616c6964207369676e6174757265202773272076616c604482015261756560f01b60648201526084016109db565b600080608083901c1561354957608092831c92015b604083901c1561355b57604092831c92015b602083901c1561356d57602092831c92015b601083901c1561357f57601092831c92015b600883901c1561359157600892831c92015b600483901c156135a357600492831c92015b600283901c156135b557600292831c92015b600183901c15610bd05760010192915050565b60008183106135d75781610ede565b5090919050565b60006135e983613731565b61ffff80871660009081526002602090815260408083209389168352929052908120549192509061361b9084906143ef565b90506000811161366a5760405162461bcd60e51b815260206004820152601a602482015279131e905c1c0e881b5a5b91d85cd31a5b5a5d081b9bdd081cd95d60321b60448201526064016109db565b808210156111bb5760405162461bcd60e51b815260206004820152601b60248201527a4c7a4170703a20676173206c696d697420697320746f6f206c6f7760281b60448201526064016109db565b60006136c58260146143ef565b8351101561370d5760405162461bcd60e51b8152602060048201526015602482015274746f416464726573735f6f75744f66426f756e647360581b60448201526064016109db565b500160200151600160601b900490565b600061372a3084846123b6565b5092915050565b60006022825110156137845760405162461bcd60e51b815260206004820152601c60248201527b4c7a4170703a20696e76616c69642061646170746572506172616d7360201b60448201526064016109db565b506022015190565b8280546137989061446a565b90600052602060002090601f0160209004810192826137ba5760008555613800565b82601f106137d357805160ff1916838001178555613800565b82800160010185558215613800579182015b828111156138005782518255916020019190600101906137e5565b5061207c929150613880565b8280546138189061446a565b90600052602060002090601f01602090048101928261383a5760008555613800565b82601f106138535782800160ff19823516178555613800565b82800160010185558215613800579182015b82811115613800578235825591602001919060010190613865565b5b8082111561207c5760008155600101613881565b80358015158114610bd357600080fd5b60008083601f8401126138b6578182fd5b5081356001600160401b038111156138cc578182fd5b6020830191508360208285010111156138e457600080fd5b9250929050565b600082601f8301126138fb578081fd5b815161390e613909826143c8565b614398565b818152846020838601011115613922578283fd5b61393382602083016020870161443e565b949350505050565b80356001600160401b0381168114610bd357600080fd5b803560ff81168114610bd357600080fd5b600060208284031215613974578081fd5b8135610ede816144cb565b60008060408385031215613991578081fd5b823561399c816144cb565b915060208301356139ac816144cb565b809150509250929050565b6000806000606084860312156139cb578081fd5b83356139d6816144cb565b925060208401356139e6816144cb565b929592945050506040919091013590565b600080600080600080600060e0888a031215613a11578283fd5b8735613a1c816144cb565b96506020880135613a2c816144cb565b95506040880135945060608801359350613a4860808901613952565b925060a0880135915060c0880135905092959891949750929550565b600080600080600080600080600060e08a8c031215613a81578182fd5b8935613a8c816144cb565b985060208a0135613a9c816144e0565b975060408a01356001600160401b0380821115613ab7578384fd5b613ac38d838e016138a5565b909950975060608c0135965060808c01359150613adf826144cb565b90945060a08b013590613af1826144cb565b90935060c08b01359080821115613b06578384fd5b50613b138c828d016138a5565b915080935050809150509295985092959850929598565b60008060408385031215613b3c578182fd5b8235613b47816144cb565b946020939093013593505050565b60008060008060008060c08789031215613b6d578384fd5b8635613b78816144cb565b95506020870135945060408701359350613b9460608801613952565b92506080870135915060a087013590509295509295509295565b60008060408385031215613bc0578182fd5b8235613bcb816144cb565b9150602083013563ffffffff811681146139ac578182fd5b600060208284031215613bf4578081fd5b610ede82613895565b600060208284031215613c0e578081fd5b81356001600160e01b031981168114610ede578182fd5b600060208284031215613c36578081fd5b81516001600160401b03811115613c4b578182fd5b613933848285016138eb565b600060208284031215613c68578081fd5b8135610ede816144e0565b600080600060408486031215613c87578081fd5b8335613c92816144e0565b925060208401356001600160401b03811115613cac578182fd5b613cb8868287016138a5565b9497909650939450505050565b600080600080600080600060a0888a031215613cdf578081fd5b8735613cea816144e0565b965060208801356001600160401b0380821115613d05578283fd5b613d118b838c016138a5565b909850965060408a01359550869150613d2c60608b01613895565b945060808a0135915080821115613d41578283fd5b50613d4e8a828b016138a5565b989b979a50959850939692959293505050565b60008060008060008060808789031215613d79578384fd5b8635613d84816144e0565b955060208701356001600160401b0380821115613d9f578586fd5b613dab8a838b016138a5565b9097509550859150613dbf60408a0161393b565b94506060890135915080821115613dd4578384fd5b50613de189828a016138a5565b979a9699509497509295939492505050565b600080600060608486031215613e07578081fd5b8351613e12816144e0565b60208501519093506001600160401b03811115613e2d578182fd5b613e39868287016138eb565b925050604084015190509250925092565b600080600060608486031215613e5e578081fd5b8335613e69816144e0565b925060208401356001600160401b03811115613e83578182fd5b8401601f81018613613e93578182fd5b8035613ea1613909826143c8565b818152876020838501011115613eb5578384fd5b816020840160208301379081016020018390529250613ed890506040850161393b565b90509250925092565b60008060408385031215613ef3578182fd5b8235613efe816144e0565b915060208301356139ac816144e0565b60008060008060808587031215613f23578182fd5b8435613f2e816144e0565b93506020850135613f3e816144e0565b92506040850135613f4e816144cb565b9396929550929360600135925050565b600080600060608486031215613f72578081fd5b8335613f7d816144e0565b925060208401356139e6816144e0565b600080600080600060808688031215613fa4578283fd5b8535613faf816144e0565b94506020860135613fbf816144e0565b93506040860135925060608601356001600160401b03811115613fe0578182fd5b613fec888289016138a5565b969995985093965092949392505050565b60006020828403121561400e578081fd5b5035919050565b60008060408385031215614027578182fd5b505080516020909101519092909150565b60008284528282602086013780602084860101526020601f19601f85011685010190509392505050565b6000815180845261407a81602086016020860161443e565b601f01601f19169290920160200192915050565b6000828483379101908152919050565b6000838583375060609190911b6001600160601b0319169101908152601401919050565b600082516140d481846020870161443e565b9190910192915050565b6001600160a01b0391909116815260200190565b600060208252610ede6020830184614062565b6000604082526141186040830185614062565b90508260208301529392505050565b6020808252601f908201527f4552433230566f7465733a20626c6f636b206e6f7420796574206d696e656400604082015260600190565b61ffff871681526001600160a01b038616602082015260a06040820181905260009061418c90830187614062565b851515606084015282810360808401526141a7818587614038565b9998505050505050505050565b600061ffff8516825260406020830152611eb3604083018486614038565b600061ffff86168252606060208301526141f0606083018587614038565b905082604083015295945050505050565b600061ffff871682526080602083015261421f608083018688614038565b6001600160401b0394909416604083015250606001529392505050565b600061ffff8816825260c0602083015261425960c0830188614062565b828103604084015261426b8188614062565b6001600160a01b0387811660608601528616608085015283810360a085015290506141a78185614062565b600061ffff85168252606060208301526142b36060830185614062565b9050826040830152949350505050565b600061ffff86168252608060208301526142e06080830186614062565b6001600160401b038516604084015282810360608401526143018185614062565b979650505050505050565b600061ffff8716825260a0602083015261432960a0830187614062565b6001600160401b0386166040840152828103606084015261434a8186614062565b9050828103608084015261435e8185614062565b98975050505050505050565b600061ffff808816835280871660208401525084604083015260806060830152614301608083018486614038565b604051601f8201601f191681016001600160401b03811182821017156143c0576143c06144b5565b604052919050565b60006001600160401b038211156143e1576143e16144b5565b50601f01601f191660200190565b600082198211156144025761440261449f565b500190565b60008261442257634e487b7160e01b81526012600452602481fd5b500490565b6000828210156144395761443961449f565b500390565b60005b83811015614459578181015183820152602001614441565b83811115611f465750506000910152565b60028104600182168061447e57607f821691505b60208210811415612af857634e487b7160e01b600052602260045260246000fd5b634e487b7160e01b600052601160045260246000fd5b634e487b7160e01b600052604160045260246000fd5b6001600160a01b03811681146110e457600080fd5b61ffff811681146110e457600080fdfeddf252ad1be2c89b69c2b068fc378daa952ba7f163c4a11628f55a4df523b3efdec2bacdd2f05b59de34da9b523dff8be42e5e38e818c82fdb0bae774387a724a2646970667358221220da19d68088c60b885bbc37a20f97d24af6fd0761e0f2dbb1bf3c93fbfc64ff0f64736f6c63430008020033dec2bacdd2f05b59de34da9b523dff8be42e5e38e818c82fdb0bae774387a724a26469706673582212207acdcc7d83ac6acc63f56e12e699dbb2639c97b50cca8f78e485f9fef2c9393364736f6c63430008020033",
			"opcodes": "PUSH1 0x80 PUSH1 0x40 MSTORE CALLVALUE DUP1 ISZERO PUSH2 0x10 JUMPI PUSH1 0x0 DUP1 REVERT JUMPDEST POP PUSH2 0x99A5 DUP1 PUSH2 0x20 PUSH1 0x0 CODECOPY PUSH1 0x0 RETURN INVALID PUSH1 0x80 PUSH1 0x40 MSTORE CALLVALUE DUP1 ISZERO PUSH3 0x11 JUMPI PUSH1 0x0 DUP1 REVERT JUMPDEST POP PUSH1 0x4 CALLDATASIZE LT PUSH3 0x6A JUMPI PUSH1 0x0 CALLDATALOAD PUSH1 0xE0 SHR DUP1 PUSH4 0x1150BB1B EQ PUSH3 0x6F JUMPI DUP1 PUSH4 0x44BB1494 EQ PUSH3 0x9E JUMPI DUP1 PUSH4 0x4F93EA4B EQ PUSH3 0xB7 JUMPI DUP1 PUSH4 0x6CB74648 EQ PUSH3 0xD0 JUMPI DUP1 PUSH4 0x870C7591 EQ PUSH3 0xE9 JUMPI DUP1 PUSH4 0xB275AD47 EQ PUSH3 0x100 JUMPI JUMPDEST PUSH1 0x0 DUP1 REVERT JUMPDEST PUSH3 0x86 PUSH3 0x80 CALLDATASIZE PUSH1 0x4 PUSH3 0xDD5 JUMP JUMPDEST PUSH3 0x126 JUMP JUMPDEST PUSH1 0x40 MLOAD PUSH3 0x95 SWAP2 SWAP1 PUSH3 0x10C6 JUMP JUMPDEST PUSH1 0x40 MLOAD DUP1 SWAP2 SUB SWAP1 RETURN JUMPDEST PUSH3 0xA8 PUSH3 0x2C1 JUMP JUMPDEST PUSH1 0x40 MLOAD PUSH3 0x95 SWAP2 SWAP1 PUSH3 0xF0C JUMP JUMPDEST PUSH3 0xCE PUSH3 0xC8 CALLDATASIZE PUSH1 0x4 PUSH3 0xCC6 JUMP JUMPDEST PUSH3 0x50B JUMP JUMPDEST STOP JUMPDEST PUSH3 0xDA PUSH3 0x60B JUMP JUMPDEST PUSH1 0x40 MLOAD PUSH3 0x95 SWAP2 SWAP1 PUSH3 0xF70 JUMP JUMPDEST PUSH3 0xCE PUSH3 0xFA CALLDATASIZE PUSH1 0x4 PUSH3 0xD3F JUMP JUMPDEST PUSH3 0x839 JUMP JUMPDEST PUSH3 0x117 PUSH3 0x111 CALLDATASIZE PUSH1 0x4 PUSH3 0xDD5 JUMP JUMPDEST PUSH3 0x968 JUMP JUMPDEST PUSH1 0x40 MLOAD PUSH3 0x95 SWAP2 SWAP1 PUSH3 0x10E2 JUMP JUMPDEST PUSH3 0x130 PUSH3 0xAE9 JUMP JUMPDEST PUSH1 0x2 PUSH1 0x0 DUP4 DUP2 MSTORE PUSH1 0x20 ADD SWAP1 DUP2 MSTORE PUSH1 0x20 ADD PUSH1 0x0 KECCAK256 PUSH1 0x40 MLOAD DUP1 PUSH1 0xC0 ADD PUSH1 0x40 MSTORE SWAP1 DUP2 PUSH1 0x0 DUP3 ADD SLOAD DUP2 MSTORE PUSH1 0x20 ADD PUSH1 0x1 DUP3 ADD DUP1 SLOAD PUSH3 0x16A SWAP1 PUSH3 0x10F7 JUMP JUMPDEST DUP1 PUSH1 0x1F ADD PUSH1 0x20 DUP1 SWAP2 DIV MUL PUSH1 0x20 ADD PUSH1 0x40 MLOAD SWAP1 DUP2 ADD PUSH1 0x40 MSTORE DUP1 SWAP3 SWAP2 SWAP1 DUP2 DUP2 MSTORE PUSH1 0x20 ADD DUP3 DUP1 SLOAD PUSH3 0x198 SWAP1 PUSH3 0x10F7 JUMP JUMPDEST DUP1 ISZERO PUSH3 0x1E9 JUMPI DUP1 PUSH1 0x1F LT PUSH3 0x1BD JUMPI PUSH2 0x100 DUP1 DUP4 SLOAD DIV MUL DUP4 MSTORE SWAP2 PUSH1 0x20 ADD SWAP2 PUSH3 0x1E9 JUMP JUMPDEST DUP3 ADD SWAP2 SWAP1 PUSH1 0x0 MSTORE PUSH1 0x20 PUSH1 0x0 KECCAK256 SWAP1 JUMPDEST DUP2 SLOAD DUP2 MSTORE SWAP1 PUSH1 0x1 ADD SWAP1 PUSH1 0x20 ADD DUP1 DUP4 GT PUSH3 0x1CB JUMPI DUP3 SWAP1 SUB PUSH1 0x1F AND DUP3 ADD SWAP2 JUMPDEST POP POP POP POP POP DUP2 MSTORE PUSH1 0x20 ADD PUSH1 0x2 DUP3 ADD DUP1 SLOAD PUSH3 0x204 SWAP1 PUSH3 0x10F7 JUMP JUMPDEST DUP1 PUSH1 0x1F ADD PUSH1 0x20 DUP1 SWAP2 DIV MUL PUSH1 0x20 ADD PUSH1 0x40 MLOAD SWAP1 DUP2 ADD PUSH1 0x40 MSTORE DUP1 SWAP3 SWAP2 SWAP1 DUP2 DUP2 MSTORE PUSH1 0x20 ADD DUP3 DUP1 SLOAD PUSH3 0x232 SWAP1 PUSH3 0x10F7 JUMP JUMPDEST DUP1 ISZERO PUSH3 0x283 JUMPI DUP1 PUSH1 0x1F LT PUSH3 0x257 JUMPI PUSH2 0x100 DUP1 DUP4 SLOAD DIV MUL DUP4 MSTORE SWAP2 PUSH1 0x20 ADD SWAP2 PUSH3 0x283 JUMP JUMPDEST DUP3 ADD SWAP2 SWAP1 PUSH1 0x0 MSTORE PUSH1 0x20 PUSH1 0x0 KECCAK256 SWAP1 JUMPDEST DUP2 SLOAD DUP2 MSTORE SWAP1 PUSH1 0x1 ADD SWAP1 PUSH1 0x20 ADD DUP1 DUP4 GT PUSH3 0x265 JUMPI DUP3 SWAP1 SUB PUSH1 0x1F AND DUP3 ADD SWAP2 JUMPDEST POP POP POP SWAP2 DUP4 MSTORE POP POP PUSH1 0x3 DUP3 ADD SLOAD PUSH1 0x20 DUP3 ADD MSTORE PUSH1 0x4 DUP3 ADD SLOAD PUSH1 0x1 PUSH1 0x1 PUSH1 0xA0 SHL SUB SWAP1 DUP2 AND PUSH1 0x40 DUP4 ADD MSTORE PUSH1 0x5 SWAP1 SWAP3 ADD SLOAD SWAP1 SWAP2 AND PUSH1 0x60 SWAP1 SWAP2 ADD MSTORE SWAP1 POP JUMPDEST SWAP2 SWAP1 POP JUMP JUMPDEST PUSH1 0x60 PUSH1 0x0 SLOAD PUSH1 0x1 PUSH1 0x1 PUSH1 0x40 SHL SUB DUP2 GT ISZERO PUSH3 0x2EC JUMPI PUSH4 0x4E487B71 PUSH1 0xE0 SHL PUSH1 0x0 MSTORE PUSH1 0x41 PUSH1 0x4 MSTORE PUSH1 0x24 PUSH1 0x0 REVERT JUMPDEST PUSH1 0x40 MLOAD SWAP1 DUP1 DUP3 MSTORE DUP1 PUSH1 0x20 MUL PUSH1 0x20 ADD DUP3 ADD PUSH1 0x40 MSTORE DUP1 ISZERO PUSH3 0x329 JUMPI DUP2 PUSH1 0x20 ADD JUMPDEST PUSH3 0x315 PUSH3 0xAE9 JUMP JUMPDEST DUP2 MSTORE PUSH1 0x20 ADD SWAP1 PUSH1 0x1 SWAP1 SUB SWAP1 DUP2 PUSH3 0x30B JUMPI SWAP1 POP JUMPDEST POP SWAP1 POP PUSH1 0x0 JUMPDEST PUSH1 0x0 SLOAD DUP2 LT ISZERO PUSH3 0x507 JUMPI PUSH1 0x2 PUSH1 0x0 DUP3 DUP2 MSTORE PUSH1 0x20 ADD SWAP1 DUP2 MSTORE PUSH1 0x20 ADD PUSH1 0x0 KECCAK256 PUSH1 0x40 MLOAD DUP1 PUSH1 0xC0 ADD PUSH1 0x40 MSTORE SWAP1 DUP2 PUSH1 0x0 DUP3 ADD SLOAD DUP2 MSTORE PUSH1 0x20 ADD PUSH1 0x1 DUP3 ADD DUP1 SLOAD PUSH3 0x374 SWAP1 PUSH3 0x10F7 JUMP JUMPDEST DUP1 PUSH1 0x1F ADD PUSH1 0x20 DUP1 SWAP2 DIV MUL PUSH1 0x20 ADD PUSH1 0x40 MLOAD SWAP1 DUP2 ADD PUSH1 0x40 MSTORE DUP1 SWAP3 SWAP2 SWAP1 DUP2 DUP2 MSTORE PUSH1 0x20 ADD DUP3 DUP1 SLOAD PUSH3 0x3A2 SWAP1 PUSH3 0x10F7 JUMP JUMPDEST DUP1 ISZERO PUSH3 0x3F3 JUMPI DUP1 PUSH1 0x1F LT PUSH3 0x3C7 JUMPI PUSH2 0x100 DUP1 DUP4 SLOAD DIV MUL DUP4 MSTORE SWAP2 PUSH1 0x20 ADD SWAP2 PUSH3 0x3F3 JUMP JUMPDEST DUP3 ADD SWAP2 SWAP1 PUSH1 0x0 MSTORE PUSH1 0x20 PUSH1 0x0 KECCAK256 SWAP1 JUMPDEST DUP2 SLOAD DUP2 MSTORE SWAP1 PUSH1 0x1 ADD SWAP1 PUSH1 0x20 ADD DUP1 DUP4 GT PUSH3 0x3D5 JUMPI DUP3 SWAP1 SUB PUSH1 0x1F AND DUP3 ADD SWAP2 JUMPDEST POP POP POP POP POP DUP2 MSTORE PUSH1 0x20 ADD PUSH1 0x2 DUP3 ADD DUP1 SLOAD PUSH3 0x40E SWAP1 PUSH3 0x10F7 JUMP JUMPDEST DUP1 PUSH1 0x1F ADD PUSH1 0x20 DUP1 SWAP2 DIV MUL PUSH1 0x20 ADD PUSH1 0x40 MLOAD SWAP1 DUP2 ADD PUSH1 0x40 MSTORE DUP1 SWAP3 SWAP2 SWAP1 DUP2 DUP2 MSTORE PUSH1 0x20 ADD DUP3 DUP1 SLOAD PUSH3 0x43C SWAP1 PUSH3 0x10F7 JUMP JUMPDEST DUP1 ISZERO PUSH3 0x48D JUMPI DUP1 PUSH1 0x1F LT PUSH3 0x461 JUMPI PUSH2 0x100 DUP1 DUP4 SLOAD DIV MUL DUP4 MSTORE SWAP2 PUSH1 0x20 ADD SWAP2 PUSH3 0x48D JUMP JUMPDEST DUP3 ADD SWAP2 SWAP1 PUSH1 0x0 MSTORE PUSH1 0x20 PUSH1 0x0 KECCAK256 SWAP1 JUMPDEST DUP2 SLOAD DUP2 MSTORE SWAP1 PUSH1 0x1 ADD SWAP1 PUSH1 0x20 ADD DUP1 DUP4 GT PUSH3 0x46F JUMPI DUP3 SWAP1 SUB PUSH1 0x1F AND DUP3 ADD SWAP2 JUMPDEST POP POP POP SWAP2 DUP4 MSTORE POP POP PUSH1 0x3 DUP3 ADD SLOAD PUSH1 0x20 DUP3 ADD MSTORE PUSH1 0x4 DUP3 ADD SLOAD PUSH1 0x1 PUSH1 0x1 PUSH1 0xA0 SHL SUB SWAP1 DUP2 AND PUSH1 0x40 DUP4 ADD MSTORE PUSH1 0x5 SWAP1 SWAP3 ADD SLOAD SWAP1 SWAP2 AND PUSH1 0x60 SWAP1 SWAP2 ADD MSTORE DUP3 MLOAD DUP4 SWAP1 DUP4 SWAP1 DUP2 LT PUSH3 0x4E6 JUMPI PUSH4 0x4E487B71 PUSH1 0xE0 SHL PUSH1 0x0 MSTORE PUSH1 0x32 PUSH1 0x4 MSTORE PUSH1 0x24 PUSH1 0x0 REVERT JUMPDEST PUSH1 0x20 MUL PUSH1 0x20 ADD ADD DUP2 SWAP1 MSTORE POP DUP1 DUP1 PUSH3 0x4FE SWAP1 PUSH3 0x1134 JUMP JUMPDEST SWAP2 POP POP PUSH3 0x32F JUMP JUMPDEST POP SWAP1 JUMP JUMPDEST PUSH1 0x1 DUP1 SLOAD PUSH1 0x0 SWAP2 DUP3 PUSH3 0x51E DUP4 PUSH3 0x1134 JUMP JUMPDEST SWAP1 SWAP2 SSTORE POP PUSH1 0x0 DUP2 DUP2 MSTORE PUSH1 0x3 PUSH1 0x20 SWAP1 DUP2 MSTORE PUSH1 0x40 SWAP1 SWAP2 KECCAK256 DUP3 DUP2 SSTORE DUP7 MLOAD SWAP3 SWAP4 POP SWAP2 PUSH3 0x550 SWAP2 PUSH1 0x1 DUP5 ADD SWAP2 SWAP1 DUP9 ADD SWAP1 PUSH3 0xB31 JUMP JUMPDEST POP DUP4 MLOAD PUSH3 0x568 SWAP1 PUSH1 0x2 DUP4 ADD SWAP1 PUSH1 0x20 DUP8 ADD SWAP1 PUSH3 0xB31 JUMP JUMPDEST POP DUP5 DUP5 DUP5 PUSH1 0x40 MLOAD PUSH3 0x57A SWAP1 PUSH3 0xBBC JUMP JUMPDEST PUSH3 0x588 SWAP4 SWAP3 SWAP2 SWAP1 PUSH3 0xFF9 JUMP JUMPDEST PUSH1 0x40 MLOAD DUP1 SWAP2 SUB SWAP1 PUSH1 0x0 CREATE DUP1 ISZERO DUP1 ISZERO PUSH3 0x5A5 JUMPI RETURNDATASIZE PUSH1 0x0 DUP1 RETURNDATACOPY RETURNDATASIZE PUSH1 0x0 REVERT JUMPDEST POP PUSH1 0x3 DUP3 ADD DUP1 SLOAD PUSH1 0x1 PUSH1 0x1 PUSH1 0xA0 SHL SUB NOT AND PUSH1 0x1 PUSH1 0x1 PUSH1 0xA0 SHL SUB SWAP3 SWAP1 SWAP3 AND SWAP2 SWAP1 SWAP2 OR SWAP1 SSTORE PUSH1 0x40 MLOAD PUSH32 0x4F85E988973296BDA91FE050BBBF23B67D4EEEBCCE1E8EDDD38D4D7ACE3A016F SWAP1 PUSH3 0x5FC SWAP1 DUP8 SWAP1 DUP8 SWAP1 PUSH3 0xFC7 JUMP JUMPDEST PUSH1 0x40 MLOAD DUP1 SWAP2 SUB SWAP1 LOG1 POP POP POP POP POP JUMP JUMPDEST PUSH1 0x60 PUSH1 0x1 SLOAD PUSH1 0x1 PUSH1 0x1 PUSH1 0x40 SHL SUB DUP2 GT ISZERO PUSH3 0x636 JUMPI PUSH4 0x4E487B71 PUSH1 0xE0 SHL PUSH1 0x0 MSTORE PUSH1 0x41 PUSH1 0x4 MSTORE PUSH1 0x24 PUSH1 0x0 REVERT JUMPDEST PUSH1 0x40 MLOAD SWAP1 DUP1 DUP3 MSTORE DUP1 PUSH1 0x20 MUL PUSH1 0x20 ADD DUP3 ADD PUSH1 0x40 MSTORE DUP1 ISZERO PUSH3 0x673 JUMPI DUP2 PUSH1 0x20 ADD JUMPDEST PUSH3 0x65F PUSH3 0xBCA JUMP JUMPDEST DUP2 MSTORE PUSH1 0x20 ADD SWAP1 PUSH1 0x1 SWAP1 SUB SWAP1 DUP2 PUSH3 0x655 JUMPI SWAP1 POP JUMPDEST POP SWAP1 POP PUSH1 0x0 JUMPDEST PUSH1 0x1 SLOAD DUP2 LT ISZERO PUSH3 0x507 JUMPI PUSH1 0x3 PUSH1 0x0 DUP3 DUP2 MSTORE PUSH1 0x20 ADD SWAP1 DUP2 MSTORE PUSH1 0x20 ADD PUSH1 0x0 KECCAK256 PUSH1 0x40 MLOAD DUP1 PUSH1 0x80 ADD PUSH1 0x40 MSTORE SWAP1 DUP2 PUSH1 0x0 DUP3 ADD SLOAD DUP2 MSTORE PUSH1 0x20 ADD PUSH1 0x1 DUP3 ADD DUP1 SLOAD PUSH3 0x6BE SWAP1 PUSH3 0x10F7 JUMP JUMPDEST DUP1 PUSH1 0x1F ADD PUSH1 0x20 DUP1 SWAP2 DIV MUL PUSH1 0x20 ADD PUSH1 0x40 MLOAD SWAP1 DUP2 ADD PUSH1 0x40 MSTORE DUP1 SWAP3 SWAP2 SWAP1 DUP2 DUP2 MSTORE PUSH1 0x20 ADD DUP3 DUP1 SLOAD PUSH3 0x6EC SWAP1 PUSH3 0x10F7 JUMP JUMPDEST DUP1 ISZERO PUSH3 0x73D JUMPI DUP1 PUSH1 0x1F LT PUSH3 0x711 JUMPI PUSH2 0x100 DUP1 DUP4 SLOAD DIV MUL DUP4 MSTORE SWAP2 PUSH1 0x20 ADD SWAP2 PUSH3 0x73D JUMP JUMPDEST DUP3 ADD SWAP2 SWAP1 PUSH1 0x0 MSTORE PUSH1 0x20 PUSH1 0x0 KECCAK256 SWAP1 JUMPDEST DUP2 SLOAD DUP2 MSTORE SWAP1 PUSH1 0x1 ADD SWAP1 PUSH1 0x20 ADD DUP1 DUP4 GT PUSH3 0x71F JUMPI DUP3 SWAP1 SUB PUSH1 0x1F AND DUP3 ADD SWAP2 JUMPDEST POP POP POP POP POP DUP2 MSTORE PUSH1 0x20 ADD PUSH1 0x2 DUP3 ADD DUP1 SLOAD PUSH3 0x758 SWAP1 PUSH3 0x10F7 JUMP JUMPDEST DUP1 PUSH1 0x1F ADD PUSH1 0x20 DUP1 SWAP2 DIV MUL PUSH1 0x20 ADD PUSH1 0x40 MLOAD SWAP1 DUP2 ADD PUSH1 0x40 MSTORE DUP1 SWAP3 SWAP2 SWAP1 DUP2 DUP2 MSTORE PUSH1 0x20 ADD DUP3 DUP1 SLOAD PUSH3 0x786 SWAP1 PUSH3 0x10F7 JUMP JUMPDEST DUP1 ISZERO PUSH3 0x7D7 JUMPI DUP1 PUSH1 0x1F LT PUSH3 0x7AB JUMPI PUSH2 0x100 DUP1 DUP4 SLOAD DIV MUL DUP4 MSTORE SWAP2 PUSH1 0x20 ADD SWAP2 PUSH3 0x7D7 JUMP JUMPDEST DUP3 ADD SWAP2 SWAP1 PUSH1 0x0 MSTORE PUSH1 0x20 PUSH1 0x0 KECCAK256 SWAP1 JUMPDEST DUP2 SLOAD DUP2 MSTORE SWAP1 PUSH1 0x1 ADD SWAP1 PUSH1 0x20 ADD DUP1 DUP4 GT PUSH3 0x7B9 JUMPI DUP3 SWAP1 SUB PUSH1 0x1F AND DUP3 ADD SWAP2 JUMPDEST POP POP POP SWAP2 DUP4 MSTORE POP POP PUSH1 0x3 SWAP2 SWAP1 SWAP2 ADD SLOAD PUSH1 0x1 PUSH1 0x1 PUSH1 0xA0 SHL SUB AND PUSH1 0x20 SWAP1 SWAP2 ADD MSTORE DUP3 MLOAD DUP4 SWAP1 DUP4 SWAP1 DUP2 LT PUSH3 0x818 JUMPI PUSH4 0x4E487B71 PUSH1 0xE0 SHL PUSH1 0x0 MSTORE PUSH1 0x32 PUSH1 0x4 MSTORE PUSH1 0x24 PUSH1 0x0 REVERT JUMPDEST PUSH1 0x20 MUL PUSH1 0x20 ADD ADD DUP2 SWAP1 MSTORE POP DUP1 DUP1 PUSH3 0x830 SWAP1 PUSH3 0x1134 JUMP JUMPDEST SWAP2 POP POP PUSH3 0x679 JUMP JUMPDEST PUSH1 0x0 DUP1 SLOAD DUP2 DUP1 PUSH3 0x84A DUP4 PUSH3 0x1134 JUMP JUMPDEST SWAP1 SWAP2 SSTORE POP PUSH1 0x0 DUP2 DUP2 MSTORE PUSH1 0x2 PUSH1 0x20 SWAP1 DUP2 MSTORE PUSH1 0x40 SWAP1 SWAP2 KECCAK256 DUP3 DUP2 SSTORE DUP9 MLOAD SWAP3 SWAP4 POP SWAP2 PUSH3 0x87C SWAP2 PUSH1 0x1 DUP5 ADD SWAP2 SWAP1 DUP11 ADD SWAP1 PUSH3 0xB31 JUMP JUMPDEST POP DUP6 MLOAD PUSH3 0x894 SWAP1 PUSH1 0x2 DUP4 ADD SWAP1 PUSH1 0x20 DUP10 ADD SWAP1 PUSH3 0xB31 JUMP JUMPDEST POP PUSH1 0x3 DUP2 ADD DUP6 SWAP1 SSTORE PUSH1 0x4 DUP2 ADD DUP1 SLOAD PUSH1 0x1 PUSH1 0x1 PUSH1 0xA0 SHL SUB NOT AND PUSH1 0x1 PUSH1 0x1 PUSH1 0xA0 SHL SUB DUP7 AND OR SWAP1 SSTORE PUSH1 0x40 MLOAD DUP8 SWAP1 DUP8 SWAP1 DUP8 SWAP1 DUP8 SWAP1 DUP8 SWAP1 PUSH3 0x8D1 SWAP1 PUSH3 0xBFB JUMP JUMPDEST PUSH3 0x8E1 SWAP6 SWAP5 SWAP4 SWAP3 SWAP2 SWAP1 PUSH3 0x1075 JUMP JUMPDEST PUSH1 0x40 MLOAD DUP1 SWAP2 SUB SWAP1 PUSH1 0x0 CREATE DUP1 ISZERO DUP1 ISZERO PUSH3 0x8FE JUMPI RETURNDATASIZE PUSH1 0x0 DUP1 RETURNDATACOPY RETURNDATASIZE PUSH1 0x0 REVERT JUMPDEST POP PUSH1 0x5 DUP3 ADD DUP1 SLOAD PUSH1 0x1 PUSH1 0x1 PUSH1 0xA0 SHL SUB NOT AND PUSH1 0x1 PUSH1 0x1 PUSH1 0xA0 SHL SUB SWAP3 SWAP1 SWAP3 AND SWAP2 SWAP1 SWAP2 OR SWAP1 SSTORE PUSH1 0x40 MLOAD PUSH32 0x86780798B5D4C67FB5590C3AE42181AD5B3E93744B57E4351B0B43B846B30122 SWAP1 PUSH3 0x957 SWAP1 DUP10 SWAP1 DUP10 SWAP1 DUP10 SWAP1 PUSH3 0x103B JUMP JUMPDEST PUSH1 0x40 MLOAD DUP1 SWAP2 SUB SWAP1 LOG1 POP POP POP POP POP POP POP JUMP JUMPDEST PUSH3 0x972 PUSH3 0xBCA JUMP JUMPDEST PUSH1 0x3 PUSH1 0x0 DUP4 DUP2 MSTORE PUSH1 0x20 ADD SWAP1 DUP2 MSTORE PUSH1 0x20 ADD PUSH1 0x0 KECCAK256 PUSH1 0x40 MLOAD DUP1 PUSH1 0x80 ADD PUSH1 0x40 MSTORE SWAP1 DUP2 PUSH1 0x0 DUP3 ADD SLOAD DUP2 MSTORE PUSH1 0x20 ADD PUSH1 0x1 DUP3 ADD DUP1 SLOAD PUSH3 0x9AC SWAP1 PUSH3 0x10F7 JUMP JUMPDEST DUP1 PUSH1 0x1F ADD PUSH1 0x20 DUP1 SWAP2 DIV MUL PUSH1 0x20 ADD PUSH1 0x40 MLOAD SWAP1 DUP2 ADD PUSH1 0x40 MSTORE DUP1 SWAP3 SWAP2 SWAP1 DUP2 DUP2 MSTORE PUSH1 0x20 ADD DUP3 DUP1 SLOAD PUSH3 0x9DA SWAP1 PUSH3 0x10F7 JUMP JUMPDEST DUP1 ISZERO PUSH3 0xA2B JUMPI DUP1 PUSH1 0x1F LT PUSH3 0x9FF JUMPI PUSH2 0x100 DUP1 DUP4 SLOAD DIV MUL DUP4 MSTORE SWAP2 PUSH1 0x20 ADD SWAP2 PUSH3 0xA2B JUMP JUMPDEST DUP3 ADD SWAP2 SWAP1 PUSH1 0x0 MSTORE PUSH1 0x20 PUSH1 0x0 KECCAK256 SWAP1 JUMPDEST DUP2 SLOAD DUP2 MSTORE SWAP1 PUSH1 0x1 ADD SWAP1 PUSH1 0x20 ADD DUP1 DUP4 GT PUSH3 0xA0D JUMPI DUP3 SWAP1 SUB PUSH1 0x1F AND DUP3 ADD SWAP2 JUMPDEST POP POP POP POP POP DUP2 MSTORE PUSH1 0x20 ADD PUSH1 0x2 DUP3 ADD DUP1 SLOAD PUSH3 0xA46 SWAP1 PUSH3 0x10F7 JUMP JUMPDEST DUP1 PUSH1 0x1F ADD PUSH1 0x20 DUP1 SWAP2 DIV MUL PUSH1 0x20 ADD PUSH1 0x40 MLOAD SWAP1 DUP2 ADD PUSH1 0x40 MSTORE DUP1 SWAP3 SWAP2 SWAP1 DUP2 DUP2 MSTORE PUSH1 0x20 ADD DUP3 DUP1 SLOAD PUSH3 0xA74 SWAP1 PUSH3 0x10F7 JUMP JUMPDEST DUP1 ISZERO PUSH3 0xAC5 JUMPI DUP1 PUSH1 0x1F LT PUSH3 0xA99 JUMPI PUSH2 0x100 DUP1 DUP4 SLOAD DIV MUL DUP4 MSTORE SWAP2 PUSH1 0x20 ADD SWAP2 PUSH3 0xAC5 JUMP JUMPDEST DUP3 ADD SWAP2 SWAP1 PUSH1 0x0 MSTORE PUSH1 0x20 PUSH1 0x0 KECCAK256 SWAP1 JUMPDEST DUP2 SLOAD DUP2 MSTORE SWAP1 PUSH1 0x1 ADD SWAP1 PUSH1 0x20 ADD DUP1 DUP4 GT PUSH3 0xAA7 JUMPI DUP3 SWAP1 SUB PUSH1 0x1F AND DUP3 ADD SWAP2 JUMPDEST POP POP POP SWAP2 DUP4 MSTORE POP POP PUSH1 0x3 SWAP2 SWAP1 SWAP2 ADD SLOAD PUSH1 0x1 PUSH1 0x1 PUSH1 0xA0 SHL SUB AND PUSH1 0x20 SWAP1 SWAP2 ADD MSTORE SWAP3 SWAP2 POP POP JUMP JUMPDEST PUSH1 0x40 MLOAD DUP1 PUSH1 0xC0 ADD PUSH1 0x40 MSTORE DUP1 PUSH1 0x0 DUP2 MSTORE PUSH1 0x20 ADD PUSH1 0x60 DUP2 MSTORE PUSH1 0x20 ADD PUSH1 0x60 DUP2 MSTORE PUSH1 0x20 ADD PUSH1 0x0 DUP2 MSTORE PUSH1 0x20 ADD PUSH1 0x0 PUSH1 0x1 PUSH1 0x1 PUSH1 0xA0 SHL SUB AND DUP2 MSTORE PUSH1 0x20 ADD PUSH1 0x0 PUSH1 0x1 PUSH1 0x1 PUSH1 0xA0 SHL SUB AND DUP2 MSTORE POP SWAP1 JUMP JUMPDEST DUP3 DUP1 SLOAD PUSH3 0xB3F SWAP1 PUSH3 0x10F7 JUMP JUMPDEST SWAP1 PUSH1 0x0 MSTORE PUSH1 0x20 PUSH1 0x0 KECCAK256 SWAP1 PUSH1 0x1F ADD PUSH1 0x20 SWAP1 DIV DUP2 ADD SWAP3 DUP3 PUSH3 0xB63 JUMPI PUSH1 0x0 DUP6 SSTORE PUSH3 0xBAE JUMP JUMPDEST DUP3 PUSH1 0x1F LT PUSH3 0xB7E JUMPI DUP1 MLOAD PUSH1 0xFF NOT AND DUP4 DUP1 ADD OR DUP6 SSTORE PUSH3 0xBAE JUMP JUMPDEST DUP3 DUP1 ADD PUSH1 0x1 ADD DUP6 SSTORE DUP3 ISZERO PUSH3 0xBAE JUMPI SWAP2 DUP3 ADD JUMPDEST DUP3 DUP2 GT ISZERO PUSH3 0xBAE JUMPI DUP3 MLOAD DUP3 SSTORE SWAP2 PUSH1 0x20 ADD SWAP2 SWAP1 PUSH1 0x1 ADD SWAP1 PUSH3 0xB91 JUMP JUMPDEST POP PUSH3 0x507 SWAP3 SWAP2 POP PUSH3 0xC09 JUMP JUMPDEST PUSH2 0x35F6 DUP1 PUSH3 0x1173 DUP4 CODECOPY ADD SWAP1 JUMP JUMPDEST PUSH1 0x40 MLOAD DUP1 PUSH1 0x80 ADD PUSH1 0x40 MSTORE DUP1 PUSH1 0x0 DUP2 MSTORE PUSH1 0x20 ADD PUSH1 0x60 DUP2 MSTORE PUSH1 0x20 ADD PUSH1 0x60 DUP2 MSTORE PUSH1 0x20 ADD PUSH1 0x0 PUSH1 0x1 PUSH1 0x1 PUSH1 0xA0 SHL SUB AND DUP2 MSTORE POP SWAP1 JUMP JUMPDEST PUSH2 0x5207 DUP1 PUSH3 0x4769 DUP4 CODECOPY ADD SWAP1 JUMP JUMPDEST JUMPDEST DUP1 DUP3 GT ISZERO PUSH3 0x507 JUMPI PUSH1 0x0 DUP2 SSTORE PUSH1 0x1 ADD PUSH3 0xC0A JUMP JUMPDEST DUP1 CALLDATALOAD PUSH1 0x1 PUSH1 0x1 PUSH1 0xA0 SHL SUB DUP2 AND DUP2 EQ PUSH3 0x2BC JUMPI PUSH1 0x0 DUP1 REVERT JUMPDEST PUSH1 0x0 DUP3 PUSH1 0x1F DUP4 ADD SLT PUSH3 0xC49 JUMPI DUP1 DUP2 REVERT JUMPDEST DUP2 CALLDATALOAD PUSH1 0x1 PUSH1 0x1 PUSH1 0x40 SHL SUB DUP1 DUP3 GT ISZERO PUSH3 0xC66 JUMPI PUSH3 0xC66 PUSH3 0x115C JUMP JUMPDEST PUSH1 0x40 MLOAD PUSH1 0x1F DUP4 ADD PUSH1 0x1F NOT SWAP1 DUP2 AND PUSH1 0x3F ADD AND DUP2 ADD SWAP1 DUP3 DUP3 GT DUP2 DUP4 LT OR ISZERO PUSH3 0xC91 JUMPI PUSH3 0xC91 PUSH3 0x115C JUMP JUMPDEST DUP2 PUSH1 0x40 MSTORE DUP4 DUP2 MSTORE DUP7 PUSH1 0x20 DUP6 DUP9 ADD ADD GT ISZERO PUSH3 0xCAA JUMPI DUP5 DUP6 REVERT JUMPDEST DUP4 PUSH1 0x20 DUP8 ADD PUSH1 0x20 DUP4 ADD CALLDATACOPY SWAP3 DUP4 ADD PUSH1 0x20 ADD SWAP4 SWAP1 SWAP4 MSTORE POP SWAP4 SWAP3 POP POP POP JUMP JUMPDEST PUSH1 0x0 DUP1 PUSH1 0x0 PUSH1 0x60 DUP5 DUP7 SUB SLT ISZERO PUSH3 0xCDB JUMPI DUP3 DUP4 REVERT JUMPDEST DUP4 CALLDATALOAD PUSH1 0x1 PUSH1 0x1 PUSH1 0x40 SHL SUB DUP1 DUP3 GT ISZERO PUSH3 0xCF2 JUMPI DUP5 DUP6 REVERT JUMPDEST PUSH3 0xD00 DUP8 DUP4 DUP9 ADD PUSH3 0xC38 JUMP JUMPDEST SWAP5 POP PUSH1 0x20 DUP7 ADD CALLDATALOAD SWAP2 POP DUP1 DUP3 GT ISZERO PUSH3 0xD16 JUMPI DUP4 DUP5 REVERT JUMPDEST POP PUSH3 0xD25 DUP7 DUP3 DUP8 ADD PUSH3 0xC38 JUMP JUMPDEST SWAP3 POP POP PUSH3 0xD36 PUSH1 0x40 DUP6 ADD PUSH3 0xC20 JUMP JUMPDEST SWAP1 POP SWAP3 POP SWAP3 POP SWAP3 JUMP JUMPDEST PUSH1 0x0 DUP1 PUSH1 0x0 DUP1 PUSH1 0x0 PUSH1 0xA0 DUP7 DUP9 SUB SLT ISZERO PUSH3 0xD57 JUMPI DUP1 DUP2 REVERT JUMPDEST DUP6 CALLDATALOAD PUSH1 0x1 PUSH1 0x1 PUSH1 0x40 SHL SUB DUP1 DUP3 GT ISZERO PUSH3 0xD6E JUMPI DUP3 DUP4 REVERT JUMPDEST PUSH3 0xD7C DUP10 DUP4 DUP11 ADD PUSH3 0xC38 JUMP JUMPDEST SWAP7 POP PUSH1 0x20 DUP9 ADD CALLDATALOAD SWAP2 POP DUP1 DUP3 GT ISZERO PUSH3 0xD92 JUMPI DUP3 DUP4 REVERT JUMPDEST POP PUSH3 0xDA1 DUP9 DUP3 DUP10 ADD PUSH3 0xC38 JUMP JUMPDEST SWAP5 POP POP PUSH1 0x40 DUP7 ADD CALLDATALOAD SWAP3 POP PUSH3 0xDB9 PUSH1 0x60 DUP8 ADD PUSH3 0xC20 JUMP JUMPDEST SWAP2 POP PUSH3 0xDC9 PUSH1 0x80 DUP8 ADD PUSH3 0xC20 JUMP JUMPDEST SWAP1 POP SWAP3 SWAP6 POP SWAP3 SWAP6 SWAP1 SWAP4 POP JUMP JUMPDEST PUSH1 0x0 PUSH1 0x20 DUP3 DUP5 SUB SLT ISZERO PUSH3 0xDE7 JUMPI DUP1 DUP2 REVERT JUMPDEST POP CALLDATALOAD SWAP2 SWAP1 POP JUMP JUMPDEST PUSH1 0x0 DUP2 MLOAD DUP1 DUP5 MSTORE DUP2 JUMPDEST DUP2 DUP2 LT ISZERO PUSH3 0xE15 JUMPI PUSH1 0x20 DUP2 DUP6 ADD DUP2 ADD MLOAD DUP7 DUP4 ADD DUP3 ADD MSTORE ADD PUSH3 0xDF7 JUMP JUMPDEST DUP2 DUP2 GT ISZERO PUSH3 0xE27 JUMPI DUP3 PUSH1 0x20 DUP4 DUP8 ADD ADD MSTORE JUMPDEST POP PUSH1 0x1F ADD PUSH1 0x1F NOT AND SWAP3 SWAP1 SWAP3 ADD PUSH1 0x20 ADD SWAP3 SWAP2 POP POP JUMP JUMPDEST PUSH1 0x0 DUP2 MLOAD DUP4 MSTORE PUSH1 0x20 DUP3 ADD MLOAD PUSH1 0xC0 PUSH1 0x20 DUP6 ADD MSTORE PUSH3 0xE5D PUSH1 0xC0 DUP6 ADD DUP3 PUSH3 0xDEE JUMP JUMPDEST SWAP1 POP PUSH1 0x40 DUP4 ADD MLOAD DUP5 DUP3 SUB PUSH1 0x40 DUP7 ADD MSTORE PUSH3 0xE78 DUP3 DUP3 PUSH3 0xDEE JUMP JUMPDEST PUSH1 0x60 DUP6 DUP2 ADD MLOAD SWAP1 DUP8 ADD MSTORE PUSH1 0x80 DUP1 DUP7 ADD MLOAD PUSH1 0x1 PUSH1 0x1 PUSH1 0xA0 SHL SUB SWAP1 DUP2 AND SWAP2 DUP9 ADD SWAP2 SWAP1 SWAP2 MSTORE PUSH1 0xA0 SWAP6 DUP7 ADD MLOAD AND SWAP5 SWAP1 SWAP6 ADD SWAP4 SWAP1 SWAP4 MSTORE POP SWAP2 SWAP3 SWAP2 POP POP JUMP JUMPDEST PUSH1 0x0 DUP2 MLOAD DUP4 MSTORE PUSH1 0x20 DUP3 ADD MLOAD PUSH1 0x80 PUSH1 0x20 DUP6 ADD MSTORE PUSH3 0xED2 PUSH1 0x80 DUP6 ADD DUP3 PUSH3 0xDEE JUMP JUMPDEST SWAP1 POP PUSH1 0x40 DUP4 ADD MLOAD DUP5 DUP3 SUB PUSH1 0x40 DUP7 ADD MSTORE PUSH3 0xEED DUP3 DUP3 PUSH3 0xDEE JUMP JUMPDEST PUSH1 0x60 SWAP5 DUP6 ADD MLOAD PUSH1 0x1 PUSH1 0x1 PUSH1 0xA0 SHL SUB AND SWAP6 SWAP1 SWAP5 ADD SWAP5 SWAP1 SWAP5 MSTORE POP SWAP1 SWAP3 SWAP2 POP POP JUMP JUMPDEST PUSH1 0x0 PUSH1 0x20 DUP1 DUP4 ADD DUP2 DUP5 MSTORE DUP1 DUP6 MLOAD DUP1 DUP4 MSTORE PUSH1 0x40 DUP7 ADD SWAP2 POP PUSH1 0x40 DUP5 DUP3 MUL DUP8 ADD ADD SWAP3 POP DUP4 DUP8 ADD DUP6 JUMPDEST DUP3 DUP2 LT ISZERO PUSH3 0xF63 JUMPI PUSH1 0x3F NOT DUP9 DUP7 SUB ADD DUP5 MSTORE PUSH3 0xF50 DUP6 DUP4 MLOAD PUSH3 0xE3C JUMP JUMPDEST SWAP5 POP SWAP3 DUP6 ADD SWAP3 SWAP1 DUP6 ADD SWAP1 PUSH1 0x1 ADD PUSH3 0xF31 JUMP JUMPDEST POP SWAP3 SWAP8 SWAP7 POP POP POP POP POP POP POP JUMP JUMPDEST PUSH1 0x0 PUSH1 0x20 DUP1 DUP4 ADD DUP2 DUP5 MSTORE DUP1 DUP6 MLOAD DUP1 DUP4 MSTORE PUSH1 0x40 DUP7 ADD SWAP2 POP PUSH1 0x40 DUP5 DUP3 MUL DUP8 ADD ADD SWAP3 POP DUP4 DUP8 ADD DUP6 JUMPDEST DUP3 DUP2 LT ISZERO PUSH3 0xF63 JUMPI PUSH1 0x3F NOT DUP9 DUP7 SUB ADD DUP5 MSTORE PUSH3 0xFB4 DUP6 DUP4 MLOAD PUSH3 0xEB1 JUMP JUMPDEST SWAP5 POP SWAP3 DUP6 ADD SWAP3 SWAP1 DUP6 ADD SWAP1 PUSH1 0x1 ADD PUSH3 0xF95 JUMP JUMPDEST PUSH1 0x0 PUSH1 0x40 DUP3 MSTORE PUSH3 0xFDC PUSH1 0x40 DUP4 ADD DUP6 PUSH3 0xDEE JUMP JUMPDEST DUP3 DUP2 SUB PUSH1 0x20 DUP5 ADD MSTORE PUSH3 0xFF0 DUP2 DUP6 PUSH3 0xDEE JUMP JUMPDEST SWAP6 SWAP5 POP POP POP POP POP JUMP JUMPDEST PUSH1 0x0 PUSH1 0x60 DUP3 MSTORE PUSH3 0x100E PUSH1 0x60 DUP4 ADD DUP7 PUSH3 0xDEE JUMP JUMPDEST DUP3 DUP2 SUB PUSH1 0x20 DUP5 ADD MSTORE PUSH3 0x1022 DUP2 DUP7 PUSH3 0xDEE JUMP JUMPDEST SWAP2 POP POP PUSH1 0x1 DUP1 PUSH1 0xA0 SHL SUB DUP4 AND PUSH1 0x40 DUP4 ADD MSTORE SWAP5 SWAP4 POP POP POP POP JUMP JUMPDEST PUSH1 0x0 PUSH1 0x60 DUP3 MSTORE PUSH3 0x1050 PUSH1 0x60 DUP4 ADD DUP7 PUSH3 0xDEE JUMP JUMPDEST DUP3 DUP2 SUB PUSH1 0x20 DUP5 ADD MSTORE PUSH3 0x1064 DUP2 DUP7 PUSH3 0xDEE JUMP JUMPDEST SWAP2 POP POP DUP3 PUSH1 0x40 DUP4 ADD MSTORE SWAP5 SWAP4 POP POP POP POP JUMP JUMPDEST PUSH1 0x0 PUSH1 0xA0 DUP3 MSTORE PUSH3 0x108A PUSH1 0xA0 DUP4 ADD DUP9 PUSH3 0xDEE JUMP JUMPDEST DUP3 DUP2 SUB PUSH1 0x20 DUP5 ADD MSTORE PUSH3 0x109E DUP2 DUP9 PUSH3 0xDEE JUMP JUMPDEST PUSH1 0x40 DUP5 ADD SWAP7 SWAP1 SWAP7 MSTORE POP POP PUSH1 0x1 PUSH1 0x1 PUSH1 0xA0 SHL SUB SWAP3 DUP4 AND PUSH1 0x60 DUP3 ADD MSTORE SWAP2 AND PUSH1 0x80 SWAP1 SWAP2 ADD MSTORE SWAP3 SWAP2 POP POP JUMP JUMPDEST PUSH1 0x0 PUSH1 0x20 DUP3 MSTORE PUSH3 0x10DB PUSH1 0x20 DUP4 ADD DUP5 PUSH3 0xE3C JUMP JUMPDEST SWAP4 SWAP3 POP POP POP JUMP JUMPDEST PUSH1 0x0 PUSH1 0x20 DUP3 MSTORE PUSH3 0x10DB PUSH1 0x20 DUP4 ADD DUP5 PUSH3 0xEB1 JUMP JUMPDEST PUSH1 0x2 DUP2 DIV PUSH1 0x1 DUP3 AND DUP1 PUSH3 0x110C JUMPI PUSH1 0x7F DUP3 AND SWAP2 POP JUMPDEST PUSH1 0x20 DUP3 LT DUP2 EQ ISZERO PUSH3 0x112E JUMPI PUSH4 0x4E487B71 PUSH1 0xE0 SHL PUSH1 0x0 MSTORE PUSH1 0x22 PUSH1 0x4 MSTORE PUSH1 0x24 PUSH1 0x0 REVERT JUMPDEST POP SWAP2 SWAP1 POP JUMP JUMPDEST PUSH1 0x0 PUSH1 0x0 NOT DUP3 EQ ISZERO PUSH3 0x1155 JUMPI PUSH4 0x4E487B71 PUSH1 0xE0 SHL DUP2 MSTORE PUSH1 0x11 PUSH1 0x4 MSTORE PUSH1 0x24 DUP2 REVERT JUMPDEST POP PUSH1 0x1 ADD SWAP1 JUMP JUMPDEST PUSH4 0x4E487B71 PUSH1 0xE0 SHL PUSH1 0x0 MSTORE PUSH1 0x41 PUSH1 0x4 MSTORE PUSH1 0x24 PUSH1 0x0 REVERT INVALID PUSH1 0xA0 PUSH1 0x40 MSTORE CALLVALUE DUP1 ISZERO PUSH3 0x11 JUMPI PUSH1 0x0 DUP1 REVERT JUMPDEST POP PUSH1 0x40 MLOAD PUSH3 0x35F6 CODESIZE SUB DUP1 PUSH3 0x35F6 DUP4 CODECOPY DUP2 ADD PUSH1 0x40 DUP2 SWAP1 MSTORE PUSH3 0x34 SWAP2 PUSH3 0x236 JUMP JUMPDEST DUP3 DUP3 DUP3 DUP1 DUP1 PUSH3 0x44 CALLER PUSH3 0x8D JUMP JUMPDEST PUSH1 0x60 SHL PUSH1 0x1 PUSH1 0x1 PUSH1 0x60 SHL SUB NOT AND PUSH1 0x80 MSTORE POP POP DUP2 MLOAD PUSH3 0x6B SWAP1 PUSH1 0x9 SWAP1 PUSH1 0x20 DUP6 ADD SWAP1 PUSH3 0xDD JUMP JUMPDEST POP DUP1 MLOAD PUSH3 0x81 SWAP1 PUSH1 0xA SWAP1 PUSH1 0x20 DUP5 ADD SWAP1 PUSH3 0xDD JUMP JUMPDEST POP POP POP POP POP POP PUSH3 0x312 JUMP JUMPDEST PUSH1 0x0 DUP1 SLOAD PUSH1 0x1 PUSH1 0x1 PUSH1 0xA0 SHL SUB DUP4 DUP2 AND PUSH1 0x1 PUSH1 0x1 PUSH1 0xA0 SHL SUB NOT DUP4 AND DUP2 OR DUP5 SSTORE PUSH1 0x40 MLOAD SWAP2 SWAP1 SWAP3 AND SWAP3 DUP4 SWAP2 PUSH32 0x8BE0079C531659141344CD1FD0A4F28419497F9722A3DAAFE3B4186F6B6457E0 SWAP2 SWAP1 LOG3 POP POP JUMP JUMPDEST DUP3 DUP1 SLOAD PUSH3 0xEB SWAP1 PUSH3 0x2BF JUMP JUMPDEST SWAP1 PUSH1 0x0 MSTORE PUSH1 0x20 PUSH1 0x0 KECCAK256 SWAP1 PUSH1 0x1F ADD PUSH1 0x20 SWAP1 DIV DUP2 ADD SWAP3 DUP3 PUSH3 0x10F JUMPI PUSH1 0x0 DUP6 SSTORE PUSH3 0x15A JUMP JUMPDEST DUP3 PUSH1 0x1F LT PUSH3 0x12A JUMPI DUP1 MLOAD PUSH1 0xFF NOT AND DUP4 DUP1 ADD OR DUP6 SSTORE PUSH3 0x15A JUMP JUMPDEST DUP3 DUP1 ADD PUSH1 0x1 ADD DUP6 SSTORE DUP3 ISZERO PUSH3 0x15A JUMPI SWAP2 DUP3 ADD JUMPDEST DUP3 DUP2 GT ISZERO PUSH3 0x15A JUMPI DUP3 MLOAD DUP3 SSTORE SWAP2 PUSH1 0x20 ADD SWAP2 SWAP1 PUSH1 0x1 ADD SWAP1 PUSH3 0x13D JUMP JUMPDEST POP PUSH3 0x168 SWAP3 SWAP2 POP PUSH3 0x16C JUMP JUMPDEST POP SWAP1 JUMP JUMPDEST JUMPDEST DUP1 DUP3 GT ISZERO PUSH3 0x168 JUMPI PUSH1 0x0 DUP2 SSTORE PUSH1 0x1 ADD PUSH3 0x16D JUMP JUMPDEST PUSH1 0x0 DUP3 PUSH1 0x1F DUP4 ADD SLT PUSH3 0x194 JUMPI DUP1 DUP2 REVERT JUMPDEST DUP2 MLOAD PUSH1 0x1 PUSH1 0x1 PUSH1 0x40 SHL SUB DUP1 DUP3 GT ISZERO PUSH3 0x1B1 JUMPI PUSH3 0x1B1 PUSH3 0x2FC JUMP JUMPDEST PUSH1 0x40 MLOAD PUSH1 0x1F DUP4 ADD PUSH1 0x1F NOT SWAP1 DUP2 AND PUSH1 0x3F ADD AND DUP2 ADD SWAP1 DUP3 DUP3 GT DUP2 DUP4 LT OR ISZERO PUSH3 0x1DC JUMPI PUSH3 0x1DC PUSH3 0x2FC JUMP JUMPDEST DUP2 PUSH1 0x40 MSTORE DUP4 DUP2 MSTORE PUSH1 0x20 SWAP3 POP DUP7 DUP4 DUP6 DUP9 ADD ADD GT ISZERO PUSH3 0x1F8 JUMPI DUP5 DUP6 REVERT JUMPDEST DUP5 SWAP2 POP JUMPDEST DUP4 DUP3 LT ISZERO PUSH3 0x21B JUMPI DUP6 DUP3 ADD DUP4 ADD MLOAD DUP2 DUP4 ADD DUP5 ADD MSTORE SWAP1 DUP3 ADD SWAP1 PUSH3 0x1FC JUMP JUMPDEST DUP4 DUP3 GT ISZERO PUSH3 0x22C JUMPI DUP5 DUP4 DUP6 DUP4 ADD ADD MSTORE JUMPDEST SWAP7 SWAP6 POP POP POP POP POP POP JUMP JUMPDEST PUSH1 0x0 DUP1 PUSH1 0x0 PUSH1 0x60 DUP5 DUP7 SUB SLT ISZERO PUSH3 0x24B JUMPI DUP3 DUP4 REVERT JUMPDEST DUP4 MLOAD PUSH1 0x1 PUSH1 0x1 PUSH1 0x40 SHL SUB DUP1 DUP3 GT ISZERO PUSH3 0x262 JUMPI DUP5 DUP6 REVERT JUMPDEST PUSH3 0x270 DUP8 DUP4 DUP9 ADD PUSH3 0x183 JUMP JUMPDEST SWAP5 POP PUSH1 0x20 DUP7 ADD MLOAD SWAP2 POP DUP1 DUP3 GT ISZERO PUSH3 0x286 JUMPI DUP4 DUP5 REVERT JUMPDEST POP PUSH3 0x295 DUP7 DUP3 DUP8 ADD PUSH3 0x183 JUMP JUMPDEST PUSH1 0x40 DUP7 ADD MLOAD SWAP1 SWAP4 POP SWAP1 POP PUSH1 0x1 PUSH1 0x1 PUSH1 0xA0 SHL SUB DUP2 AND DUP2 EQ PUSH3 0x2B4 JUMPI DUP2 DUP3 REVERT JUMPDEST DUP1 SWAP2 POP POP SWAP3 POP SWAP3 POP SWAP3 JUMP JUMPDEST PUSH1 0x2 DUP2 DIV PUSH1 0x1 DUP3 AND DUP1 PUSH3 0x2D4 JUMPI PUSH1 0x7F DUP3 AND SWAP2 POP JUMPDEST PUSH1 0x20 DUP3 LT DUP2 EQ ISZERO PUSH3 0x2F6 JUMPI PUSH4 0x4E487B71 PUSH1 0xE0 SHL PUSH1 0x0 MSTORE PUSH1 0x22 PUSH1 0x4 MSTORE PUSH1 0x24 PUSH1 0x0 REVERT JUMPDEST POP SWAP2 SWAP1 POP JUMP JUMPDEST PUSH4 0x4E487B71 PUSH1 0xE0 SHL PUSH1 0x0 MSTORE PUSH1 0x41 PUSH1 0x4 MSTORE PUSH1 0x24 PUSH1 0x0 REVERT JUMPDEST PUSH1 0x80 MLOAD PUSH1 0x60 SHR PUSH2 0x328D PUSH3 0x369 PUSH1 0x0 CODECOPY PUSH1 0x0 DUP2 DUP2 PUSH2 0x60E ADD MSTORE DUP2 DUP2 PUSH2 0x773 ADD MSTORE DUP2 DUP2 PUSH2 0xA94 ADD MSTORE DUP2 DUP2 PUSH2 0xB35 ADD MSTORE DUP2 DUP2 PUSH2 0xBD3 ADD MSTORE DUP2 DUP2 PUSH2 0xD7F ADD MSTORE DUP2 DUP2 PUSH2 0x12D3 ADD MSTORE DUP2 DUP2 PUSH2 0x177E ADD MSTORE PUSH2 0x21C0 ADD MSTORE PUSH2 0x328D PUSH1 0x0 RETURN INVALID PUSH1 0x80 PUSH1 0x40 MSTORE PUSH1 0x4 CALLDATASIZE LT PUSH2 0x1E0 JUMPI PUSH1 0x0 CALLDATALOAD PUSH1 0xE0 SHR DUP1 PUSH3 0x1D3567 EQ PUSH2 0x1E5 JUMPI DUP1 PUSH4 0x1FFC9A7 EQ PUSH2 0x207 JUMPI DUP1 PUSH4 0x6FDDE03 EQ PUSH2 0x23C JUMPI DUP1 PUSH4 0x7E0DB17 EQ PUSH2 0x25E JUMPI DUP1 PUSH4 0x95EA7B3 EQ PUSH2 0x27E JUMPI DUP1 PUSH4 0x10DDB137 EQ PUSH2 0x29E JUMPI DUP1 PUSH4 0x18160DDD EQ PUSH2 0x2BE JUMPI DUP1 PUSH4 0x23B872DD EQ PUSH2 0x2DD JUMPI DUP1 PUSH4 0x2A205E3D EQ PUSH2 0x2FD JUMPI DUP1 PUSH4 0x313CE567 EQ PUSH2 0x332 JUMPI DUP1 PUSH4 0x39509351 EQ PUSH2 0x34E JUMPI DUP1 PUSH4 0x3D8B38F6 EQ PUSH2 0x36E JUMPI DUP1 PUSH4 0x42D65A8D EQ PUSH2 0x38E JUMPI DUP1 PUSH4 0x44770515 EQ PUSH2 0x3AE JUMPI DUP1 PUSH4 0x4C42899A EQ PUSH2 0x3C3 JUMPI DUP1 PUSH4 0x51905636 EQ PUSH2 0x3EB JUMPI DUP1 PUSH4 0x5B8C41E6 EQ PUSH2 0x3FE JUMPI DUP1 PUSH4 0x66AD5C8A EQ PUSH2 0x44D JUMPI DUP1 PUSH4 0x70A08231 EQ PUSH2 0x46D JUMPI DUP1 PUSH4 0x715018A6 EQ PUSH2 0x4A3 JUMPI DUP1 PUSH4 0x7533D788 EQ PUSH2 0x4B8 JUMPI DUP1 PUSH4 0x8CFD8F5C EQ PUSH2 0x4D8 JUMPI DUP1 PUSH4 0x8DA5CB5B EQ PUSH2 0x510 JUMPI DUP1 PUSH4 0x9358928B EQ PUSH2 0x532 JUMPI DUP1 PUSH4 0x950C8A74 EQ PUSH2 0x547 JUMPI DUP1 PUSH4 0x95D89B41 EQ PUSH2 0x567 JUMPI DUP1 PUSH4 0x9F38369A EQ PUSH2 0x57C JUMPI DUP1 PUSH4 0xA457C2D7 EQ PUSH2 0x59C JUMPI DUP1 PUSH4 0xA6C3D165 EQ PUSH2 0x5BC JUMPI DUP1 PUSH4 0xA9059CBB EQ PUSH2 0x5DC JUMPI DUP1 PUSH4 0xB353AAA7 EQ PUSH2 0x5FC JUMPI DUP1 PUSH4 0xBAF3292D EQ PUSH2 0x630 JUMPI DUP1 PUSH4 0xCBED8B9C EQ PUSH2 0x650 JUMPI DUP1 PUSH4 0xD1DEBA1F EQ PUSH2 0x670 JUMPI DUP1 PUSH4 0xDD62ED3E EQ PUSH2 0x683 JUMPI DUP1 PUSH4 0xDF2A5B3B EQ PUSH2 0x6A3 JUMPI DUP1 PUSH4 0xEAB45D9C EQ PUSH2 0x6C3 JUMPI DUP1 PUSH4 0xEB8D72B7 EQ PUSH2 0x6E3 JUMPI DUP1 PUSH4 0xED629C5C EQ PUSH2 0x703 JUMPI DUP1 PUSH4 0xF2FDE38B EQ PUSH2 0x71D JUMPI DUP1 PUSH4 0xF5ECBDBC EQ PUSH2 0x73D JUMPI DUP1 PUSH4 0xFC0C546A EQ PUSH2 0x75D JUMPI JUMPDEST PUSH1 0x0 DUP1 REVERT JUMPDEST CALLVALUE DUP1 ISZERO PUSH2 0x1F1 JUMPI PUSH1 0x0 DUP1 REVERT JUMPDEST POP PUSH2 0x205 PUSH2 0x200 CALLDATASIZE PUSH1 0x4 PUSH2 0x2B11 JUMP JUMPDEST PUSH2 0x770 JUMP JUMPDEST STOP JUMPDEST CALLVALUE DUP1 ISZERO PUSH2 0x213 JUMPI PUSH1 0x0 DUP1 REVERT JUMPDEST POP PUSH2 0x227 PUSH2 0x222 CALLDATASIZE PUSH1 0x4 PUSH2 0x29AD JUMP JUMPDEST PUSH2 0x9A1 JUMP JUMPDEST PUSH1 0x40 MLOAD SWAP1 ISZERO ISZERO DUP2 MSTORE PUSH1 0x20 ADD JUMPDEST PUSH1 0x40 MLOAD DUP1 SWAP2 SUB SWAP1 RETURN JUMPDEST CALLVALUE DUP1 ISZERO PUSH2 0x248 JUMPI PUSH1 0x0 DUP1 REVERT JUMPDEST POP PUSH2 0x251 PUSH2 0x9E1 JUMP JUMPDEST PUSH1 0x40 MLOAD PUSH2 0x233 SWAP2 SWAP1 PUSH2 0x2E8A JUMP JUMPDEST CALLVALUE DUP1 ISZERO PUSH2 0x26A JUMPI PUSH1 0x0 DUP1 REVERT JUMPDEST POP PUSH2 0x205 PUSH2 0x279 CALLDATASIZE PUSH1 0x4 PUSH2 0x2A07 JUMP JUMPDEST PUSH2 0xA73 JUMP JUMPDEST CALLVALUE DUP1 ISZERO PUSH2 0x28A JUMPI PUSH1 0x0 DUP1 REVERT JUMPDEST POP PUSH2 0x227 PUSH2 0x299 CALLDATASIZE PUSH1 0x4 PUSH2 0x2968 JUMP JUMPDEST PUSH2 0xAFC JUMP JUMPDEST CALLVALUE DUP1 ISZERO PUSH2 0x2AA JUMPI PUSH1 0x0 DUP1 REVERT JUMPDEST POP PUSH2 0x205 PUSH2 0x2B9 CALLDATASIZE PUSH1 0x4 PUSH2 0x2A07 JUMP JUMPDEST PUSH2 0xB14 JUMP JUMPDEST CALLVALUE DUP1 ISZERO PUSH2 0x2CA JUMPI PUSH1 0x0 DUP1 REVERT JUMPDEST POP PUSH1 0x8 SLOAD JUMPDEST PUSH1 0x40 MLOAD SWAP1 DUP2 MSTORE PUSH1 0x20 ADD PUSH2 0x233 JUMP JUMPDEST CALLVALUE DUP1 ISZERO PUSH2 0x2E9 JUMPI PUSH1 0x0 DUP1 REVERT JUMPDEST POP PUSH2 0x227 PUSH2 0x2F8 CALLDATASIZE PUSH1 0x4 PUSH2 0x2862 JUMP JUMPDEST PUSH2 0xB6C JUMP JUMPDEST CALLVALUE DUP1 ISZERO PUSH2 0x309 JUMPI PUSH1 0x0 DUP1 REVERT JUMPDEST POP PUSH2 0x31D PUSH2 0x318 CALLDATASIZE PUSH1 0x4 PUSH2 0x2A75 JUMP JUMPDEST PUSH2 0xB90 JUMP JUMPDEST PUSH1 0x40 DUP1 MLOAD SWAP3 DUP4 MSTORE PUSH1 0x20 DUP4 ADD SWAP2 SWAP1 SWAP2 MSTORE ADD PUSH2 0x233 JUMP JUMPDEST CALLVALUE DUP1 ISZERO PUSH2 0x33E JUMPI PUSH1 0x0 DUP1 REVERT JUMPDEST POP PUSH1 0x40 MLOAD PUSH1 0x12 DUP2 MSTORE PUSH1 0x20 ADD PUSH2 0x233 JUMP JUMPDEST CALLVALUE DUP1 ISZERO PUSH2 0x35A JUMPI PUSH1 0x0 DUP1 REVERT JUMPDEST POP PUSH2 0x227 PUSH2 0x369 CALLDATASIZE PUSH1 0x4 PUSH2 0x2968 JUMP JUMPDEST PUSH2 0xC72 JUMP JUMPDEST CALLVALUE DUP1 ISZERO PUSH2 0x37A JUMPI PUSH1 0x0 DUP1 REVERT JUMPDEST POP PUSH2 0x227 PUSH2 0x389 CALLDATASIZE PUSH1 0x4 PUSH2 0x2A23 JUMP JUMPDEST PUSH2 0xC94 JUMP JUMPDEST CALLVALUE DUP1 ISZERO PUSH2 0x39A JUMPI PUSH1 0x0 DUP1 REVERT JUMPDEST POP PUSH2 0x205 PUSH2 0x3A9 CALLDATASIZE PUSH1 0x4 PUSH2 0x2A23 JUMP JUMPDEST PUSH2 0xD60 JUMP JUMPDEST CALLVALUE DUP1 ISZERO PUSH2 0x3BA JUMPI PUSH1 0x0 DUP1 REVERT JUMPDEST POP PUSH2 0x2CF PUSH1 0x0 DUP2 JUMP JUMPDEST CALLVALUE DUP1 ISZERO PUSH2 0x3CF JUMPI PUSH1 0x0 DUP1 REVERT JUMPDEST POP PUSH2 0x3D8 PUSH1 0x0 DUP2 JUMP JUMPDEST PUSH1 0x40 MLOAD PUSH2 0xFFFF SWAP1 SWAP2 AND DUP2 MSTORE PUSH1 0x20 ADD PUSH2 0x233 JUMP JUMPDEST PUSH2 0x205 PUSH2 0x3F9 CALLDATASIZE PUSH1 0x4 PUSH2 0x28A2 JUMP JUMPDEST PUSH2 0xDE6 JUMP JUMPDEST CALLVALUE DUP1 ISZERO PUSH2 0x40A JUMPI PUSH1 0x0 DUP1 REVERT JUMPDEST POP PUSH2 0x2CF PUSH2 0x419 CALLDATASIZE PUSH1 0x4 PUSH2 0x2BFA JUMP JUMPDEST PUSH1 0x4 PUSH1 0x20 SWAP1 DUP2 MSTORE PUSH1 0x0 SWAP4 DUP5 MSTORE PUSH1 0x40 DUP1 DUP6 KECCAK256 DUP5 MLOAD DUP1 DUP7 ADD DUP5 ADD DUP1 MLOAD SWAP3 DUP2 MSTORE SWAP1 DUP5 ADD SWAP6 DUP5 ADD SWAP6 SWAP1 SWAP6 KECCAK256 SWAP5 MSTORE SWAP3 SWAP1 MSTORE DUP3 MSTORE SWAP1 KECCAK256 SLOAD DUP2 JUMP JUMPDEST CALLVALUE DUP1 ISZERO PUSH2 0x459 JUMPI PUSH1 0x0 DUP1 REVERT JUMPDEST POP PUSH2 0x205 PUSH2 0x468 CALLDATASIZE PUSH1 0x4 PUSH2 0x2B11 JUMP JUMPDEST PUSH2 0xE6B JUMP JUMPDEST CALLVALUE DUP1 ISZERO PUSH2 0x479 JUMPI PUSH1 0x0 DUP1 REVERT JUMPDEST POP PUSH2 0x2CF PUSH2 0x488 CALLDATASIZE PUSH1 0x4 PUSH2 0x280E JUMP JUMPDEST PUSH1 0x1 PUSH1 0x1 PUSH1 0xA0 SHL SUB AND PUSH1 0x0 SWAP1 DUP2 MSTORE PUSH1 0x6 PUSH1 0x20 MSTORE PUSH1 0x40 SWAP1 KECCAK256 SLOAD SWAP1 JUMP JUMPDEST CALLVALUE DUP1 ISZERO PUSH2 0x4AF JUMPI PUSH1 0x0 DUP1 REVERT JUMPDEST POP PUSH2 0x205 PUSH2 0xF47 JUMP JUMPDEST CALLVALUE DUP1 ISZERO PUSH2 0x4C4 JUMPI PUSH1 0x0 DUP1 REVERT JUMPDEST POP PUSH2 0x251 PUSH2 0x4D3 CALLDATASIZE PUSH1 0x4 PUSH2 0x2A07 JUMP JUMPDEST PUSH2 0xF5B JUMP JUMPDEST CALLVALUE DUP1 ISZERO PUSH2 0x4E4 JUMPI PUSH1 0x0 DUP1 REVERT JUMPDEST POP PUSH2 0x2CF PUSH2 0x4F3 CALLDATASIZE PUSH1 0x4 PUSH2 0x2C91 JUMP JUMPDEST PUSH1 0x2 PUSH1 0x20 SWAP1 DUP2 MSTORE PUSH1 0x0 SWAP3 DUP4 MSTORE PUSH1 0x40 DUP1 DUP5 KECCAK256 SWAP1 SWAP2 MSTORE SWAP1 DUP3 MSTORE SWAP1 KECCAK256 SLOAD DUP2 JUMP JUMPDEST CALLVALUE DUP1 ISZERO PUSH2 0x51C JUMPI PUSH1 0x0 DUP1 REVERT JUMPDEST POP PUSH2 0x525 PUSH2 0xFF5 JUMP JUMPDEST PUSH1 0x40 MLOAD PUSH2 0x233 SWAP2 SWAP1 PUSH2 0x2E76 JUMP JUMPDEST CALLVALUE DUP1 ISZERO PUSH2 0x53E JUMPI PUSH1 0x0 DUP1 REVERT JUMPDEST POP PUSH2 0x2CF PUSH2 0x1004 JUMP JUMPDEST CALLVALUE DUP1 ISZERO PUSH2 0x553 JUMPI PUSH1 0x0 DUP1 REVERT JUMPDEST POP PUSH1 0x3 SLOAD PUSH2 0x525 SWAP1 PUSH1 0x1 PUSH1 0x1 PUSH1 0xA0 SHL SUB AND DUP2 JUMP JUMPDEST CALLVALUE DUP1 ISZERO PUSH2 0x573 JUMPI PUSH1 0x0 DUP1 REVERT JUMPDEST POP PUSH2 0x251 PUSH2 0x1014 JUMP JUMPDEST CALLVALUE DUP1 ISZERO PUSH2 0x588 JUMPI PUSH1 0x0 DUP1 REVERT JUMPDEST POP PUSH2 0x251 PUSH2 0x597 CALLDATASIZE PUSH1 0x4 PUSH2 0x2A07 JUMP JUMPDEST PUSH2 0x1023 JUMP JUMPDEST CALLVALUE DUP1 ISZERO PUSH2 0x5A8 JUMPI PUSH1 0x0 DUP1 REVERT JUMPDEST POP PUSH2 0x227 PUSH2 0x5B7 CALLDATASIZE PUSH1 0x4 PUSH2 0x2968 JUMP JUMPDEST PUSH2 0x113A JUMP JUMPDEST CALLVALUE DUP1 ISZERO PUSH2 0x5C8 JUMPI PUSH1 0x0 DUP1 REVERT JUMPDEST POP PUSH2 0x205 PUSH2 0x5D7 CALLDATASIZE PUSH1 0x4 PUSH2 0x2A23 JUMP JUMPDEST PUSH2 0x11B5 JUMP JUMPDEST CALLVALUE DUP1 ISZERO PUSH2 0x5E8 JUMPI PUSH1 0x0 DUP1 REVERT JUMPDEST POP PUSH2 0x227 PUSH2 0x5F7 CALLDATASIZE PUSH1 0x4 PUSH2 0x2968 JUMP JUMPDEST PUSH2 0x1248 JUMP JUMPDEST CALLVALUE DUP1 ISZERO PUSH2 0x608 JUMPI PUSH1 0x0 DUP1 REVERT JUMPDEST POP PUSH2 0x525 PUSH32 0x0 DUP2 JUMP JUMPDEST CALLVALUE DUP1 ISZERO PUSH2 0x63C JUMPI PUSH1 0x0 DUP1 REVERT JUMPDEST POP PUSH2 0x205 PUSH2 0x64B CALLDATASIZE PUSH1 0x4 PUSH2 0x280E JUMP JUMPDEST PUSH2 0x1256 JUMP JUMPDEST CALLVALUE DUP1 ISZERO PUSH2 0x65C JUMPI PUSH1 0x0 DUP1 REVERT JUMPDEST POP PUSH2 0x205 PUSH2 0x66B CALLDATASIZE PUSH1 0x4 PUSH2 0x2D3D JUMP JUMPDEST PUSH2 0x12B4 JUMP JUMPDEST PUSH2 0x205 PUSH2 0x67E CALLDATASIZE PUSH1 0x4 PUSH2 0x2B11 JUMP JUMPDEST PUSH2 0x133E JUMP JUMPDEST CALLVALUE DUP1 ISZERO PUSH2 0x68F JUMPI PUSH1 0x0 DUP1 REVERT JUMPDEST POP PUSH2 0x2CF PUSH2 0x69E CALLDATASIZE PUSH1 0x4 PUSH2 0x282A JUMP JUMPDEST PUSH2 0x1554 JUMP JUMPDEST CALLVALUE DUP1 ISZERO PUSH2 0x6AF JUMPI PUSH1 0x0 DUP1 REVERT JUMPDEST POP PUSH2 0x205 PUSH2 0x6BE CALLDATASIZE PUSH1 0x4 PUSH2 0x2D0E JUMP JUMPDEST PUSH2 0x157F JUMP JUMPDEST CALLVALUE DUP1 ISZERO PUSH2 0x6CF JUMPI PUSH1 0x0 DUP1 REVERT JUMPDEST POP PUSH2 0x205 PUSH2 0x6DE CALLDATASIZE PUSH1 0x4 PUSH2 0x2993 JUMP JUMPDEST PUSH2 0x1631 JUMP JUMPDEST CALLVALUE DUP1 ISZERO PUSH2 0x6EF JUMPI PUSH1 0x0 DUP1 REVERT JUMPDEST POP PUSH2 0x205 PUSH2 0x6FE CALLDATASIZE PUSH1 0x4 PUSH2 0x2A23 JUMP JUMPDEST PUSH2 0x167A JUMP JUMPDEST CALLVALUE DUP1 ISZERO PUSH2 0x70F JUMPI PUSH1 0x0 DUP1 REVERT JUMPDEST POP PUSH1 0x5 SLOAD PUSH2 0x227 SWAP1 PUSH1 0xFF AND DUP2 JUMP JUMPDEST CALLVALUE DUP1 ISZERO PUSH2 0x729 JUMPI PUSH1 0x0 DUP1 REVERT JUMPDEST POP PUSH2 0x205 PUSH2 0x738 CALLDATASIZE PUSH1 0x4 PUSH2 0x280E JUMP JUMPDEST PUSH2 0x16D4 JUMP JUMPDEST CALLVALUE DUP1 ISZERO PUSH2 0x749 JUMPI PUSH1 0x0 DUP1 REVERT JUMPDEST POP PUSH2 0x251 PUSH2 0x758 CALLDATASIZE PUSH1 0x4 PUSH2 0x2CBE JUMP JUMPDEST PUSH2 0x174D JUMP JUMPDEST CALLVALUE DUP1 ISZERO PUSH2 0x769 JUMPI PUSH1 0x0 DUP1 REVERT JUMPDEST POP ADDRESS PUSH2 0x525 JUMP JUMPDEST CALLER PUSH32 0x0 PUSH1 0x1 PUSH1 0x1 PUSH1 0xA0 SHL SUB AND EQ PUSH2 0x7ED JUMPI PUSH1 0x40 MLOAD PUSH3 0x461BCD PUSH1 0xE5 SHL DUP2 MSTORE PUSH1 0x20 PUSH1 0x4 DUP3 ADD MSTORE PUSH1 0x1E PUSH1 0x24 DUP3 ADD MSTORE PUSH32 0x4C7A4170703A20696E76616C696420656E64706F696E742063616C6C65720000 PUSH1 0x44 DUP3 ADD MSTORE PUSH1 0x64 ADD JUMPDEST PUSH1 0x40 MLOAD DUP1 SWAP2 SUB SWAP1 REVERT JUMPDEST PUSH2 0xFFFF DUP7 AND PUSH1 0x0 SWAP1 DUP2 MSTORE PUSH1 0x1 PUSH1 0x20 MSTORE PUSH1 0x40 DUP2 KECCAK256 DUP1 SLOAD PUSH2 0x80B SWAP1 PUSH2 0x31AB JUMP JUMPDEST DUP1 PUSH1 0x1F ADD PUSH1 0x20 DUP1 SWAP2 DIV MUL PUSH1 0x20 ADD PUSH1 0x40 MLOAD SWAP1 DUP2 ADD PUSH1 0x40 MSTORE DUP1 SWAP3 SWAP2 SWAP1 DUP2 DUP2 MSTORE PUSH1 0x20 ADD DUP3 DUP1 SLOAD PUSH2 0x837 SWAP1 PUSH2 0x31AB JUMP JUMPDEST DUP1 ISZERO PUSH2 0x884 JUMPI DUP1 PUSH1 0x1F LT PUSH2 0x859 JUMPI PUSH2 0x100 DUP1 DUP4 SLOAD DIV MUL DUP4 MSTORE SWAP2 PUSH1 0x20 ADD SWAP2 PUSH2 0x884 JUMP JUMPDEST DUP3 ADD SWAP2 SWAP1 PUSH1 0x0 MSTORE PUSH1 0x20 PUSH1 0x0 KECCAK256 SWAP1 JUMPDEST DUP2 SLOAD DUP2 MSTORE SWAP1 PUSH1 0x1 ADD SWAP1 PUSH1 0x20 ADD DUP1 DUP4 GT PUSH2 0x867 JUMPI DUP3 SWAP1 SUB PUSH1 0x1F AND DUP3 ADD SWAP2 JUMPDEST POP POP POP POP POP SWAP1 POP DUP1 MLOAD DUP7 DUP7 SWAP1 POP EQ DUP1 ISZERO PUSH2 0x89F JUMPI POP PUSH1 0x0 DUP2 MLOAD GT JUMPDEST DUP1 ISZERO PUSH2 0x8C7 JUMPI POP DUP1 MLOAD PUSH1 0x20 DUP3 ADD KECCAK256 PUSH1 0x40 MLOAD PUSH2 0x8BD SWAP1 DUP9 SWAP1 DUP9 SWAP1 PUSH2 0x2E26 JUMP JUMPDEST PUSH1 0x40 MLOAD DUP1 SWAP2 SUB SWAP1 KECCAK256 EQ JUMPDEST PUSH2 0x922 JUMPI PUSH1 0x40 MLOAD PUSH3 0x461BCD PUSH1 0xE5 SHL DUP2 MSTORE PUSH1 0x20 PUSH1 0x4 DUP3 ADD MSTORE PUSH1 0x26 PUSH1 0x24 DUP3 ADD MSTORE PUSH32 0x4C7A4170703A20696E76616C696420736F757263652073656E64696E6720636F PUSH1 0x44 DUP3 ADD MSTORE PUSH6 0x1B9D1C9858DD PUSH1 0xD2 SHL PUSH1 0x64 DUP3 ADD MSTORE PUSH1 0x84 ADD PUSH2 0x7E4 JUMP JUMPDEST PUSH2 0x998 DUP8 DUP8 DUP8 DUP1 DUP1 PUSH1 0x1F ADD PUSH1 0x20 DUP1 SWAP2 DIV MUL PUSH1 0x20 ADD PUSH1 0x40 MLOAD SWAP1 DUP2 ADD PUSH1 0x40 MSTORE DUP1 SWAP4 SWAP3 SWAP2 SWAP1 DUP2 DUP2 MSTORE PUSH1 0x20 ADD DUP4 DUP4 DUP1 DUP3 DUP5 CALLDATACOPY PUSH1 0x0 SWAP3 ADD SWAP2 SWAP1 SWAP2 MSTORE POP POP PUSH1 0x40 DUP1 MLOAD PUSH1 0x20 PUSH1 0x1F DUP11 ADD DUP2 SWAP1 DIV DUP2 MUL DUP3 ADD DUP2 ADD SWAP1 SWAP3 MSTORE DUP9 DUP2 MSTORE DUP11 SWAP4 POP SWAP2 POP DUP9 SWAP1 DUP9 SWAP1 DUP2 SWAP1 DUP5 ADD DUP4 DUP3 DUP1 DUP3 DUP5 CALLDATACOPY PUSH1 0x0 SWAP3 ADD SWAP2 SWAP1 SWAP2 MSTORE POP PUSH2 0x180D SWAP3 POP POP POP JUMP JUMPDEST POP POP POP POP POP POP POP JUMP JUMPDEST PUSH1 0x0 PUSH1 0x1 PUSH1 0x1 PUSH1 0xE0 SHL SUB NOT DUP3 AND ISZERO DUP1 PUSH2 0x9CA JUMPI POP PUSH1 0x1 PUSH1 0x1 PUSH1 0xE0 SHL SUB NOT DUP3 AND PUSH4 0x36372B07 PUSH1 0xE0 SHL EQ JUMPDEST DUP1 PUSH2 0x9D9 JUMPI POP PUSH2 0x9D9 DUP3 PUSH2 0x1886 JUMP JUMPDEST SWAP1 POP JUMPDEST SWAP2 SWAP1 POP JUMP JUMPDEST PUSH1 0x60 PUSH1 0x9 DUP1 SLOAD PUSH2 0x9F0 SWAP1 PUSH2 0x31AB JUMP JUMPDEST DUP1 PUSH1 0x1F ADD PUSH1 0x20 DUP1 SWAP2 DIV MUL PUSH1 0x20 ADD PUSH1 0x40 MLOAD SWAP1 DUP2 ADD PUSH1 0x40 MSTORE DUP1 SWAP3 SWAP2 SWAP1 DUP2 DUP2 MSTORE PUSH1 0x20 ADD DUP3 DUP1 SLOAD PUSH2 0xA1C SWAP1 PUSH2 0x31AB JUMP JUMPDEST DUP1 ISZERO PUSH2 0xA69 JUMPI DUP1 PUSH1 0x1F LT PUSH2 0xA3E JUMPI PUSH2 0x100 DUP1 DUP4 SLOAD DIV MUL DUP4 MSTORE SWAP2 PUSH1 0x20 ADD SWAP2 PUSH2 0xA69 JUMP JUMPDEST DUP3 ADD SWAP2 SWAP1 PUSH1 0x0 MSTORE PUSH1 0x20 PUSH1 0x0 KECCAK256 SWAP1 JUMPDEST DUP2 SLOAD DUP2 MSTORE SWAP1 PUSH1 0x1 ADD SWAP1 PUSH1 0x20 ADD DUP1 DUP4 GT PUSH2 0xA4C JUMPI DUP3 SWAP1 SUB PUSH1 0x1F AND DUP3 ADD SWAP2 JUMPDEST POP POP POP POP POP SWAP1 POP SWAP1 JUMP JUMPDEST PUSH2 0xA7B PUSH2 0x18BB JUMP JUMPDEST PUSH1 0x40 MLOAD PUSH4 0x7E0DB17 PUSH1 0xE0 SHL DUP2 MSTORE PUSH2 0xFFFF DUP3 AND PUSH1 0x4 DUP3 ADD MSTORE PUSH32 0x0 PUSH1 0x1 PUSH1 0x1 PUSH1 0xA0 SHL SUB AND SWAP1 PUSH4 0x7E0DB17 SWAP1 PUSH1 0x24 ADD JUMPDEST PUSH1 0x0 PUSH1 0x40 MLOAD DUP1 DUP4 SUB DUP2 PUSH1 0x0 DUP8 DUP1 EXTCODESIZE ISZERO DUP1 ISZERO PUSH2 0xAE1 JUMPI PUSH1 0x0 DUP1 REVERT JUMPDEST POP GAS CALL ISZERO DUP1 ISZERO PUSH2 0xAF5 JUMPI RETURNDATASIZE PUSH1 0x0 DUP1 RETURNDATACOPY RETURNDATASIZE PUSH1 0x0 REVERT JUMPDEST POP POP POP POP POP JUMP JUMPDEST PUSH1 0x0 CALLER PUSH2 0xB0A DUP2 DUP6 DUP6 PUSH2 0x191A JUMP JUMPDEST POP PUSH1 0x1 SWAP4 SWAP3 POP POP POP JUMP JUMPDEST PUSH2 0xB1C PUSH2 0x18BB JUMP JUMPDEST PUSH1 0x40 MLOAD PUSH4 0x10DDB137 PUSH1 0xE0 SHL DUP2 MSTORE PUSH2 0xFFFF DUP3 AND PUSH1 0x4 DUP3 ADD MSTORE PUSH32 0x0 PUSH1 0x1 PUSH1 0x1 PUSH1 0xA0 SHL SUB AND SWAP1 PUSH4 0x10DDB137 SWAP1 PUSH1 0x24 ADD PUSH2 0xAC7 JUMP JUMPDEST PUSH1 0x0 CALLER PUSH2 0xB7A DUP6 DUP3 DUP6 PUSH2 0x1A3E JUMP JUMPDEST PUSH2 0xB85 DUP6 DUP6 DUP6 PUSH2 0x1AB8 JUMP JUMPDEST POP PUSH1 0x1 SWAP5 SWAP4 POP POP POP POP JUMP JUMPDEST PUSH1 0x0 DUP1 PUSH1 0x0 DUP1 DUP10 DUP10 DUP10 PUSH1 0x40 MLOAD PUSH1 0x20 ADD PUSH2 0xBAC SWAP5 SWAP4 SWAP3 SWAP2 SWAP1 PUSH2 0x2F33 JUMP JUMPDEST PUSH1 0x40 DUP1 MLOAD PUSH1 0x1F NOT DUP2 DUP5 SUB ADD DUP2 MSTORE SWAP1 DUP3 SWAP1 MSTORE PUSH4 0x40A7BB1 PUSH1 0xE4 SHL DUP3 MSTORE SWAP2 POP PUSH1 0x1 PUSH1 0x1 PUSH1 0xA0 SHL SUB PUSH32 0x0 AND SWAP1 PUSH4 0x40A7BB10 SWAP1 PUSH2 0xC12 SWAP1 DUP14 SWAP1 ADDRESS SWAP1 DUP7 SWAP1 DUP13 SWAP1 DUP13 SWAP1 DUP13 SWAP1 PUSH1 0x4 ADD PUSH2 0x2EBF JUMP JUMPDEST PUSH1 0x40 DUP1 MLOAD DUP1 DUP4 SUB DUP2 DUP7 DUP1 EXTCODESIZE ISZERO DUP1 ISZERO PUSH2 0xC29 JUMPI PUSH1 0x0 DUP1 REVERT JUMPDEST POP GAS STATICCALL ISZERO DUP1 ISZERO PUSH2 0xC3D JUMPI RETURNDATASIZE PUSH1 0x0 DUP1 RETURNDATACOPY RETURNDATASIZE PUSH1 0x0 REVERT JUMPDEST POP POP POP POP PUSH1 0x40 MLOAD RETURNDATASIZE PUSH1 0x1F NOT PUSH1 0x1F DUP3 ADD AND DUP3 ADD DUP1 PUSH1 0x40 MSTORE POP DUP2 ADD SWAP1 PUSH2 0xC61 SWAP2 SWAP1 PUSH2 0x2DAD JUMP JUMPDEST SWAP3 POP SWAP3 POP POP SWAP8 POP SWAP8 SWAP6 POP POP POP POP POP POP JUMP JUMPDEST PUSH1 0x0 CALLER PUSH2 0xB0A DUP2 DUP6 DUP6 PUSH2 0xC85 DUP4 DUP4 PUSH2 0x1554 JUMP JUMPDEST PUSH2 0xC8F SWAP2 SWAP1 PUSH2 0x3150 JUMP JUMPDEST PUSH2 0x191A JUMP JUMPDEST PUSH2 0xFFFF DUP4 AND PUSH1 0x0 SWAP1 DUP2 MSTORE PUSH1 0x1 PUSH1 0x20 MSTORE PUSH1 0x40 DUP2 KECCAK256 DUP1 SLOAD DUP3 SWAP2 SWAP1 PUSH2 0xCB5 SWAP1 PUSH2 0x31AB JUMP JUMPDEST DUP1 PUSH1 0x1F ADD PUSH1 0x20 DUP1 SWAP2 DIV MUL PUSH1 0x20 ADD PUSH1 0x40 MLOAD SWAP1 DUP2 ADD PUSH1 0x40 MSTORE DUP1 SWAP3 SWAP2 SWAP1 DUP2 DUP2 MSTORE PUSH1 0x20 ADD DUP3 DUP1 SLOAD PUSH2 0xCE1 SWAP1 PUSH2 0x31AB JUMP JUMPDEST DUP1 ISZERO PUSH2 0xD2E JUMPI DUP1 PUSH1 0x1F LT PUSH2 0xD03 JUMPI PUSH2 0x100 DUP1 DUP4 SLOAD DIV MUL DUP4 MSTORE SWAP2 PUSH1 0x20 ADD SWAP2 PUSH2 0xD2E JUMP JUMPDEST DUP3 ADD SWAP2 SWAP1 PUSH1 0x0 MSTORE PUSH1 0x20 PUSH1 0x0 KECCAK256 SWAP1 JUMPDEST DUP2 SLOAD DUP2 MSTORE SWAP1 PUSH1 0x1 ADD SWAP1 PUSH1 0x20 ADD DUP1 DUP4 GT PUSH2 0xD11 JUMPI DUP3 SWAP1 SUB PUSH1 0x1F AND DUP3 ADD SWAP2 JUMPDEST POP POP POP POP POP SWAP1 POP DUP4 DUP4 PUSH1 0x40 MLOAD PUSH2 0xD45 SWAP3 SWAP2 SWAP1 PUSH2 0x2E26 JUMP JUMPDEST PUSH1 0x40 MLOAD DUP1 SWAP2 SUB SWAP1 KECCAK256 DUP2 DUP1 MLOAD SWAP1 PUSH1 0x20 ADD KECCAK256 EQ SWAP2 POP POP SWAP4 SWAP3 POP POP POP JUMP JUMPDEST PUSH2 0xD68 PUSH2 0x18BB JUMP JUMPDEST PUSH1 0x40 MLOAD PUSH4 0x42D65A8D PUSH1 0xE0 SHL DUP2 MSTORE PUSH1 0x1 PUSH1 0x1 PUSH1 0xA0 SHL SUB PUSH32 0x0 AND SWAP1 PUSH4 0x42D65A8D SWAP1 PUSH2 0xDB8 SWAP1 DUP7 SWAP1 DUP7 SWAP1 DUP7 SWAP1 PUSH1 0x4 ADD PUSH2 0x2F15 JUMP JUMPDEST PUSH1 0x0 PUSH1 0x40 MLOAD DUP1 DUP4 SUB DUP2 PUSH1 0x0 DUP8 DUP1 EXTCODESIZE ISZERO DUP1 ISZERO PUSH2 0xDD2 JUMPI PUSH1 0x0 DUP1 REVERT JUMPDEST POP GAS CALL ISZERO DUP1 ISZERO PUSH2 0x998 JUMPI RETURNDATASIZE PUSH1 0x0 DUP1 RETURNDATACOPY RETURNDATASIZE PUSH1 0x0 REVERT JUMPDEST PUSH2 0xE60 DUP10 DUP10 DUP10 DUP10 DUP1 DUP1 PUSH1 0x1F ADD PUSH1 0x20 DUP1 SWAP2 DIV MUL PUSH1 0x20 ADD PUSH1 0x40 MLOAD SWAP1 DUP2 ADD PUSH1 0x40 MSTORE DUP1 SWAP4 SWAP3 SWAP2 SWAP1 DUP2 DUP2 MSTORE PUSH1 0x20 ADD DUP4 DUP4 DUP1 DUP3 DUP5 CALLDATACOPY PUSH1 0x0 SWAP3 ADD SWAP2 SWAP1 SWAP2 MSTORE POP POP PUSH1 0x40 DUP1 MLOAD PUSH1 0x20 PUSH1 0x1F DUP11 ADD DUP2 SWAP1 DIV DUP2 MUL DUP3 ADD DUP2 ADD SWAP1 SWAP3 MSTORE DUP9 DUP2 MSTORE DUP13 SWAP4 POP DUP12 SWAP3 POP DUP11 SWAP2 DUP11 SWAP1 DUP11 SWAP1 DUP2 SWAP1 DUP5 ADD DUP4 DUP3 DUP1 DUP3 DUP5 CALLDATACOPY PUSH1 0x0 SWAP3 ADD SWAP2 SWAP1 SWAP2 MSTORE POP PUSH2 0x1C51 SWAP3 POP POP POP JUMP JUMPDEST POP POP POP POP POP POP POP POP POP JUMP JUMPDEST CALLER ADDRESS EQ PUSH2 0xEC9 JUMPI PUSH1 0x40 MLOAD PUSH3 0x461BCD PUSH1 0xE5 SHL DUP2 MSTORE PUSH1 0x20 PUSH1 0x4 DUP3 ADD MSTORE PUSH1 0x26 PUSH1 0x24 DUP3 ADD MSTORE PUSH32 0x4E6F6E626C6F636B696E674C7A4170703A2063616C6C6572206D757374206265 PUSH1 0x44 DUP3 ADD MSTORE PUSH6 0x204C7A41707 PUSH1 0xD4 SHL PUSH1 0x64 DUP3 ADD MSTORE PUSH1 0x84 ADD PUSH2 0x7E4 JUMP JUMPDEST PUSH2 0xF3F DUP7 DUP7 DUP7 DUP1 DUP1 PUSH1 0x1F ADD PUSH1 0x20 DUP1 SWAP2 DIV MUL PUSH1 0x20 ADD PUSH1 0x40 MLOAD SWAP1 DUP2 ADD PUSH1 0x40 MSTORE DUP1 SWAP4 SWAP3 SWAP2 SWAP1 DUP2 DUP2 MSTORE PUSH1 0x20 ADD DUP4 DUP4 DUP1 DUP3 DUP5 CALLDATACOPY PUSH1 0x0 SWAP3 ADD SWAP2 SWAP1 SWAP2 MSTORE POP POP PUSH1 0x40 DUP1 MLOAD PUSH1 0x20 PUSH1 0x1F DUP10 ADD DUP2 SWAP1 DIV DUP2 MUL DUP3 ADD DUP2 ADD SWAP1 SWAP3 MSTORE DUP8 DUP2 MSTORE DUP10 SWAP4 POP SWAP2 POP DUP8 SWAP1 DUP8 SWAP1 DUP2 SWAP1 DUP5 ADD DUP4 DUP3 DUP1 DUP3 DUP5 CALLDATACOPY PUSH1 0x0 SWAP3 ADD SWAP2 SWAP1 SWAP2 MSTORE POP PUSH2 0x1CF8 SWAP3 POP POP POP JUMP JUMPDEST POP POP POP POP POP POP JUMP JUMPDEST PUSH2 0xF4F PUSH2 0x18BB JUMP JUMPDEST PUSH2 0xF59 PUSH1 0x0 PUSH2 0x1D5E JUMP JUMPDEST JUMP JUMPDEST PUSH1 0x1 PUSH1 0x20 MSTORE PUSH1 0x0 SWAP1 DUP2 MSTORE PUSH1 0x40 SWAP1 KECCAK256 DUP1 SLOAD PUSH2 0xF74 SWAP1 PUSH2 0x31AB JUMP JUMPDEST DUP1 PUSH1 0x1F ADD PUSH1 0x20 DUP1 SWAP2 DIV MUL PUSH1 0x20 ADD PUSH1 0x40 MLOAD SWAP1 DUP2 ADD PUSH1 0x40 MSTORE DUP1 SWAP3 SWAP2 SWAP1 DUP2 DUP2 MSTORE PUSH1 0x20 ADD DUP3 DUP1 SLOAD PUSH2 0xFA0 SWAP1 PUSH2 0x31AB JUMP JUMPDEST DUP1 ISZERO PUSH2 0xFED JUMPI DUP1 PUSH1 0x1F LT PUSH2 0xFC2 JUMPI PUSH2 0x100 DUP1 DUP4 SLOAD DIV MUL DUP4 MSTORE SWAP2 PUSH1 0x20 ADD SWAP2 PUSH2 0xFED JUMP JUMPDEST DUP3 ADD SWAP2 SWAP1 PUSH1 0x0 MSTORE PUSH1 0x20 PUSH1 0x0 KECCAK256 SWAP1 JUMPDEST DUP2 SLOAD DUP2 MSTORE SWAP1 PUSH1 0x1 ADD SWAP1 PUSH1 0x20 ADD DUP1 DUP4 GT PUSH2 0xFD0 JUMPI DUP3 SWAP1 SUB PUSH1 0x1F AND DUP3 ADD SWAP2 JUMPDEST POP POP POP POP POP DUP2 JUMP JUMPDEST PUSH1 0x0 SLOAD PUSH1 0x1 PUSH1 0x1 PUSH1 0xA0 SHL SUB AND SWAP1 JUMP JUMPDEST PUSH1 0x0 PUSH2 0x100F PUSH1 0x8 SLOAD SWAP1 JUMP JUMPDEST SWAP1 POP SWAP1 JUMP JUMPDEST PUSH1 0x60 PUSH1 0xA DUP1 SLOAD PUSH2 0x9F0 SWAP1 PUSH2 0x31AB JUMP JUMPDEST PUSH2 0xFFFF DUP2 AND PUSH1 0x0 SWAP1 DUP2 MSTORE PUSH1 0x1 PUSH1 0x20 MSTORE PUSH1 0x40 DUP2 KECCAK256 DUP1 SLOAD PUSH1 0x60 SWAP3 SWAP2 SWAP1 PUSH2 0x1046 SWAP1 PUSH2 0x31AB JUMP JUMPDEST DUP1 PUSH1 0x1F ADD PUSH1 0x20 DUP1 SWAP2 DIV MUL PUSH1 0x20 ADD PUSH1 0x40 MLOAD SWAP1 DUP2 ADD PUSH1 0x40 MSTORE DUP1 SWAP3 SWAP2 SWAP1 DUP2 DUP2 MSTORE PUSH1 0x20 ADD DUP3 DUP1 SLOAD PUSH2 0x1072 SWAP1 PUSH2 0x31AB JUMP JUMPDEST DUP1 ISZERO PUSH2 0x10BF JUMPI DUP1 PUSH1 0x1F LT PUSH2 0x1094 JUMPI PUSH2 0x100 DUP1 DUP4 SLOAD DIV MUL DUP4 MSTORE SWAP2 PUSH1 0x20 ADD SWAP2 PUSH2 0x10BF JUMP JUMPDEST DUP3 ADD SWAP2 SWAP1 PUSH1 0x0 MSTORE PUSH1 0x20 PUSH1 0x0 KECCAK256 SWAP1 JUMPDEST DUP2 SLOAD DUP2 MSTORE SWAP1 PUSH1 0x1 ADD SWAP1 PUSH1 0x20 ADD DUP1 DUP4 GT PUSH2 0x10A2 JUMPI DUP3 SWAP1 SUB PUSH1 0x1F AND DUP3 ADD SWAP2 JUMPDEST POP POP POP POP POP SWAP1 POP DUP1 MLOAD PUSH1 0x0 EQ ISZERO PUSH2 0x1118 JUMPI PUSH1 0x40 MLOAD PUSH3 0x461BCD PUSH1 0xE5 SHL DUP2 MSTORE PUSH1 0x20 PUSH1 0x4 DUP3 ADD MSTORE PUSH1 0x1D PUSH1 0x24 DUP3 ADD MSTORE PUSH32 0x4C7A4170703A206E6F20747275737465642070617468207265636F7264000000 PUSH1 0x44 DUP3 ADD MSTORE PUSH1 0x64 ADD PUSH2 0x7E4 JUMP JUMPDEST PUSH2 0x1133 PUSH1 0x0 PUSH1 0x14 DUP4 MLOAD PUSH2 0x112B SWAP2 SWAP1 PUSH2 0x3168 JUMP JUMPDEST DUP4 SWAP2 SWAP1 PUSH2 0x1DAE JUMP JUMPDEST SWAP4 SWAP3 POP POP POP JUMP JUMPDEST PUSH1 0x0 CALLER DUP2 PUSH2 0x1148 DUP3 DUP7 PUSH2 0x1554 JUMP JUMPDEST SWAP1 POP DUP4 DUP2 LT ISZERO PUSH2 0x11A8 JUMPI PUSH1 0x40 MLOAD PUSH3 0x461BCD PUSH1 0xE5 SHL DUP2 MSTORE PUSH1 0x20 PUSH1 0x4 DUP3 ADD MSTORE PUSH1 0x25 PUSH1 0x24 DUP3 ADD MSTORE PUSH32 0x45524332303A2064656372656173656420616C6C6F77616E63652062656C6F77 PUSH1 0x44 DUP3 ADD MSTORE PUSH5 0x207A65726F PUSH1 0xD8 SHL PUSH1 0x64 DUP3 ADD MSTORE PUSH1 0x84 ADD PUSH2 0x7E4 JUMP JUMPDEST PUSH2 0xB85 DUP3 DUP7 DUP7 DUP5 SUB PUSH2 0x191A JUMP JUMPDEST PUSH2 0x11BD PUSH2 0x18BB JUMP JUMPDEST DUP2 DUP2 ADDRESS PUSH1 0x40 MLOAD PUSH1 0x20 ADD PUSH2 0x11D2 SWAP4 SWAP3 SWAP2 SWAP1 PUSH2 0x2E36 JUMP JUMPDEST PUSH1 0x40 DUP1 MLOAD PUSH1 0x1F NOT DUP2 DUP5 SUB ADD DUP2 MSTORE SWAP2 DUP2 MSTORE PUSH2 0xFFFF DUP6 AND PUSH1 0x0 SWAP1 DUP2 MSTORE PUSH1 0x1 PUSH1 0x20 SWAP1 DUP2 MSTORE SWAP2 SWAP1 KECCAK256 DUP3 MLOAD PUSH2 0x1207 SWAP4 SWAP2 SWAP3 SWAP1 SWAP2 ADD SWAP1 PUSH2 0x2644 JUMP JUMPDEST POP PUSH32 0x8C0400CFE2D1199B1A725C78960BCC2A344D869B80590D0F2BD005DB15A572CE DUP4 DUP4 DUP4 PUSH1 0x40 MLOAD PUSH2 0x123B SWAP4 SWAP3 SWAP2 SWAP1 PUSH2 0x2F15 JUMP JUMPDEST PUSH1 0x40 MLOAD DUP1 SWAP2 SUB SWAP1 LOG1 POP POP POP JUMP JUMPDEST PUSH1 0x0 CALLER PUSH2 0xB0A DUP2 DUP6 DUP6 PUSH2 0x1AB8 JUMP JUMPDEST PUSH2 0x125E PUSH2 0x18BB JUMP JUMPDEST PUSH1 0x3 DUP1 SLOAD PUSH1 0x1 PUSH1 0x1 PUSH1 0xA0 SHL SUB NOT AND PUSH1 0x1 PUSH1 0x1 PUSH1 0xA0 SHL SUB DUP4 AND OR SWAP1 SSTORE PUSH1 0x40 MLOAD PUSH32 0x5DB758E995A17EC1AD84BDEF7E8C3293A0BD6179BCCE400DFF5D4C3D87DB726B SWAP1 PUSH2 0x12A9 SWAP1 DUP4 SWAP1 PUSH2 0x2E76 JUMP JUMPDEST PUSH1 0x40 MLOAD DUP1 SWAP2 SUB SWAP1 LOG1 POP JUMP JUMPDEST PUSH2 0x12BC PUSH2 0x18BB JUMP JUMPDEST PUSH1 0x40 MLOAD PUSH4 0x32FB62E7 PUSH1 0xE2 SHL DUP2 MSTORE PUSH1 0x1 PUSH1 0x1 PUSH1 0xA0 SHL SUB PUSH32 0x0 AND SWAP1 PUSH4 0xCBED8B9C SWAP1 PUSH2 0x1310 SWAP1 DUP9 SWAP1 DUP9 SWAP1 DUP9 SWAP1 DUP9 SWAP1 DUP9 SWAP1 PUSH1 0x4 ADD PUSH2 0x30CB JUMP JUMPDEST PUSH1 0x0 PUSH1 0x40 MLOAD DUP1 DUP4 SUB DUP2 PUSH1 0x0 DUP8 DUP1 EXTCODESIZE ISZERO DUP1 ISZERO PUSH2 0x132A JUMPI PUSH1 0x0 DUP1 REVERT JUMPDEST POP GAS CALL ISZERO DUP1 ISZERO PUSH2 0xE60 JUMPI RETURNDATASIZE PUSH1 0x0 DUP1 RETURNDATACOPY RETURNDATASIZE PUSH1 0x0 REVERT JUMPDEST PUSH2 0xFFFF DUP7 AND PUSH1 0x0 SWAP1 DUP2 MSTORE PUSH1 0x4 PUSH1 0x20 MSTORE PUSH1 0x40 DUP1 DUP3 KECCAK256 SWAP1 MLOAD PUSH2 0x1361 SWAP1 DUP9 SWAP1 DUP9 SWAP1 PUSH2 0x2E26 JUMP JUMPDEST SWAP1 DUP2 MSTORE PUSH1 0x40 DUP1 MLOAD PUSH1 0x20 SWAP3 DUP2 SWAP1 SUB DUP4 ADD SWAP1 KECCAK256 PUSH1 0x1 PUSH1 0x1 PUSH1 0x40 SHL SUB DUP8 AND PUSH1 0x0 SWAP1 DUP2 MSTORE SWAP3 MSTORE SWAP1 KECCAK256 SLOAD SWAP1 POP DUP1 PUSH2 0x13E1 JUMPI PUSH1 0x40 MLOAD PUSH3 0x461BCD PUSH1 0xE5 SHL DUP2 MSTORE PUSH1 0x20 PUSH1 0x4 DUP3 ADD MSTORE PUSH1 0x23 PUSH1 0x24 DUP3 ADD MSTORE PUSH32 0x4E6F6E626C6F636B696E674C7A4170703A206E6F2073746F726564206D657373 PUSH1 0x44 DUP3 ADD MSTORE PUSH3 0x616765 PUSH1 0xE8 SHL PUSH1 0x64 DUP3 ADD MSTORE PUSH1 0x84 ADD PUSH2 0x7E4 JUMP JUMPDEST DUP1 DUP4 DUP4 PUSH1 0x40 MLOAD PUSH2 0x13F2 SWAP3 SWAP2 SWAP1 PUSH2 0x2E26 JUMP JUMPDEST PUSH1 0x40 MLOAD DUP1 SWAP2 SUB SWAP1 KECCAK256 EQ PUSH2 0x1451 JUMPI PUSH1 0x40 MLOAD PUSH3 0x461BCD PUSH1 0xE5 SHL DUP2 MSTORE PUSH1 0x20 PUSH1 0x4 DUP3 ADD MSTORE PUSH1 0x21 PUSH1 0x24 DUP3 ADD MSTORE PUSH32 0x4E6F6E626C6F636B696E674C7A4170703A20696E76616C6964207061796C6F61 PUSH1 0x44 DUP3 ADD MSTORE PUSH1 0x19 PUSH1 0xFA SHL PUSH1 0x64 DUP3 ADD MSTORE PUSH1 0x84 ADD PUSH2 0x7E4 JUMP JUMPDEST PUSH2 0xFFFF DUP8 AND PUSH1 0x0 SWAP1 DUP2 MSTORE PUSH1 0x4 PUSH1 0x20 MSTORE PUSH1 0x40 DUP1 DUP3 KECCAK256 SWAP1 MLOAD PUSH2 0x1474 SWAP1 DUP10 SWAP1 DUP10 SWAP1 PUSH2 0x2E26 JUMP JUMPDEST SWAP1 DUP2 MSTORE PUSH1 0x40 DUP1 MLOAD PUSH1 0x20 SWAP3 DUP2 SWAP1 SUB DUP4 ADD DUP2 KECCAK256 PUSH1 0x1 PUSH1 0x1 PUSH1 0x40 SHL SUB DUP10 AND PUSH1 0x0 SWAP1 DUP2 MSTORE SWAP1 DUP5 MSTORE DUP3 SWAP1 KECCAK256 SWAP4 SWAP1 SWAP4 SSTORE PUSH1 0x1F DUP9 ADD DUP3 SWAP1 DIV DUP3 MUL DUP4 ADD DUP3 ADD SWAP1 MSTORE DUP7 DUP3 MSTORE PUSH2 0x150C SWAP2 DUP10 SWAP2 DUP10 SWAP1 DUP10 SWAP1 DUP2 SWAP1 DUP5 ADD DUP4 DUP3 DUP1 DUP3 DUP5 CALLDATACOPY PUSH1 0x0 SWAP3 ADD SWAP2 SWAP1 SWAP2 MSTORE POP POP PUSH1 0x40 DUP1 MLOAD PUSH1 0x20 PUSH1 0x1F DUP11 ADD DUP2 SWAP1 DIV DUP2 MUL DUP3 ADD DUP2 ADD SWAP1 SWAP3 MSTORE DUP9 DUP2 MSTORE DUP11 SWAP4 POP SWAP2 POP DUP9 SWAP1 DUP9 SWAP1 DUP2 SWAP1 DUP5 ADD DUP4 DUP3 DUP1 DUP3 DUP5 CALLDATACOPY PUSH1 0x0 SWAP3 ADD SWAP2 SWAP1 SWAP2 MSTORE POP PUSH2 0x1CF8 SWAP3 POP POP POP JUMP JUMPDEST PUSH32 0xC264D91F3ADC5588250E1551F547752CA0CFA8F6B530D243B9F9F4CAB10EA8E5 DUP8 DUP8 DUP8 DUP8 DUP6 PUSH1 0x40 MLOAD PUSH2 0x1543 SWAP6 SWAP5 SWAP4 SWAP3 SWAP2 SWAP1 PUSH2 0x2F62 JUMP JUMPDEST PUSH1 0x40 MLOAD DUP1 SWAP2 SUB SWAP1 LOG1 POP POP POP POP POP POP POP JUMP JUMPDEST PUSH1 0x1 PUSH1 0x1 PUSH1 0xA0 SHL SUB SWAP2 DUP3 AND PUSH1 0x0 SWAP1 DUP2 MSTORE PUSH1 0x7 PUSH1 0x20 SWAP1 DUP2 MSTORE PUSH1 0x40 DUP1 DUP4 KECCAK256 SWAP4 SWAP1 SWAP5 AND DUP3 MSTORE SWAP2 SWAP1 SWAP2 MSTORE KECCAK256 SLOAD SWAP1 JUMP JUMPDEST PUSH2 0x1587 PUSH2 0x18BB JUMP JUMPDEST PUSH1 0x0 DUP2 GT PUSH2 0x15CF JUMPI PUSH1 0x40 MLOAD PUSH3 0x461BCD PUSH1 0xE5 SHL DUP2 MSTORE PUSH1 0x20 PUSH1 0x4 DUP3 ADD MSTORE PUSH1 0x15 PUSH1 0x24 DUP3 ADD MSTORE PUSH21 0x4C7A4170703A20696E76616C6964206D696E476173 PUSH1 0x58 SHL PUSH1 0x44 DUP3 ADD MSTORE PUSH1 0x64 ADD PUSH2 0x7E4 JUMP JUMPDEST PUSH2 0xFFFF DUP4 DUP2 AND PUSH1 0x0 DUP2 DUP2 MSTORE PUSH1 0x2 PUSH1 0x20 SWAP1 DUP2 MSTORE PUSH1 0x40 DUP1 DUP4 KECCAK256 SWAP5 DUP8 AND DUP1 DUP5 MSTORE SWAP5 DUP3 MSTORE SWAP2 DUP3 SWAP1 KECCAK256 DUP6 SWAP1 SSTORE DUP2 MLOAD SWAP3 DUP4 MSTORE DUP3 ADD SWAP3 SWAP1 SWAP3 MSTORE SWAP1 DUP2 ADD DUP3 SWAP1 MSTORE PUSH32 0x9D5C7C0B934DA8FEFA9C7760C98383778A12DFBFC0C3B3106518F43FB9508AC0 SWAP1 PUSH1 0x60 ADD PUSH2 0x123B JUMP JUMPDEST PUSH2 0x1639 PUSH2 0x18BB JUMP JUMPDEST PUSH1 0x5 DUP1 SLOAD PUSH1 0xFF NOT AND DUP3 ISZERO ISZERO SWAP1 DUP2 OR SWAP1 SWAP2 SSTORE PUSH1 0x40 MLOAD SWAP1 DUP2 MSTORE PUSH32 0x1584AD594A70CBE1E6515592E1272A987D922B097EAD875069CEBE8B40C004A4 SWAP1 PUSH1 0x20 ADD PUSH2 0x12A9 JUMP JUMPDEST PUSH2 0x1682 PUSH2 0x18BB JUMP JUMPDEST PUSH2 0xFFFF DUP4 AND PUSH1 0x0 SWAP1 DUP2 MSTORE PUSH1 0x1 PUSH1 0x20 MSTORE PUSH1 0x40 SWAP1 KECCAK256 PUSH2 0x16A0 SWAP1 DUP4 DUP4 PUSH2 0x26C8 JUMP JUMPDEST POP PUSH32 0xFA41487AD5D6728F0B19276FA1EDDC16558578F5109FC39D2DC33C3230470DAB DUP4 DUP4 DUP4 PUSH1 0x40 MLOAD PUSH2 0x123B SWAP4 SWAP3 SWAP2 SWAP1 PUSH2 0x2F15 JUMP JUMPDEST PUSH2 0x16DC PUSH2 0x18BB JUMP JUMPDEST PUSH1 0x1 PUSH1 0x1 PUSH1 0xA0 SHL SUB DUP2 AND PUSH2 0x1741 JUMPI PUSH1 0x40 MLOAD PUSH3 0x461BCD PUSH1 0xE5 SHL DUP2 MSTORE PUSH1 0x20 PUSH1 0x4 DUP3 ADD MSTORE PUSH1 0x26 PUSH1 0x24 DUP3 ADD MSTORE PUSH32 0x4F776E61626C653A206E6577206F776E657220697320746865207A65726F2061 PUSH1 0x44 DUP3 ADD MSTORE PUSH6 0x646472657373 PUSH1 0xD0 SHL PUSH1 0x64 DUP3 ADD MSTORE PUSH1 0x84 ADD PUSH2 0x7E4 JUMP JUMPDEST PUSH2 0x174A DUP2 PUSH2 0x1D5E JUMP JUMPDEST POP JUMP JUMPDEST PUSH1 0x40 MLOAD PUSH4 0x3D7B2F6F PUSH1 0xE2 SHL DUP2 MSTORE PUSH2 0xFFFF DUP1 DUP7 AND PUSH1 0x4 DUP4 ADD MSTORE DUP5 AND PUSH1 0x24 DUP3 ADD MSTORE ADDRESS PUSH1 0x44 DUP3 ADD MSTORE PUSH1 0x64 DUP2 ADD DUP3 SWAP1 MSTORE PUSH1 0x60 SWAP1 PUSH32 0x0 PUSH1 0x1 PUSH1 0x1 PUSH1 0xA0 SHL SUB AND SWAP1 PUSH4 0xF5ECBDBC SWAP1 PUSH1 0x84 ADD PUSH1 0x0 PUSH1 0x40 MLOAD DUP1 DUP4 SUB DUP2 DUP7 DUP1 EXTCODESIZE ISZERO DUP1 ISZERO PUSH2 0x17C8 JUMPI PUSH1 0x0 DUP1 REVERT JUMPDEST POP GAS STATICCALL ISZERO DUP1 ISZERO PUSH2 0x17DC JUMPI RETURNDATASIZE PUSH1 0x0 DUP1 RETURNDATACOPY RETURNDATASIZE PUSH1 0x0 REVERT JUMPDEST POP POP POP POP PUSH1 0x40 MLOAD RETURNDATASIZE PUSH1 0x0 DUP3 RETURNDATACOPY PUSH1 0x1F RETURNDATASIZE SWAP1 DUP2 ADD PUSH1 0x1F NOT AND DUP3 ADD PUSH1 0x40 MSTORE PUSH2 0x1804 SWAP2 SWAP1 DUP2 ADD SWAP1 PUSH2 0x29D5 JUMP JUMPDEST SWAP6 SWAP5 POP POP POP POP POP JUMP JUMPDEST PUSH1 0x0 DUP1 PUSH2 0x1870 GAS PUSH1 0x96 PUSH4 0x66AD5C8A PUSH1 0xE0 SHL DUP10 DUP10 DUP10 DUP10 PUSH1 0x40 MLOAD PUSH1 0x24 ADD PUSH2 0x1835 SWAP5 SWAP4 SWAP3 SWAP2 SWAP1 PUSH2 0x3024 JUMP JUMPDEST PUSH1 0x40 DUP1 MLOAD PUSH1 0x1F NOT DUP2 DUP5 SUB ADD DUP2 MSTORE SWAP2 SWAP1 MSTORE PUSH1 0x20 DUP2 ADD DUP1 MLOAD PUSH1 0x1 PUSH1 0x1 PUSH1 0xE0 SHL SUB AND PUSH1 0x1 PUSH1 0x1 PUSH1 0xE0 SHL SUB NOT SWAP1 SWAP4 AND SWAP3 SWAP1 SWAP3 OR SWAP1 SWAP2 MSTORE ADDRESS SWAP3 SWAP2 SWAP1 PUSH2 0x1EBB JUMP JUMPDEST SWAP2 POP SWAP2 POP DUP2 PUSH2 0xF3F JUMPI PUSH2 0xF3F DUP7 DUP7 DUP7 DUP7 DUP6 PUSH2 0x1F53 JUMP JUMPDEST PUSH1 0x0 PUSH1 0x1 PUSH1 0x1 PUSH1 0xE0 SHL SUB NOT DUP3 AND PUSH4 0xA726775 PUSH1 0xE1 SHL EQ DUP1 PUSH2 0x9D9 JUMPI POP PUSH4 0x1FFC9A7 PUSH1 0xE0 SHL PUSH1 0x1 PUSH1 0x1 PUSH1 0xE0 SHL SUB NOT DUP4 AND EQ PUSH2 0x9D9 JUMP JUMPDEST CALLER PUSH2 0x18C4 PUSH2 0xFF5 JUMP JUMPDEST PUSH1 0x1 PUSH1 0x1 PUSH1 0xA0 SHL SUB AND EQ PUSH2 0xF59 JUMPI PUSH1 0x40 MLOAD PUSH3 0x461BCD PUSH1 0xE5 SHL DUP2 MSTORE PUSH1 0x20 PUSH1 0x4 DUP3 ADD DUP2 SWAP1 MSTORE PUSH1 0x24 DUP3 ADD MSTORE PUSH32 0x4F776E61626C653A2063616C6C6572206973206E6F7420746865206F776E6572 PUSH1 0x44 DUP3 ADD MSTORE PUSH1 0x64 ADD PUSH2 0x7E4 JUMP JUMPDEST PUSH1 0x1 PUSH1 0x1 PUSH1 0xA0 SHL SUB DUP4 AND PUSH2 0x197C JUMPI PUSH1 0x40 MLOAD PUSH3 0x461BCD PUSH1 0xE5 SHL DUP2 MSTORE PUSH1 0x20 PUSH1 0x4 DUP3 ADD MSTORE PUSH1 0x24 DUP1 DUP3 ADD MSTORE PUSH32 0x45524332303A20617070726F76652066726F6D20746865207A65726F20616464 PUSH1 0x44 DUP3 ADD MSTORE PUSH4 0x72657373 PUSH1 0xE0 SHL PUSH1 0x64 DUP3 ADD MSTORE PUSH1 0x84 ADD PUSH2 0x7E4 JUMP JUMPDEST PUSH1 0x1 PUSH1 0x1 PUSH1 0xA0 SHL SUB DUP3 AND PUSH2 0x19DD JUMPI PUSH1 0x40 MLOAD PUSH3 0x461BCD PUSH1 0xE5 SHL DUP2 MSTORE PUSH1 0x20 PUSH1 0x4 DUP3 ADD MSTORE PUSH1 0x22 PUSH1 0x24 DUP3 ADD MSTORE PUSH32 0x45524332303A20617070726F766520746F20746865207A65726F206164647265 PUSH1 0x44 DUP3 ADD MSTORE PUSH2 0x7373 PUSH1 0xF0 SHL PUSH1 0x64 DUP3 ADD MSTORE PUSH1 0x84 ADD PUSH2 0x7E4 JUMP JUMPDEST PUSH1 0x1 PUSH1 0x1 PUSH1 0xA0 SHL SUB DUP4 DUP2 AND PUSH1 0x0 DUP2 DUP2 MSTORE PUSH1 0x7 PUSH1 0x20 SWAP1 DUP2 MSTORE PUSH1 0x40 DUP1 DUP4 KECCAK256 SWAP5 DUP8 AND DUP1 DUP5 MSTORE SWAP5 DUP3 MSTORE SWAP2 DUP3 SWAP1 KECCAK256 DUP6 SWAP1 SSTORE SWAP1 MLOAD DUP5 DUP2 MSTORE PUSH32 0x8C5BE1E5EBEC7D5BD14F71427D1E84F3DD0314C0F7B2291E5B200AC8C7C3B925 SWAP2 ADD PUSH1 0x40 MLOAD DUP1 SWAP2 SUB SWAP1 LOG3 POP POP POP JUMP JUMPDEST PUSH1 0x0 PUSH2 0x1A4A DUP5 DUP5 PUSH2 0x1554 JUMP JUMPDEST SWAP1 POP PUSH1 0x0 NOT DUP2 EQ PUSH2 0x1AB2 JUMPI DUP2 DUP2 LT ISZERO PUSH2 0x1AA5 JUMPI PUSH1 0x40 MLOAD PUSH3 0x461BCD PUSH1 0xE5 SHL DUP2 MSTORE PUSH1 0x20 PUSH1 0x4 DUP3 ADD MSTORE PUSH1 0x1D PUSH1 0x24 DUP3 ADD MSTORE PUSH32 0x45524332303A20696E73756666696369656E7420616C6C6F77616E6365000000 PUSH1 0x44 DUP3 ADD MSTORE PUSH1 0x64 ADD PUSH2 0x7E4 JUMP JUMPDEST PUSH2 0x1AB2 DUP5 DUP5 DUP5 DUP5 SUB PUSH2 0x191A JUMP JUMPDEST POP POP POP POP JUMP JUMPDEST PUSH1 0x1 PUSH1 0x1 PUSH1 0xA0 SHL SUB DUP4 AND PUSH2 0x1B1C JUMPI PUSH1 0x40 MLOAD PUSH3 0x461BCD PUSH1 0xE5 SHL DUP2 MSTORE PUSH1 0x20 PUSH1 0x4 DUP3 ADD MSTORE PUSH1 0x25 PUSH1 0x24 DUP3 ADD MSTORE PUSH32 0x45524332303A207472616E736665722066726F6D20746865207A65726F206164 PUSH1 0x44 DUP3 ADD MSTORE PUSH5 0x6472657373 PUSH1 0xD8 SHL PUSH1 0x64 DUP3 ADD MSTORE PUSH1 0x84 ADD PUSH2 0x7E4 JUMP JUMPDEST PUSH1 0x1 PUSH1 0x1 PUSH1 0xA0 SHL SUB DUP3 AND PUSH2 0x1B7E JUMPI PUSH1 0x40 MLOAD PUSH3 0x461BCD PUSH1 0xE5 SHL DUP2 MSTORE PUSH1 0x20 PUSH1 0x4 DUP3 ADD MSTORE PUSH1 0x23 PUSH1 0x24 DUP3 ADD MSTORE PUSH32 0x45524332303A207472616E7366657220746F20746865207A65726F2061646472 PUSH1 0x44 DUP3 ADD MSTORE PUSH3 0x657373 PUSH1 0xE8 SHL PUSH1 0x64 DUP3 ADD MSTORE PUSH1 0x84 ADD PUSH2 0x7E4 JUMP JUMPDEST PUSH1 0x1 PUSH1 0x1 PUSH1 0xA0 SHL SUB DUP4 AND PUSH1 0x0 SWAP1 DUP2 MSTORE PUSH1 0x6 PUSH1 0x20 MSTORE PUSH1 0x40 SWAP1 KECCAK256 SLOAD DUP2 DUP2 LT ISZERO PUSH2 0x1BF6 JUMPI PUSH1 0x40 MLOAD PUSH3 0x461BCD PUSH1 0xE5 SHL DUP2 MSTORE PUSH1 0x20 PUSH1 0x4 DUP3 ADD MSTORE PUSH1 0x26 PUSH1 0x24 DUP3 ADD MSTORE PUSH32 0x45524332303A207472616E7366657220616D6F756E7420657863656564732062 PUSH1 0x44 DUP3 ADD MSTORE PUSH6 0x616C616E6365 PUSH1 0xD0 SHL PUSH1 0x64 DUP3 ADD MSTORE PUSH1 0x84 ADD PUSH2 0x7E4 JUMP JUMPDEST PUSH1 0x1 PUSH1 0x1 PUSH1 0xA0 SHL SUB DUP1 DUP6 AND PUSH1 0x0 DUP2 DUP2 MSTORE PUSH1 0x6 PUSH1 0x20 MSTORE PUSH1 0x40 DUP1 DUP3 KECCAK256 DUP7 DUP7 SUB SWAP1 SSTORE SWAP3 DUP7 AND DUP1 DUP3 MSTORE SWAP1 DUP4 SWAP1 KECCAK256 DUP1 SLOAD DUP7 ADD SWAP1 SSTORE SWAP2 MLOAD PUSH1 0x0 DUP1 MLOAD PUSH1 0x20 PUSH2 0x3238 DUP4 CODECOPY DUP2 MLOAD SWAP2 MSTORE SWAP1 PUSH2 0x1C44 SWAP1 DUP7 DUP2 MSTORE PUSH1 0x20 ADD SWAP1 JUMP JUMPDEST PUSH1 0x40 MLOAD DUP1 SWAP2 SUB SWAP1 LOG3 PUSH2 0x1AB2 JUMP JUMPDEST PUSH2 0x1C5F DUP7 PUSH1 0x0 DUP4 PUSH1 0x0 PUSH2 0x1FF5 JUMP JUMPDEST PUSH1 0x0 PUSH2 0x1C6D DUP9 DUP9 DUP9 DUP9 PUSH2 0x206F JUMP JUMPDEST SWAP1 POP PUSH1 0x0 DUP1 DUP8 DUP4 PUSH1 0x40 MLOAD PUSH1 0x20 ADD PUSH2 0x1C86 SWAP4 SWAP3 SWAP2 SWAP1 PUSH2 0x2FF7 JUMP JUMPDEST PUSH1 0x40 MLOAD PUSH1 0x20 DUP2 DUP4 SUB SUB DUP2 MSTORE SWAP1 PUSH1 0x40 MSTORE SWAP1 POP PUSH2 0x1CA5 DUP9 DUP3 DUP8 DUP8 DUP8 CALLVALUE PUSH2 0x20A1 JUMP JUMPDEST DUP9 PUSH1 0x1 PUSH1 0x1 PUSH1 0xA0 SHL SUB AND DUP9 PUSH2 0xFFFF AND PUSH32 0x39A4C66499BCF4B56D79F0DDE8ED7A9D4925A0DF55825206B2B8531E202BE0D0 DUP10 DUP6 PUSH1 0x40 MLOAD PUSH2 0x1CE5 SWAP3 SWAP2 SWAP1 PUSH2 0x2E9D JUMP JUMPDEST PUSH1 0x40 MLOAD DUP1 SWAP2 SUB SWAP1 LOG3 POP POP POP POP POP POP POP POP POP JUMP JUMPDEST PUSH1 0x20 DUP2 ADD MLOAD PUSH2 0xFFFF DUP2 AND PUSH2 0x1D17 JUMPI PUSH2 0x1D12 DUP6 DUP6 DUP6 DUP6 PUSH2 0x223C JUMP JUMPDEST PUSH2 0xAF5 JUMP JUMPDEST PUSH1 0x40 MLOAD PUSH3 0x461BCD PUSH1 0xE5 SHL DUP2 MSTORE PUSH1 0x20 PUSH1 0x4 DUP3 ADD MSTORE PUSH1 0x1C PUSH1 0x24 DUP3 ADD MSTORE PUSH28 0x4F4654436F72653A20756E6B6E6F776E207061636B65742074797065 PUSH1 0x20 SHL PUSH1 0x44 DUP3 ADD MSTORE PUSH1 0x64 ADD PUSH2 0x7E4 JUMP JUMPDEST PUSH1 0x0 DUP1 SLOAD PUSH1 0x1 PUSH1 0x1 PUSH1 0xA0 SHL SUB DUP4 DUP2 AND PUSH1 0x1 PUSH1 0x1 PUSH1 0xA0 SHL SUB NOT DUP4 AND DUP2 OR DUP5 SSTORE PUSH1 0x40 MLOAD SWAP2 SWAP1 SWAP3 AND SWAP3 DUP4 SWAP2 PUSH32 0x8BE0079C531659141344CD1FD0A4F28419497F9722A3DAAFE3B4186F6B6457E0 SWAP2 SWAP1 LOG3 POP POP JUMP JUMPDEST PUSH1 0x60 DUP2 PUSH2 0x1DBC DUP2 PUSH1 0x1F PUSH2 0x3150 JUMP JUMPDEST LT ISZERO PUSH2 0x1DFB JUMPI PUSH1 0x40 MLOAD PUSH3 0x461BCD PUSH1 0xE5 SHL DUP2 MSTORE PUSH1 0x20 PUSH1 0x4 DUP3 ADD MSTORE PUSH1 0xE PUSH1 0x24 DUP3 ADD MSTORE PUSH14 0x736C6963655F6F766572666C6F77 PUSH1 0x90 SHL PUSH1 0x44 DUP3 ADD MSTORE PUSH1 0x64 ADD PUSH2 0x7E4 JUMP JUMPDEST PUSH2 0x1E05 DUP3 DUP5 PUSH2 0x3150 JUMP JUMPDEST DUP5 MLOAD LT ISZERO PUSH2 0x1E49 JUMPI PUSH1 0x40 MLOAD PUSH3 0x461BCD PUSH1 0xE5 SHL DUP2 MSTORE PUSH1 0x20 PUSH1 0x4 DUP3 ADD MSTORE PUSH1 0x11 PUSH1 0x24 DUP3 ADD MSTORE PUSH17 0x736C6963655F6F75744F66426F756E6473 PUSH1 0x78 SHL PUSH1 0x44 DUP3 ADD MSTORE PUSH1 0x64 ADD PUSH2 0x7E4 JUMP JUMPDEST PUSH1 0x60 DUP3 ISZERO DUP1 ISZERO PUSH2 0x1E68 JUMPI PUSH1 0x40 MLOAD SWAP2 POP PUSH1 0x0 DUP3 MSTORE PUSH1 0x20 DUP3 ADD PUSH1 0x40 MSTORE PUSH2 0x1EB2 JUMP JUMPDEST PUSH1 0x40 MLOAD SWAP2 POP PUSH1 0x1F DUP5 AND DUP1 ISZERO PUSH1 0x20 MUL DUP2 DUP5 ADD ADD DUP6 DUP2 ADD DUP8 DUP4 ISZERO PUSH1 0x20 MUL DUP5 DUP12 ADD ADD ADD JUMPDEST DUP2 DUP4 LT ISZERO PUSH2 0x1EA1 JUMPI DUP1 MLOAD DUP4 MSTORE PUSH1 0x20 SWAP3 DUP4 ADD SWAP3 ADD PUSH2 0x1E89 JUMP JUMPDEST POP POP DUP6 DUP5 MSTORE PUSH1 0x1F ADD PUSH1 0x1F NOT AND PUSH1 0x40 MSTORE POP JUMPDEST POP SWAP5 SWAP4 POP POP POP POP JUMP JUMPDEST PUSH1 0x0 PUSH1 0x60 PUSH1 0x0 DUP1 PUSH1 0x0 DUP7 PUSH2 0xFFFF AND PUSH1 0x1 PUSH1 0x1 PUSH1 0x40 SHL SUB DUP2 GT ISZERO PUSH2 0x1EEE JUMPI PUSH4 0x4E487B71 PUSH1 0xE0 SHL PUSH1 0x0 MSTORE PUSH1 0x41 PUSH1 0x4 MSTORE PUSH1 0x24 PUSH1 0x0 REVERT JUMPDEST PUSH1 0x40 MLOAD SWAP1 DUP1 DUP3 MSTORE DUP1 PUSH1 0x1F ADD PUSH1 0x1F NOT AND PUSH1 0x20 ADD DUP3 ADD PUSH1 0x40 MSTORE DUP1 ISZERO PUSH2 0x1F18 JUMPI PUSH1 0x20 DUP3 ADD DUP2 DUP1 CALLDATASIZE DUP4 CALLDATACOPY ADD SWAP1 POP JUMPDEST POP SWAP1 POP PUSH1 0x0 DUP1 DUP8 MLOAD PUSH1 0x20 DUP10 ADD PUSH1 0x0 DUP14 DUP14 CALL SWAP2 POP RETURNDATASIZE SWAP3 POP DUP7 DUP4 GT ISZERO PUSH2 0x1F3A JUMPI DUP7 SWAP3 POP JUMPDEST DUP3 DUP2 MSTORE DUP3 PUSH1 0x0 PUSH1 0x20 DUP4 ADD RETURNDATACOPY SWAP1 SWAP9 SWAP1 SWAP8 POP SWAP6 POP POP POP POP POP POP JUMP JUMPDEST DUP2 DUP1 MLOAD SWAP1 PUSH1 0x20 ADD KECCAK256 PUSH1 0x4 PUSH1 0x0 DUP8 PUSH2 0xFFFF AND PUSH2 0xFFFF AND DUP2 MSTORE PUSH1 0x20 ADD SWAP1 DUP2 MSTORE PUSH1 0x20 ADD PUSH1 0x0 KECCAK256 DUP6 PUSH1 0x40 MLOAD PUSH2 0x1F84 SWAP2 SWAP1 PUSH2 0x2E5A JUMP JUMPDEST SWAP1 DUP2 MSTORE PUSH1 0x40 DUP1 MLOAD SWAP2 DUP3 SWAP1 SUB PUSH1 0x20 SWAP1 DUP2 ADD DUP4 KECCAK256 PUSH1 0x1 PUSH1 0x1 PUSH1 0x40 SHL SUB DUP9 AND PUSH1 0x0 SWAP1 DUP2 MSTORE SWAP2 MSTORE KECCAK256 SWAP2 SWAP1 SWAP2 SSTORE PUSH32 0xE183F33DE2837795525B4792CA4CD60535BD77C53B7E7030060BFCF5734D6B0C SWAP1 PUSH2 0x1FE1 SWAP1 DUP8 SWAP1 DUP8 SWAP1 DUP8 SWAP1 DUP8 SWAP1 DUP8 SWAP1 PUSH2 0x306D JUMP JUMPDEST PUSH1 0x40 MLOAD DUP1 SWAP2 SUB SWAP1 LOG1 POP POP POP POP POP JUMP JUMPDEST POP POP POP JUMP JUMPDEST PUSH1 0x5 SLOAD PUSH1 0xFF AND ISZERO PUSH2 0x2011 JUMPI PUSH2 0x200C DUP5 DUP5 DUP5 DUP5 PUSH2 0x22C6 JUMP JUMPDEST PUSH2 0x1AB2 JUMP JUMPDEST DUP2 MLOAD ISZERO PUSH2 0x1AB2 JUMPI PUSH1 0x40 MLOAD PUSH3 0x461BCD PUSH1 0xE5 SHL DUP2 MSTORE PUSH1 0x20 PUSH1 0x4 DUP3 ADD MSTORE PUSH1 0x26 PUSH1 0x24 DUP3 ADD MSTORE PUSH32 0x4F4654436F72653A205F61646170746572506172616D73206D75737420626520 PUSH1 0x44 DUP3 ADD MSTORE PUSH6 0x32B6B83A3C97 PUSH1 0xD1 SHL PUSH1 0x64 DUP3 ADD MSTORE PUSH1 0x84 ADD PUSH2 0x7E4 JUMP JUMPDEST PUSH1 0x0 CALLER PUSH1 0x1 PUSH1 0x1 PUSH1 0xA0 SHL SUB DUP7 AND DUP2 EQ PUSH2 0x208D JUMPI PUSH2 0x208D DUP7 DUP3 DUP6 PUSH2 0x1A3E JUMP JUMPDEST PUSH2 0x2097 DUP7 DUP5 PUSH2 0x23A0 JUMP JUMPDEST POP SWAP1 SWAP5 SWAP4 POP POP POP POP JUMP JUMPDEST PUSH2 0xFFFF DUP7 AND PUSH1 0x0 SWAP1 DUP2 MSTORE PUSH1 0x1 PUSH1 0x20 MSTORE PUSH1 0x40 DUP2 KECCAK256 DUP1 SLOAD PUSH2 0x20BF SWAP1 PUSH2 0x31AB JUMP JUMPDEST DUP1 PUSH1 0x1F ADD PUSH1 0x20 DUP1 SWAP2 DIV MUL PUSH1 0x20 ADD PUSH1 0x40 MLOAD SWAP1 DUP2 ADD PUSH1 0x40 MSTORE DUP1 SWAP3 SWAP2 SWAP1 DUP2 DUP2 MSTORE PUSH1 0x20 ADD DUP3 DUP1 SLOAD PUSH2 0x20EB SWAP1 PUSH2 0x31AB JUMP JUMPDEST DUP1 ISZERO PUSH2 0x2138 JUMPI DUP1 PUSH1 0x1F LT PUSH2 0x210D JUMPI PUSH2 0x100 DUP1 DUP4 SLOAD DIV MUL DUP4 MSTORE SWAP2 PUSH1 0x20 ADD SWAP2 PUSH2 0x2138 JUMP JUMPDEST DUP3 ADD SWAP2 SWAP1 PUSH1 0x0 MSTORE PUSH1 0x20 PUSH1 0x0 KECCAK256 SWAP1 JUMPDEST DUP2 SLOAD DUP2 MSTORE SWAP1 PUSH1 0x1 ADD SWAP1 PUSH1 0x20 ADD DUP1 DUP4 GT PUSH2 0x211B JUMPI DUP3 SWAP1 SUB PUSH1 0x1F AND DUP3 ADD SWAP2 JUMPDEST POP POP POP POP POP SWAP1 POP DUP1 MLOAD PUSH1 0x0 EQ ISZERO PUSH2 0x21AA JUMPI PUSH1 0x40 MLOAD PUSH3 0x461BCD PUSH1 0xE5 SHL DUP2 MSTORE PUSH1 0x20 PUSH1 0x4 DUP3 ADD MSTORE PUSH1 0x30 PUSH1 0x24 DUP3 ADD MSTORE PUSH32 0x4C7A4170703A2064657374696E6174696F6E20636861696E206973206E6F7420 PUSH1 0x44 DUP3 ADD MSTORE PUSH16 0x61207472757374656420736F75726365 PUSH1 0x80 SHL PUSH1 0x64 DUP3 ADD MSTORE PUSH1 0x84 ADD PUSH2 0x7E4 JUMP JUMPDEST PUSH1 0x40 MLOAD PUSH3 0xC58031 PUSH1 0xE8 SHL DUP2 MSTORE PUSH1 0x1 PUSH1 0x1 PUSH1 0xA0 SHL SUB PUSH32 0x0 AND SWAP1 PUSH4 0xC5803100 SWAP1 DUP5 SWAP1 PUSH2 0x2201 SWAP1 DUP12 SWAP1 DUP7 SWAP1 DUP13 SWAP1 DUP13 SWAP1 DUP13 SWAP1 DUP13 SWAP1 PUSH1 0x4 ADD PUSH2 0x2F9D JUMP JUMPDEST PUSH1 0x0 PUSH1 0x40 MLOAD DUP1 DUP4 SUB DUP2 DUP6 DUP9 DUP1 EXTCODESIZE ISZERO DUP1 ISZERO PUSH2 0x221A JUMPI PUSH1 0x0 DUP1 REVERT JUMPDEST POP GAS CALL ISZERO DUP1 ISZERO PUSH2 0x222E JUMPI RETURNDATASIZE PUSH1 0x0 DUP1 RETURNDATACOPY RETURNDATASIZE PUSH1 0x0 REVERT JUMPDEST POP POP POP POP POP POP POP POP POP POP POP POP JUMP JUMPDEST PUSH1 0x0 DUP1 DUP3 DUP1 PUSH1 0x20 ADD SWAP1 MLOAD DUP2 ADD SWAP1 PUSH2 0x2253 SWAP2 SWAP1 PUSH2 0x2BA3 JUMP JUMPDEST SWAP1 SWAP4 POP SWAP2 POP PUSH1 0x0 SWAP1 POP PUSH2 0x2266 DUP4 DUP3 PUSH2 0x24C2 JUMP JUMPDEST SWAP1 POP PUSH2 0x2273 DUP8 DUP3 DUP5 PUSH2 0x2527 JUMP JUMPDEST SWAP2 POP DUP1 PUSH1 0x1 PUSH1 0x1 PUSH1 0xA0 SHL SUB AND DUP8 PUSH2 0xFFFF AND PUSH32 0xBF551EC93859B170F9B2141BD9298BF3F64322C6F7BEB2543A0CB669834118BF DUP5 PUSH1 0x40 MLOAD PUSH2 0x22B5 SWAP2 DUP2 MSTORE PUSH1 0x20 ADD SWAP1 JUMP JUMPDEST PUSH1 0x40 MLOAD DUP1 SWAP2 SUB SWAP1 LOG3 POP POP POP POP POP POP POP JUMP JUMPDEST PUSH1 0x0 PUSH2 0x22D1 DUP4 PUSH2 0x253A JUMP JUMPDEST PUSH2 0xFFFF DUP1 DUP8 AND PUSH1 0x0 SWAP1 DUP2 MSTORE PUSH1 0x2 PUSH1 0x20 SWAP1 DUP2 MSTORE PUSH1 0x40 DUP1 DUP4 KECCAK256 SWAP4 DUP10 AND DUP4 MSTORE SWAP3 SWAP1 MSTORE SWAP1 DUP2 KECCAK256 SLOAD SWAP2 SWAP3 POP SWAP1 PUSH2 0x2303 SWAP1 DUP5 SWAP1 PUSH2 0x3150 JUMP JUMPDEST SWAP1 POP PUSH1 0x0 DUP2 GT PUSH2 0x2352 JUMPI PUSH1 0x40 MLOAD PUSH3 0x461BCD PUSH1 0xE5 SHL DUP2 MSTORE PUSH1 0x20 PUSH1 0x4 DUP3 ADD MSTORE PUSH1 0x1A PUSH1 0x24 DUP3 ADD MSTORE PUSH26 0x131E905C1C0E881B5A5B91D85CD31A5B5A5D081B9BDD081CD95D PUSH1 0x32 SHL PUSH1 0x44 DUP3 ADD MSTORE PUSH1 0x64 ADD PUSH2 0x7E4 JUMP JUMPDEST DUP1 DUP3 LT ISZERO PUSH2 0xF3F JUMPI PUSH1 0x40 MLOAD PUSH3 0x461BCD PUSH1 0xE5 SHL DUP2 MSTORE PUSH1 0x20 PUSH1 0x4 DUP3 ADD MSTORE PUSH1 0x1B PUSH1 0x24 DUP3 ADD MSTORE PUSH27 0x4C7A4170703A20676173206C696D697420697320746F6F206C6F77 PUSH1 0x28 SHL PUSH1 0x44 DUP3 ADD MSTORE PUSH1 0x64 ADD PUSH2 0x7E4 JUMP JUMPDEST PUSH1 0x1 PUSH1 0x1 PUSH1 0xA0 SHL SUB DUP3 AND PUSH2 0x2400 JUMPI PUSH1 0x40 MLOAD PUSH3 0x461BCD PUSH1 0xE5 SHL DUP2 MSTORE PUSH1 0x20 PUSH1 0x4 DUP3 ADD MSTORE PUSH1 0x21 PUSH1 0x24 DUP3 ADD MSTORE PUSH32 0x45524332303A206275726E2066726F6D20746865207A65726F20616464726573 PUSH1 0x44 DUP3 ADD MSTORE PUSH1 0x73 PUSH1 0xF8 SHL PUSH1 0x64 DUP3 ADD MSTORE PUSH1 0x84 ADD PUSH2 0x7E4 JUMP JUMPDEST PUSH1 0x1 PUSH1 0x1 PUSH1 0xA0 SHL SUB DUP3 AND PUSH1 0x0 SWAP1 DUP2 MSTORE PUSH1 0x6 PUSH1 0x20 MSTORE PUSH1 0x40 SWAP1 KECCAK256 SLOAD DUP2 DUP2 LT ISZERO PUSH2 0x2474 JUMPI PUSH1 0x40 MLOAD PUSH3 0x461BCD PUSH1 0xE5 SHL DUP2 MSTORE PUSH1 0x20 PUSH1 0x4 DUP3 ADD MSTORE PUSH1 0x22 PUSH1 0x24 DUP3 ADD MSTORE PUSH32 0x45524332303A206275726E20616D6F756E7420657863656564732062616C616E PUSH1 0x44 DUP3 ADD MSTORE PUSH2 0x6365 PUSH1 0xF0 SHL PUSH1 0x64 DUP3 ADD MSTORE PUSH1 0x84 ADD PUSH2 0x7E4 JUMP JUMPDEST PUSH1 0x1 PUSH1 0x1 PUSH1 0xA0 SHL SUB DUP4 AND PUSH1 0x0 DUP2 DUP2 MSTORE PUSH1 0x6 PUSH1 0x20 SWAP1 DUP2 MSTORE PUSH1 0x40 DUP1 DUP4 KECCAK256 DUP7 DUP7 SUB SWAP1 SSTORE PUSH1 0x8 DUP1 SLOAD DUP8 SWAP1 SUB SWAP1 SSTORE MLOAD DUP6 DUP2 MSTORE SWAP2 SWAP3 SWAP2 PUSH1 0x0 DUP1 MLOAD PUSH1 0x20 PUSH2 0x3238 DUP4 CODECOPY DUP2 MLOAD SWAP2 MSTORE SWAP2 ADD PUSH1 0x40 MLOAD DUP1 SWAP2 SUB SWAP1 LOG3 PUSH2 0x1FF0 JUMP JUMPDEST PUSH1 0x0 PUSH2 0x24CF DUP3 PUSH1 0x14 PUSH2 0x3150 JUMP JUMPDEST DUP4 MLOAD LT ISZERO PUSH2 0x2517 JUMPI PUSH1 0x40 MLOAD PUSH3 0x461BCD PUSH1 0xE5 SHL DUP2 MSTORE PUSH1 0x20 PUSH1 0x4 DUP3 ADD MSTORE PUSH1 0x15 PUSH1 0x24 DUP3 ADD MSTORE PUSH21 0x746F416464726573735F6F75744F66426F756E6473 PUSH1 0x58 SHL PUSH1 0x44 DUP3 ADD MSTORE PUSH1 0x64 ADD PUSH2 0x7E4 JUMP JUMPDEST POP ADD PUSH1 0x20 ADD MLOAD PUSH1 0x1 PUSH1 0x60 SHL SWAP1 DIV SWAP1 JUMP JUMPDEST PUSH1 0x0 PUSH2 0x2533 DUP4 DUP4 PUSH2 0x2595 JUMP JUMPDEST POP SWAP3 SWAP2 POP POP JUMP JUMPDEST PUSH1 0x0 PUSH1 0x22 DUP3 MLOAD LT ISZERO PUSH2 0x258D JUMPI PUSH1 0x40 MLOAD PUSH3 0x461BCD PUSH1 0xE5 SHL DUP2 MSTORE PUSH1 0x20 PUSH1 0x4 DUP3 ADD MSTORE PUSH1 0x1C PUSH1 0x24 DUP3 ADD MSTORE PUSH28 0x4C7A4170703A20696E76616C69642061646170746572506172616D73 PUSH1 0x20 SHL PUSH1 0x44 DUP3 ADD MSTORE PUSH1 0x64 ADD PUSH2 0x7E4 JUMP JUMPDEST POP PUSH1 0x22 ADD MLOAD SWAP1 JUMP JUMPDEST PUSH1 0x1 PUSH1 0x1 PUSH1 0xA0 SHL SUB DUP3 AND PUSH2 0x25EB JUMPI PUSH1 0x40 MLOAD PUSH3 0x461BCD PUSH1 0xE5 SHL DUP2 MSTORE PUSH1 0x20 PUSH1 0x4 DUP3 ADD MSTORE PUSH1 0x1F PUSH1 0x24 DUP3 ADD MSTORE PUSH32 0x45524332303A206D696E7420746F20746865207A65726F206164647265737300 PUSH1 0x44 DUP3 ADD MSTORE PUSH1 0x64 ADD PUSH2 0x7E4 JUMP JUMPDEST DUP1 PUSH1 0x8 PUSH1 0x0 DUP3 DUP3 SLOAD PUSH2 0x25FD SWAP2 SWAP1 PUSH2 0x3150 JUMP JUMPDEST SWAP1 SWAP2 SSTORE POP POP PUSH1 0x1 PUSH1 0x1 PUSH1 0xA0 SHL SUB DUP3 AND PUSH1 0x0 DUP2 DUP2 MSTORE PUSH1 0x6 PUSH1 0x20 SWAP1 DUP2 MSTORE PUSH1 0x40 DUP1 DUP4 KECCAK256 DUP1 SLOAD DUP7 ADD SWAP1 SSTORE MLOAD DUP5 DUP2 MSTORE PUSH1 0x0 DUP1 MLOAD PUSH1 0x20 PUSH2 0x3238 DUP4 CODECOPY DUP2 MLOAD SWAP2 MSTORE SWAP2 ADD PUSH1 0x40 MLOAD DUP1 SWAP2 SUB SWAP1 LOG3 POP POP JUMP JUMPDEST DUP3 DUP1 SLOAD PUSH2 0x2650 SWAP1 PUSH2 0x31AB JUMP JUMPDEST SWAP1 PUSH1 0x0 MSTORE PUSH1 0x20 PUSH1 0x0 KECCAK256 SWAP1 PUSH1 0x1F ADD PUSH1 0x20 SWAP1 DIV DUP2 ADD SWAP3 DUP3 PUSH2 0x2672 JUMPI PUSH1 0x0 DUP6 SSTORE PUSH2 0x26B8 JUMP JUMPDEST DUP3 PUSH1 0x1F LT PUSH2 0x268B JUMPI DUP1 MLOAD PUSH1 0xFF NOT AND DUP4 DUP1 ADD OR DUP6 SSTORE PUSH2 0x26B8 JUMP JUMPDEST DUP3 DUP1 ADD PUSH1 0x1 ADD DUP6 SSTORE DUP3 ISZERO PUSH2 0x26B8 JUMPI SWAP2 DUP3 ADD JUMPDEST DUP3 DUP2 GT ISZERO PUSH2 0x26B8 JUMPI DUP3 MLOAD DUP3 SSTORE SWAP2 PUSH1 0x20 ADD SWAP2 SWAP1 PUSH1 0x1 ADD SWAP1 PUSH2 0x269D JUMP JUMPDEST POP PUSH2 0x26C4 SWAP3 SWAP2 POP PUSH2 0x273C JUMP JUMPDEST POP SWAP1 JUMP JUMPDEST DUP3 DUP1 SLOAD PUSH2 0x26D4 SWAP1 PUSH2 0x31AB JUMP JUMPDEST SWAP1 PUSH1 0x0 MSTORE PUSH1 0x20 PUSH1 0x0 KECCAK256 SWAP1 PUSH1 0x1F ADD PUSH1 0x20 SWAP1 DIV DUP2 ADD SWAP3 DUP3 PUSH2 0x26F6 JUMPI PUSH1 0x0 DUP6 SSTORE PUSH2 0x26B8 JUMP JUMPDEST DUP3 PUSH1 0x1F LT PUSH2 0x270F JUMPI DUP3 DUP1 ADD PUSH1 0xFF NOT DUP3 CALLDATALOAD AND OR DUP6 SSTORE PUSH2 0x26B8 JUMP JUMPDEST DUP3 DUP1 ADD PUSH1 0x1 ADD DUP6 SSTORE DUP3 ISZERO PUSH2 0x26B8 JUMPI SWAP2 DUP3 ADD JUMPDEST DUP3 DUP2 GT ISZERO PUSH2 0x26B8 JUMPI DUP3 CALLDATALOAD DUP3 SSTORE SWAP2 PUSH1 0x20 ADD SWAP2 SWAP1 PUSH1 0x1 ADD SWAP1 PUSH2 0x2721 JUMP JUMPDEST JUMPDEST DUP1 DUP3 GT ISZERO PUSH2 0x26C4 JUMPI PUSH1 0x0 DUP2 SSTORE PUSH1 0x1 ADD PUSH2 0x273D JUMP JUMPDEST DUP1 CALLDATALOAD DUP1 ISZERO ISZERO DUP2 EQ PUSH2 0x9DC JUMPI PUSH1 0x0 DUP1 REVERT JUMPDEST PUSH1 0x0 DUP1 DUP4 PUSH1 0x1F DUP5 ADD SLT PUSH2 0x2772 JUMPI DUP2 DUP3 REVERT JUMPDEST POP DUP2 CALLDATALOAD PUSH1 0x1 PUSH1 0x1 PUSH1 0x40 SHL SUB DUP2 GT ISZERO PUSH2 0x2788 JUMPI DUP2 DUP3 REVERT JUMPDEST PUSH1 0x20 DUP4 ADD SWAP2 POP DUP4 PUSH1 0x20 DUP3 DUP6 ADD ADD GT ISZERO PUSH2 0x27A0 JUMPI PUSH1 0x0 DUP1 REVERT JUMPDEST SWAP3 POP SWAP3 SWAP1 POP JUMP JUMPDEST PUSH1 0x0 DUP3 PUSH1 0x1F DUP4 ADD SLT PUSH2 0x27B7 JUMPI DUP1 DUP2 REVERT JUMPDEST DUP2 MLOAD PUSH2 0x27CA PUSH2 0x27C5 DUP3 PUSH2 0x3129 JUMP JUMPDEST PUSH2 0x30F9 JUMP JUMPDEST DUP2 DUP2 MSTORE DUP5 PUSH1 0x20 DUP4 DUP7 ADD ADD GT ISZERO PUSH2 0x27DE JUMPI DUP3 DUP4 REVERT JUMPDEST PUSH2 0x27EF DUP3 PUSH1 0x20 DUP4 ADD PUSH1 0x20 DUP8 ADD PUSH2 0x317F JUMP JUMPDEST SWAP5 SWAP4 POP POP POP POP JUMP JUMPDEST DUP1 CALLDATALOAD PUSH1 0x1 PUSH1 0x1 PUSH1 0x40 SHL SUB DUP2 AND DUP2 EQ PUSH2 0x9DC JUMPI PUSH1 0x0 DUP1 REVERT JUMPDEST PUSH1 0x0 PUSH1 0x20 DUP3 DUP5 SUB SLT ISZERO PUSH2 0x281F JUMPI DUP1 DUP2 REVERT JUMPDEST DUP2 CALLDATALOAD PUSH2 0x1133 DUP2 PUSH2 0x3212 JUMP JUMPDEST PUSH1 0x0 DUP1 PUSH1 0x40 DUP4 DUP6 SUB SLT ISZERO PUSH2 0x283C JUMPI DUP1 DUP2 REVERT JUMPDEST DUP3 CALLDATALOAD PUSH2 0x2847 DUP2 PUSH2 0x3212 JUMP JUMPDEST SWAP2 POP PUSH1 0x20 DUP4 ADD CALLDATALOAD PUSH2 0x2857 DUP2 PUSH2 0x3212 JUMP JUMPDEST DUP1 SWAP2 POP POP SWAP3 POP SWAP3 SWAP1 POP JUMP JUMPDEST PUSH1 0x0 DUP1 PUSH1 0x0 PUSH1 0x60 DUP5 DUP7 SUB SLT ISZERO PUSH2 0x2876 JUMPI DUP1 DUP2 REVERT JUMPDEST DUP4 CALLDATALOAD PUSH2 0x2881 DUP2 PUSH2 0x3212 JUMP JUMPDEST SWAP3 POP PUSH1 0x20 DUP5 ADD CALLDATALOAD PUSH2 0x2891 DUP2 PUSH2 0x3212 JUMP JUMPDEST SWAP3 SWAP6 SWAP3 SWAP5 POP POP POP PUSH1 0x40 SWAP2 SWAP1 SWAP2 ADD CALLDATALOAD SWAP1 JUMP JUMPDEST PUSH1 0x0 DUP1 PUSH1 0x0 DUP1 PUSH1 0x0 DUP1 PUSH1 0x0 DUP1 PUSH1 0x0 PUSH1 0xE0 DUP11 DUP13 SUB SLT ISZERO PUSH2 0x28BF JUMPI DUP5 DUP6 REVERT JUMPDEST DUP10 CALLDATALOAD PUSH2 0x28CA DUP2 PUSH2 0x3212 JUMP JUMPDEST SWAP9 POP PUSH1 0x20 DUP11 ADD CALLDATALOAD PUSH2 0x28DA DUP2 PUSH2 0x3227 JUMP JUMPDEST SWAP8 POP PUSH1 0x40 DUP11 ADD CALLDATALOAD PUSH1 0x1 PUSH1 0x1 PUSH1 0x40 SHL SUB DUP1 DUP3 GT ISZERO PUSH2 0x28F5 JUMPI DUP7 DUP8 REVERT JUMPDEST PUSH2 0x2901 DUP14 DUP4 DUP15 ADD PUSH2 0x2761 JUMP JUMPDEST SWAP1 SWAP10 POP SWAP8 POP PUSH1 0x60 DUP13 ADD CALLDATALOAD SWAP7 POP PUSH1 0x80 DUP13 ADD CALLDATALOAD SWAP2 POP PUSH2 0x291D DUP3 PUSH2 0x3212 JUMP JUMPDEST SWAP1 SWAP5 POP PUSH1 0xA0 DUP12 ADD CALLDATALOAD SWAP1 PUSH2 0x292F DUP3 PUSH2 0x3212 JUMP JUMPDEST SWAP1 SWAP4 POP PUSH1 0xC0 DUP12 ADD CALLDATALOAD SWAP1 DUP1 DUP3 GT ISZERO PUSH2 0x2944 JUMPI DUP4 DUP5 REVERT JUMPDEST POP PUSH2 0x2951 DUP13 DUP3 DUP14 ADD PUSH2 0x2761 JUMP JUMPDEST SWAP2 POP DUP1 SWAP4 POP POP DUP1 SWAP2 POP POP SWAP3 SWAP6 SWAP9 POP SWAP3 SWAP6 SWAP9 POP SWAP3 SWAP6 SWAP9 JUMP JUMPDEST PUSH1 0x0 DUP1 PUSH1 0x40 DUP4 DUP6 SUB SLT ISZERO PUSH2 0x297A JUMPI DUP2 DUP3 REVERT JUMPDEST DUP3 CALLDATALOAD PUSH2 0x2985 DUP2 PUSH2 0x3212 JUMP JUMPDEST SWAP5 PUSH1 0x20 SWAP4 SWAP1 SWAP4 ADD CALLDATALOAD SWAP4 POP POP POP JUMP JUMPDEST PUSH1 0x0 PUSH1 0x20 DUP3 DUP5 SUB SLT ISZERO PUSH2 0x29A4 JUMPI DUP1 DUP2 REVERT JUMPDEST PUSH2 0x1133 DUP3 PUSH2 0x2751 JUMP JUMPDEST PUSH1 0x0 PUSH1 0x20 DUP3 DUP5 SUB SLT ISZERO PUSH2 0x29BE JUMPI DUP1 DUP2 REVERT JUMPDEST DUP2 CALLDATALOAD PUSH1 0x1 PUSH1 0x1 PUSH1 0xE0 SHL SUB NOT DUP2 AND DUP2 EQ PUSH2 0x1133 JUMPI DUP2 DUP3 REVERT JUMPDEST PUSH1 0x0 PUSH1 0x20 DUP3 DUP5 SUB SLT ISZERO PUSH2 0x29E6 JUMPI DUP1 DUP2 REVERT JUMPDEST DUP2 MLOAD PUSH1 0x1 PUSH1 0x1 PUSH1 0x40 SHL SUB DUP2 GT ISZERO PUSH2 0x29FB JUMPI DUP2 DUP3 REVERT JUMPDEST PUSH2 0x27EF DUP5 DUP3 DUP6 ADD PUSH2 0x27A7 JUMP JUMPDEST PUSH1 0x0 PUSH1 0x20 DUP3 DUP5 SUB SLT ISZERO PUSH2 0x2A18 JUMPI DUP1 DUP2 REVERT JUMPDEST DUP2 CALLDATALOAD PUSH2 0x1133 DUP2 PUSH2 0x3227 JUMP JUMPDEST PUSH1 0x0 DUP1 PUSH1 0x0 PUSH1 0x40 DUP5 DUP7 SUB SLT ISZERO PUSH2 0x2A37 JUMPI DUP3 DUP4 REVERT JUMPDEST DUP4 CALLDATALOAD PUSH2 0x2A42 DUP2 PUSH2 0x3227 JUMP JUMPDEST SWAP3 POP PUSH1 0x20 DUP5 ADD CALLDATALOAD PUSH1 0x1 PUSH1 0x1 PUSH1 0x40 SHL SUB DUP2 GT ISZERO PUSH2 0x2A5C JUMPI DUP3 DUP4 REVERT JUMPDEST PUSH2 0x2A68 DUP7 DUP3 DUP8 ADD PUSH2 0x2761 JUMP JUMPDEST SWAP5 SWAP8 SWAP1 SWAP7 POP SWAP4 SWAP5 POP POP POP POP JUMP JUMPDEST PUSH1 0x0 DUP1 PUSH1 0x0 DUP1 PUSH1 0x0 DUP1 PUSH1 0x0 PUSH1 0xA0 DUP9 DUP11 SUB SLT ISZERO PUSH2 0x2A8F JUMPI DUP1 DUP2 REVERT JUMPDEST DUP8 CALLDATALOAD PUSH2 0x2A9A DUP2 PUSH2 0x3227 JUMP JUMPDEST SWAP7 POP PUSH1 0x20 DUP9 ADD CALLDATALOAD PUSH1 0x1 PUSH1 0x1 PUSH1 0x40 SHL SUB DUP1 DUP3 GT ISZERO PUSH2 0x2AB5 JUMPI DUP3 DUP4 REVERT JUMPDEST PUSH2 0x2AC1 DUP12 DUP4 DUP13 ADD PUSH2 0x2761 JUMP JUMPDEST SWAP1 SWAP9 POP SWAP7 POP PUSH1 0x40 DUP11 ADD CALLDATALOAD SWAP6 POP DUP7 SWAP2 POP PUSH2 0x2ADC PUSH1 0x60 DUP12 ADD PUSH2 0x2751 JUMP JUMPDEST SWAP5 POP PUSH1 0x80 DUP11 ADD CALLDATALOAD SWAP2 POP DUP1 DUP3 GT ISZERO PUSH2 0x2AF1 JUMPI DUP3 DUP4 REVERT JUMPDEST POP PUSH2 0x2AFE DUP11 DUP3 DUP12 ADD PUSH2 0x2761 JUMP JUMPDEST SWAP9 SWAP12 SWAP8 SWAP11 POP SWAP6 SWAP9 POP SWAP4 SWAP7 SWAP3 SWAP6 SWAP3 SWAP4 POP POP POP JUMP JUMPDEST PUSH1 0x0 DUP1 PUSH1 0x0 DUP1 PUSH1 0x0 DUP1 PUSH1 0x80 DUP8 DUP10 SUB SLT ISZERO PUSH2 0x2B29 JUMPI DUP4 DUP5 REVERT JUMPDEST DUP7 CALLDATALOAD PUSH2 0x2B34 DUP2 PUSH2 0x3227 JUMP JUMPDEST SWAP6 POP PUSH1 0x20 DUP8 ADD CALLDATALOAD PUSH1 0x1 PUSH1 0x1 PUSH1 0x40 SHL SUB DUP1 DUP3 GT ISZERO PUSH2 0x2B4F JUMPI DUP6 DUP7 REVERT JUMPDEST PUSH2 0x2B5B DUP11 DUP4 DUP12 ADD PUSH2 0x2761 JUMP JUMPDEST SWAP1 SWAP8 POP SWAP6 POP DUP6 SWAP2 POP PUSH2 0x2B6F PUSH1 0x40 DUP11 ADD PUSH2 0x27F7 JUMP JUMPDEST SWAP5 POP PUSH1 0x60 DUP10 ADD CALLDATALOAD SWAP2 POP DUP1 DUP3 GT ISZERO PUSH2 0x2B84 JUMPI DUP4 DUP5 REVERT JUMPDEST POP PUSH2 0x2B91 DUP10 DUP3 DUP11 ADD PUSH2 0x2761 JUMP JUMPDEST SWAP8 SWAP11 SWAP7 SWAP10 POP SWAP5 SWAP8 POP SWAP3 SWAP6 SWAP4 SWAP5 SWAP3 POP POP POP JUMP JUMPDEST PUSH1 0x0 DUP1 PUSH1 0x0 PUSH1 0x60 DUP5 DUP7 SUB SLT ISZERO PUSH2 0x2BB7 JUMPI DUP1 DUP2 REVERT JUMPDEST DUP4 MLOAD PUSH2 0x2BC2 DUP2 PUSH2 0x3227 JUMP JUMPDEST PUSH1 0x20 DUP6 ADD MLOAD SWAP1 SWAP4 POP PUSH1 0x1 PUSH1 0x1 PUSH1 0x40 SHL SUB DUP2 GT ISZERO PUSH2 0x2BDD JUMPI DUP2 DUP3 REVERT JUMPDEST PUSH2 0x2BE9 DUP7 DUP3 DUP8 ADD PUSH2 0x27A7 JUMP JUMPDEST SWAP3 POP POP PUSH1 0x40 DUP5 ADD MLOAD SWAP1 POP SWAP3 POP SWAP3 POP SWAP3 JUMP JUMPDEST PUSH1 0x0 DUP1 PUSH1 0x0 PUSH1 0x60 DUP5 DUP7 SUB SLT ISZERO PUSH2 0x2C0E JUMPI DUP1 DUP2 REVERT JUMPDEST DUP4 CALLDATALOAD PUSH2 0x2C19 DUP2 PUSH2 0x3227 JUMP JUMPDEST SWAP3 POP PUSH1 0x20 DUP5 ADD CALLDATALOAD PUSH1 0x1 PUSH1 0x1 PUSH1 0x40 SHL SUB DUP2 GT ISZERO PUSH2 0x2C33 JUMPI DUP2 DUP3 REVERT JUMPDEST DUP5 ADD PUSH1 0x1F DUP2 ADD DUP7 SGT PUSH2 0x2C43 JUMPI DUP2 DUP3 REVERT JUMPDEST DUP1 CALLDATALOAD PUSH2 0x2C51 PUSH2 0x27C5 DUP3 PUSH2 0x3129 JUMP JUMPDEST DUP2 DUP2 MSTORE DUP8 PUSH1 0x20 DUP4 DUP6 ADD ADD GT ISZERO PUSH2 0x2C65 JUMPI DUP4 DUP5 REVERT JUMPDEST DUP2 PUSH1 0x20 DUP5 ADD PUSH1 0x20 DUP4 ADD CALLDATACOPY SWAP1 DUP2 ADD PUSH1 0x20 ADD DUP4 SWAP1 MSTORE SWAP3 POP PUSH2 0x2C88 SWAP1 POP PUSH1 0x40 DUP6 ADD PUSH2 0x27F7 JUMP JUMPDEST SWAP1 POP SWAP3 POP SWAP3 POP SWAP3 JUMP JUMPDEST PUSH1 0x0 DUP1 PUSH1 0x40 DUP4 DUP6 SUB SLT ISZERO PUSH2 0x2CA3 JUMPI DUP2 DUP3 REVERT JUMPDEST DUP3 CALLDATALOAD PUSH2 0x2CAE DUP2 PUSH2 0x3227 JUMP JUMPDEST SWAP2 POP PUSH1 0x20 DUP4 ADD CALLDATALOAD PUSH2 0x2857 DUP2 PUSH2 0x3227 JUMP JUMPDEST PUSH1 0x0 DUP1 PUSH1 0x0 DUP1 PUSH1 0x80 DUP6 DUP8 SUB SLT ISZERO PUSH2 0x2CD3 JUMPI DUP2 DUP3 REVERT JUMPDEST DUP5 CALLDATALOAD PUSH2 0x2CDE DUP2 PUSH2 0x3227 JUMP JUMPDEST SWAP4 POP PUSH1 0x20 DUP6 ADD CALLDATALOAD PUSH2 0x2CEE DUP2 PUSH2 0x3227 JUMP JUMPDEST SWAP3 POP PUSH1 0x40 DUP6 ADD CALLDATALOAD PUSH2 0x2CFE DUP2 PUSH2 0x3212 JUMP JUMPDEST SWAP4 SWAP7 SWAP3 SWAP6 POP SWAP3 SWAP4 PUSH1 0x60 ADD CALLDATALOAD SWAP3 POP POP JUMP JUMPDEST PUSH1 0x0 DUP1 PUSH1 0x0 PUSH1 0x60 DUP5 DUP7 SUB SLT ISZERO PUSH2 0x2D22 JUMPI DUP1 DUP2 REVERT JUMPDEST DUP4 CALLDATALOAD PUSH2 0x2D2D DUP2 PUSH2 0x3227 JUMP JUMPDEST SWAP3 POP PUSH1 0x20 DUP5 ADD CALLDATALOAD PUSH2 0x2891 DUP2 PUSH2 0x3227 JUMP JUMPDEST PUSH1 0x0 DUP1 PUSH1 0x0 DUP1 PUSH1 0x0 PUSH1 0x80 DUP7 DUP9 SUB SLT ISZERO PUSH2 0x2D54 JUMPI DUP3 DUP4 REVERT JUMPDEST DUP6 CALLDATALOAD PUSH2 0x2D5F DUP2 PUSH2 0x3227 JUMP JUMPDEST SWAP5 POP PUSH1 0x20 DUP7 ADD CALLDATALOAD PUSH2 0x2D6F DUP2 PUSH2 0x3227 JUMP JUMPDEST SWAP4 POP PUSH1 0x40 DUP7 ADD CALLDATALOAD SWAP3 POP PUSH1 0x60 DUP7 ADD CALLDATALOAD PUSH1 0x1 PUSH1 0x1 PUSH1 0x40 SHL SUB DUP2 GT ISZERO PUSH2 0x2D90 JUMPI DUP2 DUP3 REVERT JUMPDEST PUSH2 0x2D9C DUP9 DUP3 DUP10 ADD PUSH2 0x2761 JUMP JUMPDEST SWAP7 SWAP10 SWAP6 SWAP9 POP SWAP4 SWAP7 POP SWAP3 SWAP5 SWAP4 SWAP3 POP POP POP JUMP JUMPDEST PUSH1 0x0 DUP1 PUSH1 0x40 DUP4 DUP6 SUB SLT ISZERO PUSH2 0x2DBF JUMPI DUP2 DUP3 REVERT JUMPDEST POP POP DUP1 MLOAD PUSH1 0x20 SWAP1 SWAP2 ADD MLOAD SWAP1 SWAP3 SWAP1 SWAP2 POP JUMP JUMPDEST PUSH1 0x0 DUP3 DUP5 MSTORE DUP3 DUP3 PUSH1 0x20 DUP7 ADD CALLDATACOPY DUP1 PUSH1 0x20 DUP5 DUP7 ADD ADD MSTORE PUSH1 0x20 PUSH1 0x1F NOT PUSH1 0x1F DUP6 ADD AND DUP6 ADD ADD SWAP1 POP SWAP4 SWAP3 POP POP POP JUMP JUMPDEST PUSH1 0x0 DUP2 MLOAD DUP1 DUP5 MSTORE PUSH2 0x2E12 DUP2 PUSH1 0x20 DUP7 ADD PUSH1 0x20 DUP7 ADD PUSH2 0x317F JUMP JUMPDEST PUSH1 0x1F ADD PUSH1 0x1F NOT AND SWAP3 SWAP1 SWAP3 ADD PUSH1 0x20 ADD SWAP3 SWAP2 POP POP JUMP JUMPDEST PUSH1 0x0 DUP3 DUP5 DUP4 CALLDATACOPY SWAP2 ADD SWAP1 DUP2 MSTORE SWAP2 SWAP1 POP JUMP JUMPDEST PUSH1 0x0 DUP4 DUP6 DUP4 CALLDATACOPY POP PUSH1 0x60 SWAP2 SWAP1 SWAP2 SHL PUSH1 0x1 PUSH1 0x1 PUSH1 0x60 SHL SUB NOT AND SWAP2 ADD SWAP1 DUP2 MSTORE PUSH1 0x14 ADD SWAP2 SWAP1 POP JUMP JUMPDEST PUSH1 0x0 DUP3 MLOAD PUSH2 0x2E6C DUP2 DUP5 PUSH1 0x20 DUP8 ADD PUSH2 0x317F JUMP JUMPDEST SWAP2 SWAP1 SWAP2 ADD SWAP3 SWAP2 POP POP JUMP JUMPDEST PUSH1 0x1 PUSH1 0x1 PUSH1 0xA0 SHL SUB SWAP2 SWAP1 SWAP2 AND DUP2 MSTORE PUSH1 0x20 ADD SWAP1 JUMP JUMPDEST PUSH1 0x0 PUSH1 0x20 DUP3 MSTORE PUSH2 0x1133 PUSH1 0x20 DUP4 ADD DUP5 PUSH2 0x2DFA JUMP JUMPDEST PUSH1 0x0 PUSH1 0x40 DUP3 MSTORE PUSH2 0x2EB0 PUSH1 0x40 DUP4 ADD DUP6 PUSH2 0x2DFA JUMP JUMPDEST SWAP1 POP DUP3 PUSH1 0x20 DUP4 ADD MSTORE SWAP4 SWAP3 POP POP POP JUMP JUMPDEST PUSH2 0xFFFF DUP8 AND DUP2 MSTORE PUSH1 0x1 PUSH1 0x1 PUSH1 0xA0 SHL SUB DUP7 AND PUSH1 0x20 DUP3 ADD MSTORE PUSH1 0xA0 PUSH1 0x40 DUP3 ADD DUP2 SWAP1 MSTORE PUSH1 0x0 SWAP1 PUSH2 0x2EED SWAP1 DUP4 ADD DUP8 PUSH2 0x2DFA JUMP JUMPDEST DUP6 ISZERO ISZERO PUSH1 0x60 DUP5 ADD MSTORE DUP3 DUP2 SUB PUSH1 0x80 DUP5 ADD MSTORE PUSH2 0x2F08 DUP2 DUP6 DUP8 PUSH2 0x2DD0 JUMP JUMPDEST SWAP10 SWAP9 POP POP POP POP POP POP POP POP POP JUMP JUMPDEST PUSH1 0x0 PUSH2 0xFFFF DUP6 AND DUP3 MSTORE PUSH1 0x40 PUSH1 0x20 DUP4 ADD MSTORE PUSH2 0x1804 PUSH1 0x40 DUP4 ADD DUP5 DUP7 PUSH2 0x2DD0 JUMP JUMPDEST PUSH1 0x0 PUSH2 0xFFFF DUP7 AND DUP3 MSTORE PUSH1 0x60 PUSH1 0x20 DUP4 ADD MSTORE PUSH2 0x2F51 PUSH1 0x60 DUP4 ADD DUP6 DUP8 PUSH2 0x2DD0 JUMP JUMPDEST SWAP1 POP DUP3 PUSH1 0x40 DUP4 ADD MSTORE SWAP6 SWAP5 POP POP POP POP POP JUMP JUMPDEST PUSH1 0x0 PUSH2 0xFFFF DUP8 AND DUP3 MSTORE PUSH1 0x80 PUSH1 0x20 DUP4 ADD MSTORE PUSH2 0x2F80 PUSH1 0x80 DUP4 ADD DUP7 DUP9 PUSH2 0x2DD0 JUMP JUMPDEST PUSH1 0x1 PUSH1 0x1 PUSH1 0x40 SHL SUB SWAP5 SWAP1 SWAP5 AND PUSH1 0x40 DUP4 ADD MSTORE POP PUSH1 0x60 ADD MSTORE SWAP4 SWAP3 POP POP POP JUMP JUMPDEST PUSH1 0x0 PUSH2 0xFFFF DUP9 AND DUP3 MSTORE PUSH1 0xC0 PUSH1 0x20 DUP4 ADD MSTORE PUSH2 0x2FBA PUSH1 0xC0 DUP4 ADD DUP9 PUSH2 0x2DFA JUMP JUMPDEST DUP3 DUP2 SUB PUSH1 0x40 DUP5 ADD MSTORE PUSH2 0x2FCC DUP2 DUP9 PUSH2 0x2DFA JUMP JUMPDEST PUSH1 0x1 PUSH1 0x1 PUSH1 0xA0 SHL SUB DUP8 DUP2 AND PUSH1 0x60 DUP7 ADD MSTORE DUP7 AND PUSH1 0x80 DUP6 ADD MSTORE DUP4 DUP2 SUB PUSH1 0xA0 DUP6 ADD MSTORE SWAP1 POP PUSH2 0x2F08 DUP2 DUP6 PUSH2 0x2DFA JUMP JUMPDEST PUSH1 0x0 PUSH2 0xFFFF DUP6 AND DUP3 MSTORE PUSH1 0x60 PUSH1 0x20 DUP4 ADD MSTORE PUSH2 0x3014 PUSH1 0x60 DUP4 ADD DUP6 PUSH2 0x2DFA JUMP JUMPDEST SWAP1 POP DUP3 PUSH1 0x40 DUP4 ADD MSTORE SWAP5 SWAP4 POP POP POP POP JUMP JUMPDEST PUSH1 0x0 PUSH2 0xFFFF DUP7 AND DUP3 MSTORE PUSH1 0x80 PUSH1 0x20 DUP4 ADD MSTORE PUSH2 0x3041 PUSH1 0x80 DUP4 ADD DUP7 PUSH2 0x2DFA JUMP JUMPDEST PUSH1 0x1 PUSH1 0x1 PUSH1 0x40 SHL SUB DUP6 AND PUSH1 0x40 DUP5 ADD MSTORE DUP3 DUP2 SUB PUSH1 0x60 DUP5 ADD MSTORE PUSH2 0x3062 DUP2 DUP6 PUSH2 0x2DFA JUMP JUMPDEST SWAP8 SWAP7 POP POP POP POP POP POP POP JUMP JUMPDEST PUSH1 0x0 PUSH2 0xFFFF DUP8 AND DUP3 MSTORE PUSH1 0xA0 PUSH1 0x20 DUP4 ADD MSTORE PUSH2 0x308A PUSH1 0xA0 DUP4 ADD DUP8 PUSH2 0x2DFA JUMP JUMPDEST PUSH1 0x1 PUSH1 0x1 PUSH1 0x40 SHL SUB DUP7 AND PUSH1 0x40 DUP5 ADD MSTORE DUP3 DUP2 SUB PUSH1 0x60 DUP5 ADD MSTORE PUSH2 0x30AB DUP2 DUP7 PUSH2 0x2DFA JUMP JUMPDEST SWAP1 POP DUP3 DUP2 SUB PUSH1 0x80 DUP5 ADD MSTORE PUSH2 0x30BF DUP2 DUP6 PUSH2 0x2DFA JUMP JUMPDEST SWAP9 SWAP8 POP POP POP POP POP POP POP POP JUMP JUMPDEST PUSH1 0x0 PUSH2 0xFFFF DUP1 DUP9 AND DUP4 MSTORE DUP1 DUP8 AND PUSH1 0x20 DUP5 ADD MSTORE POP DUP5 PUSH1 0x40 DUP4 ADD MSTORE PUSH1 0x80 PUSH1 0x60 DUP4 ADD MSTORE PUSH2 0x3062 PUSH1 0x80 DUP4 ADD DUP5 DUP7 PUSH2 0x2DD0 JUMP JUMPDEST PUSH1 0x40 MLOAD PUSH1 0x1F DUP3 ADD PUSH1 0x1F NOT AND DUP2 ADD PUSH1 0x1 PUSH1 0x1 PUSH1 0x40 SHL SUB DUP2 GT DUP3 DUP3 LT OR ISZERO PUSH2 0x3121 JUMPI PUSH2 0x3121 PUSH2 0x31FC JUMP JUMPDEST PUSH1 0x40 MSTORE SWAP2 SWAP1 POP JUMP JUMPDEST PUSH1 0x0 PUSH1 0x1 PUSH1 0x1 PUSH1 0x40 SHL SUB DUP3 GT ISZERO PUSH2 0x3142 JUMPI PUSH2 0x3142 PUSH2 0x31FC JUMP JUMPDEST POP PUSH1 0x1F ADD PUSH1 0x1F NOT AND PUSH1 0x20 ADD SWAP1 JUMP JUMPDEST PUSH1 0x0 DUP3 NOT DUP3 GT ISZERO PUSH2 0x3163 JUMPI PUSH2 0x3163 PUSH2 0x31E6 JUMP JUMPDEST POP ADD SWAP1 JUMP JUMPDEST PUSH1 0x0 DUP3 DUP3 LT ISZERO PUSH2 0x317A JUMPI PUSH2 0x317A PUSH2 0x31E6 JUMP JUMPDEST POP SUB SWAP1 JUMP JUMPDEST PUSH1 0x0 JUMPDEST DUP4 DUP2 LT ISZERO PUSH2 0x319A JUMPI DUP2 DUP2 ADD MLOAD DUP4 DUP3 ADD MSTORE PUSH1 0x20 ADD PUSH2 0x3182 JUMP JUMPDEST DUP4 DUP2 GT ISZERO PUSH2 0x1AB2 JUMPI POP POP PUSH1 0x0 SWAP2 ADD MSTORE JUMP JUMPDEST PUSH1 0x2 DUP2 DIV PUSH1 0x1 DUP3 AND DUP1 PUSH2 0x31BF JUMPI PUSH1 0x7F DUP3 AND SWAP2 POP JUMPDEST PUSH1 0x20 DUP3 LT DUP2 EQ ISZERO PUSH2 0x31E0 JUMPI PUSH4 0x4E487B71 PUSH1 0xE0 SHL PUSH1 0x0 MSTORE PUSH1 0x22 PUSH1 0x4 MSTORE PUSH1 0x24 PUSH1 0x0 REVERT JUMPDEST POP SWAP2 SWAP1 POP JUMP JUMPDEST PUSH4 0x4E487B71 PUSH1 0xE0 SHL PUSH1 0x0 MSTORE PUSH1 0x11 PUSH1 0x4 MSTORE PUSH1 0x24 PUSH1 0x0 REVERT JUMPDEST PUSH4 0x4E487B71 PUSH1 0xE0 SHL PUSH1 0x0 MSTORE PUSH1 0x41 PUSH1 0x4 MSTORE PUSH1 0x24 PUSH1 0x0 REVERT JUMPDEST PUSH1 0x1 PUSH1 0x1 PUSH1 0xA0 SHL SUB DUP2 AND DUP2 EQ PUSH2 0x174A JUMPI PUSH1 0x0 DUP1 REVERT JUMPDEST PUSH2 0xFFFF DUP2 AND DUP2 EQ PUSH2 0x174A JUMPI PUSH1 0x0 DUP1 REVERT INVALID 0xDD CALLCODE MSTORE 0xAD SHL 0xE2 0xC8 SWAP12 PUSH10 0xC2B068FC378DAA952BA7 CALL PUSH4 0xC4A11628 CREATE2 GAS 0x4D CREATE2 0x23 0xB3 0xEF LOG2 PUSH5 0x6970667358 0x22 SLT KECCAK256 0x4D 0xED 0x4E DUP5 0xC6 0x23 0x2B DUP6 MULMOD CREATE 0x4B BLOCKHASH 0x2F 0xCF CREATE2 KECCAK256 0xE0 0xA7 PUSH12 0xCF8471470F13F94BB1EF5777 PUSH16 0x64736F6C634300080200336101606040 MSTORE CALLVALUE DUP1 ISZERO PUSH3 0x12 JUMPI PUSH1 0x0 DUP1 REVERT JUMPDEST POP PUSH1 0x40 MLOAD PUSH3 0x5207 CODESIZE SUB DUP1 PUSH3 0x5207 DUP4 CODECOPY DUP2 ADD PUSH1 0x40 DUP2 SWAP1 MSTORE PUSH3 0x35 SWAP2 PUSH3 0x95A JUMP JUMPDEST DUP5 DUP5 DUP3 DUP8 DUP1 PUSH1 0x40 MLOAD DUP1 PUSH1 0x40 ADD PUSH1 0x40 MSTORE DUP1 PUSH1 0x1 DUP2 MSTORE PUSH1 0x20 ADD PUSH1 0x31 PUSH1 0xF8 SHL DUP2 MSTORE POP DUP6 DUP6 DUP6 DUP1 DUP1 PUSH3 0x73 PUSH3 0x6D PUSH3 0x15A PUSH1 0x20 SHL PUSH1 0x20 SHR JUMP JUMPDEST PUSH3 0x15E JUMP JUMPDEST PUSH1 0x60 SHL PUSH1 0x1 PUSH1 0x1 PUSH1 0x60 SHL SUB NOT AND PUSH1 0x80 MSTORE POP POP DUP2 MLOAD PUSH3 0x9A SWAP1 PUSH1 0x9 SWAP1 PUSH1 0x20 DUP6 ADD SWAP1 PUSH3 0x7E9 JUMP JUMPDEST POP DUP1 MLOAD PUSH3 0xB0 SWAP1 PUSH1 0xA SWAP1 PUSH1 0x20 DUP5 ADD SWAP1 PUSH3 0x7E9 JUMP JUMPDEST POP POP DUP3 MLOAD PUSH1 0x20 DUP1 DUP6 ADD SWAP2 SWAP1 SWAP2 KECCAK256 DUP4 MLOAD SWAP2 DUP5 ADD SWAP2 SWAP1 SWAP2 KECCAK256 PUSH2 0x100 DUP3 SWAP1 MSTORE PUSH2 0x120 DUP2 SWAP1 MSTORE CHAINID PUSH1 0xC0 MSTORE SWAP1 SWAP2 POP PUSH32 0x8B73C3C69BB8FE3D512ECC4CF759CC79239F7B179B0FFACAA9A75D522B39400F PUSH3 0x107 DUP2 DUP5 DUP5 PUSH3 0x1AE JUMP JUMPDEST PUSH1 0xA0 MSTORE ADDRESS PUSH1 0x60 SHL PUSH1 0xE0 MSTORE PUSH2 0x140 MSTORE POP PUSH3 0x14F SWAP7 POP DUP9 SWAP6 POP PUSH3 0x130 SWAP5 POP POP PUSH3 0x1F8 SWAP3 POP POP POP JUMP JUMPDEST PUSH3 0x13D SWAP1 PUSH1 0xA PUSH3 0xA58 JUMP JUMPDEST PUSH3 0x149 SWAP1 DUP7 PUSH3 0xB43 JUMP JUMPDEST PUSH3 0x1FD JUMP JUMPDEST POP POP POP POP POP PUSH3 0xBE8 JUMP JUMPDEST CALLER SWAP1 JUMP JUMPDEST PUSH1 0x0 DUP1 SLOAD PUSH1 0x1 PUSH1 0x1 PUSH1 0xA0 SHL SUB DUP4 DUP2 AND PUSH1 0x1 PUSH1 0x1 PUSH1 0xA0 SHL SUB NOT DUP4 AND DUP2 OR DUP5 SSTORE PUSH1 0x40 MLOAD SWAP2 SWAP1 SWAP3 AND SWAP3 DUP4 SWAP2 PUSH32 0x8BE0079C531659141344CD1FD0A4F28419497F9722A3DAAFE3B4186F6B6457E0 SWAP2 SWAP1 LOG3 POP POP JUMP JUMPDEST PUSH1 0x40 DUP1 MLOAD PUSH1 0x20 DUP2 ADD DUP6 SWAP1 MSTORE SWAP1 DUP2 ADD DUP4 SWAP1 MSTORE PUSH1 0x60 DUP2 ADD DUP3 SWAP1 MSTORE CHAINID PUSH1 0x80 DUP3 ADD MSTORE ADDRESS PUSH1 0xA0 DUP3 ADD MSTORE PUSH1 0x0 SWAP1 PUSH1 0xC0 ADD PUSH1 0x40 MLOAD PUSH1 0x20 DUP2 DUP4 SUB SUB DUP2 MSTORE SWAP1 PUSH1 0x40 MSTORE DUP1 MLOAD SWAP1 PUSH1 0x20 ADD KECCAK256 SWAP1 POP JUMPDEST SWAP4 SWAP3 POP POP POP JUMP JUMPDEST PUSH1 0x12 SWAP1 JUMP JUMPDEST PUSH3 0x214 DUP3 DUP3 PUSH3 0x218 PUSH1 0x20 SHL PUSH3 0x1EBC OR PUSH1 0x20 SHR JUMP JUMPDEST POP POP JUMP JUMPDEST PUSH3 0x22F DUP3 DUP3 PUSH3 0x2CF PUSH1 0x20 SHL PUSH3 0x1F4C OR PUSH1 0x20 SHR JUMP JUMPDEST PUSH1 0x1 PUSH1 0x1 PUSH1 0xE0 SHL SUB PUSH3 0x243 PUSH3 0x39E DUP3 AND JUMP JUMPDEST GT ISZERO PUSH3 0x2B0 JUMPI PUSH1 0x40 MLOAD PUSH3 0x461BCD PUSH1 0xE5 SHL DUP2 MSTORE PUSH1 0x20 PUSH1 0x4 DUP3 ADD MSTORE PUSH1 0x30 PUSH1 0x24 DUP3 ADD MSTORE PUSH32 0x4552433230566F7465733A20746F74616C20737570706C79207269736B73206F PUSH1 0x44 DUP3 ADD MSTORE PUSH16 0x766572666C6F77696E6720766F746573 PUSH1 0x80 SHL PUSH1 0x64 DUP3 ADD MSTORE PUSH1 0x84 ADD JUMPDEST PUSH1 0x40 MLOAD DUP1 SWAP2 SUB SWAP1 REVERT JUMPDEST PUSH3 0x2C9 PUSH1 0xF PUSH3 0x2007 PUSH3 0x3A4 PUSH1 0x20 SHL OR DUP4 PUSH3 0x3B2 JUMP JUMPDEST POP POP POP POP JUMP JUMPDEST PUSH1 0x1 PUSH1 0x1 PUSH1 0xA0 SHL SUB DUP3 AND PUSH3 0x327 JUMPI PUSH1 0x40 MLOAD PUSH3 0x461BCD PUSH1 0xE5 SHL DUP2 MSTORE PUSH1 0x20 PUSH1 0x4 DUP3 ADD MSTORE PUSH1 0x1F PUSH1 0x24 DUP3 ADD MSTORE PUSH32 0x45524332303A206D696E7420746F20746865207A65726F206164647265737300 PUSH1 0x44 DUP3 ADD MSTORE PUSH1 0x64 ADD PUSH3 0x2A7 JUMP JUMPDEST DUP1 PUSH1 0x8 PUSH1 0x0 DUP3 DUP3 SLOAD PUSH3 0x33B SWAP2 SWAP1 PUSH3 0x9F0 JUMP JUMPDEST SWAP1 SWAP2 SSTORE POP POP PUSH1 0x1 PUSH1 0x1 PUSH1 0xA0 SHL SUB DUP3 AND PUSH1 0x0 DUP2 DUP2 MSTORE PUSH1 0x6 PUSH1 0x20 SWAP1 DUP2 MSTORE PUSH1 0x40 DUP1 DUP4 KECCAK256 DUP1 SLOAD DUP7 ADD SWAP1 SSTORE MLOAD DUP5 DUP2 MSTORE PUSH32 0xDDF252AD1BE2C89B69C2B068FC378DAA952BA7F163C4A11628F55A4DF523B3EF SWAP2 ADD PUSH1 0x40 MLOAD DUP1 SWAP2 SUB SWAP1 LOG3 PUSH3 0x214 PUSH1 0x0 DUP4 DUP4 PUSH3 0x557 JUMP JUMPDEST PUSH1 0x8 SLOAD SWAP1 JUMP JUMPDEST PUSH1 0x0 PUSH3 0x1F1 DUP3 DUP5 PUSH3 0x9F0 JUMP JUMPDEST DUP3 SLOAD PUSH1 0x0 SWAP1 DUP2 SWAP1 DUP2 DUP2 ISZERO PUSH3 0x412 JUMPI PUSH3 0x3E1 DUP8 PUSH3 0x3D3 PUSH1 0x1 DUP6 PUSH3 0xB65 JUMP JUMPDEST PUSH1 0x0 SWAP2 DUP3 MSTORE PUSH1 0x20 SWAP1 SWAP2 KECCAK256 ADD SWAP1 JUMP JUMPDEST PUSH1 0x40 DUP1 MLOAD DUP1 DUP3 ADD SWAP1 SWAP2 MSTORE SWAP1 SLOAD PUSH4 0xFFFFFFFF DUP2 AND DUP3 MSTORE PUSH5 0x100000000 SWAP1 DIV PUSH1 0x1 PUSH1 0x1 PUSH1 0xE0 SHL SUB AND PUSH1 0x20 DUP3 ADD MSTORE PUSH3 0x427 JUMP JUMPDEST PUSH1 0x40 DUP1 MLOAD DUP1 DUP3 ADD SWAP1 SWAP2 MSTORE PUSH1 0x0 DUP1 DUP3 MSTORE PUSH1 0x20 DUP3 ADD MSTORE JUMPDEST SWAP1 POP DUP1 PUSH1 0x20 ADD MLOAD PUSH1 0x1 PUSH1 0x1 PUSH1 0xE0 SHL SUB AND SWAP4 POP PUSH3 0x445 DUP5 DUP7 DUP9 PUSH1 0x20 SHR JUMP JUMPDEST SWAP3 POP PUSH1 0x0 DUP3 GT DUP1 ISZERO PUSH3 0x45E JUMPI POP DUP1 MLOAD PUSH4 0xFFFFFFFF AND NUMBER EQ JUMPDEST ISZERO PUSH3 0x4B5 JUMPI PUSH3 0x47A DUP4 PUSH3 0x56F PUSH1 0x20 SHL PUSH3 0x2013 OR PUSH1 0x20 SHR JUMP JUMPDEST PUSH3 0x48C DUP9 PUSH3 0x3D3 PUSH1 0x1 DUP7 PUSH3 0xB65 JUMP JUMPDEST DUP1 SLOAD PUSH1 0x1 PUSH1 0x1 PUSH1 0xE0 SHL SUB SWAP3 SWAP1 SWAP3 AND PUSH5 0x100000000 MUL PUSH4 0xFFFFFFFF SWAP1 SWAP3 AND SWAP2 SWAP1 SWAP2 OR SWAP1 SSTORE PUSH3 0x548 JUMP JUMPDEST DUP7 PUSH1 0x40 MLOAD DUP1 PUSH1 0x40 ADD PUSH1 0x40 MSTORE DUP1 PUSH3 0x4D7 NUMBER PUSH3 0x5E2 PUSH1 0x20 SHL PUSH3 0x2080 OR PUSH1 0x20 SHR JUMP JUMPDEST PUSH4 0xFFFFFFFF AND DUP2 MSTORE PUSH1 0x20 ADD PUSH3 0x4F8 DUP7 PUSH3 0x56F PUSH1 0x20 SHL PUSH3 0x2013 OR PUSH1 0x20 SHR JUMP JUMPDEST PUSH1 0x1 PUSH1 0x1 PUSH1 0xE0 SHL SUB SWAP1 DUP2 AND SWAP1 SWAP2 MSTORE DUP3 SLOAD PUSH1 0x1 DUP2 ADD DUP5 SSTORE PUSH1 0x0 SWAP4 DUP5 MSTORE PUSH1 0x20 SWAP4 DUP5 SWAP1 KECCAK256 DUP4 MLOAD SWAP2 ADD DUP1 SLOAD SWAP4 SWAP1 SWAP5 ADD MLOAD SWAP1 SWAP2 AND PUSH5 0x100000000 MUL PUSH4 0xFFFFFFFF SWAP2 DUP3 AND PUSH4 0xFFFFFFFF NOT SWAP1 SWAP4 AND SWAP3 SWAP1 SWAP3 OR AND OR SWAP1 SSTORE JUMPDEST POP POP SWAP4 POP SWAP4 SWAP2 POP POP JUMP JUMPDEST POP POP POP JUMP JUMPDEST PUSH3 0x552 DUP4 DUP4 DUP4 PUSH3 0x649 PUSH1 0x20 SHL PUSH3 0x20E5 OR PUSH1 0x20 SHR JUMP JUMPDEST PUSH1 0x0 PUSH1 0x1 PUSH1 0x1 PUSH1 0xE0 SHL SUB DUP3 GT ISZERO PUSH3 0x5DA JUMPI PUSH1 0x40 MLOAD PUSH3 0x461BCD PUSH1 0xE5 SHL DUP2 MSTORE PUSH1 0x20 PUSH1 0x4 DUP3 ADD MSTORE PUSH1 0x27 PUSH1 0x24 DUP3 ADD MSTORE PUSH32 0x53616665436173743A2076616C756520646F65736E27742066697420696E2032 PUSH1 0x44 DUP3 ADD MSTORE PUSH7 0x32342062697473 PUSH1 0xC8 SHL PUSH1 0x64 DUP3 ADD MSTORE PUSH1 0x84 ADD PUSH3 0x2A7 JUMP JUMPDEST POP DUP1 JUMPDEST SWAP2 SWAP1 POP JUMP JUMPDEST PUSH1 0x0 PUSH4 0xFFFFFFFF DUP3 GT ISZERO PUSH3 0x5DA JUMPI PUSH1 0x40 MLOAD PUSH3 0x461BCD PUSH1 0xE5 SHL DUP2 MSTORE PUSH1 0x20 PUSH1 0x4 DUP3 ADD MSTORE PUSH1 0x26 PUSH1 0x24 DUP3 ADD MSTORE PUSH32 0x53616665436173743A2076616C756520646F65736E27742066697420696E2033 PUSH1 0x44 DUP3 ADD MSTORE PUSH6 0x322062697473 PUSH1 0xD0 SHL PUSH1 0x64 DUP3 ADD MSTORE PUSH1 0x84 ADD PUSH3 0x2A7 JUMP JUMPDEST PUSH3 0x661 DUP4 DUP4 DUP4 PUSH3 0x552 PUSH1 0x20 SHL PUSH3 0x2100 OR PUSH1 0x20 SHR JUMP JUMPDEST PUSH3 0x552 PUSH3 0x670 DUP5 PUSH3 0x682 JUMP JUMPDEST PUSH3 0x67B DUP5 PUSH3 0x682 JUMP JUMPDEST DUP4 PUSH3 0x6A0 JUMP JUMPDEST PUSH1 0x1 PUSH1 0x1 PUSH1 0xA0 SHL SUB SWAP1 DUP2 AND PUSH1 0x0 SWAP1 DUP2 MSTORE PUSH1 0xD PUSH1 0x20 MSTORE PUSH1 0x40 SWAP1 KECCAK256 SLOAD AND SWAP1 JUMP JUMPDEST DUP2 PUSH1 0x1 PUSH1 0x1 PUSH1 0xA0 SHL SUB AND DUP4 PUSH1 0x1 PUSH1 0x1 PUSH1 0xA0 SHL SUB AND EQ ISZERO DUP1 ISZERO PUSH3 0x6C3 JUMPI POP PUSH1 0x0 DUP2 GT JUMPDEST ISZERO PUSH3 0x552 JUMPI PUSH1 0x1 PUSH1 0x1 PUSH1 0xA0 SHL SUB DUP4 AND ISZERO PUSH3 0x750 JUMPI PUSH1 0x1 PUSH1 0x1 PUSH1 0xA0 SHL SUB DUP4 AND PUSH1 0x0 SWAP1 DUP2 MSTORE PUSH1 0xE PUSH1 0x20 SWAP1 DUP2 MSTORE PUSH1 0x40 DUP3 KECCAK256 DUP3 SWAP2 PUSH3 0x70D SWAP2 SWAP1 PUSH3 0x7DB SWAP1 SHL PUSH3 0x2105 OR DUP6 PUSH3 0x3B2 JUMP JUMPDEST SWAP2 POP SWAP2 POP DUP5 PUSH1 0x1 PUSH1 0x1 PUSH1 0xA0 SHL SUB AND PUSH1 0x0 DUP1 MLOAD PUSH1 0x20 PUSH3 0x51E7 DUP4 CODECOPY DUP2 MLOAD SWAP2 MSTORE DUP4 DUP4 PUSH1 0x40 MLOAD PUSH3 0x745 SWAP3 SWAP2 SWAP1 SWAP2 DUP3 MSTORE PUSH1 0x20 DUP3 ADD MSTORE PUSH1 0x40 ADD SWAP1 JUMP JUMPDEST PUSH1 0x40 MLOAD DUP1 SWAP2 SUB SWAP1 LOG2 POP POP JUMPDEST PUSH1 0x1 PUSH1 0x1 PUSH1 0xA0 SHL SUB DUP3 AND ISZERO PUSH3 0x552 JUMPI PUSH1 0x1 PUSH1 0x1 PUSH1 0xA0 SHL SUB DUP3 AND PUSH1 0x0 SWAP1 DUP2 MSTORE PUSH1 0xE PUSH1 0x20 SWAP1 DUP2 MSTORE PUSH1 0x40 DUP3 KECCAK256 DUP3 SWAP2 PUSH3 0x794 SWAP2 SWAP1 PUSH3 0x3A4 SWAP1 SHL PUSH3 0x2007 OR DUP6 PUSH3 0x3B2 JUMP JUMPDEST SWAP2 POP SWAP2 POP DUP4 PUSH1 0x1 PUSH1 0x1 PUSH1 0xA0 SHL SUB AND PUSH1 0x0 DUP1 MLOAD PUSH1 0x20 PUSH3 0x51E7 DUP4 CODECOPY DUP2 MLOAD SWAP2 MSTORE DUP4 DUP4 PUSH1 0x40 MLOAD PUSH3 0x7CC SWAP3 SWAP2 SWAP1 SWAP2 DUP3 MSTORE PUSH1 0x20 DUP3 ADD MSTORE PUSH1 0x40 ADD SWAP1 JUMP JUMPDEST PUSH1 0x40 MLOAD DUP1 SWAP2 SUB SWAP1 LOG2 POP POP POP POP POP JUMP JUMPDEST PUSH1 0x0 PUSH3 0x1F1 DUP3 DUP5 PUSH3 0xB65 JUMP JUMPDEST DUP3 DUP1 SLOAD PUSH3 0x7F7 SWAP1 PUSH3 0xB7F JUMP JUMPDEST SWAP1 PUSH1 0x0 MSTORE PUSH1 0x20 PUSH1 0x0 KECCAK256 SWAP1 PUSH1 0x1F ADD PUSH1 0x20 SWAP1 DIV DUP2 ADD SWAP3 DUP3 PUSH3 0x81B JUMPI PUSH1 0x0 DUP6 SSTORE PUSH3 0x866 JUMP JUMPDEST DUP3 PUSH1 0x1F LT PUSH3 0x836 JUMPI DUP1 MLOAD PUSH1 0xFF NOT AND DUP4 DUP1 ADD OR DUP6 SSTORE PUSH3 0x866 JUMP JUMPDEST DUP3 DUP1 ADD PUSH1 0x1 ADD DUP6 SSTORE DUP3 ISZERO PUSH3 0x866 JUMPI SWAP2 DUP3 ADD JUMPDEST DUP3 DUP2 GT ISZERO PUSH3 0x866 JUMPI DUP3 MLOAD DUP3 SSTORE SWAP2 PUSH1 0x20 ADD SWAP2 SWAP1 PUSH1 0x1 ADD SWAP1 PUSH3 0x849 JUMP JUMPDEST POP PUSH3 0x874 SWAP3 SWAP2 POP PUSH3 0x878 JUMP JUMPDEST POP SWAP1 JUMP JUMPDEST JUMPDEST DUP1 DUP3 GT ISZERO PUSH3 0x874 JUMPI PUSH1 0x0 DUP2 SSTORE PUSH1 0x1 ADD PUSH3 0x879 JUMP JUMPDEST DUP1 MLOAD PUSH1 0x1 PUSH1 0x1 PUSH1 0xA0 SHL SUB DUP2 AND DUP2 EQ PUSH3 0x5DD JUMPI PUSH1 0x0 DUP1 REVERT JUMPDEST PUSH1 0x0 DUP3 PUSH1 0x1F DUP4 ADD SLT PUSH3 0x8B8 JUMPI DUP1 DUP2 REVERT JUMPDEST DUP2 MLOAD PUSH1 0x1 PUSH1 0x1 PUSH1 0x40 SHL SUB DUP1 DUP3 GT ISZERO PUSH3 0x8D5 JUMPI PUSH3 0x8D5 PUSH3 0xBD2 JUMP JUMPDEST PUSH1 0x40 MLOAD PUSH1 0x1F DUP4 ADD PUSH1 0x1F NOT SWAP1 DUP2 AND PUSH1 0x3F ADD AND DUP2 ADD SWAP1 DUP3 DUP3 GT DUP2 DUP4 LT OR ISZERO PUSH3 0x900 JUMPI PUSH3 0x900 PUSH3 0xBD2 JUMP JUMPDEST DUP2 PUSH1 0x40 MSTORE DUP4 DUP2 MSTORE PUSH1 0x20 SWAP3 POP DUP7 DUP4 DUP6 DUP9 ADD ADD GT ISZERO PUSH3 0x91C JUMPI DUP5 DUP6 REVERT JUMPDEST DUP5 SWAP2 POP JUMPDEST DUP4 DUP3 LT ISZERO PUSH3 0x93F JUMPI DUP6 DUP3 ADD DUP4 ADD MLOAD DUP2 DUP4 ADD DUP5 ADD MSTORE SWAP1 DUP3 ADD SWAP1 PUSH3 0x920 JUMP JUMPDEST DUP4 DUP3 GT ISZERO PUSH3 0x950 JUMPI DUP5 DUP4 DUP6 DUP4 ADD ADD MSTORE JUMPDEST SWAP7 SWAP6 POP POP POP POP POP POP JUMP JUMPDEST PUSH1 0x0 DUP1 PUSH1 0x0 DUP1 PUSH1 0x0 PUSH1 0xA0 DUP7 DUP9 SUB SLT ISZERO PUSH3 0x972 JUMPI DUP1 DUP2 REVERT JUMPDEST DUP6 MLOAD PUSH1 0x1 PUSH1 0x1 PUSH1 0x40 SHL SUB DUP1 DUP3 GT ISZERO PUSH3 0x989 JUMPI DUP3 DUP4 REVERT JUMPDEST PUSH3 0x997 DUP10 DUP4 DUP11 ADD PUSH3 0x8A7 JUMP JUMPDEST SWAP7 POP PUSH1 0x20 DUP9 ADD MLOAD SWAP2 POP DUP1 DUP3 GT ISZERO PUSH3 0x9AD JUMPI DUP3 DUP4 REVERT JUMPDEST POP PUSH3 0x9BC DUP9 DUP3 DUP10 ADD PUSH3 0x8A7 JUMP JUMPDEST SWAP5 POP POP PUSH1 0x40 DUP7 ADD MLOAD SWAP3 POP PUSH3 0x9D4 PUSH1 0x60 DUP8 ADD PUSH3 0x88F JUMP JUMPDEST SWAP2 POP PUSH3 0x9E4 PUSH1 0x80 DUP8 ADD PUSH3 0x88F JUMP JUMPDEST SWAP1 POP SWAP3 SWAP6 POP SWAP3 SWAP6 SWAP1 SWAP4 POP JUMP JUMPDEST PUSH1 0x0 DUP3 NOT DUP3 GT ISZERO PUSH3 0xA06 JUMPI PUSH3 0xA06 PUSH3 0xBBC JUMP JUMPDEST POP ADD SWAP1 JUMP JUMPDEST DUP1 DUP3 JUMPDEST PUSH1 0x1 DUP1 DUP7 GT PUSH3 0xA1F JUMPI POP PUSH3 0xA4F JUMP JUMPDEST DUP2 DUP8 DIV DUP3 GT ISZERO PUSH3 0xA34 JUMPI PUSH3 0xA34 PUSH3 0xBBC JUMP JUMPDEST DUP1 DUP7 AND ISZERO PUSH3 0xA42 JUMPI SWAP2 DUP2 MUL SWAP2 JUMPDEST SWAP5 SWAP1 SWAP5 SHR SWAP4 DUP1 MUL PUSH3 0xA0E JUMP JUMPDEST SWAP5 POP SWAP5 SWAP3 POP POP POP JUMP JUMPDEST PUSH1 0x0 PUSH3 0x1F1 PUSH1 0x0 NOT PUSH1 0xFF DUP6 AND DUP5 PUSH1 0x0 DUP3 PUSH3 0xA77 JUMPI POP PUSH1 0x1 PUSH3 0x1F1 JUMP JUMPDEST DUP2 PUSH3 0xA86 JUMPI POP PUSH1 0x0 PUSH3 0x1F1 JUMP JUMPDEST DUP2 PUSH1 0x1 DUP2 EQ PUSH3 0xA9F JUMPI PUSH1 0x2 DUP2 EQ PUSH3 0xAAA JUMPI PUSH3 0xADE JUMP JUMPDEST PUSH1 0x1 SWAP2 POP POP PUSH3 0x1F1 JUMP JUMPDEST PUSH1 0xFF DUP5 GT ISZERO PUSH3 0xABE JUMPI PUSH3 0xABE PUSH3 0xBBC JUMP JUMPDEST PUSH1 0x1 DUP5 SHL SWAP2 POP DUP5 DUP3 GT ISZERO PUSH3 0xAD7 JUMPI PUSH3 0xAD7 PUSH3 0xBBC JUMP JUMPDEST POP PUSH3 0x1F1 JUMP JUMPDEST POP PUSH1 0x20 DUP4 LT PUSH2 0x133 DUP4 LT AND PUSH1 0x4E DUP5 LT PUSH1 0xB DUP5 LT AND OR ISZERO PUSH3 0xB16 JUMPI POP DUP2 DUP2 EXP DUP4 DUP2 GT ISZERO PUSH3 0xB10 JUMPI PUSH3 0xB10 PUSH3 0xBBC JUMP JUMPDEST PUSH3 0x1F1 JUMP JUMPDEST PUSH3 0xB25 DUP5 DUP5 DUP5 PUSH1 0x1 PUSH3 0xA0B JUMP JUMPDEST DUP1 DUP7 DIV DUP3 GT ISZERO PUSH3 0xB3A JUMPI PUSH3 0xB3A PUSH3 0xBBC JUMP JUMPDEST MUL SWAP5 SWAP4 POP POP POP POP JUMP JUMPDEST PUSH1 0x0 DUP2 PUSH1 0x0 NOT DIV DUP4 GT DUP3 ISZERO ISZERO AND ISZERO PUSH3 0xB60 JUMPI PUSH3 0xB60 PUSH3 0xBBC JUMP JUMPDEST POP MUL SWAP1 JUMP JUMPDEST PUSH1 0x0 DUP3 DUP3 LT ISZERO PUSH3 0xB7A JUMPI PUSH3 0xB7A PUSH3 0xBBC JUMP JUMPDEST POP SUB SWAP1 JUMP JUMPDEST PUSH1 0x2 DUP2 DIV PUSH1 0x1 DUP3 AND DUP1 PUSH3 0xB94 JUMPI PUSH1 0x7F DUP3 AND SWAP2 POP JUMPDEST PUSH1 0x20 DUP3 LT DUP2 EQ ISZERO PUSH3 0xBB6 JUMPI PUSH4 0x4E487B71 PUSH1 0xE0 SHL PUSH1 0x0 MSTORE PUSH1 0x22 PUSH1 0x4 MSTORE PUSH1 0x24 PUSH1 0x0 REVERT JUMPDEST POP SWAP2 SWAP1 POP JUMP JUMPDEST PUSH4 0x4E487B71 PUSH1 0xE0 SHL PUSH1 0x0 MSTORE PUSH1 0x11 PUSH1 0x4 MSTORE PUSH1 0x24 PUSH1 0x0 REVERT JUMPDEST PUSH4 0x4E487B71 PUSH1 0xE0 SHL PUSH1 0x0 MSTORE PUSH1 0x41 PUSH1 0x4 MSTORE PUSH1 0x24 PUSH1 0x0 REVERT JUMPDEST PUSH1 0x80 MLOAD PUSH1 0x60 SHR PUSH1 0xA0 MLOAD PUSH1 0xC0 MLOAD PUSH1 0xE0 MLOAD PUSH1 0x60 SHR PUSH2 0x100 MLOAD PUSH2 0x120 MLOAD PUSH2 0x140 MLOAD PUSH2 0x4566 PUSH3 0xC81 PUSH1 0x0 CODECOPY PUSH1 0x0 PUSH2 0x25E1 ADD MSTORE PUSH1 0x0 PUSH2 0x2630 ADD MSTORE PUSH1 0x0 PUSH2 0x260B ADD MSTORE PUSH1 0x0 PUSH2 0x2562 ADD MSTORE PUSH1 0x0 PUSH2 0x258C ADD MSTORE PUSH1 0x0 PUSH2 0x25B6 ADD MSTORE PUSH1 0x0 DUP2 DUP2 PUSH2 0x77B ADD MSTORE DUP2 DUP2 PUSH2 0x96A ADD MSTORE DUP2 DUP2 PUSH2 0xC8C ADD MSTORE DUP2 DUP2 PUSH2 0xD2D ADD MSTORE DUP2 DUP2 PUSH2 0xDCB ADD MSTORE DUP2 DUP2 PUSH2 0xFD0 ADD MSTORE DUP2 DUP2 PUSH2 0x1790 ADD MSTORE DUP2 DUP2 PUSH2 0x1E2D ADD MSTORE PUSH2 0x31F4 ADD MSTORE PUSH2 0x4566 PUSH1 0x0 RETURN INVALID PUSH1 0x80 PUSH1 0x40 MSTORE PUSH1 0x4 CALLDATASIZE LT PUSH2 0x259 JUMPI PUSH1 0x0 CALLDATALOAD PUSH1 0xE0 SHR DUP1 PUSH3 0x1D3567 EQ PUSH2 0x25E JUMPI DUP1 PUSH4 0x1FFC9A7 EQ PUSH2 0x280 JUMPI DUP1 PUSH4 0x6FDDE03 EQ PUSH2 0x2B5 JUMPI DUP1 PUSH4 0x7E0DB17 EQ PUSH2 0x2D7 JUMPI DUP1 PUSH4 0x95EA7B3 EQ PUSH2 0x2F7 JUMPI DUP1 PUSH4 0x10DDB137 EQ PUSH2 0x317 JUMPI DUP1 PUSH4 0x18160DDD EQ PUSH2 0x337 JUMPI DUP1 PUSH4 0x23B872DD EQ PUSH2 0x356 JUMPI DUP1 PUSH4 0x2A205E3D EQ PUSH2 0x376 JUMPI DUP1 PUSH4 0x313CE567 EQ PUSH2 0x3AB JUMPI DUP1 PUSH4 0x3644E515 EQ PUSH2 0x3C7 JUMPI DUP1 PUSH4 0x39509351 EQ PUSH2 0x3DC JUMPI DUP1 PUSH4 0x3A46B1A8 EQ PUSH2 0x3FC JUMPI DUP1 PUSH4 0x3D8B38F6 EQ PUSH2 0x41C JUMPI DUP1 PUSH4 0x42D65A8D EQ PUSH2 0x43C JUMPI DUP1 PUSH4 0x44770515 EQ PUSH2 0x45C JUMPI DUP1 PUSH4 0x4C42899A EQ PUSH2 0x471 JUMPI DUP1 PUSH4 0x51905636 EQ PUSH2 0x499 JUMPI DUP1 PUSH4 0x587CDE1E EQ PUSH2 0x4AC JUMPI DUP1 PUSH4 0x5B8C41E6 EQ PUSH2 0x4D9 JUMPI DUP1 PUSH4 0x5C19A95C EQ PUSH2 0x528 JUMPI DUP1 PUSH4 0x66AD5C8A EQ PUSH2 0x548 JUMPI DUP1 PUSH4 0x6FCFFF45 EQ PUSH2 0x568 JUMPI DUP1 PUSH4 0x70A08231 EQ PUSH2 0x59D JUMPI DUP1 PUSH4 0x715018A6 EQ PUSH2 0x5BD JUMPI DUP1 PUSH4 0x7533D788 EQ PUSH2 0x5D2 JUMPI DUP1 PUSH4 0x7ECEBE00 EQ PUSH2 0x5F2 JUMPI DUP1 PUSH4 0x8CFD8F5C EQ PUSH2 0x612 JUMPI DUP1 PUSH4 0x8DA5CB5B EQ PUSH2 0x64A JUMPI DUP1 PUSH4 0x8E539E8C EQ PUSH2 0x65F JUMPI DUP1 PUSH4 0x9358928B EQ PUSH2 0x67F JUMPI DUP1 PUSH4 0x950C8A74 EQ PUSH2 0x694 JUMPI DUP1 PUSH4 0x95D89B41 EQ PUSH2 0x6B4 JUMPI DUP1 PUSH4 0x9AB24EB0 EQ PUSH2 0x6C9 JUMPI DUP1 PUSH4 0x9F38369A EQ PUSH2 0x6E9 JUMPI DUP1 PUSH4 0xA457C2D7 EQ PUSH2 0x709 JUMPI DUP1 PUSH4 0xA6C3D165 EQ PUSH2 0x729 JUMPI DUP1 PUSH4 0xA9059CBB EQ PUSH2 0x749 JUMPI DUP1 PUSH4 0xB353AAA7 EQ PUSH2 0x769 JUMPI DUP1 PUSH4 0xBAF3292D EQ PUSH2 0x79D JUMPI DUP1 PUSH4 0xC3CDA520 EQ PUSH2 0x7BD JUMPI DUP1 PUSH4 0xCBED8B9C EQ PUSH2 0x7DD JUMPI DUP1 PUSH4 0xD1DEBA1F EQ PUSH2 0x7FD JUMPI DUP1 PUSH4 0xD505ACCF EQ PUSH2 0x810 JUMPI DUP1 PUSH4 0xDD62ED3E EQ PUSH2 0x830 JUMPI DUP1 PUSH4 0xDF2A5B3B EQ PUSH2 0x850 JUMPI DUP1 PUSH4 0xEAB45D9C EQ PUSH2 0x870 JUMPI DUP1 PUSH4 0xEB8D72B7 EQ PUSH2 0x890 JUMPI DUP1 PUSH4 0xED629C5C EQ PUSH2 0x8B0 JUMPI DUP1 PUSH4 0xF1127ED8 EQ PUSH2 0x8CA JUMPI DUP1 PUSH4 0xF2FDE38B EQ PUSH2 0x914 JUMPI DUP1 PUSH4 0xF5ECBDBC EQ PUSH2 0x934 JUMPI DUP1 PUSH4 0xFC0C546A EQ PUSH2 0x954 JUMPI JUMPDEST PUSH1 0x0 DUP1 REVERT JUMPDEST CALLVALUE DUP1 ISZERO PUSH2 0x26A JUMPI PUSH1 0x0 DUP1 REVERT JUMPDEST POP PUSH2 0x27E PUSH2 0x279 CALLDATASIZE PUSH1 0x4 PUSH2 0x3D61 JUMP JUMPDEST PUSH2 0x967 JUMP JUMPDEST STOP JUMPDEST CALLVALUE DUP1 ISZERO PUSH2 0x28C JUMPI PUSH1 0x0 DUP1 REVERT JUMPDEST POP PUSH2 0x2A0 PUSH2 0x29B CALLDATASIZE PUSH1 0x4 PUSH2 0x3BFD JUMP JUMPDEST PUSH2 0xB98 JUMP JUMPDEST PUSH1 0x40 MLOAD SWAP1 ISZERO ISZERO DUP2 MSTORE PUSH1 0x20 ADD JUMPDEST PUSH1 0x40 MLOAD DUP1 SWAP2 SUB SWAP1 RETURN JUMPDEST CALLVALUE DUP1 ISZERO PUSH2 0x2C1 JUMPI PUSH1 0x0 DUP1 REVERT JUMPDEST POP PUSH2 0x2CA PUSH2 0xBD8 JUMP JUMPDEST PUSH1 0x40 MLOAD PUSH2 0x2AC SWAP2 SWAP1 PUSH2 0x40F2 JUMP JUMPDEST CALLVALUE DUP1 ISZERO PUSH2 0x2E3 JUMPI PUSH1 0x0 DUP1 REVERT JUMPDEST POP PUSH2 0x27E PUSH2 0x2F2 CALLDATASIZE PUSH1 0x4 PUSH2 0x3C57 JUMP JUMPDEST PUSH2 0xC6B JUMP JUMPDEST CALLVALUE DUP1 ISZERO PUSH2 0x303 JUMPI PUSH1 0x0 DUP1 REVERT JUMPDEST POP PUSH2 0x2A0 PUSH2 0x312 CALLDATASIZE PUSH1 0x4 PUSH2 0x3B2A JUMP JUMPDEST PUSH2 0xCF4 JUMP JUMPDEST CALLVALUE DUP1 ISZERO PUSH2 0x323 JUMPI PUSH1 0x0 DUP1 REVERT JUMPDEST POP PUSH2 0x27E PUSH2 0x332 CALLDATASIZE PUSH1 0x4 PUSH2 0x3C57 JUMP JUMPDEST PUSH2 0xD0C JUMP JUMPDEST CALLVALUE DUP1 ISZERO PUSH2 0x343 JUMPI PUSH1 0x0 DUP1 REVERT JUMPDEST POP PUSH1 0x8 SLOAD JUMPDEST PUSH1 0x40 MLOAD SWAP1 DUP2 MSTORE PUSH1 0x20 ADD PUSH2 0x2AC JUMP JUMPDEST CALLVALUE DUP1 ISZERO PUSH2 0x362 JUMPI PUSH1 0x0 DUP1 REVERT JUMPDEST POP PUSH2 0x2A0 PUSH2 0x371 CALLDATASIZE PUSH1 0x4 PUSH2 0x39B7 JUMP JUMPDEST PUSH2 0xD64 JUMP JUMPDEST CALLVALUE DUP1 ISZERO PUSH2 0x382 JUMPI PUSH1 0x0 DUP1 REVERT JUMPDEST POP PUSH2 0x396 PUSH2 0x391 CALLDATASIZE PUSH1 0x4 PUSH2 0x3CC5 JUMP JUMPDEST PUSH2 0xD88 JUMP JUMPDEST PUSH1 0x40 DUP1 MLOAD SWAP3 DUP4 MSTORE PUSH1 0x20 DUP4 ADD SWAP2 SWAP1 SWAP2 MSTORE ADD PUSH2 0x2AC JUMP JUMPDEST CALLVALUE DUP1 ISZERO PUSH2 0x3B7 JUMPI PUSH1 0x0 DUP1 REVERT JUMPDEST POP PUSH1 0x40 MLOAD PUSH1 0x12 DUP2 MSTORE PUSH1 0x20 ADD PUSH2 0x2AC JUMP JUMPDEST CALLVALUE DUP1 ISZERO PUSH2 0x3D3 JUMPI PUSH1 0x0 DUP1 REVERT JUMPDEST POP PUSH2 0x348 PUSH2 0xE6A JUMP JUMPDEST CALLVALUE DUP1 ISZERO PUSH2 0x3E8 JUMPI PUSH1 0x0 DUP1 REVERT JUMPDEST POP PUSH2 0x2A0 PUSH2 0x3F7 CALLDATASIZE PUSH1 0x4 PUSH2 0x3B2A JUMP JUMPDEST PUSH2 0xE79 JUMP JUMPDEST CALLVALUE DUP1 ISZERO PUSH2 0x408 JUMPI PUSH1 0x0 DUP1 REVERT JUMPDEST POP PUSH2 0x348 PUSH2 0x417 CALLDATASIZE PUSH1 0x4 PUSH2 0x3B2A JUMP JUMPDEST PUSH2 0xE9B JUMP JUMPDEST CALLVALUE DUP1 ISZERO PUSH2 0x428 JUMPI PUSH1 0x0 DUP1 REVERT JUMPDEST POP PUSH2 0x2A0 PUSH2 0x437 CALLDATASIZE PUSH1 0x4 PUSH2 0x3C73 JUMP JUMPDEST PUSH2 0xEE5 JUMP JUMPDEST CALLVALUE DUP1 ISZERO PUSH2 0x448 JUMPI PUSH1 0x0 DUP1 REVERT JUMPDEST POP PUSH2 0x27E PUSH2 0x457 CALLDATASIZE PUSH1 0x4 PUSH2 0x3C73 JUMP JUMPDEST PUSH2 0xFB1 JUMP JUMPDEST CALLVALUE DUP1 ISZERO PUSH2 0x468 JUMPI PUSH1 0x0 DUP1 REVERT JUMPDEST POP PUSH2 0x348 PUSH1 0x0 DUP2 JUMP JUMPDEST CALLVALUE DUP1 ISZERO PUSH2 0x47D JUMPI PUSH1 0x0 DUP1 REVERT JUMPDEST POP PUSH2 0x486 PUSH1 0x0 DUP2 JUMP JUMPDEST PUSH1 0x40 MLOAD PUSH2 0xFFFF SWAP1 SWAP2 AND DUP2 MSTORE PUSH1 0x20 ADD PUSH2 0x2AC JUMP JUMPDEST PUSH2 0x27E PUSH2 0x4A7 CALLDATASIZE PUSH1 0x4 PUSH2 0x3A64 JUMP JUMPDEST PUSH2 0x1037 JUMP JUMPDEST CALLVALUE DUP1 ISZERO PUSH2 0x4B8 JUMPI PUSH1 0x0 DUP1 REVERT JUMPDEST POP PUSH2 0x4CC PUSH2 0x4C7 CALLDATASIZE PUSH1 0x4 PUSH2 0x3963 JUMP JUMPDEST PUSH2 0x10BC JUMP JUMPDEST PUSH1 0x40 MLOAD PUSH2 0x2AC SWAP2 SWAP1 PUSH2 0x40DE JUMP JUMPDEST CALLVALUE DUP1 ISZERO PUSH2 0x4E5 JUMPI PUSH1 0x0 DUP1 REVERT JUMPDEST POP PUSH2 0x348 PUSH2 0x4F4 CALLDATASIZE PUSH1 0x4 PUSH2 0x3E4A JUMP JUMPDEST PUSH1 0x4 PUSH1 0x20 SWAP1 DUP2 MSTORE PUSH1 0x0 SWAP4 DUP5 MSTORE PUSH1 0x40 DUP1 DUP6 KECCAK256 DUP5 MLOAD DUP1 DUP7 ADD DUP5 ADD DUP1 MLOAD SWAP3 DUP2 MSTORE SWAP1 DUP5 ADD SWAP6 DUP5 ADD SWAP6 SWAP1 SWAP6 KECCAK256 SWAP5 MSTORE SWAP3 SWAP1 MSTORE DUP3 MSTORE SWAP1 KECCAK256 SLOAD DUP2 JUMP JUMPDEST CALLVALUE DUP1 ISZERO PUSH2 0x534 JUMPI PUSH1 0x0 DUP1 REVERT JUMPDEST POP PUSH2 0x27E PUSH2 0x543 CALLDATASIZE PUSH1 0x4 PUSH2 0x3963 JUMP JUMPDEST PUSH2 0x10DA JUMP JUMPDEST CALLVALUE DUP1 ISZERO PUSH2 0x554 JUMPI PUSH1 0x0 DUP1 REVERT JUMPDEST POP PUSH2 0x27E PUSH2 0x563 CALLDATASIZE PUSH1 0x4 PUSH2 0x3D61 JUMP JUMPDEST PUSH2 0x10E7 JUMP JUMPDEST CALLVALUE DUP1 ISZERO PUSH2 0x574 JUMPI PUSH1 0x0 DUP1 REVERT JUMPDEST POP PUSH2 0x588 PUSH2 0x583 CALLDATASIZE PUSH1 0x4 PUSH2 0x3963 JUMP JUMPDEST PUSH2 0x11C3 JUMP JUMPDEST PUSH1 0x40 MLOAD PUSH4 0xFFFFFFFF SWAP1 SWAP2 AND DUP2 MSTORE PUSH1 0x20 ADD PUSH2 0x2AC JUMP JUMPDEST CALLVALUE DUP1 ISZERO PUSH2 0x5A9 JUMPI PUSH1 0x0 DUP1 REVERT JUMPDEST POP PUSH2 0x348 PUSH2 0x5B8 CALLDATASIZE PUSH1 0x4 PUSH2 0x3963 JUMP JUMPDEST PUSH2 0x11E5 JUMP JUMPDEST CALLVALUE DUP1 ISZERO PUSH2 0x5C9 JUMPI PUSH1 0x0 DUP1 REVERT JUMPDEST POP PUSH2 0x27E PUSH2 0x1200 JUMP JUMPDEST CALLVALUE DUP1 ISZERO PUSH2 0x5DE JUMPI PUSH1 0x0 DUP1 REVERT JUMPDEST POP PUSH2 0x2CA PUSH2 0x5ED CALLDATASIZE PUSH1 0x4 PUSH2 0x3C57 JUMP JUMPDEST PUSH2 0x1214 JUMP JUMPDEST CALLVALUE DUP1 ISZERO PUSH2 0x5FE JUMPI PUSH1 0x0 DUP1 REVERT JUMPDEST POP PUSH2 0x348 PUSH2 0x60D CALLDATASIZE PUSH1 0x4 PUSH2 0x3963 JUMP JUMPDEST PUSH2 0x12AE JUMP JUMPDEST CALLVALUE DUP1 ISZERO PUSH2 0x61E JUMPI PUSH1 0x0 DUP1 REVERT JUMPDEST POP PUSH2 0x348 PUSH2 0x62D CALLDATASIZE PUSH1 0x4 PUSH2 0x3EE1 JUMP JUMPDEST PUSH1 0x2 PUSH1 0x20 SWAP1 DUP2 MSTORE PUSH1 0x0 SWAP3 DUP4 MSTORE PUSH1 0x40 DUP1 DUP5 KECCAK256 SWAP1 SWAP2 MSTORE SWAP1 DUP3 MSTORE SWAP1 KECCAK256 SLOAD DUP2 JUMP JUMPDEST CALLVALUE DUP1 ISZERO PUSH2 0x656 JUMPI PUSH1 0x0 DUP1 REVERT JUMPDEST POP PUSH2 0x4CC PUSH2 0x12CC JUMP JUMPDEST CALLVALUE DUP1 ISZERO PUSH2 0x66B JUMPI PUSH1 0x0 DUP1 REVERT JUMPDEST POP PUSH2 0x348 PUSH2 0x67A CALLDATASIZE PUSH1 0x4 PUSH2 0x3FFD JUMP JUMPDEST PUSH2 0x12DB JUMP JUMPDEST CALLVALUE DUP1 ISZERO PUSH2 0x68B JUMPI PUSH1 0x0 DUP1 REVERT JUMPDEST POP PUSH2 0x348 PUSH2 0x1307 JUMP JUMPDEST CALLVALUE DUP1 ISZERO PUSH2 0x6A0 JUMPI PUSH1 0x0 DUP1 REVERT JUMPDEST POP PUSH1 0x3 SLOAD PUSH2 0x4CC SWAP1 PUSH1 0x1 PUSH1 0x1 PUSH1 0xA0 SHL SUB AND DUP2 JUMP JUMPDEST CALLVALUE DUP1 ISZERO PUSH2 0x6C0 JUMPI PUSH1 0x0 DUP1 REVERT JUMPDEST POP PUSH2 0x2CA PUSH2 0x131B JUMP JUMPDEST CALLVALUE DUP1 ISZERO PUSH2 0x6D5 JUMPI PUSH1 0x0 DUP1 REVERT JUMPDEST POP PUSH2 0x348 PUSH2 0x6E4 CALLDATASIZE PUSH1 0x4 PUSH2 0x3963 JUMP JUMPDEST PUSH2 0x132A JUMP JUMPDEST CALLVALUE DUP1 ISZERO PUSH2 0x6F5 JUMPI PUSH1 0x0 DUP1 REVERT JUMPDEST POP PUSH2 0x2CA PUSH2 0x704 CALLDATASIZE PUSH1 0x4 PUSH2 0x3C57 JUMP JUMPDEST PUSH2 0x13BE JUMP JUMPDEST CALLVALUE DUP1 ISZERO PUSH2 0x715 JUMPI PUSH1 0x0 DUP1 REVERT JUMPDEST POP PUSH2 0x2A0 PUSH2 0x724 CALLDATASIZE PUSH1 0x4 PUSH2 0x3B2A JUMP JUMPDEST PUSH2 0x14CE JUMP JUMPDEST CALLVALUE DUP1 ISZERO PUSH2 0x735 JUMPI PUSH1 0x0 DUP1 REVERT JUMPDEST POP PUSH2 0x27E PUSH2 0x744 CALLDATASIZE PUSH1 0x4 PUSH2 0x3C73 JUMP JUMPDEST PUSH2 0x1549 JUMP JUMPDEST CALLVALUE DUP1 ISZERO PUSH2 0x755 JUMPI PUSH1 0x0 DUP1 REVERT JUMPDEST POP PUSH2 0x2A0 PUSH2 0x764 CALLDATASIZE PUSH1 0x4 PUSH2 0x3B2A JUMP JUMPDEST PUSH2 0x15DC JUMP JUMPDEST CALLVALUE DUP1 ISZERO PUSH2 0x775 JUMPI PUSH1 0x0 DUP1 REVERT JUMPDEST POP PUSH2 0x4CC PUSH32 0x0 DUP2 JUMP JUMPDEST CALLVALUE DUP1 ISZERO PUSH2 0x7A9 JUMPI PUSH1 0x0 DUP1 REVERT JUMPDEST POP PUSH2 0x27E PUSH2 0x7B8 CALLDATASIZE PUSH1 0x4 PUSH2 0x3963 JUMP JUMPDEST PUSH2 0x15EA JUMP JUMPDEST CALLVALUE DUP1 ISZERO PUSH2 0x7C9 JUMPI PUSH1 0x0 DUP1 REVERT JUMPDEST POP PUSH2 0x27E PUSH2 0x7D8 CALLDATASIZE PUSH1 0x4 PUSH2 0x3B55 JUMP JUMPDEST PUSH2 0x1648 JUMP JUMPDEST CALLVALUE DUP1 ISZERO PUSH2 0x7E9 JUMPI PUSH1 0x0 DUP1 REVERT JUMPDEST POP PUSH2 0x27E PUSH2 0x7F8 CALLDATASIZE PUSH1 0x4 PUSH2 0x3F8D JUMP JUMPDEST PUSH2 0x1771 JUMP JUMPDEST PUSH2 0x27E PUSH2 0x80B CALLDATASIZE PUSH1 0x4 PUSH2 0x3D61 JUMP JUMPDEST PUSH2 0x17FB JUMP JUMPDEST CALLVALUE DUP1 ISZERO PUSH2 0x81C JUMPI PUSH1 0x0 DUP1 REVERT JUMPDEST POP PUSH2 0x27E PUSH2 0x82B CALLDATASIZE PUSH1 0x4 PUSH2 0x39F7 JUMP JUMPDEST PUSH2 0x1A11 JUMP JUMPDEST CALLVALUE DUP1 ISZERO PUSH2 0x83C JUMPI PUSH1 0x0 DUP1 REVERT JUMPDEST POP PUSH2 0x348 PUSH2 0x84B CALLDATASIZE PUSH1 0x4 PUSH2 0x397F JUMP JUMPDEST PUSH2 0x1B75 JUMP JUMPDEST CALLVALUE DUP1 ISZERO PUSH2 0x85C JUMPI PUSH1 0x0 DUP1 REVERT JUMPDEST POP PUSH2 0x27E PUSH2 0x86B CALLDATASIZE PUSH1 0x4 PUSH2 0x3F5E JUMP JUMPDEST PUSH2 0x1BA0 JUMP JUMPDEST CALLVALUE DUP1 ISZERO PUSH2 0x87C JUMPI PUSH1 0x0 DUP1 REVERT JUMPDEST POP PUSH2 0x27E PUSH2 0x88B CALLDATASIZE PUSH1 0x4 PUSH2 0x3BE3 JUMP JUMPDEST PUSH2 0x1C52 JUMP JUMPDEST CALLVALUE DUP1 ISZERO PUSH2 0x89C JUMPI PUSH1 0x0 DUP1 REVERT JUMPDEST POP PUSH2 0x27E PUSH2 0x8AB CALLDATASIZE PUSH1 0x4 PUSH2 0x3C73 JUMP JUMPDEST PUSH2 0x1C9B JUMP JUMPDEST CALLVALUE DUP1 ISZERO PUSH2 0x8BC JUMPI PUSH1 0x0 DUP1 REVERT JUMPDEST POP PUSH1 0x5 SLOAD PUSH2 0x2A0 SWAP1 PUSH1 0xFF AND DUP2 JUMP JUMPDEST CALLVALUE DUP1 ISZERO PUSH2 0x8D6 JUMPI PUSH1 0x0 DUP1 REVERT JUMPDEST POP PUSH2 0x8EA PUSH2 0x8E5 CALLDATASIZE PUSH1 0x4 PUSH2 0x3BAE JUMP JUMPDEST PUSH2 0x1CF5 JUMP JUMPDEST PUSH1 0x40 DUP1 MLOAD DUP3 MLOAD PUSH4 0xFFFFFFFF AND DUP2 MSTORE PUSH1 0x20 SWAP3 DUP4 ADD MLOAD PUSH1 0x1 PUSH1 0x1 PUSH1 0xE0 SHL SUB AND SWAP3 DUP2 ADD SWAP3 SWAP1 SWAP3 MSTORE ADD PUSH2 0x2AC JUMP JUMPDEST CALLVALUE DUP1 ISZERO PUSH2 0x920 JUMPI PUSH1 0x0 DUP1 REVERT JUMPDEST POP PUSH2 0x27E PUSH2 0x92F CALLDATASIZE PUSH1 0x4 PUSH2 0x3963 JUMP JUMPDEST PUSH2 0x1D86 JUMP JUMPDEST CALLVALUE DUP1 ISZERO PUSH2 0x940 JUMPI PUSH1 0x0 DUP1 REVERT JUMPDEST POP PUSH2 0x2CA PUSH2 0x94F CALLDATASIZE PUSH1 0x4 PUSH2 0x3F0E JUMP JUMPDEST PUSH2 0x1DFC JUMP JUMPDEST CALLVALUE DUP1 ISZERO PUSH2 0x960 JUMPI PUSH1 0x0 DUP1 REVERT JUMPDEST POP ADDRESS PUSH2 0x4CC JUMP JUMPDEST CALLER PUSH32 0x0 PUSH1 0x1 PUSH1 0x1 PUSH1 0xA0 SHL SUB AND EQ PUSH2 0x9E4 JUMPI PUSH1 0x40 MLOAD PUSH3 0x461BCD PUSH1 0xE5 SHL DUP2 MSTORE PUSH1 0x20 PUSH1 0x4 DUP3 ADD MSTORE PUSH1 0x1E PUSH1 0x24 DUP3 ADD MSTORE PUSH32 0x4C7A4170703A20696E76616C696420656E64706F696E742063616C6C65720000 PUSH1 0x44 DUP3 ADD MSTORE PUSH1 0x64 ADD JUMPDEST PUSH1 0x40 MLOAD DUP1 SWAP2 SUB SWAP1 REVERT JUMPDEST PUSH2 0xFFFF DUP7 AND PUSH1 0x0 SWAP1 DUP2 MSTORE PUSH1 0x1 PUSH1 0x20 MSTORE PUSH1 0x40 DUP2 KECCAK256 DUP1 SLOAD PUSH2 0xA02 SWAP1 PUSH2 0x446A JUMP JUMPDEST DUP1 PUSH1 0x1F ADD PUSH1 0x20 DUP1 SWAP2 DIV MUL PUSH1 0x20 ADD PUSH1 0x40 MLOAD SWAP1 DUP2 ADD PUSH1 0x40 MSTORE DUP1 SWAP3 SWAP2 SWAP1 DUP2 DUP2 MSTORE PUSH1 0x20 ADD DUP3 DUP1 SLOAD PUSH2 0xA2E SWAP1 PUSH2 0x446A JUMP JUMPDEST DUP1 ISZERO PUSH2 0xA7B JUMPI DUP1 PUSH1 0x1F LT PUSH2 0xA50 JUMPI PUSH2 0x100 DUP1 DUP4 SLOAD DIV MUL DUP4 MSTORE SWAP2 PUSH1 0x20 ADD SWAP2 PUSH2 0xA7B JUMP JUMPDEST DUP3 ADD SWAP2 SWAP1 PUSH1 0x0 MSTORE PUSH1 0x20 PUSH1 0x0 KECCAK256 SWAP1 JUMPDEST DUP2 SLOAD DUP2 MSTORE SWAP1 PUSH1 0x1 ADD SWAP1 PUSH1 0x20 ADD DUP1 DUP4 GT PUSH2 0xA5E JUMPI DUP3 SWAP1 SUB PUSH1 0x1F AND DUP3 ADD SWAP2 JUMPDEST POP POP POP POP POP SWAP1 POP DUP1 MLOAD DUP7 DUP7 SWAP1 POP EQ DUP1 ISZERO PUSH2 0xA96 JUMPI POP PUSH1 0x0 DUP2 MLOAD GT JUMPDEST DUP1 ISZERO PUSH2 0xABE JUMPI POP DUP1 MLOAD PUSH1 0x20 DUP3 ADD KECCAK256 PUSH1 0x40 MLOAD PUSH2 0xAB4 SWAP1 DUP9 SWAP1 DUP9 SWAP1 PUSH2 0x408E JUMP JUMPDEST PUSH1 0x40 MLOAD DUP1 SWAP2 SUB SWAP1 KECCAK256 EQ JUMPDEST PUSH2 0xB19 JUMPI PUSH1 0x40 MLOAD PUSH3 0x461BCD PUSH1 0xE5 SHL DUP2 MSTORE PUSH1 0x20 PUSH1 0x4 DUP3 ADD MSTORE PUSH1 0x26 PUSH1 0x24 DUP3 ADD MSTORE PUSH32 0x4C7A4170703A20696E76616C696420736F757263652073656E64696E6720636F PUSH1 0x44 DUP3 ADD MSTORE PUSH6 0x1B9D1C9858DD PUSH1 0xD2 SHL PUSH1 0x64 DUP3 ADD MSTORE PUSH1 0x84 ADD PUSH2 0x9DB JUMP JUMPDEST PUSH2 0xB8F DUP8 DUP8 DUP8 DUP1 DUP1 PUSH1 0x1F ADD PUSH1 0x20 DUP1 SWAP2 DIV MUL PUSH1 0x20 ADD PUSH1 0x40 MLOAD SWAP1 DUP2 ADD PUSH1 0x40 MSTORE DUP1 SWAP4 SWAP3 SWAP2 SWAP1 DUP2 DUP2 MSTORE PUSH1 0x20 ADD DUP4 DUP4 DUP1 DUP3 DUP5 CALLDATACOPY PUSH1 0x0 SWAP3 ADD SWAP2 SWAP1 SWAP2 MSTORE POP POP PUSH1 0x40 DUP1 MLOAD PUSH1 0x20 PUSH1 0x1F DUP11 ADD DUP2 SWAP1 DIV DUP2 MUL DUP3 ADD DUP2 ADD SWAP1 SWAP3 MSTORE DUP9 DUP2 MSTORE DUP11 SWAP4 POP SWAP2 POP DUP9 SWAP1 DUP9 SWAP1 DUP2 SWAP1 DUP5 ADD DUP4 DUP3 DUP1 DUP3 DUP5 CALLDATACOPY PUSH1 0x0 SWAP3 ADD SWAP2 SWAP1 SWAP2 MSTORE POP PUSH2 0x2111 SWAP3 POP POP POP JUMP JUMPDEST POP POP POP POP POP POP POP JUMP JUMPDEST PUSH1 0x0 PUSH1 0x1 PUSH1 0x1 PUSH1 0xE0 SHL SUB NOT DUP3 AND ISZERO DUP1 PUSH2 0xBC1 JUMPI POP PUSH1 0x1 PUSH1 0x1 PUSH1 0xE0 SHL SUB NOT DUP3 AND PUSH4 0x36372B07 PUSH1 0xE0 SHL EQ JUMPDEST DUP1 PUSH2 0xBD0 JUMPI POP PUSH2 0xBD0 DUP3 PUSH2 0x218A JUMP JUMPDEST SWAP1 POP JUMPDEST SWAP2 SWAP1 POP JUMP JUMPDEST PUSH1 0x60 PUSH1 0x9 DUP1 SLOAD PUSH2 0xBE7 SWAP1 PUSH2 0x446A JUMP JUMPDEST DUP1 PUSH1 0x1F ADD PUSH1 0x20 DUP1 SWAP2 DIV MUL PUSH1 0x20 ADD PUSH1 0x40 MLOAD SWAP1 DUP2 ADD PUSH1 0x40 MSTORE DUP1 SWAP3 SWAP2 SWAP1 DUP2 DUP2 MSTORE PUSH1 0x20 ADD DUP3 DUP1 SLOAD PUSH2 0xC13 SWAP1 PUSH2 0x446A JUMP JUMPDEST DUP1 ISZERO PUSH2 0xC60 JUMPI DUP1 PUSH1 0x1F LT PUSH2 0xC35 JUMPI PUSH2 0x100 DUP1 DUP4 SLOAD DIV MUL DUP4 MSTORE SWAP2 PUSH1 0x20 ADD SWAP2 PUSH2 0xC60 JUMP JUMPDEST DUP3 ADD SWAP2 SWAP1 PUSH1 0x0 MSTORE PUSH1 0x20 PUSH1 0x0 KECCAK256 SWAP1 JUMPDEST DUP2 SLOAD DUP2 MSTORE SWAP1 PUSH1 0x1 ADD SWAP1 PUSH1 0x20 ADD DUP1 DUP4 GT PUSH2 0xC43 JUMPI DUP3 SWAP1 SUB PUSH1 0x1F AND DUP3 ADD SWAP2 JUMPDEST POP POP POP POP POP SWAP1 POP JUMPDEST SWAP1 JUMP JUMPDEST PUSH2 0xC73 PUSH2 0x21BF JUMP JUMPDEST PUSH1 0x40 MLOAD PUSH4 0x7E0DB17 PUSH1 0xE0 SHL DUP2 MSTORE PUSH2 0xFFFF DUP3 AND PUSH1 0x4 DUP3 ADD MSTORE PUSH32 0x0 PUSH1 0x1 PUSH1 0x1 PUSH1 0xA0 SHL SUB AND SWAP1 PUSH4 0x7E0DB17 SWAP1 PUSH1 0x24 ADD JUMPDEST PUSH1 0x0 PUSH1 0x40 MLOAD DUP1 DUP4 SUB DUP2 PUSH1 0x0 DUP8 DUP1 EXTCODESIZE ISZERO DUP1 ISZERO PUSH2 0xCD9 JUMPI PUSH1 0x0 DUP1 REVERT JUMPDEST POP GAS CALL ISZERO DUP1 ISZERO PUSH2 0xCED JUMPI RETURNDATASIZE PUSH1 0x0 DUP1 RETURNDATACOPY RETURNDATASIZE PUSH1 0x0 REVERT JUMPDEST POP POP POP POP POP JUMP JUMPDEST PUSH1 0x0 CALLER PUSH2 0xD02 DUP2 DUP6 DUP6 PUSH2 0x221E JUMP JUMPDEST POP PUSH1 0x1 SWAP4 SWAP3 POP POP POP JUMP JUMPDEST PUSH2 0xD14 PUSH2 0x21BF JUMP JUMPDEST PUSH1 0x40 MLOAD PUSH4 0x10DDB137 PUSH1 0xE0 SHL DUP2 MSTORE PUSH2 0xFFFF DUP3 AND PUSH1 0x4 DUP3 ADD MSTORE PUSH32 0x0 PUSH1 0x1 PUSH1 0x1 PUSH1 0xA0 SHL SUB AND SWAP1 PUSH4 0x10DDB137 SWAP1 PUSH1 0x24 ADD PUSH2 0xCBF JUMP JUMPDEST PUSH1 0x0 CALLER PUSH2 0xD72 DUP6 DUP3 DUP6 PUSH2 0x2342 JUMP JUMPDEST PUSH2 0xD7D DUP6 DUP6 DUP6 PUSH2 0x23B6 JUMP JUMPDEST POP PUSH1 0x1 SWAP5 SWAP4 POP POP POP POP JUMP JUMPDEST PUSH1 0x0 DUP1 PUSH1 0x0 DUP1 DUP10 DUP10 DUP10 PUSH1 0x40 MLOAD PUSH1 0x20 ADD PUSH2 0xDA4 SWAP5 SWAP4 SWAP3 SWAP2 SWAP1 PUSH2 0x41D2 JUMP JUMPDEST PUSH1 0x40 DUP1 MLOAD PUSH1 0x1F NOT DUP2 DUP5 SUB ADD DUP2 MSTORE SWAP1 DUP3 SWAP1 MSTORE PUSH4 0x40A7BB1 PUSH1 0xE4 SHL DUP3 MSTORE SWAP2 POP PUSH1 0x1 PUSH1 0x1 PUSH1 0xA0 SHL SUB PUSH32 0x0 AND SWAP1 PUSH4 0x40A7BB10 SWAP1 PUSH2 0xE0A SWAP1 DUP14 SWAP1 ADDRESS SWAP1 DUP7 SWAP1 DUP13 SWAP1 DUP13 SWAP1 DUP13 SWAP1 PUSH1 0x4 ADD PUSH2 0x415E JUMP JUMPDEST PUSH1 0x40 DUP1 MLOAD DUP1 DUP4 SUB DUP2 DUP7 DUP1 EXTCODESIZE ISZERO DUP1 ISZERO PUSH2 0xE21 JUMPI PUSH1 0x0 DUP1 REVERT JUMPDEST POP GAS STATICCALL ISZERO DUP1 ISZERO PUSH2 0xE35 JUMPI RETURNDATASIZE PUSH1 0x0 DUP1 RETURNDATACOPY RETURNDATASIZE PUSH1 0x0 REVERT JUMPDEST POP POP POP POP PUSH1 0x40 MLOAD RETURNDATASIZE PUSH1 0x1F NOT PUSH1 0x1F DUP3 ADD AND DUP3 ADD DUP1 PUSH1 0x40 MSTORE POP DUP2 ADD SWAP1 PUSH2 0xE59 SWAP2 SWAP1 PUSH2 0x4015 JUMP JUMPDEST SWAP3 POP SWAP3 POP POP SWAP8 POP SWAP8 SWAP6 POP POP POP POP POP POP JUMP JUMPDEST PUSH1 0x0 PUSH2 0xE74 PUSH2 0x2555 JUMP JUMPDEST SWAP1 POP SWAP1 JUMP JUMPDEST PUSH1 0x0 CALLER PUSH2 0xD02 DUP2 DUP6 DUP6 PUSH2 0xE8C DUP4 DUP4 PUSH2 0x1B75 JUMP JUMPDEST PUSH2 0xE96 SWAP2 SWAP1 PUSH2 0x43EF JUMP JUMPDEST PUSH2 0x221E JUMP JUMPDEST PUSH1 0x0 NUMBER DUP3 LT PUSH2 0xEBC JUMPI PUSH1 0x40 MLOAD PUSH3 0x461BCD PUSH1 0xE5 SHL DUP2 MSTORE PUSH1 0x4 ADD PUSH2 0x9DB SWAP1 PUSH2 0x4127 JUMP JUMPDEST PUSH1 0x1 PUSH1 0x1 PUSH1 0xA0 SHL SUB DUP4 AND PUSH1 0x0 SWAP1 DUP2 MSTORE PUSH1 0xE PUSH1 0x20 MSTORE PUSH1 0x40 SWAP1 KECCAK256 PUSH2 0xEDE SWAP1 DUP4 PUSH2 0x2680 JUMP JUMPDEST SWAP4 SWAP3 POP POP POP JUMP JUMPDEST PUSH2 0xFFFF DUP4 AND PUSH1 0x0 SWAP1 DUP2 MSTORE PUSH1 0x1 PUSH1 0x20 MSTORE PUSH1 0x40 DUP2 KECCAK256 DUP1 SLOAD DUP3 SWAP2 SWAP1 PUSH2 0xF06 SWAP1 PUSH2 0x446A JUMP JUMPDEST DUP1 PUSH1 0x1F ADD PUSH1 0x20 DUP1 SWAP2 DIV MUL PUSH1 0x20 ADD PUSH1 0x40 MLOAD SWAP1 DUP2 ADD PUSH1 0x40 MSTORE DUP1 SWAP3 SWAP2 SWAP1 DUP2 DUP2 MSTORE PUSH1 0x20 ADD DUP3 DUP1 SLOAD PUSH2 0xF32 SWAP1 PUSH2 0x446A JUMP JUMPDEST DUP1 ISZERO PUSH2 0xF7F JUMPI DUP1 PUSH1 0x1F LT PUSH2 0xF54 JUMPI PUSH2 0x100 DUP1 DUP4 SLOAD DIV MUL DUP4 MSTORE SWAP2 PUSH1 0x20 ADD SWAP2 PUSH2 0xF7F JUMP JUMPDEST DUP3 ADD SWAP2 SWAP1 PUSH1 0x0 MSTORE PUSH1 0x20 PUSH1 0x0 KECCAK256 SWAP1 JUMPDEST DUP2 SLOAD DUP2 MSTORE SWAP1 PUSH1 0x1 ADD SWAP1 PUSH1 0x20 ADD DUP1 DUP4 GT PUSH2 0xF62 JUMPI DUP3 SWAP1 SUB PUSH1 0x1F AND DUP3 ADD SWAP2 JUMPDEST POP POP POP POP POP SWAP1 POP DUP4 DUP4 PUSH1 0x40 MLOAD PUSH2 0xF96 SWAP3 SWAP2 SWAP1 PUSH2 0x408E JUMP JUMPDEST PUSH1 0x40 MLOAD DUP1 SWAP2 SUB SWAP1 KECCAK256 DUP2 DUP1 MLOAD SWAP1 PUSH1 0x20 ADD KECCAK256 EQ SWAP2 POP POP SWAP4 SWAP3 POP POP POP JUMP JUMPDEST PUSH2 0xFB9 PUSH2 0x21BF JUMP JUMPDEST PUSH1 0x40 MLOAD PUSH4 0x42D65A8D PUSH1 0xE0 SHL DUP2 MSTORE PUSH1 0x1 PUSH1 0x1 PUSH1 0xA0 SHL SUB PUSH32 0x0 AND SWAP1 PUSH4 0x42D65A8D SWAP1 PUSH2 0x1009 SWAP1 DUP7 SWAP1 DUP7 SWAP1 DUP7 SWAP1 PUSH1 0x4 ADD PUSH2 0x41B4 JUMP JUMPDEST PUSH1 0x0 PUSH1 0x40 MLOAD DUP1 DUP4 SUB DUP2 PUSH1 0x0 DUP8 DUP1 EXTCODESIZE ISZERO DUP1 ISZERO PUSH2 0x1023 JUMPI PUSH1 0x0 DUP1 REVERT JUMPDEST POP GAS CALL ISZERO DUP1 ISZERO PUSH2 0xB8F JUMPI RETURNDATASIZE PUSH1 0x0 DUP1 RETURNDATACOPY RETURNDATASIZE PUSH1 0x0 REVERT JUMPDEST PUSH2 0x10B1 DUP10 DUP10 DUP10 DUP10 DUP1 DUP1 PUSH1 0x1F ADD PUSH1 0x20 DUP1 SWAP2 DIV MUL PUSH1 0x20 ADD PUSH1 0x40 MLOAD SWAP1 DUP2 ADD PUSH1 0x40 MSTORE DUP1 SWAP4 SWAP3 SWAP2 SWAP1 DUP2 DUP2 MSTORE PUSH1 0x20 ADD DUP4 DUP4 DUP1 DUP3 DUP5 CALLDATACOPY PUSH1 0x0 SWAP3 ADD SWAP2 SWAP1 SWAP2 MSTORE POP POP PUSH1 0x40 DUP1 MLOAD PUSH1 0x20 PUSH1 0x1F DUP11 ADD DUP2 SWAP1 DIV DUP2 MUL DUP3 ADD DUP2 ADD SWAP1 SWAP3 MSTORE DUP9 DUP2 MSTORE DUP13 SWAP4 POP DUP12 SWAP3 POP DUP11 SWAP2 DUP11 SWAP1 DUP11 SWAP1 DUP2 SWAP1 DUP5 ADD DUP4 DUP3 DUP1 DUP3 DUP5 CALLDATACOPY PUSH1 0x0 SWAP3 ADD SWAP2 SWAP1 SWAP2 MSTORE POP PUSH2 0x2776 SWAP3 POP POP POP JUMP JUMPDEST POP POP POP POP POP POP POP POP POP JUMP JUMPDEST PUSH1 0x1 PUSH1 0x1 PUSH1 0xA0 SHL SUB SWAP1 DUP2 AND PUSH1 0x0 SWAP1 DUP2 MSTORE PUSH1 0xD PUSH1 0x20 MSTORE PUSH1 0x40 SWAP1 KECCAK256 SLOAD AND SWAP1 JUMP JUMPDEST PUSH2 0x10E4 CALLER DUP3 PUSH2 0x281D JUMP JUMPDEST POP JUMP JUMPDEST CALLER ADDRESS EQ PUSH2 0x1145 JUMPI PUSH1 0x40 MLOAD PUSH3 0x461BCD PUSH1 0xE5 SHL DUP2 MSTORE PUSH1 0x20 PUSH1 0x4 DUP3 ADD MSTORE PUSH1 0x26 PUSH1 0x24 DUP3 ADD MSTORE PUSH32 0x4E6F6E626C6F636B696E674C7A4170703A2063616C6C6572206D757374206265 PUSH1 0x44 DUP3 ADD MSTORE PUSH6 0x204C7A41707 PUSH1 0xD4 SHL PUSH1 0x64 DUP3 ADD MSTORE PUSH1 0x84 ADD PUSH2 0x9DB JUMP JUMPDEST PUSH2 0x11BB DUP7 DUP7 DUP7 DUP1 DUP1 PUSH1 0x1F ADD PUSH1 0x20 DUP1 SWAP2 DIV MUL PUSH1 0x20 ADD PUSH1 0x40 MLOAD SWAP1 DUP2 ADD PUSH1 0x40 MSTORE DUP1 SWAP4 SWAP3 SWAP2 SWAP1 DUP2 DUP2 MSTORE PUSH1 0x20 ADD DUP4 DUP4 DUP1 DUP3 DUP5 CALLDATACOPY PUSH1 0x0 SWAP3 ADD SWAP2 SWAP1 SWAP2 MSTORE POP POP PUSH1 0x40 DUP1 MLOAD PUSH1 0x20 PUSH1 0x1F DUP10 ADD DUP2 SWAP1 DIV DUP2 MUL DUP3 ADD DUP2 ADD SWAP1 SWAP3 MSTORE DUP8 DUP2 MSTORE DUP10 SWAP4 POP SWAP2 POP DUP8 SWAP1 DUP8 SWAP1 DUP2 SWAP1 DUP5 ADD DUP4 DUP3 DUP1 DUP3 DUP5 CALLDATACOPY PUSH1 0x0 SWAP3 ADD SWAP2 SWAP1 SWAP2 MSTORE POP PUSH2 0x289D SWAP3 POP POP POP JUMP JUMPDEST POP POP POP POP POP POP JUMP JUMPDEST PUSH1 0x1 PUSH1 0x1 PUSH1 0xA0 SHL SUB DUP2 AND PUSH1 0x0 SWAP1 DUP2 MSTORE PUSH1 0xE PUSH1 0x20 MSTORE PUSH1 0x40 DUP2 KECCAK256 SLOAD PUSH2 0xBD0 SWAP1 PUSH2 0x2080 JUMP JUMPDEST PUSH1 0x1 PUSH1 0x1 PUSH1 0xA0 SHL SUB AND PUSH1 0x0 SWAP1 DUP2 MSTORE PUSH1 0x6 PUSH1 0x20 MSTORE PUSH1 0x40 SWAP1 KECCAK256 SLOAD SWAP1 JUMP JUMPDEST PUSH2 0x1208 PUSH2 0x21BF JUMP JUMPDEST PUSH2 0x1212 PUSH1 0x0 PUSH2 0x2903 JUMP JUMPDEST JUMP JUMPDEST PUSH1 0x1 PUSH1 0x20 MSTORE PUSH1 0x0 SWAP1 DUP2 MSTORE PUSH1 0x40 SWAP1 KECCAK256 DUP1 SLOAD PUSH2 0x122D SWAP1 PUSH2 0x446A JUMP JUMPDEST DUP1 PUSH1 0x1F ADD PUSH1 0x20 DUP1 SWAP2 DIV MUL PUSH1 0x20 ADD PUSH1 0x40 MLOAD SWAP1 DUP2 ADD PUSH1 0x40 MSTORE DUP1 SWAP3 SWAP2 SWAP1 DUP2 DUP2 MSTORE PUSH1 0x20 ADD DUP3 DUP1 SLOAD PUSH2 0x1259 SWAP1 PUSH2 0x446A JUMP JUMPDEST DUP1 ISZERO PUSH2 0x12A6 JUMPI DUP1 PUSH1 0x1F LT PUSH2 0x127B JUMPI PUSH2 0x100 DUP1 DUP4 SLOAD DIV MUL DUP4 MSTORE SWAP2 PUSH1 0x20 ADD SWAP2 PUSH2 0x12A6 JUMP JUMPDEST DUP3 ADD SWAP2 SWAP1 PUSH1 0x0 MSTORE PUSH1 0x20 PUSH1 0x0 KECCAK256 SWAP1 JUMPDEST DUP2 SLOAD DUP2 MSTORE SWAP1 PUSH1 0x1 ADD SWAP1 PUSH1 0x20 ADD DUP1 DUP4 GT PUSH2 0x1289 JUMPI DUP3 SWAP1 SUB PUSH1 0x1F AND DUP3 ADD SWAP2 JUMPDEST POP POP POP POP POP DUP2 JUMP JUMPDEST PUSH1 0x1 PUSH1 0x1 PUSH1 0xA0 SHL SUB DUP2 AND PUSH1 0x0 SWAP1 DUP2 MSTORE PUSH1 0xB PUSH1 0x20 MSTORE PUSH1 0x40 DUP2 KECCAK256 SLOAD PUSH2 0xBD0 JUMP JUMPDEST PUSH1 0x0 SLOAD PUSH1 0x1 PUSH1 0x1 PUSH1 0xA0 SHL SUB AND SWAP1 JUMP JUMPDEST PUSH1 0x0 NUMBER DUP3 LT PUSH2 0x12FC JUMPI PUSH1 0x40 MLOAD PUSH3 0x461BCD PUSH1 0xE5 SHL DUP2 MSTORE PUSH1 0x4 ADD PUSH2 0x9DB SWAP1 PUSH2 0x4127 JUMP JUMPDEST PUSH2 0xBD0 PUSH1 0xF DUP4 PUSH2 0x2680 JUMP JUMPDEST PUSH1 0x0 PUSH2 0x1312 ADDRESS PUSH2 0x11E5 JUMP JUMPDEST PUSH1 0x8 SLOAD SUB SWAP1 POP SWAP1 JUMP JUMPDEST PUSH1 0x60 PUSH1 0xA DUP1 SLOAD PUSH2 0xBE7 SWAP1 PUSH2 0x446A JUMP JUMPDEST PUSH1 0x1 PUSH1 0x1 PUSH1 0xA0 SHL SUB DUP2 AND PUSH1 0x0 SWAP1 DUP2 MSTORE PUSH1 0xE PUSH1 0x20 MSTORE PUSH1 0x40 DUP2 KECCAK256 SLOAD DUP1 ISZERO PUSH2 0x13AB JUMPI PUSH1 0x1 PUSH1 0x1 PUSH1 0xA0 SHL SUB DUP4 AND PUSH1 0x0 SWAP1 DUP2 MSTORE PUSH1 0xE PUSH1 0x20 MSTORE PUSH1 0x40 SWAP1 KECCAK256 PUSH2 0x136C PUSH1 0x1 DUP4 PUSH2 0x4427 JUMP JUMPDEST DUP2 SLOAD DUP2 LT PUSH2 0x138A JUMPI PUSH4 0x4E487B71 PUSH1 0xE0 SHL PUSH1 0x0 MSTORE PUSH1 0x32 PUSH1 0x4 MSTORE PUSH1 0x24 PUSH1 0x0 REVERT JUMPDEST PUSH1 0x0 SWAP2 DUP3 MSTORE PUSH1 0x20 SWAP1 SWAP2 KECCAK256 ADD SLOAD PUSH1 0x1 PUSH1 0x20 SHL SWAP1 DIV PUSH1 0x1 PUSH1 0x1 PUSH1 0xE0 SHL SUB AND PUSH2 0x13AE JUMP JUMPDEST PUSH1 0x0 JUMPDEST PUSH1 0x1 PUSH1 0x1 PUSH1 0xE0 SHL SUB AND SWAP4 SWAP3 POP POP POP JUMP JUMPDEST PUSH2 0xFFFF DUP2 AND PUSH1 0x0 SWAP1 DUP2 MSTORE PUSH1 0x1 PUSH1 0x20 MSTORE PUSH1 0x40 DUP2 KECCAK256 DUP1 SLOAD PUSH1 0x60 SWAP3 SWAP2 SWAP1 PUSH2 0x13E1 SWAP1 PUSH2 0x446A JUMP JUMPDEST DUP1 PUSH1 0x1F ADD PUSH1 0x20 DUP1 SWAP2 DIV MUL PUSH1 0x20 ADD PUSH1 0x40 MLOAD SWAP1 DUP2 ADD PUSH1 0x40 MSTORE DUP1 SWAP3 SWAP2 SWAP1 DUP2 DUP2 MSTORE PUSH1 0x20 ADD DUP3 DUP1 SLOAD PUSH2 0x140D SWAP1 PUSH2 0x446A JUMP JUMPDEST DUP1 ISZERO PUSH2 0x145A JUMPI DUP1 PUSH1 0x1F LT PUSH2 0x142F JUMPI PUSH2 0x100 DUP1 DUP4 SLOAD DIV MUL DUP4 MSTORE SWAP2 PUSH1 0x20 ADD SWAP2 PUSH2 0x145A JUMP JUMPDEST DUP3 ADD SWAP2 SWAP1 PUSH1 0x0 MSTORE PUSH1 0x20 PUSH1 0x0 KECCAK256 SWAP1 JUMPDEST DUP2 SLOAD DUP2 MSTORE SWAP1 PUSH1 0x1 ADD SWAP1 PUSH1 0x20 ADD DUP1 DUP4 GT PUSH2 0x143D JUMPI DUP3 SWAP1 SUB PUSH1 0x1F AND DUP3 ADD SWAP2 JUMPDEST POP POP POP POP POP SWAP1 POP DUP1 MLOAD PUSH1 0x0 EQ ISZERO PUSH2 0x14B3 JUMPI PUSH1 0x40 MLOAD PUSH3 0x461BCD PUSH1 0xE5 SHL DUP2 MSTORE PUSH1 0x20 PUSH1 0x4 DUP3 ADD MSTORE PUSH1 0x1D PUSH1 0x24 DUP3 ADD MSTORE PUSH32 0x4C7A4170703A206E6F20747275737465642070617468207265636F7264000000 PUSH1 0x44 DUP3 ADD MSTORE PUSH1 0x64 ADD PUSH2 0x9DB JUMP JUMPDEST PUSH2 0xEDE PUSH1 0x0 PUSH1 0x14 DUP4 MLOAD PUSH2 0x14C6 SWAP2 SWAP1 PUSH2 0x4427 JUMP JUMPDEST DUP4 SWAP2 SWAP1 PUSH2 0x2953 JUMP JUMPDEST PUSH1 0x0 CALLER DUP2 PUSH2 0x14DC DUP3 DUP7 PUSH2 0x1B75 JUMP JUMPDEST SWAP1 POP DUP4 DUP2 LT ISZERO PUSH2 0x153C JUMPI PUSH1 0x40 MLOAD PUSH3 0x461BCD PUSH1 0xE5 SHL DUP2 MSTORE PUSH1 0x20 PUSH1 0x4 DUP3 ADD MSTORE PUSH1 0x25 PUSH1 0x24 DUP3 ADD MSTORE PUSH32 0x45524332303A2064656372656173656420616C6C6F77616E63652062656C6F77 PUSH1 0x44 DUP3 ADD MSTORE PUSH5 0x207A65726F PUSH1 0xD8 SHL PUSH1 0x64 DUP3 ADD MSTORE PUSH1 0x84 ADD PUSH2 0x9DB JUMP JUMPDEST PUSH2 0xD7D DUP3 DUP7 DUP7 DUP5 SUB PUSH2 0x221E JUMP JUMPDEST PUSH2 0x1551 PUSH2 0x21BF JUMP JUMPDEST DUP2 DUP2 ADDRESS PUSH1 0x40 MLOAD PUSH1 0x20 ADD PUSH2 0x1566 SWAP4 SWAP3 SWAP2 SWAP1 PUSH2 0x409E JUMP JUMPDEST PUSH1 0x40 DUP1 MLOAD PUSH1 0x1F NOT DUP2 DUP5 SUB ADD DUP2 MSTORE SWAP2 DUP2 MSTORE PUSH2 0xFFFF DUP6 AND PUSH1 0x0 SWAP1 DUP2 MSTORE PUSH1 0x1 PUSH1 0x20 SWAP1 DUP2 MSTORE SWAP2 SWAP1 KECCAK256 DUP3 MLOAD PUSH2 0x159B SWAP4 SWAP2 SWAP3 SWAP1 SWAP2 ADD SWAP1 PUSH2 0x378C JUMP JUMPDEST POP PUSH32 0x8C0400CFE2D1199B1A725C78960BCC2A344D869B80590D0F2BD005DB15A572CE DUP4 DUP4 DUP4 PUSH1 0x40 MLOAD PUSH2 0x15CF SWAP4 SWAP3 SWAP2 SWAP1 PUSH2 0x41B4 JUMP JUMPDEST PUSH1 0x40 MLOAD DUP1 SWAP2 SUB SWAP1 LOG1 POP POP POP JUMP JUMPDEST PUSH1 0x0 CALLER PUSH2 0xD02 DUP2 DUP6 DUP6 PUSH2 0x23B6 JUMP JUMPDEST PUSH2 0x15F2 PUSH2 0x21BF JUMP JUMPDEST PUSH1 0x3 DUP1 SLOAD PUSH1 0x1 PUSH1 0x1 PUSH1 0xA0 SHL SUB NOT AND PUSH1 0x1 PUSH1 0x1 PUSH1 0xA0 SHL SUB DUP4 AND OR SWAP1 SSTORE PUSH1 0x40 MLOAD PUSH32 0x5DB758E995A17EC1AD84BDEF7E8C3293A0BD6179BCCE400DFF5D4C3D87DB726B SWAP1 PUSH2 0x163D SWAP1 DUP4 SWAP1 PUSH2 0x40DE JUMP JUMPDEST PUSH1 0x40 MLOAD DUP1 SWAP2 SUB SWAP1 LOG1 POP JUMP JUMPDEST DUP4 TIMESTAMP GT ISZERO PUSH2 0x1698 JUMPI PUSH1 0x40 MLOAD PUSH3 0x461BCD PUSH1 0xE5 SHL DUP2 MSTORE PUSH1 0x20 PUSH1 0x4 DUP3 ADD MSTORE PUSH1 0x1D PUSH1 0x24 DUP3 ADD MSTORE PUSH32 0x4552433230566F7465733A207369676E61747572652065787069726564000000 PUSH1 0x44 DUP3 ADD MSTORE PUSH1 0x64 ADD PUSH2 0x9DB JUMP JUMPDEST PUSH1 0x40 DUP1 MLOAD PUSH32 0xE48329057BFD03D55E49B547132E39CFFD9C1820AD7B9D4C5307691425D15ADF PUSH1 0x20 DUP3 ADD MSTORE PUSH1 0x1 PUSH1 0x1 PUSH1 0xA0 SHL SUB DUP9 AND SWAP2 DUP2 ADD SWAP2 SWAP1 SWAP2 MSTORE PUSH1 0x60 DUP2 ADD DUP7 SWAP1 MSTORE PUSH1 0x80 DUP2 ADD DUP6 SWAP1 MSTORE PUSH1 0x0 SWAP1 PUSH2 0x1712 SWAP1 PUSH2 0x170A SWAP1 PUSH1 0xA0 ADD PUSH1 0x40 MLOAD PUSH1 0x20 DUP2 DUP4 SUB SUB DUP2 MSTORE SWAP1 PUSH1 0x40 MSTORE DUP1 MLOAD SWAP1 PUSH1 0x20 ADD KECCAK256 PUSH2 0x2A60 JUMP JUMPDEST DUP6 DUP6 DUP6 PUSH2 0x2AAE JUMP JUMPDEST SWAP1 POP PUSH2 0x171D DUP2 PUSH2 0x2AD6 JUMP JUMPDEST DUP7 EQ PUSH2 0x1767 JUMPI PUSH1 0x40 MLOAD PUSH3 0x461BCD PUSH1 0xE5 SHL DUP2 MSTORE PUSH1 0x20 PUSH1 0x4 DUP3 ADD MSTORE PUSH1 0x19 PUSH1 0x24 DUP3 ADD MSTORE PUSH25 0x4552433230566F7465733A20696E76616C6964206E6F6E6365 PUSH1 0x38 SHL PUSH1 0x44 DUP3 ADD MSTORE PUSH1 0x64 ADD PUSH2 0x9DB JUMP JUMPDEST PUSH2 0xB8F DUP2 DUP9 PUSH2 0x281D JUMP JUMPDEST PUSH2 0x1779 PUSH2 0x21BF JUMP JUMPDEST PUSH1 0x40 MLOAD PUSH4 0x32FB62E7 PUSH1 0xE2 SHL DUP2 MSTORE PUSH1 0x1 PUSH1 0x1 PUSH1 0xA0 SHL SUB PUSH32 0x0 AND SWAP1 PUSH4 0xCBED8B9C SWAP1 PUSH2 0x17CD SWAP1 DUP9 SWAP1 DUP9 SWAP1 DUP9 SWAP1 DUP9 SWAP1 DUP9 SWAP1 PUSH1 0x4 ADD PUSH2 0x436A JUMP JUMPDEST PUSH1 0x0 PUSH1 0x40 MLOAD DUP1 DUP4 SUB DUP2 PUSH1 0x0 DUP8 DUP1 EXTCODESIZE ISZERO DUP1 ISZERO PUSH2 0x17E7 JUMPI PUSH1 0x0 DUP1 REVERT JUMPDEST POP GAS CALL ISZERO DUP1 ISZERO PUSH2 0x10B1 JUMPI RETURNDATASIZE PUSH1 0x0 DUP1 RETURNDATACOPY RETURNDATASIZE PUSH1 0x0 REVERT JUMPDEST PUSH2 0xFFFF DUP7 AND PUSH1 0x0 SWAP1 DUP2 MSTORE PUSH1 0x4 PUSH1 0x20 MSTORE PUSH1 0x40 DUP1 DUP3 KECCAK256 SWAP1 MLOAD PUSH2 0x181E SWAP1 DUP9 SWAP1 DUP9 SWAP1 PUSH2 0x408E JUMP JUMPDEST SWAP1 DUP2 MSTORE PUSH1 0x40 DUP1 MLOAD PUSH1 0x20 SWAP3 DUP2 SWAP1 SUB DUP4 ADD SWAP1 KECCAK256 PUSH1 0x1 PUSH1 0x1 PUSH1 0x40 SHL SUB DUP8 AND PUSH1 0x0 SWAP1 DUP2 MSTORE SWAP3 MSTORE SWAP1 KECCAK256 SLOAD SWAP1 POP DUP1 PUSH2 0x189E JUMPI PUSH1 0x40 MLOAD PUSH3 0x461BCD PUSH1 0xE5 SHL DUP2 MSTORE PUSH1 0x20 PUSH1 0x4 DUP3 ADD MSTORE PUSH1 0x23 PUSH1 0x24 DUP3 ADD MSTORE PUSH32 0x4E6F6E626C6F636B696E674C7A4170703A206E6F2073746F726564206D657373 PUSH1 0x44 DUP3 ADD MSTORE PUSH3 0x616765 PUSH1 0xE8 SHL PUSH1 0x64 DUP3 ADD MSTORE PUSH1 0x84 ADD PUSH2 0x9DB JUMP JUMPDEST DUP1 DUP4 DUP4 PUSH1 0x40 MLOAD PUSH2 0x18AF SWAP3 SWAP2 SWAP1 PUSH2 0x408E JUMP JUMPDEST PUSH1 0x40 MLOAD DUP1 SWAP2 SUB SWAP1 KECCAK256 EQ PUSH2 0x190E JUMPI PUSH1 0x40 MLOAD PUSH3 0x461BCD PUSH1 0xE5 SHL DUP2 MSTORE PUSH1 0x20 PUSH1 0x4 DUP3 ADD MSTORE PUSH1 0x21 PUSH1 0x24 DUP3 ADD MSTORE PUSH32 0x4E6F6E626C6F636B696E674C7A4170703A20696E76616C6964207061796C6F61 PUSH1 0x44 DUP3 ADD MSTORE PUSH1 0x19 PUSH1 0xFA SHL PUSH1 0x64 DUP3 ADD MSTORE PUSH1 0x84 ADD PUSH2 0x9DB JUMP JUMPDEST PUSH2 0xFFFF DUP8 AND PUSH1 0x0 SWAP1 DUP2 MSTORE PUSH1 0x4 PUSH1 0x20 MSTORE PUSH1 0x40 DUP1 DUP3 KECCAK256 SWAP1 MLOAD PUSH2 0x1931 SWAP1 DUP10 SWAP1 DUP10 SWAP1 PUSH2 0x408E JUMP JUMPDEST SWAP1 DUP2 MSTORE PUSH1 0x40 DUP1 MLOAD PUSH1 0x20 SWAP3 DUP2 SWAP1 SUB DUP4 ADD DUP2 KECCAK256 PUSH1 0x1 PUSH1 0x1 PUSH1 0x40 SHL SUB DUP10 AND PUSH1 0x0 SWAP1 DUP2 MSTORE SWAP1 DUP5 MSTORE DUP3 SWAP1 KECCAK256 SWAP4 SWAP1 SWAP4 SSTORE PUSH1 0x1F DUP9 ADD DUP3 SWAP1 DIV DUP3 MUL DUP4 ADD DUP3 ADD SWAP1 MSTORE DUP7 DUP3 MSTORE PUSH2 0x19C9 SWAP2 DUP10 SWAP2 DUP10 SWAP1 DUP10 SWAP1 DUP2 SWAP1 DUP5 ADD DUP4 DUP3 DUP1 DUP3 DUP5 CALLDATACOPY PUSH1 0x0 SWAP3 ADD SWAP2 SWAP1 SWAP2 MSTORE POP POP PUSH1 0x40 DUP1 MLOAD PUSH1 0x20 PUSH1 0x1F DUP11 ADD DUP2 SWAP1 DIV DUP2 MUL DUP3 ADD DUP2 ADD SWAP1 SWAP3 MSTORE DUP9 DUP2 MSTORE DUP11 SWAP4 POP SWAP2 POP DUP9 SWAP1 DUP9 SWAP1 DUP2 SWAP1 DUP5 ADD DUP4 DUP3 DUP1 DUP3 DUP5 CALLDATACOPY PUSH1 0x0 SWAP3 ADD SWAP2 SWAP1 SWAP2 MSTORE POP PUSH2 0x289D SWAP3 POP POP POP JUMP JUMPDEST PUSH32 0xC264D91F3ADC5588250E1551F547752CA0CFA8F6B530D243B9F9F4CAB10EA8E5 DUP8 DUP8 DUP8 DUP8 DUP6 PUSH1 0x40 MLOAD PUSH2 0x1A00 SWAP6 SWAP5 SWAP4 SWAP3 SWAP2 SWAP1 PUSH2 0x4201 JUMP JUMPDEST PUSH1 0x40 MLOAD DUP1 SWAP2 SUB SWAP1 LOG1 POP POP POP POP POP POP POP JUMP JUMPDEST DUP4 TIMESTAMP GT ISZERO PUSH2 0x1A61 JUMPI PUSH1 0x40 MLOAD PUSH3 0x461BCD PUSH1 0xE5 SHL DUP2 MSTORE PUSH1 0x20 PUSH1 0x4 DUP3 ADD MSTORE PUSH1 0x1D PUSH1 0x24 DUP3 ADD MSTORE PUSH32 0x45524332305065726D69743A206578706972656420646561646C696E65000000 PUSH1 0x44 DUP3 ADD MSTORE PUSH1 0x64 ADD PUSH2 0x9DB JUMP JUMPDEST PUSH1 0x0 PUSH32 0x6E71EDAE12B1B97F4D1F60370FEF10105FA2FAAE0126114A169C64845D6126C9 DUP9 DUP9 DUP9 PUSH2 0x1A90 DUP13 PUSH2 0x2AD6 JUMP JUMPDEST PUSH1 0x40 DUP1 MLOAD PUSH1 0x20 DUP2 ADD SWAP7 SWAP1 SWAP7 MSTORE PUSH1 0x1 PUSH1 0x1 PUSH1 0xA0 SHL SUB SWAP5 DUP6 AND SWAP1 DUP7 ADD MSTORE SWAP3 SWAP1 SWAP2 AND PUSH1 0x60 DUP5 ADD MSTORE PUSH1 0x80 DUP4 ADD MSTORE PUSH1 0xA0 DUP3 ADD MSTORE PUSH1 0xC0 DUP2 ADD DUP7 SWAP1 MSTORE PUSH1 0xE0 ADD PUSH1 0x40 MLOAD PUSH1 0x20 DUP2 DUP4 SUB SUB DUP2 MSTORE SWAP1 PUSH1 0x40 MSTORE DUP1 MLOAD SWAP1 PUSH1 0x20 ADD KECCAK256 SWAP1 POP PUSH1 0x0 PUSH2 0x1AEB DUP3 PUSH2 0x2A60 JUMP JUMPDEST SWAP1 POP PUSH1 0x0 PUSH2 0x1AFB DUP3 DUP8 DUP8 DUP8 PUSH2 0x2AAE JUMP JUMPDEST SWAP1 POP DUP10 PUSH1 0x1 PUSH1 0x1 PUSH1 0xA0 SHL SUB AND DUP2 PUSH1 0x1 PUSH1 0x1 PUSH1 0xA0 SHL SUB AND EQ PUSH2 0x1B5E JUMPI PUSH1 0x40 MLOAD PUSH3 0x461BCD PUSH1 0xE5 SHL DUP2 MSTORE PUSH1 0x20 PUSH1 0x4 DUP3 ADD MSTORE PUSH1 0x1E PUSH1 0x24 DUP3 ADD MSTORE PUSH32 0x45524332305065726D69743A20696E76616C6964207369676E61747572650000 PUSH1 0x44 DUP3 ADD MSTORE PUSH1 0x64 ADD PUSH2 0x9DB JUMP JUMPDEST PUSH2 0x1B69 DUP11 DUP11 DUP11 PUSH2 0x221E JUMP JUMPDEST POP POP POP POP POP POP POP POP POP POP JUMP JUMPDEST PUSH1 0x1 PUSH1 0x1 PUSH1 0xA0 SHL SUB SWAP2 DUP3 AND PUSH1 0x0 SWAP1 DUP2 MSTORE PUSH1 0x7 PUSH1 0x20 SWAP1 DUP2 MSTORE PUSH1 0x40 DUP1 DUP4 KECCAK256 SWAP4 SWAP1 SWAP5 AND DUP3 MSTORE SWAP2 SWAP1 SWAP2 MSTORE KECCAK256 SLOAD SWAP1 JUMP JUMPDEST PUSH2 0x1BA8 PUSH2 0x21BF JUMP JUMPDEST PUSH1 0x0 DUP2 GT PUSH2 0x1BF0 JUMPI PUSH1 0x40 MLOAD PUSH3 0x461BCD PUSH1 0xE5 SHL DUP2 MSTORE PUSH1 0x20 PUSH1 0x4 DUP3 ADD MSTORE PUSH1 0x15 PUSH1 0x24 DUP3 ADD MSTORE PUSH21 0x4C7A4170703A20696E76616C6964206D696E476173 PUSH1 0x58 SHL PUSH1 0x44 DUP3 ADD MSTORE PUSH1 0x64 ADD PUSH2 0x9DB JUMP JUMPDEST PUSH2 0xFFFF DUP4 DUP2 AND PUSH1 0x0 DUP2 DUP2 MSTORE PUSH1 0x2 PUSH1 0x20 SWAP1 DUP2 MSTORE PUSH1 0x40 DUP1 DUP4 KECCAK256 SWAP5 DUP8 AND DUP1 DUP5 MSTORE SWAP5 DUP3 MSTORE SWAP2 DUP3 SWAP1 KECCAK256 DUP6 SWAP1 SSTORE DUP2 MLOAD SWAP3 DUP4 MSTORE DUP3 ADD SWAP3 SWAP1 SWAP3 MSTORE SWAP1 DUP2 ADD DUP3 SWAP1 MSTORE PUSH32 0x9D5C7C0B934DA8FEFA9C7760C98383778A12DFBFC0C3B3106518F43FB9508AC0 SWAP1 PUSH1 0x60 ADD PUSH2 0x15CF JUMP JUMPDEST PUSH2 0x1C5A PUSH2 0x21BF JUMP JUMPDEST PUSH1 0x5 DUP1 SLOAD PUSH1 0xFF NOT AND DUP3 ISZERO ISZERO SWAP1 DUP2 OR SWAP1 SWAP2 SSTORE PUSH1 0x40 MLOAD SWAP1 DUP2 MSTORE PUSH32 0x1584AD594A70CBE1E6515592E1272A987D922B097EAD875069CEBE8B40C004A4 SWAP1 PUSH1 0x20 ADD PUSH2 0x163D JUMP JUMPDEST PUSH2 0x1CA3 PUSH2 0x21BF JUMP JUMPDEST PUSH2 0xFFFF DUP4 AND PUSH1 0x0 SWAP1 DUP2 MSTORE PUSH1 0x1 PUSH1 0x20 MSTORE PUSH1 0x40 SWAP1 KECCAK256 PUSH2 0x1CC1 SWAP1 DUP4 DUP4 PUSH2 0x380C JUMP JUMPDEST POP PUSH32 0xFA41487AD5D6728F0B19276FA1EDDC16558578F5109FC39D2DC33C3230470DAB DUP4 DUP4 DUP4 PUSH1 0x40 MLOAD PUSH2 0x15CF SWAP4 SWAP3 SWAP2 SWAP1 PUSH2 0x41B4 JUMP JUMPDEST PUSH1 0x40 DUP1 MLOAD DUP1 DUP3 ADD SWAP1 SWAP2 MSTORE PUSH1 0x0 DUP1 DUP3 MSTORE PUSH1 0x20 DUP3 ADD MSTORE PUSH1 0x1 PUSH1 0x1 PUSH1 0xA0 SHL SUB DUP4 AND PUSH1 0x0 SWAP1 DUP2 MSTORE PUSH1 0xE PUSH1 0x20 MSTORE PUSH1 0x40 SWAP1 KECCAK256 DUP1 SLOAD PUSH4 0xFFFFFFFF DUP5 AND SWAP1 DUP2 LT PUSH2 0x1D47 JUMPI PUSH4 0x4E487B71 PUSH1 0xE0 SHL PUSH1 0x0 MSTORE PUSH1 0x32 PUSH1 0x4 MSTORE PUSH1 0x24 PUSH1 0x0 REVERT JUMPDEST PUSH1 0x0 SWAP2 DUP3 MSTORE PUSH1 0x20 SWAP2 DUP3 SWAP1 KECCAK256 PUSH1 0x40 DUP1 MLOAD DUP1 DUP3 ADD SWAP1 SWAP2 MSTORE SWAP2 ADD SLOAD PUSH4 0xFFFFFFFF DUP2 AND DUP3 MSTORE PUSH1 0x1 PUSH1 0x20 SHL SWAP1 DIV PUSH1 0x1 PUSH1 0x1 PUSH1 0xE0 SHL SUB AND SWAP2 DUP2 ADD SWAP2 SWAP1 SWAP2 MSTORE SWAP4 SWAP3 POP POP POP JUMP JUMPDEST PUSH2 0x1D8E PUSH2 0x21BF JUMP JUMPDEST PUSH1 0x1 PUSH1 0x1 PUSH1 0xA0 SHL SUB DUP2 AND PUSH2 0x1DF3 JUMPI PUSH1 0x40 MLOAD PUSH3 0x461BCD PUSH1 0xE5 SHL DUP2 MSTORE PUSH1 0x20 PUSH1 0x4 DUP3 ADD MSTORE PUSH1 0x26 PUSH1 0x24 DUP3 ADD MSTORE PUSH32 0x4F776E61626C653A206E6577206F776E657220697320746865207A65726F2061 PUSH1 0x44 DUP3 ADD MSTORE PUSH6 0x646472657373 PUSH1 0xD0 SHL PUSH1 0x64 DUP3 ADD MSTORE PUSH1 0x84 ADD PUSH2 0x9DB JUMP JUMPDEST PUSH2 0x10E4 DUP2 PUSH2 0x2903 JUMP JUMPDEST PUSH1 0x40 MLOAD PUSH4 0x3D7B2F6F PUSH1 0xE2 SHL DUP2 MSTORE PUSH2 0xFFFF DUP1 DUP7 AND PUSH1 0x4 DUP4 ADD MSTORE DUP5 AND PUSH1 0x24 DUP3 ADD MSTORE ADDRESS PUSH1 0x44 DUP3 ADD MSTORE PUSH1 0x64 DUP2 ADD DUP3 SWAP1 MSTORE PUSH1 0x60 SWAP1 PUSH32 0x0 PUSH1 0x1 PUSH1 0x1 PUSH1 0xA0 SHL SUB AND SWAP1 PUSH4 0xF5ECBDBC SWAP1 PUSH1 0x84 ADD PUSH1 0x0 PUSH1 0x40 MLOAD DUP1 DUP4 SUB DUP2 DUP7 DUP1 EXTCODESIZE ISZERO DUP1 ISZERO PUSH2 0x1E77 JUMPI PUSH1 0x0 DUP1 REVERT JUMPDEST POP GAS STATICCALL ISZERO DUP1 ISZERO PUSH2 0x1E8B JUMPI RETURNDATASIZE PUSH1 0x0 DUP1 RETURNDATACOPY RETURNDATASIZE PUSH1 0x0 REVERT JUMPDEST POP POP POP POP PUSH1 0x40 MLOAD RETURNDATASIZE PUSH1 0x0 DUP3 RETURNDATACOPY PUSH1 0x1F RETURNDATASIZE SWAP1 DUP2 ADD PUSH1 0x1F NOT AND DUP3 ADD PUSH1 0x40 MSTORE PUSH2 0x1EB3 SWAP2 SWAP1 DUP2 ADD SWAP1 PUSH2 0x3C25 JUMP JUMPDEST SWAP6 SWAP5 POP POP POP POP POP JUMP JUMPDEST PUSH2 0x1EC6 DUP3 DUP3 PUSH2 0x1F4C JUMP JUMPDEST PUSH1 0x8 SLOAD PUSH1 0x1 PUSH1 0x1 PUSH1 0xE0 SHL SUB LT ISZERO PUSH2 0x1F38 JUMPI PUSH1 0x40 MLOAD PUSH3 0x461BCD PUSH1 0xE5 SHL DUP2 MSTORE PUSH1 0x20 PUSH1 0x4 DUP3 ADD MSTORE PUSH1 0x30 PUSH1 0x24 DUP3 ADD MSTORE PUSH32 0x4552433230566F7465733A20746F74616C20737570706C79207269736B73206F PUSH1 0x44 DUP3 ADD MSTORE PUSH16 0x766572666C6F77696E6720766F746573 PUSH1 0x80 SHL PUSH1 0x64 DUP3 ADD MSTORE PUSH1 0x84 ADD PUSH2 0x9DB JUMP JUMPDEST PUSH2 0x1F46 PUSH1 0xF PUSH2 0x2007 DUP4 PUSH2 0x2AFE JUMP JUMPDEST POP POP POP POP JUMP JUMPDEST PUSH1 0x1 PUSH1 0x1 PUSH1 0xA0 SHL SUB DUP3 AND PUSH2 0x1FA2 JUMPI PUSH1 0x40 MLOAD PUSH3 0x461BCD PUSH1 0xE5 SHL DUP2 MSTORE PUSH1 0x20 PUSH1 0x4 DUP3 ADD MSTORE PUSH1 0x1F PUSH1 0x24 DUP3 ADD MSTORE PUSH32 0x45524332303A206D696E7420746F20746865207A65726F206164647265737300 PUSH1 0x44 DUP3 ADD MSTORE PUSH1 0x64 ADD PUSH2 0x9DB JUMP JUMPDEST DUP1 PUSH1 0x8 PUSH1 0x0 DUP3 DUP3 SLOAD PUSH2 0x1FB4 SWAP2 SWAP1 PUSH2 0x43EF JUMP JUMPDEST SWAP1 SWAP2 SSTORE POP POP PUSH1 0x1 PUSH1 0x1 PUSH1 0xA0 SHL SUB DUP3 AND PUSH1 0x0 DUP2 DUP2 MSTORE PUSH1 0x6 PUSH1 0x20 SWAP1 DUP2 MSTORE PUSH1 0x40 DUP1 DUP4 KECCAK256 DUP1 SLOAD DUP7 ADD SWAP1 SSTORE MLOAD DUP5 DUP2 MSTORE PUSH1 0x0 DUP1 MLOAD PUSH1 0x20 PUSH2 0x44F1 DUP4 CODECOPY DUP2 MLOAD SWAP2 MSTORE SWAP2 ADD PUSH1 0x40 MLOAD DUP1 SWAP2 SUB SWAP1 LOG3 PUSH2 0x2003 PUSH1 0x0 DUP4 DUP4 PUSH2 0x2C5D JUMP JUMPDEST POP POP JUMP JUMPDEST PUSH1 0x0 PUSH2 0xEDE DUP3 DUP5 PUSH2 0x43EF JUMP JUMPDEST PUSH1 0x0 PUSH1 0x1 PUSH1 0x1 PUSH1 0xE0 SHL SUB DUP3 GT ISZERO PUSH2 0x207C JUMPI PUSH1 0x40 MLOAD PUSH3 0x461BCD PUSH1 0xE5 SHL DUP2 MSTORE PUSH1 0x20 PUSH1 0x4 DUP3 ADD MSTORE PUSH1 0x27 PUSH1 0x24 DUP3 ADD MSTORE PUSH32 0x53616665436173743A2076616C756520646F65736E27742066697420696E2032 PUSH1 0x44 DUP3 ADD MSTORE PUSH7 0x32342062697473 PUSH1 0xC8 SHL PUSH1 0x64 DUP3 ADD MSTORE PUSH1 0x84 ADD PUSH2 0x9DB JUMP JUMPDEST POP SWAP1 JUMP JUMPDEST PUSH1 0x0 PUSH4 0xFFFFFFFF DUP3 GT ISZERO PUSH2 0x207C JUMPI PUSH1 0x40 MLOAD PUSH3 0x461BCD PUSH1 0xE5 SHL DUP2 MSTORE PUSH1 0x20 PUSH1 0x4 DUP3 ADD MSTORE PUSH1 0x26 PUSH1 0x24 DUP3 ADD MSTORE PUSH32 0x53616665436173743A2076616C756520646F65736E27742066697420696E2033 PUSH1 0x44 DUP3 ADD MSTORE PUSH6 0x322062697473 PUSH1 0xD0 SHL PUSH1 0x64 DUP3 ADD MSTORE PUSH1 0x84 ADD PUSH2 0x9DB JUMP JUMPDEST PUSH2 0x2100 PUSH2 0x20F1 DUP5 PUSH2 0x10BC JUMP JUMPDEST PUSH2 0x20FA DUP5 PUSH2 0x10BC JUMP JUMPDEST DUP4 PUSH2 0x2C68 JUMP JUMPDEST POP POP POP JUMP JUMPDEST PUSH1 0x0 PUSH2 0xEDE DUP3 DUP5 PUSH2 0x4427 JUMP JUMPDEST PUSH1 0x0 DUP1 PUSH2 0x2174 GAS PUSH1 0x96 PUSH4 0x66AD5C8A PUSH1 0xE0 SHL DUP10 DUP10 DUP10 DUP10 PUSH1 0x40 MLOAD PUSH1 0x24 ADD PUSH2 0x2139 SWAP5 SWAP4 SWAP3 SWAP2 SWAP1 PUSH2 0x42C3 JUMP JUMPDEST PUSH1 0x40 DUP1 MLOAD PUSH1 0x1F NOT DUP2 DUP5 SUB ADD DUP2 MSTORE SWAP2 SWAP1 MSTORE PUSH1 0x20 DUP2 ADD DUP1 MLOAD PUSH1 0x1 PUSH1 0x1 PUSH1 0xE0 SHL SUB AND PUSH1 0x1 PUSH1 0x1 PUSH1 0xE0 SHL SUB NOT SWAP1 SWAP4 AND SWAP3 SWAP1 SWAP3 OR SWAP1 SWAP2 MSTORE ADDRESS SWAP3 SWAP2 SWAP1 PUSH2 0x2D81 JUMP JUMPDEST SWAP2 POP SWAP2 POP DUP2 PUSH2 0x11BB JUMPI PUSH2 0x11BB DUP7 DUP7 DUP7 DUP7 DUP6 PUSH2 0x2E1B JUMP JUMPDEST PUSH1 0x0 PUSH1 0x1 PUSH1 0x1 PUSH1 0xE0 SHL SUB NOT DUP3 AND PUSH4 0xA726775 PUSH1 0xE1 SHL EQ DUP1 PUSH2 0xBD0 JUMPI POP PUSH4 0x1FFC9A7 PUSH1 0xE0 SHL PUSH1 0x1 PUSH1 0x1 PUSH1 0xE0 SHL SUB NOT DUP4 AND EQ PUSH2 0xBD0 JUMP JUMPDEST CALLER PUSH2 0x21C8 PUSH2 0x12CC JUMP JUMPDEST PUSH1 0x1 PUSH1 0x1 PUSH1 0xA0 SHL SUB AND EQ PUSH2 0x1212 JUMPI PUSH1 0x40 MLOAD PUSH3 0x461BCD PUSH1 0xE5 SHL DUP2 MSTORE PUSH1 0x20 PUSH1 0x4 DUP3 ADD DUP2 SWAP1 MSTORE PUSH1 0x24 DUP3 ADD MSTORE PUSH32 0x4F776E61626C653A2063616C6C6572206973206E6F7420746865206F776E6572 PUSH1 0x44 DUP3 ADD MSTORE PUSH1 0x64 ADD PUSH2 0x9DB JUMP JUMPDEST PUSH1 0x1 PUSH1 0x1 PUSH1 0xA0 SHL SUB DUP4 AND PUSH2 0x2280 JUMPI PUSH1 0x40 MLOAD PUSH3 0x461BCD PUSH1 0xE5 SHL DUP2 MSTORE PUSH1 0x20 PUSH1 0x4 DUP3 ADD MSTORE PUSH1 0x24 DUP1 DUP3 ADD MSTORE PUSH32 0x45524332303A20617070726F76652066726F6D20746865207A65726F20616464 PUSH1 0x44 DUP3 ADD MSTORE PUSH4 0x72657373 PUSH1 0xE0 SHL PUSH1 0x64 DUP3 ADD MSTORE PUSH1 0x84 ADD PUSH2 0x9DB JUMP JUMPDEST PUSH1 0x1 PUSH1 0x1 PUSH1 0xA0 SHL SUB DUP3 AND PUSH2 0x22E1 JUMPI PUSH1 0x40 MLOAD PUSH3 0x461BCD PUSH1 0xE5 SHL DUP2 MSTORE PUSH1 0x20 PUSH1 0x4 DUP3 ADD MSTORE PUSH1 0x22 PUSH1 0x24 DUP3 ADD MSTORE PUSH32 0x45524332303A20617070726F766520746F20746865207A65726F206164647265 PUSH1 0x44 DUP3 ADD MSTORE PUSH2 0x7373 PUSH1 0xF0 SHL PUSH1 0x64 DUP3 ADD MSTORE PUSH1 0x84 ADD PUSH2 0x9DB JUMP JUMPDEST PUSH1 0x1 PUSH1 0x1 PUSH1 0xA0 SHL SUB DUP4 DUP2 AND PUSH1 0x0 DUP2 DUP2 MSTORE PUSH1 0x7 PUSH1 0x20 SWAP1 DUP2 MSTORE PUSH1 0x40 DUP1 DUP4 KECCAK256 SWAP5 DUP8 AND DUP1 DUP5 MSTORE SWAP5 DUP3 MSTORE SWAP2 DUP3 SWAP1 KECCAK256 DUP6 SWAP1 SSTORE SWAP1 MLOAD DUP5 DUP2 MSTORE PUSH32 0x8C5BE1E5EBEC7D5BD14F71427D1E84F3DD0314C0F7B2291E5B200AC8C7C3B925 SWAP2 ADD PUSH1 0x40 MLOAD DUP1 SWAP2 SUB SWAP1 LOG3 POP POP POP JUMP JUMPDEST PUSH1 0x0 PUSH2 0x234E DUP5 DUP5 PUSH2 0x1B75 JUMP JUMPDEST SWAP1 POP PUSH1 0x0 NOT DUP2 EQ PUSH2 0x1F46 JUMPI DUP2 DUP2 LT ISZERO PUSH2 0x23A9 JUMPI PUSH1 0x40 MLOAD PUSH3 0x461BCD PUSH1 0xE5 SHL DUP2 MSTORE PUSH1 0x20 PUSH1 0x4 DUP3 ADD MSTORE PUSH1 0x1D PUSH1 0x24 DUP3 ADD MSTORE PUSH32 0x45524332303A20696E73756666696369656E7420616C6C6F77616E6365000000 PUSH1 0x44 DUP3 ADD MSTORE PUSH1 0x64 ADD PUSH2 0x9DB JUMP JUMPDEST PUSH2 0x1F46 DUP5 DUP5 DUP5 DUP5 SUB PUSH2 0x221E JUMP JUMPDEST PUSH1 0x1 PUSH1 0x1 PUSH1 0xA0 SHL SUB DUP4 AND PUSH2 0x241A JUMPI PUSH1 0x40 MLOAD PUSH3 0x461BCD PUSH1 0xE5 SHL DUP2 MSTORE PUSH1 0x20 PUSH1 0x4 DUP3 ADD MSTORE PUSH1 0x25 PUSH1 0x24 DUP3 ADD MSTORE PUSH32 0x45524332303A207472616E736665722066726F6D20746865207A65726F206164 PUSH1 0x44 DUP3 ADD MSTORE PUSH5 0x6472657373 PUSH1 0xD8 SHL PUSH1 0x64 DUP3 ADD MSTORE PUSH1 0x84 ADD PUSH2 0x9DB JUMP JUMPDEST PUSH1 0x1 PUSH1 0x1 PUSH1 0xA0 SHL SUB DUP3 AND PUSH2 0x247C JUMPI PUSH1 0x40 MLOAD PUSH3 0x461BCD PUSH1 0xE5 SHL DUP2 MSTORE PUSH1 0x20 PUSH1 0x4 DUP3 ADD MSTORE PUSH1 0x23 PUSH1 0x24 DUP3 ADD MSTORE PUSH32 0x45524332303A207472616E7366657220746F20746865207A65726F2061646472 PUSH1 0x44 DUP3 ADD MSTORE PUSH3 0x657373 PUSH1 0xE8 SHL PUSH1 0x64 DUP3 ADD MSTORE PUSH1 0x84 ADD PUSH2 0x9DB JUMP JUMPDEST PUSH1 0x1 PUSH1 0x1 PUSH1 0xA0 SHL SUB DUP4 AND PUSH1 0x0 SWAP1 DUP2 MSTORE PUSH1 0x6 PUSH1 0x20 MSTORE PUSH1 0x40 SWAP1 KECCAK256 SLOAD DUP2 DUP2 LT ISZERO PUSH2 0x24F4 JUMPI PUSH1 0x40 MLOAD PUSH3 0x461BCD PUSH1 0xE5 SHL DUP2 MSTORE PUSH1 0x20 PUSH1 0x4 DUP3 ADD MSTORE PUSH1 0x26 PUSH1 0x24 DUP3 ADD MSTORE PUSH32 0x45524332303A207472616E7366657220616D6F756E7420657863656564732062 PUSH1 0x44 DUP3 ADD MSTORE PUSH6 0x616C616E6365 PUSH1 0xD0 SHL PUSH1 0x64 DUP3 ADD MSTORE PUSH1 0x84 ADD PUSH2 0x9DB JUMP JUMPDEST PUSH1 0x1 PUSH1 0x1 PUSH1 0xA0 SHL SUB DUP1 DUP6 AND PUSH1 0x0 DUP2 DUP2 MSTORE PUSH1 0x6 PUSH1 0x20 MSTORE PUSH1 0x40 DUP1 DUP3 KECCAK256 DUP7 DUP7 SUB SWAP1 SSTORE SWAP3 DUP7 AND DUP1 DUP3 MSTORE SWAP1 DUP4 SWAP1 KECCAK256 DUP1 SLOAD DUP7 ADD SWAP1 SSTORE SWAP2 MLOAD PUSH1 0x0 DUP1 MLOAD PUSH1 0x20 PUSH2 0x44F1 DUP4 CODECOPY DUP2 MLOAD SWAP2 MSTORE SWAP1 PUSH2 0x2542 SWAP1 DUP7 DUP2 MSTORE PUSH1 0x20 ADD SWAP1 JUMP JUMPDEST PUSH1 0x40 MLOAD DUP1 SWAP2 SUB SWAP1 LOG3 PUSH2 0x1F46 DUP5 DUP5 DUP5 PUSH2 0x2C5D JUMP JUMPDEST PUSH1 0x0 ADDRESS PUSH1 0x1 PUSH1 0x1 PUSH1 0xA0 SHL SUB PUSH32 0x0 AND EQ DUP1 ISZERO PUSH2 0x25AE JUMPI POP PUSH32 0x0 CHAINID EQ JUMPDEST ISZERO PUSH2 0x25DA JUMPI POP PUSH32 0x0 PUSH2 0xC68 JUMP JUMPDEST POP PUSH1 0x40 DUP1 MLOAD PUSH32 0x0 PUSH1 0x20 DUP1 DUP4 ADD SWAP2 SWAP1 SWAP2 MSTORE PUSH32 0x0 DUP3 DUP5 ADD MSTORE PUSH32 0x0 PUSH1 0x60 DUP4 ADD MSTORE CHAINID PUSH1 0x80 DUP4 ADD MSTORE ADDRESS PUSH1 0xA0 DUP1 DUP5 ADD SWAP2 SWAP1 SWAP2 MSTORE DUP4 MLOAD DUP1 DUP5 SUB SWAP1 SWAP2 ADD DUP2 MSTORE PUSH1 0xC0 SWAP1 SWAP3 ADD SWAP1 SWAP3 MSTORE DUP1 MLOAD SWAP2 ADD KECCAK256 PUSH2 0xC68 JUMP JUMPDEST DUP2 SLOAD PUSH1 0x0 SWAP1 DUP2 DUP2 PUSH1 0x5 DUP2 GT ISZERO PUSH2 0x26DA JUMPI PUSH1 0x0 PUSH2 0x269B DUP5 PUSH2 0x2EB8 JUMP JUMPDEST PUSH2 0x26A5 SWAP1 DUP6 PUSH2 0x4427 JUMP JUMPDEST PUSH1 0x0 DUP9 DUP2 MSTORE PUSH1 0x20 SWAP1 KECCAK256 SWAP1 SWAP2 POP DUP7 SWAP1 DUP3 ADD SLOAD PUSH4 0xFFFFFFFF AND GT ISZERO PUSH2 0x26CA JUMPI DUP1 SWAP2 POP PUSH2 0x26D8 JUMP JUMPDEST PUSH2 0x26D5 DUP2 PUSH1 0x1 PUSH2 0x43EF JUMP JUMPDEST SWAP3 POP JUMPDEST POP JUMPDEST DUP1 DUP3 LT ISZERO PUSH2 0x2727 JUMPI PUSH1 0x0 PUSH2 0x26EE DUP4 DUP4 PUSH2 0x300D JUMP JUMPDEST PUSH1 0x0 DUP9 DUP2 MSTORE PUSH1 0x20 SWAP1 KECCAK256 SWAP1 SWAP2 POP DUP7 SWAP1 DUP3 ADD SLOAD PUSH4 0xFFFFFFFF AND GT ISZERO PUSH2 0x2713 JUMPI DUP1 SWAP2 POP PUSH2 0x2721 JUMP JUMPDEST PUSH2 0x271E DUP2 PUSH1 0x1 PUSH2 0x43EF JUMP JUMPDEST SWAP3 POP JUMPDEST POP PUSH2 0x26DA JUMP JUMPDEST DUP1 ISZERO PUSH2 0x2760 JUMPI PUSH2 0x274A DUP7 PUSH2 0x273C PUSH1 0x1 DUP5 PUSH2 0x4427 JUMP JUMPDEST PUSH1 0x0 SWAP2 DUP3 MSTORE PUSH1 0x20 SWAP1 SWAP2 KECCAK256 ADD SWAP1 JUMP JUMPDEST SLOAD PUSH1 0x1 PUSH1 0x20 SHL SWAP1 DIV PUSH1 0x1 PUSH1 0x1 PUSH1 0xE0 SHL SUB AND PUSH2 0x2763 JUMP JUMPDEST PUSH1 0x0 JUMPDEST PUSH1 0x1 PUSH1 0x1 PUSH1 0xE0 SHL SUB AND SWAP7 SWAP6 POP POP POP POP POP POP JUMP JUMPDEST PUSH2 0x2784 DUP7 PUSH1 0x0 DUP4 PUSH1 0x0 PUSH2 0x3028 JUMP JUMPDEST PUSH1 0x0 PUSH2 0x2792 DUP9 DUP9 DUP9 DUP9 PUSH2 0x30A2 JUMP JUMPDEST SWAP1 POP PUSH1 0x0 DUP1 DUP8 DUP4 PUSH1 0x40 MLOAD PUSH1 0x20 ADD PUSH2 0x27AB SWAP4 SWAP3 SWAP2 SWAP1 PUSH2 0x4296 JUMP JUMPDEST PUSH1 0x40 MLOAD PUSH1 0x20 DUP2 DUP4 SUB SUB DUP2 MSTORE SWAP1 PUSH1 0x40 MSTORE SWAP1 POP PUSH2 0x27CA DUP9 DUP3 DUP8 DUP8 DUP8 CALLVALUE PUSH2 0x30D5 JUMP JUMPDEST DUP9 PUSH1 0x1 PUSH1 0x1 PUSH1 0xA0 SHL SUB AND DUP9 PUSH2 0xFFFF AND PUSH32 0x39A4C66499BCF4B56D79F0DDE8ED7A9D4925A0DF55825206B2B8531E202BE0D0 DUP10 DUP6 PUSH1 0x40 MLOAD PUSH2 0x280A SWAP3 SWAP2 SWAP1 PUSH2 0x4105 JUMP JUMPDEST PUSH1 0x40 MLOAD DUP1 SWAP2 SUB SWAP1 LOG3 POP POP POP POP POP POP POP POP POP JUMP JUMPDEST PUSH1 0x0 PUSH2 0x2828 DUP4 PUSH2 0x10BC JUMP JUMPDEST SWAP1 POP PUSH1 0x0 PUSH2 0x2835 DUP5 PUSH2 0x11E5 JUMP JUMPDEST PUSH1 0x1 PUSH1 0x1 PUSH1 0xA0 SHL SUB DUP6 DUP2 AND PUSH1 0x0 DUP2 DUP2 MSTORE PUSH1 0xD PUSH1 0x20 MSTORE PUSH1 0x40 DUP1 DUP3 KECCAK256 DUP1 SLOAD PUSH1 0x1 PUSH1 0x1 PUSH1 0xA0 SHL SUB NOT AND DUP10 DUP7 AND SWAP1 DUP2 OR SWAP1 SWAP2 SSTORE SWAP1 MLOAD SWAP5 SWAP6 POP SWAP4 SWAP3 DUP7 AND SWAP3 PUSH32 0x3134E8A2E6D97E929A7E54011EA5485D7D196DD5F0BA4D4EF95803E8E3FC257F SWAP2 SWAP1 LOG4 PUSH2 0x1F46 DUP3 DUP5 DUP4 PUSH2 0x2C68 JUMP JUMPDEST PUSH1 0x20 DUP2 ADD MLOAD PUSH2 0xFFFF DUP2 AND PUSH2 0x28BC JUMPI PUSH2 0x28B7 DUP6 DUP6 DUP6 DUP6 PUSH2 0x3270 JUMP JUMPDEST PUSH2 0xCED JUMP JUMPDEST PUSH1 0x40 MLOAD PUSH3 0x461BCD PUSH1 0xE5 SHL DUP2 MSTORE PUSH1 0x20 PUSH1 0x4 DUP3 ADD MSTORE PUSH1 0x1C PUSH1 0x24 DUP3 ADD MSTORE PUSH28 0x4F4654436F72653A20756E6B6E6F776E207061636B65742074797065 PUSH1 0x20 SHL PUSH1 0x44 DUP3 ADD MSTORE PUSH1 0x64 ADD PUSH2 0x9DB JUMP JUMPDEST PUSH1 0x0 DUP1 SLOAD PUSH1 0x1 PUSH1 0x1 PUSH1 0xA0 SHL SUB DUP4 DUP2 AND PUSH1 0x1 PUSH1 0x1 PUSH1 0xA0 SHL SUB NOT DUP4 AND DUP2 OR DUP5 SSTORE PUSH1 0x40 MLOAD SWAP2 SWAP1 SWAP3 AND SWAP3 DUP4 SWAP2 PUSH32 0x8BE0079C531659141344CD1FD0A4F28419497F9722A3DAAFE3B4186F6B6457E0 SWAP2 SWAP1 LOG3 POP POP JUMP JUMPDEST PUSH1 0x60 DUP2 PUSH2 0x2961 DUP2 PUSH1 0x1F PUSH2 0x43EF JUMP JUMPDEST LT ISZERO PUSH2 0x29A0 JUMPI PUSH1 0x40 MLOAD PUSH3 0x461BCD PUSH1 0xE5 SHL DUP2 MSTORE PUSH1 0x20 PUSH1 0x4 DUP3 ADD MSTORE PUSH1 0xE PUSH1 0x24 DUP3 ADD MSTORE PUSH14 0x736C6963655F6F766572666C6F77 PUSH1 0x90 SHL PUSH1 0x44 DUP3 ADD MSTORE PUSH1 0x64 ADD PUSH2 0x9DB JUMP JUMPDEST PUSH2 0x29AA DUP3 DUP5 PUSH2 0x43EF JUMP JUMPDEST DUP5 MLOAD LT ISZERO PUSH2 0x29EE JUMPI PUSH1 0x40 MLOAD PUSH3 0x461BCD PUSH1 0xE5 SHL DUP2 MSTORE PUSH1 0x20 PUSH1 0x4 DUP3 ADD MSTORE PUSH1 0x11 PUSH1 0x24 DUP3 ADD MSTORE PUSH17 0x736C6963655F6F75744F66426F756E6473 PUSH1 0x78 SHL PUSH1 0x44 DUP3 ADD MSTORE PUSH1 0x64 ADD PUSH2 0x9DB JUMP JUMPDEST PUSH1 0x60 DUP3 ISZERO DUP1 ISZERO PUSH2 0x2A0D JUMPI PUSH1 0x40 MLOAD SWAP2 POP PUSH1 0x0 DUP3 MSTORE PUSH1 0x20 DUP3 ADD PUSH1 0x40 MSTORE PUSH2 0x2A57 JUMP JUMPDEST PUSH1 0x40 MLOAD SWAP2 POP PUSH1 0x1F DUP5 AND DUP1 ISZERO PUSH1 0x20 MUL DUP2 DUP5 ADD ADD DUP6 DUP2 ADD DUP8 DUP4 ISZERO PUSH1 0x20 MUL DUP5 DUP12 ADD ADD ADD JUMPDEST DUP2 DUP4 LT ISZERO PUSH2 0x2A46 JUMPI DUP1 MLOAD DUP4 MSTORE PUSH1 0x20 SWAP3 DUP4 ADD SWAP3 ADD PUSH2 0x2A2E JUMP JUMPDEST POP POP DUP6 DUP5 MSTORE PUSH1 0x1F ADD PUSH1 0x1F NOT AND PUSH1 0x40 MSTORE POP JUMPDEST POP SWAP5 SWAP4 POP POP POP POP JUMP JUMPDEST PUSH1 0x0 PUSH2 0xBD0 PUSH2 0x2A6D PUSH2 0x2555 JUMP JUMPDEST DUP4 PUSH1 0x40 MLOAD PUSH2 0x1901 PUSH1 0xF0 SHL PUSH1 0x20 DUP3 ADD MSTORE PUSH1 0x22 DUP2 ADD DUP4 SWAP1 MSTORE PUSH1 0x42 DUP2 ADD DUP3 SWAP1 MSTORE PUSH1 0x0 SWAP1 PUSH1 0x62 ADD PUSH1 0x40 MLOAD PUSH1 0x20 DUP2 DUP4 SUB SUB DUP2 MSTORE SWAP1 PUSH1 0x40 MSTORE DUP1 MLOAD SWAP1 PUSH1 0x20 ADD KECCAK256 SWAP1 POP SWAP3 SWAP2 POP POP JUMP JUMPDEST PUSH1 0x0 DUP1 PUSH1 0x0 PUSH2 0x2ABF DUP8 DUP8 DUP8 DUP8 PUSH2 0x32FA JUMP JUMPDEST SWAP2 POP SWAP2 POP PUSH2 0x2ACC DUP2 PUSH2 0x33B1 JUMP JUMPDEST POP SWAP6 SWAP5 POP POP POP POP POP JUMP JUMPDEST PUSH1 0x1 PUSH1 0x1 PUSH1 0xA0 SHL SUB DUP2 AND PUSH1 0x0 SWAP1 DUP2 MSTORE PUSH1 0xB PUSH1 0x20 MSTORE PUSH1 0x40 SWAP1 KECCAK256 DUP1 SLOAD PUSH1 0x1 DUP2 ADD DUP3 SSTORE SWAP1 JUMPDEST POP SWAP2 SWAP1 POP JUMP JUMPDEST DUP3 SLOAD PUSH1 0x0 SWAP1 DUP2 SWAP1 DUP2 DUP2 ISZERO PUSH2 0x2B4A JUMPI PUSH2 0x2B1B DUP8 PUSH2 0x273C PUSH1 0x1 DUP6 PUSH2 0x4427 JUMP JUMPDEST PUSH1 0x40 DUP1 MLOAD DUP1 DUP3 ADD SWAP1 SWAP2 MSTORE SWAP1 SLOAD PUSH4 0xFFFFFFFF DUP2 AND DUP3 MSTORE PUSH1 0x1 PUSH1 0x20 SHL SWAP1 DIV PUSH1 0x1 PUSH1 0x1 PUSH1 0xE0 SHL SUB AND PUSH1 0x20 DUP3 ADD MSTORE PUSH2 0x2B5F JUMP JUMPDEST PUSH1 0x40 DUP1 MLOAD DUP1 DUP3 ADD SWAP1 SWAP2 MSTORE PUSH1 0x0 DUP1 DUP3 MSTORE PUSH1 0x20 DUP3 ADD MSTORE JUMPDEST SWAP1 POP DUP1 PUSH1 0x20 ADD MLOAD PUSH1 0x1 PUSH1 0x1 PUSH1 0xE0 SHL SUB AND SWAP4 POP PUSH2 0x2B7F DUP5 DUP7 DUP9 PUSH4 0xFFFFFFFF AND JUMP JUMPDEST SWAP3 POP PUSH1 0x0 DUP3 GT DUP1 ISZERO PUSH2 0x2B97 JUMPI POP DUP1 MLOAD PUSH4 0xFFFFFFFF AND NUMBER EQ JUMPDEST ISZERO PUSH2 0x2BDB JUMPI PUSH2 0x2BA5 DUP4 PUSH2 0x2013 JUMP JUMPDEST PUSH2 0x2BB4 DUP9 PUSH2 0x273C PUSH1 0x1 DUP7 PUSH2 0x4427 JUMP JUMPDEST DUP1 SLOAD PUSH1 0x1 PUSH1 0x1 PUSH1 0xE0 SHL SUB SWAP3 SWAP1 SWAP3 AND PUSH1 0x1 PUSH1 0x20 SHL MUL PUSH4 0xFFFFFFFF SWAP1 SWAP3 AND SWAP2 SWAP1 SWAP2 OR SWAP1 SSTORE PUSH2 0x2C53 JUMP JUMPDEST DUP7 PUSH1 0x40 MLOAD DUP1 PUSH1 0x40 ADD PUSH1 0x40 MSTORE DUP1 PUSH2 0x2BF0 NUMBER PUSH2 0x2080 JUMP JUMPDEST PUSH4 0xFFFFFFFF AND DUP2 MSTORE PUSH1 0x20 ADD PUSH2 0x2C04 DUP7 PUSH2 0x2013 JUMP JUMPDEST PUSH1 0x1 PUSH1 0x1 PUSH1 0xE0 SHL SUB SWAP1 DUP2 AND SWAP1 SWAP2 MSTORE DUP3 SLOAD PUSH1 0x1 DUP2 ADD DUP5 SSTORE PUSH1 0x0 SWAP4 DUP5 MSTORE PUSH1 0x20 SWAP4 DUP5 SWAP1 KECCAK256 DUP4 MLOAD SWAP2 ADD DUP1 SLOAD SWAP4 SWAP1 SWAP5 ADD MLOAD SWAP1 SWAP2 AND PUSH1 0x1 PUSH1 0x20 SHL MUL PUSH4 0xFFFFFFFF SWAP2 DUP3 AND PUSH4 0xFFFFFFFF NOT SWAP1 SWAP4 AND SWAP3 SWAP1 SWAP3 OR AND OR SWAP1 SSTORE JUMPDEST POP POP SWAP4 POP SWAP4 SWAP2 POP POP JUMP JUMPDEST PUSH2 0x2100 DUP4 DUP4 DUP4 PUSH2 0x20E5 JUMP JUMPDEST DUP2 PUSH1 0x1 PUSH1 0x1 PUSH1 0xA0 SHL SUB AND DUP4 PUSH1 0x1 PUSH1 0x1 PUSH1 0xA0 SHL SUB AND EQ ISZERO DUP1 ISZERO PUSH2 0x2C8A JUMPI POP PUSH1 0x0 DUP2 GT JUMPDEST ISZERO PUSH2 0x2100 JUMPI PUSH1 0x1 PUSH1 0x1 PUSH1 0xA0 SHL SUB DUP4 AND ISZERO PUSH2 0x2D06 JUMPI PUSH1 0x1 PUSH1 0x1 PUSH1 0xA0 SHL SUB DUP4 AND PUSH1 0x0 SWAP1 DUP2 MSTORE PUSH1 0xE PUSH1 0x20 MSTORE PUSH1 0x40 DUP2 KECCAK256 DUP2 SWAP1 PUSH2 0x2CC5 SWAP1 PUSH2 0x2105 DUP6 PUSH2 0x2AFE JUMP JUMPDEST SWAP2 POP SWAP2 POP DUP5 PUSH1 0x1 PUSH1 0x1 PUSH1 0xA0 SHL SUB AND PUSH1 0x0 DUP1 MLOAD PUSH1 0x20 PUSH2 0x4511 DUP4 CODECOPY DUP2 MLOAD SWAP2 MSTORE DUP4 DUP4 PUSH1 0x40 MLOAD PUSH2 0x2CFB SWAP3 SWAP2 SWAP1 SWAP2 DUP3 MSTORE PUSH1 0x20 DUP3 ADD MSTORE PUSH1 0x40 ADD SWAP1 JUMP JUMPDEST PUSH1 0x40 MLOAD DUP1 SWAP2 SUB SWAP1 LOG2 POP POP JUMPDEST PUSH1 0x1 PUSH1 0x1 PUSH1 0xA0 SHL SUB DUP3 AND ISZERO PUSH2 0x2100 JUMPI PUSH1 0x1 PUSH1 0x1 PUSH1 0xA0 SHL SUB DUP3 AND PUSH1 0x0 SWAP1 DUP2 MSTORE PUSH1 0xE PUSH1 0x20 MSTORE PUSH1 0x40 DUP2 KECCAK256 DUP2 SWAP1 PUSH2 0x2D3C SWAP1 PUSH2 0x2007 DUP6 PUSH2 0x2AFE JUMP JUMPDEST SWAP2 POP SWAP2 POP DUP4 PUSH1 0x1 PUSH1 0x1 PUSH1 0xA0 SHL SUB AND PUSH1 0x0 DUP1 MLOAD PUSH1 0x20 PUSH2 0x4511 DUP4 CODECOPY DUP2 MLOAD SWAP2 MSTORE DUP4 DUP4 PUSH1 0x40 MLOAD PUSH2 0x2D72 SWAP3 SWAP2 SWAP1 SWAP2 DUP3 MSTORE PUSH1 0x20 DUP3 ADD MSTORE PUSH1 0x40 ADD SWAP1 JUMP JUMPDEST PUSH1 0x40 MLOAD DUP1 SWAP2 SUB SWAP1 LOG2 POP POP POP POP POP JUMP JUMPDEST PUSH1 0x0 PUSH1 0x60 PUSH1 0x0 DUP1 PUSH1 0x0 DUP7 PUSH2 0xFFFF AND PUSH1 0x1 PUSH1 0x1 PUSH1 0x40 SHL SUB DUP2 GT ISZERO PUSH2 0x2DB4 JUMPI PUSH4 0x4E487B71 PUSH1 0xE0 SHL PUSH1 0x0 MSTORE PUSH1 0x41 PUSH1 0x4 MSTORE PUSH1 0x24 PUSH1 0x0 REVERT JUMPDEST PUSH1 0x40 MLOAD SWAP1 DUP1 DUP3 MSTORE DUP1 PUSH1 0x1F ADD PUSH1 0x1F NOT AND PUSH1 0x20 ADD DUP3 ADD PUSH1 0x40 MSTORE DUP1 ISZERO PUSH2 0x2DDE JUMPI PUSH1 0x20 DUP3 ADD DUP2 DUP1 CALLDATASIZE DUP4 CALLDATACOPY ADD SWAP1 POP JUMPDEST POP SWAP1 POP PUSH1 0x0 DUP1 DUP8 MLOAD PUSH1 0x20 DUP10 ADD PUSH1 0x0 DUP14 DUP14 CALL SWAP2 POP RETURNDATASIZE SWAP3 POP DUP7 DUP4 GT ISZERO PUSH2 0x2E00 JUMPI DUP7 SWAP3 POP JUMPDEST DUP3 DUP2 MSTORE DUP3 PUSH1 0x0 PUSH1 0x20 DUP4 ADD RETURNDATACOPY SWAP1 SWAP4 POP SWAP2 POP POP JUMPDEST SWAP5 POP SWAP5 SWAP3 POP POP POP JUMP JUMPDEST DUP2 DUP1 MLOAD SWAP1 PUSH1 0x20 ADD KECCAK256 PUSH1 0x4 PUSH1 0x0 DUP8 PUSH2 0xFFFF AND PUSH2 0xFFFF AND DUP2 MSTORE PUSH1 0x20 ADD SWAP1 DUP2 MSTORE PUSH1 0x20 ADD PUSH1 0x0 KECCAK256 DUP6 PUSH1 0x40 MLOAD PUSH2 0x2E4C SWAP2 SWAP1 PUSH2 0x40C2 JUMP JUMPDEST SWAP1 DUP2 MSTORE PUSH1 0x40 DUP1 MLOAD SWAP2 DUP3 SWAP1 SUB PUSH1 0x20 SWAP1 DUP2 ADD DUP4 KECCAK256 PUSH1 0x1 PUSH1 0x1 PUSH1 0x40 SHL SUB DUP9 AND PUSH1 0x0 SWAP1 DUP2 MSTORE SWAP2 MSTORE KECCAK256 SWAP2 SWAP1 SWAP2 SSTORE PUSH32 0xE183F33DE2837795525B4792CA4CD60535BD77C53B7E7030060BFCF5734D6B0C SWAP1 PUSH2 0x2EA9 SWAP1 DUP8 SWAP1 DUP8 SWAP1 DUP8 SWAP1 DUP8 SWAP1 DUP8 SWAP1 PUSH2 0x430C JUMP JUMPDEST PUSH1 0x40 MLOAD DUP1 SWAP2 SUB SWAP1 LOG1 POP POP POP POP POP JUMP JUMPDEST PUSH1 0x0 DUP2 PUSH2 0x2EC7 JUMPI POP PUSH1 0x0 PUSH2 0xBD3 JUMP JUMPDEST PUSH1 0x0 PUSH1 0x1 PUSH2 0x2ED4 DUP5 PUSH2 0x3534 JUMP JUMPDEST SWAP1 SHR PUSH1 0x1 SWAP1 SHL SWAP1 POP PUSH1 0x1 DUP2 DUP5 DUP2 PUSH2 0x2EFB JUMPI PUSH4 0x4E487B71 PUSH1 0xE0 SHL PUSH1 0x0 MSTORE PUSH1 0x12 PUSH1 0x4 MSTORE PUSH1 0x24 PUSH1 0x0 REVERT JUMPDEST DIV DUP3 ADD SWAP1 SHR SWAP1 POP PUSH1 0x1 DUP2 DUP5 DUP2 PUSH2 0x2F21 JUMPI PUSH4 0x4E487B71 PUSH1 0xE0 SHL PUSH1 0x0 MSTORE PUSH1 0x12 PUSH1 0x4 MSTORE PUSH1 0x24 PUSH1 0x0 REVERT JUMPDEST DIV DUP3 ADD SWAP1 SHR SWAP1 POP PUSH1 0x1 DUP2 DUP5 DUP2 PUSH2 0x2F47 JUMPI PUSH4 0x4E487B71 PUSH1 0xE0 SHL PUSH1 0x0 MSTORE PUSH1 0x12 PUSH1 0x4 MSTORE PUSH1 0x24 PUSH1 0x0 REVERT JUMPDEST DIV DUP3 ADD SWAP1 SHR SWAP1 POP PUSH1 0x1 DUP2 DUP5 DUP2 PUSH2 0x2F6D JUMPI PUSH4 0x4E487B71 PUSH1 0xE0 SHL PUSH1 0x0 MSTORE PUSH1 0x12 PUSH1 0x4 MSTORE PUSH1 0x24 PUSH1 0x0 REVERT JUMPDEST DIV DUP3 ADD SWAP1 SHR SWAP1 POP PUSH1 0x1 DUP2 DUP5 DUP2 PUSH2 0x2F93 JUMPI PUSH4 0x4E487B71 PUSH1 0xE0 SHL PUSH1 0x0 MSTORE PUSH1 0x12 PUSH1 0x4 MSTORE PUSH1 0x24 PUSH1 0x0 REVERT JUMPDEST DIV DUP3 ADD SWAP1 SHR SWAP1 POP PUSH1 0x1 DUP2 DUP5 DUP2 PUSH2 0x2FB9 JUMPI PUSH4 0x4E487B71 PUSH1 0xE0 SHL PUSH1 0x0 MSTORE PUSH1 0x12 PUSH1 0x4 MSTORE PUSH1 0x24 PUSH1 0x0 REVERT JUMPDEST DIV DUP3 ADD SWAP1 SHR SWAP1 POP PUSH1 0x1 DUP2 DUP5 DUP2 PUSH2 0x2FDF JUMPI PUSH4 0x4E487B71 PUSH1 0xE0 SHL PUSH1 0x0 MSTORE PUSH1 0x12 PUSH1 0x4 MSTORE PUSH1 0x24 PUSH1 0x0 REVERT JUMPDEST DIV DUP3 ADD SWAP1 SHR SWAP1 POP PUSH2 0xEDE DUP2 DUP3 DUP6 DUP2 PUSH2 0x3007 JUMPI PUSH4 0x4E487B71 PUSH1 0xE0 SHL PUSH1 0x0 MSTORE PUSH1 0x12 PUSH1 0x4 MSTORE PUSH1 0x24 PUSH1 0x0 REVERT JUMPDEST DIV PUSH2 0x35C8 JUMP JUMPDEST PUSH1 0x0 PUSH2 0x301C PUSH1 0x2 DUP5 DUP5 XOR PUSH2 0x4407 JUMP JUMPDEST PUSH2 0xEDE SWAP1 DUP5 DUP5 AND PUSH2 0x43EF JUMP JUMPDEST PUSH1 0x5 SLOAD PUSH1 0xFF AND ISZERO PUSH2 0x3044 JUMPI PUSH2 0x303F DUP5 DUP5 DUP5 DUP5 PUSH2 0x35DE JUMP JUMPDEST PUSH2 0x1F46 JUMP JUMPDEST DUP2 MLOAD ISZERO PUSH2 0x1F46 JUMPI PUSH1 0x40 MLOAD PUSH3 0x461BCD PUSH1 0xE5 SHL DUP2 MSTORE PUSH1 0x20 PUSH1 0x4 DUP3 ADD MSTORE PUSH1 0x26 PUSH1 0x24 DUP3 ADD MSTORE PUSH32 0x4F4654436F72653A205F61646170746572506172616D73206D75737420626520 PUSH1 0x44 DUP3 ADD MSTORE PUSH6 0x32B6B83A3C97 PUSH1 0xD1 SHL PUSH1 0x64 DUP3 ADD MSTORE PUSH1 0x84 ADD PUSH2 0x9DB JUMP JUMPDEST PUSH1 0x0 CALLER PUSH1 0x1 PUSH1 0x1 PUSH1 0xA0 SHL SUB DUP7 AND DUP2 EQ PUSH2 0x30C0 JUMPI PUSH2 0x30C0 DUP7 DUP3 DUP6 PUSH2 0x2342 JUMP JUMPDEST PUSH2 0x30CB DUP7 ADDRESS DUP6 PUSH2 0x23B6 JUMP JUMPDEST POP SWAP1 SWAP5 SWAP4 POP POP POP POP JUMP JUMPDEST PUSH2 0xFFFF DUP7 AND PUSH1 0x0 SWAP1 DUP2 MSTORE PUSH1 0x1 PUSH1 0x20 MSTORE PUSH1 0x40 DUP2 KECCAK256 DUP1 SLOAD PUSH2 0x30F3 SWAP1 PUSH2 0x446A JUMP JUMPDEST DUP1 PUSH1 0x1F ADD PUSH1 0x20 DUP1 SWAP2 DIV MUL PUSH1 0x20 ADD PUSH1 0x40 MLOAD SWAP1 DUP2 ADD PUSH1 0x40 MSTORE DUP1 SWAP3 SWAP2 SWAP1 DUP2 DUP2 MSTORE PUSH1 0x20 ADD DUP3 DUP1 SLOAD PUSH2 0x311F SWAP1 PUSH2 0x446A JUMP JUMPDEST DUP1 ISZERO PUSH2 0x316C JUMPI DUP1 PUSH1 0x1F LT PUSH2 0x3141 JUMPI PUSH2 0x100 DUP1 DUP4 SLOAD DIV MUL DUP4 MSTORE SWAP2 PUSH1 0x20 ADD SWAP2 PUSH2 0x316C JUMP JUMPDEST DUP3 ADD SWAP2 SWAP1 PUSH1 0x0 MSTORE PUSH1 0x20 PUSH1 0x0 KECCAK256 SWAP1 JUMPDEST DUP2 SLOAD DUP2 MSTORE SWAP1 PUSH1 0x1 ADD SWAP1 PUSH1 0x20 ADD DUP1 DUP4 GT PUSH2 0x314F JUMPI DUP3 SWAP1 SUB PUSH1 0x1F AND DUP3 ADD SWAP2 JUMPDEST POP POP POP POP POP SWAP1 POP DUP1 MLOAD PUSH1 0x0 EQ ISZERO PUSH2 0x31DE JUMPI PUSH1 0x40 MLOAD PUSH3 0x461BCD PUSH1 0xE5 SHL DUP2 MSTORE PUSH1 0x20 PUSH1 0x4 DUP3 ADD MSTORE PUSH1 0x30 PUSH1 0x24 DUP3 ADD MSTORE PUSH32 0x4C7A4170703A2064657374696E6174696F6E20636861696E206973206E6F7420 PUSH1 0x44 DUP3 ADD MSTORE PUSH16 0x61207472757374656420736F75726365 PUSH1 0x80 SHL PUSH1 0x64 DUP3 ADD MSTORE PUSH1 0x84 ADD PUSH2 0x9DB JUMP JUMPDEST PUSH1 0x40 MLOAD PUSH3 0xC58031 PUSH1 0xE8 SHL DUP2 MSTORE PUSH1 0x1 PUSH1 0x1 PUSH1 0xA0 SHL SUB PUSH32 0x0 AND SWAP1 PUSH4 0xC5803100 SWAP1 DUP5 SWAP1 PUSH2 0x3235 SWAP1 DUP12 SWAP1 DUP7 SWAP1 DUP13 SWAP1 DUP13 SWAP1 DUP13 SWAP1 DUP13 SWAP1 PUSH1 0x4 ADD PUSH2 0x423C JUMP JUMPDEST PUSH1 0x0 PUSH1 0x40 MLOAD DUP1 DUP4 SUB DUP2 DUP6 DUP9 DUP1 EXTCODESIZE ISZERO DUP1 ISZERO PUSH2 0x324E JUMPI PUSH1 0x0 DUP1 REVERT JUMPDEST POP GAS CALL ISZERO DUP1 ISZERO PUSH2 0x3262 JUMPI RETURNDATASIZE PUSH1 0x0 DUP1 RETURNDATACOPY RETURNDATASIZE PUSH1 0x0 REVERT JUMPDEST POP POP POP POP POP POP POP POP POP POP POP POP JUMP JUMPDEST PUSH1 0x0 DUP1 DUP3 DUP1 PUSH1 0x20 ADD SWAP1 MLOAD DUP2 ADD SWAP1 PUSH2 0x3287 SWAP2 SWAP1 PUSH2 0x3DF3 JUMP JUMPDEST SWAP1 SWAP4 POP SWAP2 POP PUSH1 0x0 SWAP1 POP PUSH2 0x329A DUP4 DUP3 PUSH2 0x36B8 JUMP JUMPDEST SWAP1 POP PUSH2 0x32A7 DUP8 DUP3 DUP5 PUSH2 0x371D JUMP JUMPDEST SWAP2 POP DUP1 PUSH1 0x1 PUSH1 0x1 PUSH1 0xA0 SHL SUB AND DUP8 PUSH2 0xFFFF AND PUSH32 0xBF551EC93859B170F9B2141BD9298BF3F64322C6F7BEB2543A0CB669834118BF DUP5 PUSH1 0x40 MLOAD PUSH2 0x32E9 SWAP2 DUP2 MSTORE PUSH1 0x20 ADD SWAP1 JUMP JUMPDEST PUSH1 0x40 MLOAD DUP1 SWAP2 SUB SWAP1 LOG3 POP POP POP POP POP POP POP JUMP JUMPDEST PUSH1 0x0 DUP1 PUSH16 0xA2A8918CA85BAFE22016D0B997E4DF60 PUSH1 0x1 PUSH1 0xFF SHL SUB DUP4 GT ISZERO PUSH2 0x3327 JUMPI POP PUSH1 0x0 SWAP1 POP PUSH1 0x3 PUSH2 0x2E12 JUMP JUMPDEST PUSH1 0x40 DUP1 MLOAD PUSH1 0x0 DUP1 DUP3 MSTORE PUSH1 0x20 DUP3 ADD DUP1 DUP5 MSTORE DUP10 SWAP1 MSTORE PUSH1 0xFF DUP9 AND SWAP3 DUP3 ADD SWAP3 SWAP1 SWAP3 MSTORE PUSH1 0x60 DUP2 ADD DUP7 SWAP1 MSTORE PUSH1 0x80 DUP2 ADD DUP6 SWAP1 MSTORE PUSH1 0x1 SWAP1 PUSH1 0xA0 ADD PUSH1 0x20 PUSH1 0x40 MLOAD PUSH1 0x20 DUP2 SUB SWAP1 DUP1 DUP5 SUB SWAP1 DUP6 GAS STATICCALL ISZERO DUP1 ISZERO PUSH2 0x337B JUMPI RETURNDATASIZE PUSH1 0x0 DUP1 RETURNDATACOPY RETURNDATASIZE PUSH1 0x0 REVERT JUMPDEST POP POP PUSH1 0x40 MLOAD PUSH1 0x1F NOT ADD MLOAD SWAP2 POP POP PUSH1 0x1 PUSH1 0x1 PUSH1 0xA0 SHL SUB DUP2 AND PUSH2 0x33A4 JUMPI PUSH1 0x0 PUSH1 0x1 SWAP3 POP SWAP3 POP POP PUSH2 0x2E12 JUMP JUMPDEST SWAP7 PUSH1 0x0 SWAP7 POP SWAP5 POP POP POP POP POP JUMP JUMPDEST PUSH1 0x0 DUP2 PUSH1 0x4 DUP2 GT ISZERO PUSH2 0x33D3 JUMPI PUSH4 0x4E487B71 PUSH1 0xE0 SHL PUSH1 0x0 MSTORE PUSH1 0x21 PUSH1 0x4 MSTORE PUSH1 0x24 PUSH1 0x0 REVERT JUMPDEST EQ ISZERO PUSH2 0x33DE JUMPI PUSH2 0x10E4 JUMP JUMPDEST PUSH1 0x1 DUP2 PUSH1 0x4 DUP2 GT ISZERO PUSH2 0x3400 JUMPI PUSH4 0x4E487B71 PUSH1 0xE0 SHL PUSH1 0x0 MSTORE PUSH1 0x21 PUSH1 0x4 MSTORE PUSH1 0x24 PUSH1 0x0 REVERT JUMPDEST EQ ISZERO PUSH2 0x3449 JUMPI PUSH1 0x40 MLOAD PUSH3 0x461BCD PUSH1 0xE5 SHL DUP2 MSTORE PUSH1 0x20 PUSH1 0x4 DUP3 ADD MSTORE PUSH1 0x18 PUSH1 0x24 DUP3 ADD MSTORE PUSH24 0x45434453413A20696E76616C6964207369676E6174757265 PUSH1 0x40 SHL PUSH1 0x44 DUP3 ADD MSTORE PUSH1 0x64 ADD PUSH2 0x9DB JUMP JUMPDEST PUSH1 0x2 DUP2 PUSH1 0x4 DUP2 GT ISZERO PUSH2 0x346B JUMPI PUSH4 0x4E487B71 PUSH1 0xE0 SHL PUSH1 0x0 MSTORE PUSH1 0x21 PUSH1 0x4 MSTORE PUSH1 0x24 PUSH1 0x0 REVERT JUMPDEST EQ ISZERO PUSH2 0x34B9 JUMPI PUSH1 0x40 MLOAD PUSH3 0x461BCD PUSH1 0xE5 SHL DUP2 MSTORE PUSH1 0x20 PUSH1 0x4 DUP3 ADD MSTORE PUSH1 0x1F PUSH1 0x24 DUP3 ADD MSTORE PUSH32 0x45434453413A20696E76616C6964207369676E6174757265206C656E67746800 PUSH1 0x44 DUP3 ADD MSTORE PUSH1 0x64 ADD PUSH2 0x9DB JUMP JUMPDEST PUSH1 0x3 DUP2 PUSH1 0x4 DUP2 GT ISZERO PUSH2 0x34DB JUMPI PUSH4 0x4E487B71 PUSH1 0xE0 SHL PUSH1 0x0 MSTORE PUSH1 0x21 PUSH1 0x4 MSTORE PUSH1 0x24 PUSH1 0x0 REVERT JUMPDEST EQ ISZERO PUSH2 0x10E4 JUMPI PUSH1 0x40 MLOAD PUSH3 0x461BCD PUSH1 0xE5 SHL DUP2 MSTORE PUSH1 0x20 PUSH1 0x4 DUP3 ADD MSTORE PUSH1 0x22 PUSH1 0x24 DUP3 ADD MSTORE PUSH32 0x45434453413A20696E76616C6964207369676E6174757265202773272076616C PUSH1 0x44 DUP3 ADD MSTORE PUSH2 0x7565 PUSH1 0xF0 SHL PUSH1 0x64 DUP3 ADD MSTORE PUSH1 0x84 ADD PUSH2 0x9DB JUMP JUMPDEST PUSH1 0x0 DUP1 PUSH1 0x80 DUP4 SWAP1 SHR ISZERO PUSH2 0x3549 JUMPI PUSH1 0x80 SWAP3 DUP4 SHR SWAP3 ADD JUMPDEST PUSH1 0x40 DUP4 SWAP1 SHR ISZERO PUSH2 0x355B JUMPI PUSH1 0x40 SWAP3 DUP4 SHR SWAP3 ADD JUMPDEST PUSH1 0x20 DUP4 SWAP1 SHR ISZERO PUSH2 0x356D JUMPI PUSH1 0x20 SWAP3 DUP4 SHR SWAP3 ADD JUMPDEST PUSH1 0x10 DUP4 SWAP1 SHR ISZERO PUSH2 0x357F JUMPI PUSH1 0x10 SWAP3 DUP4 SHR SWAP3 ADD JUMPDEST PUSH1 0x8 DUP4 SWAP1 SHR ISZERO PUSH2 0x3591 JUMPI PUSH1 0x8 SWAP3 DUP4 SHR SWAP3 ADD JUMPDEST PUSH1 0x4 DUP4 SWAP1 SHR ISZERO PUSH2 0x35A3 JUMPI PUSH1 0x4 SWAP3 DUP4 SHR SWAP3 ADD JUMPDEST PUSH1 0x2 DUP4 SWAP1 SHR ISZERO PUSH2 0x35B5 JUMPI PUSH1 0x2 SWAP3 DUP4 SHR SWAP3 ADD JUMPDEST PUSH1 0x1 DUP4 SWAP1 SHR ISZERO PUSH2 0xBD0 JUMPI PUSH1 0x1 ADD SWAP3 SWAP2 POP POP JUMP JUMPDEST PUSH1 0x0 DUP2 DUP4 LT PUSH2 0x35D7 JUMPI DUP2 PUSH2 0xEDE JUMP JUMPDEST POP SWAP1 SWAP2 SWAP1 POP JUMP JUMPDEST PUSH1 0x0 PUSH2 0x35E9 DUP4 PUSH2 0x3731 JUMP JUMPDEST PUSH2 0xFFFF DUP1 DUP8 AND PUSH1 0x0 SWAP1 DUP2 MSTORE PUSH1 0x2 PUSH1 0x20 SWAP1 DUP2 MSTORE PUSH1 0x40 DUP1 DUP4 KECCAK256 SWAP4 DUP10 AND DUP4 MSTORE SWAP3 SWAP1 MSTORE SWAP1 DUP2 KECCAK256 SLOAD SWAP2 SWAP3 POP SWAP1 PUSH2 0x361B SWAP1 DUP5 SWAP1 PUSH2 0x43EF JUMP JUMPDEST SWAP1 POP PUSH1 0x0 DUP2 GT PUSH2 0x366A JUMPI PUSH1 0x40 MLOAD PUSH3 0x461BCD PUSH1 0xE5 SHL DUP2 MSTORE PUSH1 0x20 PUSH1 0x4 DUP3 ADD MSTORE PUSH1 0x1A PUSH1 0x24 DUP3 ADD MSTORE PUSH26 0x131E905C1C0E881B5A5B91D85CD31A5B5A5D081B9BDD081CD95D PUSH1 0x32 SHL PUSH1 0x44 DUP3 ADD MSTORE PUSH1 0x64 ADD PUSH2 0x9DB JUMP JUMPDEST DUP1 DUP3 LT ISZERO PUSH2 0x11BB JUMPI PUSH1 0x40 MLOAD PUSH3 0x461BCD PUSH1 0xE5 SHL DUP2 MSTORE PUSH1 0x20 PUSH1 0x4 DUP3 ADD MSTORE PUSH1 0x1B PUSH1 0x24 DUP3 ADD MSTORE PUSH27 0x4C7A4170703A20676173206C696D697420697320746F6F206C6F77 PUSH1 0x28 SHL PUSH1 0x44 DUP3 ADD MSTORE PUSH1 0x64 ADD PUSH2 0x9DB JUMP JUMPDEST PUSH1 0x0 PUSH2 0x36C5 DUP3 PUSH1 0x14 PUSH2 0x43EF JUMP JUMPDEST DUP4 MLOAD LT ISZERO PUSH2 0x370D JUMPI PUSH1 0x40 MLOAD PUSH3 0x461BCD PUSH1 0xE5 SHL DUP2 MSTORE PUSH1 0x20 PUSH1 0x4 DUP3 ADD MSTORE PUSH1 0x15 PUSH1 0x24 DUP3 ADD MSTORE PUSH21 0x746F416464726573735F6F75744F66426F756E6473 PUSH1 0x58 SHL PUSH1 0x44 DUP3 ADD MSTORE PUSH1 0x64 ADD PUSH2 0x9DB JUMP JUMPDEST POP ADD PUSH1 0x20 ADD MLOAD PUSH1 0x1 PUSH1 0x60 SHL SWAP1 DIV SWAP1 JUMP JUMPDEST PUSH1 0x0 PUSH2 0x372A ADDRESS DUP5 DUP5 PUSH2 0x23B6 JUMP JUMPDEST POP SWAP3 SWAP2 POP POP JUMP JUMPDEST PUSH1 0x0 PUSH1 0x22 DUP3 MLOAD LT ISZERO PUSH2 0x3784 JUMPI PUSH1 0x40 MLOAD PUSH3 0x461BCD PUSH1 0xE5 SHL DUP2 MSTORE PUSH1 0x20 PUSH1 0x4 DUP3 ADD MSTORE PUSH1 0x1C PUSH1 0x24 DUP3 ADD MSTORE PUSH28 0x4C7A4170703A20696E76616C69642061646170746572506172616D73 PUSH1 0x20 SHL PUSH1 0x44 DUP3 ADD MSTORE PUSH1 0x64 ADD PUSH2 0x9DB JUMP JUMPDEST POP PUSH1 0x22 ADD MLOAD SWAP1 JUMP JUMPDEST DUP3 DUP1 SLOAD PUSH2 0x3798 SWAP1 PUSH2 0x446A JUMP JUMPDEST SWAP1 PUSH1 0x0 MSTORE PUSH1 0x20 PUSH1 0x0 KECCAK256 SWAP1 PUSH1 0x1F ADD PUSH1 0x20 SWAP1 DIV DUP2 ADD SWAP3 DUP3 PUSH2 0x37BA JUMPI PUSH1 0x0 DUP6 SSTORE PUSH2 0x3800 JUMP JUMPDEST DUP3 PUSH1 0x1F LT PUSH2 0x37D3 JUMPI DUP1 MLOAD PUSH1 0xFF NOT AND DUP4 DUP1 ADD OR DUP6 SSTORE PUSH2 0x3800 JUMP JUMPDEST DUP3 DUP1 ADD PUSH1 0x1 ADD DUP6 SSTORE DUP3 ISZERO PUSH2 0x3800 JUMPI SWAP2 DUP3 ADD JUMPDEST DUP3 DUP2 GT ISZERO PUSH2 0x3800 JUMPI DUP3 MLOAD DUP3 SSTORE SWAP2 PUSH1 0x20 ADD SWAP2 SWAP1 PUSH1 0x1 ADD SWAP1 PUSH2 0x37E5 JUMP JUMPDEST POP PUSH2 0x207C SWAP3 SWAP2 POP PUSH2 0x3880 JUMP JUMPDEST DUP3 DUP1 SLOAD PUSH2 0x3818 SWAP1 PUSH2 0x446A JUMP JUMPDEST SWAP1 PUSH1 0x0 MSTORE PUSH1 0x20 PUSH1 0x0 KECCAK256 SWAP1 PUSH1 0x1F ADD PUSH1 0x20 SWAP1 DIV DUP2 ADD SWAP3 DUP3 PUSH2 0x383A JUMPI PUSH1 0x0 DUP6 SSTORE PUSH2 0x3800 JUMP JUMPDEST DUP3 PUSH1 0x1F LT PUSH2 0x3853 JUMPI DUP3 DUP1 ADD PUSH1 0xFF NOT DUP3 CALLDATALOAD AND OR DUP6 SSTORE PUSH2 0x3800 JUMP JUMPDEST DUP3 DUP1 ADD PUSH1 0x1 ADD DUP6 SSTORE DUP3 ISZERO PUSH2 0x3800 JUMPI SWAP2 DUP3 ADD JUMPDEST DUP3 DUP2 GT ISZERO PUSH2 0x3800 JUMPI DUP3 CALLDATALOAD DUP3 SSTORE SWAP2 PUSH1 0x20 ADD SWAP2 SWAP1 PUSH1 0x1 ADD SWAP1 PUSH2 0x3865 JUMP JUMPDEST JUMPDEST DUP1 DUP3 GT ISZERO PUSH2 0x207C JUMPI PUSH1 0x0 DUP2 SSTORE PUSH1 0x1 ADD PUSH2 0x3881 JUMP JUMPDEST DUP1 CALLDATALOAD DUP1 ISZERO ISZERO DUP2 EQ PUSH2 0xBD3 JUMPI PUSH1 0x0 DUP1 REVERT JUMPDEST PUSH1 0x0 DUP1 DUP4 PUSH1 0x1F DUP5 ADD SLT PUSH2 0x38B6 JUMPI DUP2 DUP3 REVERT JUMPDEST POP DUP2 CALLDATALOAD PUSH1 0x1 PUSH1 0x1 PUSH1 0x40 SHL SUB DUP2 GT ISZERO PUSH2 0x38CC JUMPI DUP2 DUP3 REVERT JUMPDEST PUSH1 0x20 DUP4 ADD SWAP2 POP DUP4 PUSH1 0x20 DUP3 DUP6 ADD ADD GT ISZERO PUSH2 0x38E4 JUMPI PUSH1 0x0 DUP1 REVERT JUMPDEST SWAP3 POP SWAP3 SWAP1 POP JUMP JUMPDEST PUSH1 0x0 DUP3 PUSH1 0x1F DUP4 ADD SLT PUSH2 0x38FB JUMPI DUP1 DUP2 REVERT JUMPDEST DUP2 MLOAD PUSH2 0x390E PUSH2 0x3909 DUP3 PUSH2 0x43C8 JUMP JUMPDEST PUSH2 0x4398 JUMP JUMPDEST DUP2 DUP2 MSTORE DUP5 PUSH1 0x20 DUP4 DUP7 ADD ADD GT ISZERO PUSH2 0x3922 JUMPI DUP3 DUP4 REVERT JUMPDEST PUSH2 0x3933 DUP3 PUSH1 0x20 DUP4 ADD PUSH1 0x20 DUP8 ADD PUSH2 0x443E JUMP JUMPDEST SWAP5 SWAP4 POP POP POP POP JUMP JUMPDEST DUP1 CALLDATALOAD PUSH1 0x1 PUSH1 0x1 PUSH1 0x40 SHL SUB DUP2 AND DUP2 EQ PUSH2 0xBD3 JUMPI PUSH1 0x0 DUP1 REVERT JUMPDEST DUP1 CALLDATALOAD PUSH1 0xFF DUP2 AND DUP2 EQ PUSH2 0xBD3 JUMPI PUSH1 0x0 DUP1 REVERT JUMPDEST PUSH1 0x0 PUSH1 0x20 DUP3 DUP5 SUB SLT ISZERO PUSH2 0x3974 JUMPI DUP1 DUP2 REVERT JUMPDEST DUP2 CALLDATALOAD PUSH2 0xEDE DUP2 PUSH2 0x44CB JUMP JUMPDEST PUSH1 0x0 DUP1 PUSH1 0x40 DUP4 DUP6 SUB SLT ISZERO PUSH2 0x3991 JUMPI DUP1 DUP2 REVERT JUMPDEST DUP3 CALLDATALOAD PUSH2 0x399C DUP2 PUSH2 0x44CB JUMP JUMPDEST SWAP2 POP PUSH1 0x20 DUP4 ADD CALLDATALOAD PUSH2 0x39AC DUP2 PUSH2 0x44CB JUMP JUMPDEST DUP1 SWAP2 POP POP SWAP3 POP SWAP3 SWAP1 POP JUMP JUMPDEST PUSH1 0x0 DUP1 PUSH1 0x0 PUSH1 0x60 DUP5 DUP7 SUB SLT ISZERO PUSH2 0x39CB JUMPI DUP1 DUP2 REVERT JUMPDEST DUP4 CALLDATALOAD PUSH2 0x39D6 DUP2 PUSH2 0x44CB JUMP JUMPDEST SWAP3 POP PUSH1 0x20 DUP5 ADD CALLDATALOAD PUSH2 0x39E6 DUP2 PUSH2 0x44CB JUMP JUMPDEST SWAP3 SWAP6 SWAP3 SWAP5 POP POP POP PUSH1 0x40 SWAP2 SWAP1 SWAP2 ADD CALLDATALOAD SWAP1 JUMP JUMPDEST PUSH1 0x0 DUP1 PUSH1 0x0 DUP1 PUSH1 0x0 DUP1 PUSH1 0x0 PUSH1 0xE0 DUP9 DUP11 SUB SLT ISZERO PUSH2 0x3A11 JUMPI DUP3 DUP4 REVERT JUMPDEST DUP8 CALLDATALOAD PUSH2 0x3A1C DUP2 PUSH2 0x44CB JUMP JUMPDEST SWAP7 POP PUSH1 0x20 DUP9 ADD CALLDATALOAD PUSH2 0x3A2C DUP2 PUSH2 0x44CB JUMP JUMPDEST SWAP6 POP PUSH1 0x40 DUP9 ADD CALLDATALOAD SWAP5 POP PUSH1 0x60 DUP9 ADD CALLDATALOAD SWAP4 POP PUSH2 0x3A48 PUSH1 0x80 DUP10 ADD PUSH2 0x3952 JUMP JUMPDEST SWAP3 POP PUSH1 0xA0 DUP9 ADD CALLDATALOAD SWAP2 POP PUSH1 0xC0 DUP9 ADD CALLDATALOAD SWAP1 POP SWAP3 SWAP6 SWAP9 SWAP2 SWAP5 SWAP8 POP SWAP3 SWAP6 POP JUMP JUMPDEST PUSH1 0x0 DUP1 PUSH1 0x0 DUP1 PUSH1 0x0 DUP1 PUSH1 0x0 DUP1 PUSH1 0x0 PUSH1 0xE0 DUP11 DUP13 SUB SLT ISZERO PUSH2 0x3A81 JUMPI DUP2 DUP3 REVERT JUMPDEST DUP10 CALLDATALOAD PUSH2 0x3A8C DUP2 PUSH2 0x44CB JUMP JUMPDEST SWAP9 POP PUSH1 0x20 DUP11 ADD CALLDATALOAD PUSH2 0x3A9C DUP2 PUSH2 0x44E0 JUMP JUMPDEST SWAP8 POP PUSH1 0x40 DUP11 ADD CALLDATALOAD PUSH1 0x1 PUSH1 0x1 PUSH1 0x40 SHL SUB DUP1 DUP3 GT ISZERO PUSH2 0x3AB7 JUMPI DUP4 DUP5 REVERT JUMPDEST PUSH2 0x3AC3 DUP14 DUP4 DUP15 ADD PUSH2 0x38A5 JUMP JUMPDEST SWAP1 SWAP10 POP SWAP8 POP PUSH1 0x60 DUP13 ADD CALLDATALOAD SWAP7 POP PUSH1 0x80 DUP13 ADD CALLDATALOAD SWAP2 POP PUSH2 0x3ADF DUP3 PUSH2 0x44CB JUMP JUMPDEST SWAP1 SWAP5 POP PUSH1 0xA0 DUP12 ADD CALLDATALOAD SWAP1 PUSH2 0x3AF1 DUP3 PUSH2 0x44CB JUMP JUMPDEST SWAP1 SWAP4 POP PUSH1 0xC0 DUP12 ADD CALLDATALOAD SWAP1 DUP1 DUP3 GT ISZERO PUSH2 0x3B06 JUMPI DUP4 DUP5 REVERT JUMPDEST POP PUSH2 0x3B13 DUP13 DUP3 DUP14 ADD PUSH2 0x38A5 JUMP JUMPDEST SWAP2 POP DUP1 SWAP4 POP POP DUP1 SWAP2 POP POP SWAP3 SWAP6 SWAP9 POP SWAP3 SWAP6 SWAP9 POP SWAP3 SWAP6 SWAP9 JUMP JUMPDEST PUSH1 0x0 DUP1 PUSH1 0x40 DUP4 DUP6 SUB SLT ISZERO PUSH2 0x3B3C JUMPI DUP2 DUP3 REVERT JUMPDEST DUP3 CALLDATALOAD PUSH2 0x3B47 DUP2 PUSH2 0x44CB JUMP JUMPDEST SWAP5 PUSH1 0x20 SWAP4 SWAP1 SWAP4 ADD CALLDATALOAD SWAP4 POP POP POP JUMP JUMPDEST PUSH1 0x0 DUP1 PUSH1 0x0 DUP1 PUSH1 0x0 DUP1 PUSH1 0xC0 DUP8 DUP10 SUB SLT ISZERO PUSH2 0x3B6D JUMPI DUP4 DUP5 REVERT JUMPDEST DUP7 CALLDATALOAD PUSH2 0x3B78 DUP2 PUSH2 0x44CB JUMP JUMPDEST SWAP6 POP PUSH1 0x20 DUP8 ADD CALLDATALOAD SWAP5 POP PUSH1 0x40 DUP8 ADD CALLDATALOAD SWAP4 POP PUSH2 0x3B94 PUSH1 0x60 DUP9 ADD PUSH2 0x3952 JUMP JUMPDEST SWAP3 POP PUSH1 0x80 DUP8 ADD CALLDATALOAD SWAP2 POP PUSH1 0xA0 DUP8 ADD CALLDATALOAD SWAP1 POP SWAP3 SWAP6 POP SWAP3 SWAP6 POP SWAP3 SWAP6 JUMP JUMPDEST PUSH1 0x0 DUP1 PUSH1 0x40 DUP4 DUP6 SUB SLT ISZERO PUSH2 0x3BC0 JUMPI DUP2 DUP3 REVERT JUMPDEST DUP3 CALLDATALOAD PUSH2 0x3BCB DUP2 PUSH2 0x44CB JUMP JUMPDEST SWAP2 POP PUSH1 0x20 DUP4 ADD CALLDATALOAD PUSH4 0xFFFFFFFF DUP2 AND DUP2 EQ PUSH2 0x39AC JUMPI DUP2 DUP3 REVERT JUMPDEST PUSH1 0x0 PUSH1 0x20 DUP3 DUP5 SUB SLT ISZERO PUSH2 0x3BF4 JUMPI DUP1 DUP2 REVERT JUMPDEST PUSH2 0xEDE DUP3 PUSH2 0x3895 JUMP JUMPDEST PUSH1 0x0 PUSH1 0x20 DUP3 DUP5 SUB SLT ISZERO PUSH2 0x3C0E JUMPI DUP1 DUP2 REVERT JUMPDEST DUP2 CALLDATALOAD PUSH1 0x1 PUSH1 0x1 PUSH1 0xE0 SHL SUB NOT DUP2 AND DUP2 EQ PUSH2 0xEDE JUMPI DUP2 DUP3 REVERT JUMPDEST PUSH1 0x0 PUSH1 0x20 DUP3 DUP5 SUB SLT ISZERO PUSH2 0x3C36 JUMPI DUP1 DUP2 REVERT JUMPDEST DUP2 MLOAD PUSH1 0x1 PUSH1 0x1 PUSH1 0x40 SHL SUB DUP2 GT ISZERO PUSH2 0x3C4B JUMPI DUP2 DUP3 REVERT JUMPDEST PUSH2 0x3933 DUP5 DUP3 DUP6 ADD PUSH2 0x38EB JUMP JUMPDEST PUSH1 0x0 PUSH1 0x20 DUP3 DUP5 SUB SLT ISZERO PUSH2 0x3C68 JUMPI DUP1 DUP2 REVERT JUMPDEST DUP2 CALLDATALOAD PUSH2 0xEDE DUP2 PUSH2 0x44E0 JUMP JUMPDEST PUSH1 0x0 DUP1 PUSH1 0x0 PUSH1 0x40 DUP5 DUP7 SUB SLT ISZERO PUSH2 0x3C87 JUMPI DUP1 DUP2 REVERT JUMPDEST DUP4 CALLDATALOAD PUSH2 0x3C92 DUP2 PUSH2 0x44E0 JUMP JUMPDEST SWAP3 POP PUSH1 0x20 DUP5 ADD CALLDATALOAD PUSH1 0x1 PUSH1 0x1 PUSH1 0x40 SHL SUB DUP2 GT ISZERO PUSH2 0x3CAC JUMPI DUP2 DUP3 REVERT JUMPDEST PUSH2 0x3CB8 DUP7 DUP3 DUP8 ADD PUSH2 0x38A5 JUMP JUMPDEST SWAP5 SWAP8 SWAP1 SWAP7 POP SWAP4 SWAP5 POP POP POP POP JUMP JUMPDEST PUSH1 0x0 DUP1 PUSH1 0x0 DUP1 PUSH1 0x0 DUP1 PUSH1 0x0 PUSH1 0xA0 DUP9 DUP11 SUB SLT ISZERO PUSH2 0x3CDF JUMPI DUP1 DUP2 REVERT JUMPDEST DUP8 CALLDATALOAD PUSH2 0x3CEA DUP2 PUSH2 0x44E0 JUMP JUMPDEST SWAP7 POP PUSH1 0x20 DUP9 ADD CALLDATALOAD PUSH1 0x1 PUSH1 0x1 PUSH1 0x40 SHL SUB DUP1 DUP3 GT ISZERO PUSH2 0x3D05 JUMPI DUP3 DUP4 REVERT JUMPDEST PUSH2 0x3D11 DUP12 DUP4 DUP13 ADD PUSH2 0x38A5 JUMP JUMPDEST SWAP1 SWAP9 POP SWAP7 POP PUSH1 0x40 DUP11 ADD CALLDATALOAD SWAP6 POP DUP7 SWAP2 POP PUSH2 0x3D2C PUSH1 0x60 DUP12 ADD PUSH2 0x3895 JUMP JUMPDEST SWAP5 POP PUSH1 0x80 DUP11 ADD CALLDATALOAD SWAP2 POP DUP1 DUP3 GT ISZERO PUSH2 0x3D41 JUMPI DUP3 DUP4 REVERT JUMPDEST POP PUSH2 0x3D4E DUP11 DUP3 DUP12 ADD PUSH2 0x38A5 JUMP JUMPDEST SWAP9 SWAP12 SWAP8 SWAP11 POP SWAP6 SWAP9 POP SWAP4 SWAP7 SWAP3 SWAP6 SWAP3 SWAP4 POP POP POP JUMP JUMPDEST PUSH1 0x0 DUP1 PUSH1 0x0 DUP1 PUSH1 0x0 DUP1 PUSH1 0x80 DUP8 DUP10 SUB SLT ISZERO PUSH2 0x3D79 JUMPI DUP4 DUP5 REVERT JUMPDEST DUP7 CALLDATALOAD PUSH2 0x3D84 DUP2 PUSH2 0x44E0 JUMP JUMPDEST SWAP6 POP PUSH1 0x20 DUP8 ADD CALLDATALOAD PUSH1 0x1 PUSH1 0x1 PUSH1 0x40 SHL SUB DUP1 DUP3 GT ISZERO PUSH2 0x3D9F JUMPI DUP6 DUP7 REVERT JUMPDEST PUSH2 0x3DAB DUP11 DUP4 DUP12 ADD PUSH2 0x38A5 JUMP JUMPDEST SWAP1 SWAP8 POP SWAP6 POP DUP6 SWAP2 POP PUSH2 0x3DBF PUSH1 0x40 DUP11 ADD PUSH2 0x393B JUMP JUMPDEST SWAP5 POP PUSH1 0x60 DUP10 ADD CALLDATALOAD SWAP2 POP DUP1 DUP3 GT ISZERO PUSH2 0x3DD4 JUMPI DUP4 DUP5 REVERT JUMPDEST POP PUSH2 0x3DE1 DUP10 DUP3 DUP11 ADD PUSH2 0x38A5 JUMP JUMPDEST SWAP8 SWAP11 SWAP7 SWAP10 POP SWAP5 SWAP8 POP SWAP3 SWAP6 SWAP4 SWAP5 SWAP3 POP POP POP JUMP JUMPDEST PUSH1 0x0 DUP1 PUSH1 0x0 PUSH1 0x60 DUP5 DUP7 SUB SLT ISZERO PUSH2 0x3E07 JUMPI DUP1 DUP2 REVERT JUMPDEST DUP4 MLOAD PUSH2 0x3E12 DUP2 PUSH2 0x44E0 JUMP JUMPDEST PUSH1 0x20 DUP6 ADD MLOAD SWAP1 SWAP4 POP PUSH1 0x1 PUSH1 0x1 PUSH1 0x40 SHL SUB DUP2 GT ISZERO PUSH2 0x3E2D JUMPI DUP2 DUP3 REVERT JUMPDEST PUSH2 0x3E39 DUP7 DUP3 DUP8 ADD PUSH2 0x38EB JUMP JUMPDEST SWAP3 POP POP PUSH1 0x40 DUP5 ADD MLOAD SWAP1 POP SWAP3 POP SWAP3 POP SWAP3 JUMP JUMPDEST PUSH1 0x0 DUP1 PUSH1 0x0 PUSH1 0x60 DUP5 DUP7 SUB SLT ISZERO PUSH2 0x3E5E JUMPI DUP1 DUP2 REVERT JUMPDEST DUP4 CALLDATALOAD PUSH2 0x3E69 DUP2 PUSH2 0x44E0 JUMP JUMPDEST SWAP3 POP PUSH1 0x20 DUP5 ADD CALLDATALOAD PUSH1 0x1 PUSH1 0x1 PUSH1 0x40 SHL SUB DUP2 GT ISZERO PUSH2 0x3E83 JUMPI DUP2 DUP3 REVERT JUMPDEST DUP5 ADD PUSH1 0x1F DUP2 ADD DUP7 SGT PUSH2 0x3E93 JUMPI DUP2 DUP3 REVERT JUMPDEST DUP1 CALLDATALOAD PUSH2 0x3EA1 PUSH2 0x3909 DUP3 PUSH2 0x43C8 JUMP JUMPDEST DUP2 DUP2 MSTORE DUP8 PUSH1 0x20 DUP4 DUP6 ADD ADD GT ISZERO PUSH2 0x3EB5 JUMPI DUP4 DUP5 REVERT JUMPDEST DUP2 PUSH1 0x20 DUP5 ADD PUSH1 0x20 DUP4 ADD CALLDATACOPY SWAP1 DUP2 ADD PUSH1 0x20 ADD DUP4 SWAP1 MSTORE SWAP3 POP PUSH2 0x3ED8 SWAP1 POP PUSH1 0x40 DUP6 ADD PUSH2 0x393B JUMP JUMPDEST SWAP1 POP SWAP3 POP SWAP3 POP SWAP3 JUMP JUMPDEST PUSH1 0x0 DUP1 PUSH1 0x40 DUP4 DUP6 SUB SLT ISZERO PUSH2 0x3EF3 JUMPI DUP2 DUP3 REVERT JUMPDEST DUP3 CALLDATALOAD PUSH2 0x3EFE DUP2 PUSH2 0x44E0 JUMP JUMPDEST SWAP2 POP PUSH1 0x20 DUP4 ADD CALLDATALOAD PUSH2 0x39AC DUP2 PUSH2 0x44E0 JUMP JUMPDEST PUSH1 0x0 DUP1 PUSH1 0x0 DUP1 PUSH1 0x80 DUP6 DUP8 SUB SLT ISZERO PUSH2 0x3F23 JUMPI DUP2 DUP3 REVERT JUMPDEST DUP5 CALLDATALOAD PUSH2 0x3F2E DUP2 PUSH2 0x44E0 JUMP JUMPDEST SWAP4 POP PUSH1 0x20 DUP6 ADD CALLDATALOAD PUSH2 0x3F3E DUP2 PUSH2 0x44E0 JUMP JUMPDEST SWAP3 POP PUSH1 0x40 DUP6 ADD CALLDATALOAD PUSH2 0x3F4E DUP2 PUSH2 0x44CB JUMP JUMPDEST SWAP4 SWAP7 SWAP3 SWAP6 POP SWAP3 SWAP4 PUSH1 0x60 ADD CALLDATALOAD SWAP3 POP POP JUMP JUMPDEST PUSH1 0x0 DUP1 PUSH1 0x0 PUSH1 0x60 DUP5 DUP7 SUB SLT ISZERO PUSH2 0x3F72 JUMPI DUP1 DUP2 REVERT JUMPDEST DUP4 CALLDATALOAD PUSH2 0x3F7D DUP2 PUSH2 0x44E0 JUMP JUMPDEST SWAP3 POP PUSH1 0x20 DUP5 ADD CALLDATALOAD PUSH2 0x39E6 DUP2 PUSH2 0x44E0 JUMP JUMPDEST PUSH1 0x0 DUP1 PUSH1 0x0 DUP1 PUSH1 0x0 PUSH1 0x80 DUP7 DUP9 SUB SLT ISZERO PUSH2 0x3FA4 JUMPI DUP3 DUP4 REVERT JUMPDEST DUP6 CALLDATALOAD PUSH2 0x3FAF DUP2 PUSH2 0x44E0 JUMP JUMPDEST SWAP5 POP PUSH1 0x20 DUP7 ADD CALLDATALOAD PUSH2 0x3FBF DUP2 PUSH2 0x44E0 JUMP JUMPDEST SWAP4 POP PUSH1 0x40 DUP7 ADD CALLDATALOAD SWAP3 POP PUSH1 0x60 DUP7 ADD CALLDATALOAD PUSH1 0x1 PUSH1 0x1 PUSH1 0x40 SHL SUB DUP2 GT ISZERO PUSH2 0x3FE0 JUMPI DUP2 DUP3 REVERT JUMPDEST PUSH2 0x3FEC DUP9 DUP3 DUP10 ADD PUSH2 0x38A5 JUMP JUMPDEST SWAP7 SWAP10 SWAP6 SWAP9 POP SWAP4 SWAP7 POP SWAP3 SWAP5 SWAP4 SWAP3 POP POP POP JUMP JUMPDEST PUSH1 0x0 PUSH1 0x20 DUP3 DUP5 SUB SLT ISZERO PUSH2 0x400E JUMPI DUP1 DUP2 REVERT JUMPDEST POP CALLDATALOAD SWAP2 SWAP1 POP JUMP JUMPDEST PUSH1 0x0 DUP1 PUSH1 0x40 DUP4 DUP6 SUB SLT ISZERO PUSH2 0x4027 JUMPI DUP2 DUP3 REVERT JUMPDEST POP POP DUP1 MLOAD PUSH1 0x20 SWAP1 SWAP2 ADD MLOAD SWAP1 SWAP3 SWAP1 SWAP2 POP JUMP JUMPDEST PUSH1 0x0 DUP3 DUP5 MSTORE DUP3 DUP3 PUSH1 0x20 DUP7 ADD CALLDATACOPY DUP1 PUSH1 0x20 DUP5 DUP7 ADD ADD MSTORE PUSH1 0x20 PUSH1 0x1F NOT PUSH1 0x1F DUP6 ADD AND DUP6 ADD ADD SWAP1 POP SWAP4 SWAP3 POP POP POP JUMP JUMPDEST PUSH1 0x0 DUP2 MLOAD DUP1 DUP5 MSTORE PUSH2 0x407A DUP2 PUSH1 0x20 DUP7 ADD PUSH1 0x20 DUP7 ADD PUSH2 0x443E JUMP JUMPDEST PUSH1 0x1F ADD PUSH1 0x1F NOT AND SWAP3 SWAP1 SWAP3 ADD PUSH1 0x20 ADD SWAP3 SWAP2 POP POP JUMP JUMPDEST PUSH1 0x0 DUP3 DUP5 DUP4 CALLDATACOPY SWAP2 ADD SWAP1 DUP2 MSTORE SWAP2 SWAP1 POP JUMP JUMPDEST PUSH1 0x0 DUP4 DUP6 DUP4 CALLDATACOPY POP PUSH1 0x60 SWAP2 SWAP1 SWAP2 SHL PUSH1 0x1 PUSH1 0x1 PUSH1 0x60 SHL SUB NOT AND SWAP2 ADD SWAP1 DUP2 MSTORE PUSH1 0x14 ADD SWAP2 SWAP1 POP JUMP JUMPDEST PUSH1 0x0 DUP3 MLOAD PUSH2 0x40D4 DUP2 DUP5 PUSH1 0x20 DUP8 ADD PUSH2 0x443E JUMP JUMPDEST SWAP2 SWAP1 SWAP2 ADD SWAP3 SWAP2 POP POP JUMP JUMPDEST PUSH1 0x1 PUSH1 0x1 PUSH1 0xA0 SHL SUB SWAP2 SWAP1 SWAP2 AND DUP2 MSTORE PUSH1 0x20 ADD SWAP1 JUMP JUMPDEST PUSH1 0x0 PUSH1 0x20 DUP3 MSTORE PUSH2 0xEDE PUSH1 0x20 DUP4 ADD DUP5 PUSH2 0x4062 JUMP JUMPDEST PUSH1 0x0 PUSH1 0x40 DUP3 MSTORE PUSH2 0x4118 PUSH1 0x40 DUP4 ADD DUP6 PUSH2 0x4062 JUMP JUMPDEST SWAP1 POP DUP3 PUSH1 0x20 DUP4 ADD MSTORE SWAP4 SWAP3 POP POP POP JUMP JUMPDEST PUSH1 0x20 DUP1 DUP3 MSTORE PUSH1 0x1F SWAP1 DUP3 ADD MSTORE PUSH32 0x4552433230566F7465733A20626C6F636B206E6F7420796574206D696E656400 PUSH1 0x40 DUP3 ADD MSTORE PUSH1 0x60 ADD SWAP1 JUMP JUMPDEST PUSH2 0xFFFF DUP8 AND DUP2 MSTORE PUSH1 0x1 PUSH1 0x1 PUSH1 0xA0 SHL SUB DUP7 AND PUSH1 0x20 DUP3 ADD MSTORE PUSH1 0xA0 PUSH1 0x40 DUP3 ADD DUP2 SWAP1 MSTORE PUSH1 0x0 SWAP1 PUSH2 0x418C SWAP1 DUP4 ADD DUP8 PUSH2 0x4062 JUMP JUMPDEST DUP6 ISZERO ISZERO PUSH1 0x60 DUP5 ADD MSTORE DUP3 DUP2 SUB PUSH1 0x80 DUP5 ADD MSTORE PUSH2 0x41A7 DUP2 DUP6 DUP8 PUSH2 0x4038 JUMP JUMPDEST SWAP10 SWAP9 POP POP POP POP POP POP POP POP POP JUMP JUMPDEST PUSH1 0x0 PUSH2 0xFFFF DUP6 AND DUP3 MSTORE PUSH1 0x40 PUSH1 0x20 DUP4 ADD MSTORE PUSH2 0x1EB3 PUSH1 0x40 DUP4 ADD DUP5 DUP7 PUSH2 0x4038 JUMP JUMPDEST PUSH1 0x0 PUSH2 0xFFFF DUP7 AND DUP3 MSTORE PUSH1 0x60 PUSH1 0x20 DUP4 ADD MSTORE PUSH2 0x41F0 PUSH1 0x60 DUP4 ADD DUP6 DUP8 PUSH2 0x4038 JUMP JUMPDEST SWAP1 POP DUP3 PUSH1 0x40 DUP4 ADD MSTORE SWAP6 SWAP5 POP POP POP POP POP JUMP JUMPDEST PUSH1 0x0 PUSH2 0xFFFF DUP8 AND DUP3 MSTORE PUSH1 0x80 PUSH1 0x20 DUP4 ADD MSTORE PUSH2 0x421F PUSH1 0x80 DUP4 ADD DUP7 DUP9 PUSH2 0x4038 JUMP JUMPDEST PUSH1 0x1 PUSH1 0x1 PUSH1 0x40 SHL SUB SWAP5 SWAP1 SWAP5 AND PUSH1 0x40 DUP4 ADD MSTORE POP PUSH1 0x60 ADD MSTORE SWAP4 SWAP3 POP POP POP JUMP JUMPDEST PUSH1 0x0 PUSH2 0xFFFF DUP9 AND DUP3 MSTORE PUSH1 0xC0 PUSH1 0x20 DUP4 ADD MSTORE PUSH2 0x4259 PUSH1 0xC0 DUP4 ADD DUP9 PUSH2 0x4062 JUMP JUMPDEST DUP3 DUP2 SUB PUSH1 0x40 DUP5 ADD MSTORE PUSH2 0x426B DUP2 DUP9 PUSH2 0x4062 JUMP JUMPDEST PUSH1 0x1 PUSH1 0x1 PUSH1 0xA0 SHL SUB DUP8 DUP2 AND PUSH1 0x60 DUP7 ADD MSTORE DUP7 AND PUSH1 0x80 DUP6 ADD MSTORE DUP4 DUP2 SUB PUSH1 0xA0 DUP6 ADD MSTORE SWAP1 POP PUSH2 0x41A7 DUP2 DUP6 PUSH2 0x4062 JUMP JUMPDEST PUSH1 0x0 PUSH2 0xFFFF DUP6 AND DUP3 MSTORE PUSH1 0x60 PUSH1 0x20 DUP4 ADD MSTORE PUSH2 0x42B3 PUSH1 0x60 DUP4 ADD DUP6 PUSH2 0x4062 JUMP JUMPDEST SWAP1 POP DUP3 PUSH1 0x40 DUP4 ADD MSTORE SWAP5 SWAP4 POP POP POP POP JUMP JUMPDEST PUSH1 0x0 PUSH2 0xFFFF DUP7 AND DUP3 MSTORE PUSH1 0x80 PUSH1 0x20 DUP4 ADD MSTORE PUSH2 0x42E0 PUSH1 0x80 DUP4 ADD DUP7 PUSH2 0x4062 JUMP JUMPDEST PUSH1 0x1 PUSH1 0x1 PUSH1 0x40 SHL SUB DUP6 AND PUSH1 0x40 DUP5 ADD MSTORE DUP3 DUP2 SUB PUSH1 0x60 DUP5 ADD MSTORE PUSH2 0x4301 DUP2 DUP6 PUSH2 0x4062 JUMP JUMPDEST SWAP8 SWAP7 POP POP POP POP POP POP POP JUMP JUMPDEST PUSH1 0x0 PUSH2 0xFFFF DUP8 AND DUP3 MSTORE PUSH1 0xA0 PUSH1 0x20 DUP4 ADD MSTORE PUSH2 0x4329 PUSH1 0xA0 DUP4 ADD DUP8 PUSH2 0x4062 JUMP JUMPDEST PUSH1 0x1 PUSH1 0x1 PUSH1 0x40 SHL SUB DUP7 AND PUSH1 0x40 DUP5 ADD MSTORE DUP3 DUP2 SUB PUSH1 0x60 DUP5 ADD MSTORE PUSH2 0x434A DUP2 DUP7 PUSH2 0x4062 JUMP JUMPDEST SWAP1 POP DUP3 DUP2 SUB PUSH1 0x80 DUP5 ADD MSTORE PUSH2 0x435E DUP2 DUP6 PUSH2 0x4062 JUMP JUMPDEST SWAP9 SWAP8 POP POP POP POP POP POP POP POP JUMP JUMPDEST PUSH1 0x0 PUSH2 0xFFFF DUP1 DUP9 AND DUP4 MSTORE DUP1 DUP8 AND PUSH1 0x20 DUP5 ADD MSTORE POP DUP5 PUSH1 0x40 DUP4 ADD MSTORE PUSH1 0x80 PUSH1 0x60 DUP4 ADD MSTORE PUSH2 0x4301 PUSH1 0x80 DUP4 ADD DUP5 DUP7 PUSH2 0x4038 JUMP JUMPDEST PUSH1 0x40 MLOAD PUSH1 0x1F DUP3 ADD PUSH1 0x1F NOT AND DUP2 ADD PUSH1 0x1 PUSH1 0x1 PUSH1 0x40 SHL SUB DUP2 GT DUP3 DUP3 LT OR ISZERO PUSH2 0x43C0 JUMPI PUSH2 0x43C0 PUSH2 0x44B5 JUMP JUMPDEST PUSH1 0x40 MSTORE SWAP2 SWAP1 POP JUMP JUMPDEST PUSH1 0x0 PUSH1 0x1 PUSH1 0x1 PUSH1 0x40 SHL SUB DUP3 GT ISZERO PUSH2 0x43E1 JUMPI PUSH2 0x43E1 PUSH2 0x44B5 JUMP JUMPDEST POP PUSH1 0x1F ADD PUSH1 0x1F NOT AND PUSH1 0x20 ADD SWAP1 JUMP JUMPDEST PUSH1 0x0 DUP3 NOT DUP3 GT ISZERO PUSH2 0x4402 JUMPI PUSH2 0x4402 PUSH2 0x449F JUMP JUMPDEST POP ADD SWAP1 JUMP JUMPDEST PUSH1 0x0 DUP3 PUSH2 0x4422 JUMPI PUSH4 0x4E487B71 PUSH1 0xE0 SHL DUP2 MSTORE PUSH1 0x12 PUSH1 0x4 MSTORE PUSH1 0x24 DUP2 REVERT JUMPDEST POP DIV SWAP1 JUMP JUMPDEST PUSH1 0x0 DUP3 DUP3 LT ISZERO PUSH2 0x4439 JUMPI PUSH2 0x4439 PUSH2 0x449F JUMP JUMPDEST POP SUB SWAP1 JUMP JUMPDEST PUSH1 0x0 JUMPDEST DUP4 DUP2 LT ISZERO PUSH2 0x4459 JUMPI DUP2 DUP2 ADD MLOAD DUP4 DUP3 ADD MSTORE PUSH1 0x20 ADD PUSH2 0x4441 JUMP JUMPDEST DUP4 DUP2 GT ISZERO PUSH2 0x1F46 JUMPI POP POP PUSH1 0x0 SWAP2 ADD MSTORE JUMP JUMPDEST PUSH1 0x2 DUP2 DIV PUSH1 0x1 DUP3 AND DUP1 PUSH2 0x447E JUMPI PUSH1 0x7F DUP3 AND SWAP2 POP JUMPDEST PUSH1 0x20 DUP3 LT DUP2 EQ ISZERO PUSH2 0x2AF8 JUMPI PUSH4 0x4E487B71 PUSH1 0xE0 SHL PUSH1 0x0 MSTORE PUSH1 0x22 PUSH1 0x4 MSTORE PUSH1 0x24 PUSH1 0x0 REVERT JUMPDEST PUSH4 0x4E487B71 PUSH1 0xE0 SHL PUSH1 0x0 MSTORE PUSH1 0x11 PUSH1 0x4 MSTORE PUSH1 0x24 PUSH1 0x0 REVERT JUMPDEST PUSH4 0x4E487B71 PUSH1 0xE0 SHL PUSH1 0x0 MSTORE PUSH1 0x41 PUSH1 0x4 MSTORE PUSH1 0x24 PUSH1 0x0 REVERT JUMPDEST PUSH1 0x1 PUSH1 0x1 PUSH1 0xA0 SHL SUB DUP2 AND DUP2 EQ PUSH2 0x10E4 JUMPI PUSH1 0x0 DUP1 REVERT JUMPDEST PUSH2 0xFFFF DUP2 AND DUP2 EQ PUSH2 0x10E4 JUMPI PUSH1 0x0 DUP1 REVERT INVALID 0xDD CALLCODE MSTORE 0xAD SHL 0xE2 0xC8 SWAP12 PUSH10 0xC2B068FC378DAA952BA7 CALL PUSH4 0xC4A11628 CREATE2 GAS 0x4D CREATE2 0x23 0xB3 0xEF 0xDE 0xC2 0xBA 0xCD 0xD2 CREATE JUMPDEST MSIZE 0xDE CALLVALUE 0xDA SWAP12 MSTORE RETURNDATASIZE SELFDESTRUCT DUP12 0xE4 0x2E 0x5E CODESIZE 0xE8 XOR 0xC8 0x2F 0xDB SIGNEXTEND 0xAE PUSH24 0x4387A724A2646970667358221220DA19D68088C60B885BBC CALLDATACOPY LOG2 0xF SWAP8 0xD2 0x4A 0xF6 REVERT SMOD PUSH2 0xE0F2 0xDB 0xB1 0xBF EXTCODECOPY SWAP4 0xFB 0xFC PUSH5 0xFF0F64736F PUSH13 0x63430008020033DEC2BACDD2F0 JUMPDEST MSIZE 0xDE CALLVALUE 0xDA SWAP12 MSTORE RETURNDATASIZE SELFDESTRUCT DUP12 0xE4 0x2E 0x5E CODESIZE 0xE8 XOR 0xC8 0x2F 0xDB SIGNEXTEND 0xAE PUSH24 0x4387A724A26469706673582212207ACDCC7D83AC6ACC63F5 PUSH15 0x12E699DBB2639C97B50CCA8F78E485 0xF9 INVALID CALLCODE 0xC9 CODECOPY CALLER PUSH5 0x736F6C6343 STOP ADDMOD MUL STOP CALLER "
		},
		"gasEstimates": {
			"creation": {
				"codeDepositCost": "7866600",
				"executionCost": "10385",
				"totalCost": "7876985"
			},
			"external": {
				"createBaseToken(string,string,uint256,address,address)": "infinite",
				"createOtherChainToken(string,string,address)": "infinite",
				"getAllBaseTokens()": "infinite",
				"getAllOtherChainTokens()": "infinite",
				"getBaseTokenById(uint256)": "infinite",
				"getOtherChainTokenById(uint256)": "infinite"
			}
		},
		"methodIdentifiers": {
			"createBaseToken(string,string,uint256,address,address)": "870c7591",
			"createOtherChainToken(string,string,address)": "4f93ea4b",
			"getAllBaseTokens()": "44bb1494",
			"getAllOtherChainTokens()": "6cb74648",
			"getBaseTokenById(uint256)": "1150bb1b",
			"getOtherChainTokenById(uint256)": "b275ad47"
		}
	},
	"abi": [
		{
			"anonymous": false,
			"inputs": [
				{
					"indexed": false,
					"internalType": "string",
					"name": "name",
					"type": "string"
				},
				{
					"indexed": false,
					"internalType": "string",
					"name": "symbol",
					"type": "string"
				},
				{
					"indexed": false,
					"internalType": "uint256",
					"name": "amount",
					"type": "uint256"
				}
			],
			"name": "NewBaseTokenCreated",
			"type": "event"
		},
		{
			"anonymous": false,
			"inputs": [
				{
					"indexed": false,
					"internalType": "string",
					"name": "name",
					"type": "string"
				},
				{
					"indexed": false,
					"internalType": "string",
					"name": "symbol",
					"type": "string"
				}
			],
			"name": "NewOtherChainTokenCreated",
			"type": "event"
		},
		{
			"inputs": [
				{
					"internalType": "string",
					"name": "name",
					"type": "string"
				},
				{
					"internalType": "string",
					"name": "symbol",
					"type": "string"
				},
				{
					"internalType": "uint256",
					"name": "initialSupply",
					"type": "uint256"
				},
				{
					"internalType": "address",
					"name": "beneficiary",
					"type": "address"
				},
				{
					"internalType": "address",
					"name": "lzEndpoint",
					"type": "address"
				}
			],
			"name": "createBaseToken",
			"outputs": [],
			"stateMutability": "nonpayable",
			"type": "function"
		},
		{
			"inputs": [
				{
					"internalType": "string",
					"name": "name",
					"type": "string"
				},
				{
					"internalType": "string",
					"name": "symbol",
					"type": "string"
				},
				{
					"internalType": "address",
					"name": "lzEndpoint",
					"type": "address"
				}
			],
			"name": "createOtherChainToken",
			"outputs": [],
			"stateMutability": "nonpayable",
			"type": "function"
		},
		{
			"inputs": [],
			"name": "getAllBaseTokens",
			"outputs": [
				{
					"components": [
						{
							"internalType": "uint256",
							"name": "id",
							"type": "uint256"
						},
						{
							"internalType": "string",
							"name": "projectName",
							"type": "string"
						},
						{
							"internalType": "string",
							"name": "symbol",
							"type": "string"
						},
						{
							"internalType": "uint256",
							"name": "initialSupply",
							"type": "uint256"
						},
						{
							"internalType": "address",
							"name": "tokenBeneficiary",
							"type": "address"
						},
						{
							"internalType": "address",
							"name": "contractAddress",
							"type": "address"
						}
					],
					"internalType": "struct TokenFactory.baseTokenMeta[]",
					"name": "props",
					"type": "tuple[]"
				}
			],
			"stateMutability": "view",
			"type": "function"
		},
		{
			"inputs": [],
			"name": "getAllOtherChainTokens",
			"outputs": [
				{
					"components": [
						{
							"internalType": "uint256",
							"name": "id",
							"type": "uint256"
						},
						{
							"internalType": "string",
							"name": "projectName",
							"type": "string"
						},
						{
							"internalType": "string",
							"name": "symbol",
							"type": "string"
						},
						{
							"internalType": "address",
							"name": "contractAddress",
							"type": "address"
						}
					],
					"internalType": "struct TokenFactory.otherTokenMeta[]",
					"name": "props",
					"type": "tuple[]"
				}
			],
			"stateMutability": "view",
			"type": "function"
		},
		{
			"inputs": [
				{
					"internalType": "uint256",
					"name": "tokenId",
					"type": "uint256"
				}
			],
			"name": "getBaseTokenById",
			"outputs": [
				{
					"components": [
						{
							"internalType": "uint256",
							"name": "id",
							"type": "uint256"
						},
						{
							"internalType": "string",
							"name": "projectName",
							"type": "string"
						},
						{
							"internalType": "string",
							"name": "symbol",
							"type": "string"
						},
						{
							"internalType": "uint256",
							"name": "initialSupply",
							"type": "uint256"
						},
						{
							"internalType": "address",
							"name": "tokenBeneficiary",
							"type": "address"
						},
						{
							"internalType": "address",
							"name": "contractAddress",
							"type": "address"
						}
					],
					"internalType": "struct TokenFactory.baseTokenMeta",
					"name": "",
					"type": "tuple"
				}
			],
			"stateMutability": "view",
			"type": "function"
		},
		{
			"inputs": [
				{
					"internalType": "uint256",
					"name": "tokenId",
					"type": "uint256"
				}
			],
			"name": "getOtherChainTokenById",
			"outputs": [
				{
					"components": [
						{
							"internalType": "uint256",
							"name": "id",
							"type": "uint256"
						},
						{
							"internalType": "string",
							"name": "projectName",
							"type": "string"
						},
						{
							"internalType": "string",
							"name": "symbol",
							"type": "string"
						},
						{
							"internalType": "address",
							"name": "contractAddress",
							"type": "address"
						}
					],
					"internalType": "struct TokenFactory.otherTokenMeta",
					"name": "",
					"type": "tuple"
				}
			],
			"stateMutability": "view",
			"type": "function"
		}
	]
}